{
	"contracts/WrappedBTN.sol": {
		"BTS20Pausable": {
			"abi": [
				{
					"anonymous": false,
					"inputs": [
						{
							"indexed": true,
							"internalType": "address",
							"name": "owner",
							"type": "address"
						},
						{
							"indexed": true,
							"internalType": "address",
							"name": "spender",
							"type": "address"
						},
						{
							"indexed": false,
							"internalType": "uint256",
							"name": "value",
							"type": "uint256"
						}
					],
					"name": "Approval",
					"type": "event"
				},
				{
					"anonymous": false,
					"inputs": [
						{
							"indexed": false,
							"internalType": "address",
							"name": "account",
							"type": "address"
						}
					],
					"name": "Paused",
					"type": "event"
				},
				{
					"anonymous": false,
					"inputs": [
						{
							"indexed": true,
							"internalType": "address",
							"name": "account",
							"type": "address"
						}
					],
					"name": "PauserAdded",
					"type": "event"
				},
				{
					"anonymous": false,
					"inputs": [
						{
							"indexed": true,
							"internalType": "address",
							"name": "account",
							"type": "address"
						}
					],
					"name": "PauserRemoved",
					"type": "event"
				},
				{
					"anonymous": false,
					"inputs": [
						{
							"indexed": true,
							"internalType": "address",
							"name": "from",
							"type": "address"
						},
						{
							"indexed": true,
							"internalType": "address",
							"name": "to",
							"type": "address"
						},
						{
							"indexed": false,
							"internalType": "uint256",
							"name": "value",
							"type": "uint256"
						}
					],
					"name": "Transfer",
					"type": "event"
				},
				{
					"anonymous": false,
					"inputs": [
						{
							"indexed": false,
							"internalType": "address",
							"name": "account",
							"type": "address"
						}
					],
					"name": "Unpaused",
					"type": "event"
				},
				{
					"constant": false,
					"inputs": [
						{
							"internalType": "address",
							"name": "account",
							"type": "address"
						}
					],
					"name": "addPauser",
					"outputs": [],
					"payable": false,
					"stateMutability": "nonpayable",
					"type": "function"
				},
				{
					"constant": true,
					"inputs": [
						{
							"internalType": "address",
							"name": "owner",
							"type": "address"
						},
						{
							"internalType": "address",
							"name": "spender",
							"type": "address"
						}
					],
					"name": "allowance",
					"outputs": [
						{
							"internalType": "uint256",
							"name": "",
							"type": "uint256"
						}
					],
					"payable": false,
					"stateMutability": "view",
					"type": "function"
				},
				{
					"constant": false,
					"inputs": [
						{
							"internalType": "address",
							"name": "spender",
							"type": "address"
						},
						{
							"internalType": "uint256",
							"name": "value",
							"type": "uint256"
						}
					],
					"name": "approve",
					"outputs": [
						{
							"internalType": "bool",
							"name": "",
							"type": "bool"
						}
					],
					"payable": false,
					"stateMutability": "nonpayable",
					"type": "function"
				},
				{
					"constant": true,
					"inputs": [
						{
							"internalType": "address",
							"name": "account",
							"type": "address"
						}
					],
					"name": "balanceOf",
					"outputs": [
						{
							"internalType": "uint256",
							"name": "",
							"type": "uint256"
						}
					],
					"payable": false,
					"stateMutability": "view",
					"type": "function"
				},
				{
					"constant": false,
					"inputs": [
						{
							"internalType": "address",
							"name": "spender",
							"type": "address"
						},
						{
							"internalType": "uint256",
							"name": "subtractedValue",
							"type": "uint256"
						}
					],
					"name": "decreaseAllowance",
					"outputs": [
						{
							"internalType": "bool",
							"name": "",
							"type": "bool"
						}
					],
					"payable": false,
					"stateMutability": "nonpayable",
					"type": "function"
				},
				{
					"constant": false,
					"inputs": [
						{
							"internalType": "address",
							"name": "spender",
							"type": "address"
						},
						{
							"internalType": "uint256",
							"name": "addedValue",
							"type": "uint256"
						}
					],
					"name": "increaseAllowance",
					"outputs": [
						{
							"internalType": "bool",
							"name": "",
							"type": "bool"
						}
					],
					"payable": false,
					"stateMutability": "nonpayable",
					"type": "function"
				},
				{
					"constant": true,
					"inputs": [
						{
							"internalType": "address",
							"name": "account",
							"type": "address"
						}
					],
					"name": "isPauser",
					"outputs": [
						{
							"internalType": "bool",
							"name": "",
							"type": "bool"
						}
					],
					"payable": false,
					"stateMutability": "view",
					"type": "function"
				},
				{
					"constant": false,
					"inputs": [],
					"name": "pause",
					"outputs": [],
					"payable": false,
					"stateMutability": "nonpayable",
					"type": "function"
				},
				{
					"constant": true,
					"inputs": [],
					"name": "paused",
					"outputs": [
						{
							"internalType": "bool",
							"name": "",
							"type": "bool"
						}
					],
					"payable": false,
					"stateMutability": "view",
					"type": "function"
				},
				{
					"constant": false,
					"inputs": [],
					"name": "renouncePauser",
					"outputs": [],
					"payable": false,
					"stateMutability": "nonpayable",
					"type": "function"
				},
				{
					"constant": true,
					"inputs": [],
					"name": "totalSupply",
					"outputs": [
						{
							"internalType": "uint256",
							"name": "",
							"type": "uint256"
						}
					],
					"payable": false,
					"stateMutability": "view",
					"type": "function"
				},
				{
					"constant": false,
					"inputs": [
						{
							"internalType": "address",
							"name": "to",
							"type": "address"
						},
						{
							"internalType": "uint256",
							"name": "value",
							"type": "uint256"
						}
					],
					"name": "transfer",
					"outputs": [
						{
							"internalType": "bool",
							"name": "",
							"type": "bool"
						}
					],
					"payable": false,
					"stateMutability": "nonpayable",
					"type": "function"
				},
				{
					"constant": false,
					"inputs": [
						{
							"internalType": "address",
							"name": "from",
							"type": "address"
						},
						{
							"internalType": "address",
							"name": "to",
							"type": "address"
						},
						{
							"internalType": "uint256",
							"name": "value",
							"type": "uint256"
						}
					],
					"name": "transferFrom",
					"outputs": [
						{
							"internalType": "bool",
							"name": "",
							"type": "bool"
						}
					],
					"payable": false,
					"stateMutability": "nonpayable",
					"type": "function"
				},
				{
					"constant": false,
					"inputs": [],
					"name": "unpause",
					"outputs": [],
					"payable": false,
					"stateMutability": "nonpayable",
					"type": "function"
				}
			],
			"devdoc": {
				"methods": {
					"allowance(address,address)": {
						"details": "See {IBTS20-allowance}."
					},
					"balanceOf(address)": {
						"details": "See {IBTS20-balanceOf}."
					},
					"pause()": {
						"details": "Called by a pauser to pause, triggers stopped state."
					},
					"paused()": {
						"details": "Returns true if the contract is paused, and false otherwise."
					},
					"totalSupply()": {
						"details": "See {IBTS20-totalSupply}."
					},
					"unpause()": {
						"details": "Called by a pauser to unpause, returns to normal state."
					}
				}
			},
			"evm": {
				"assembly": "    /* \"contracts/WrappedBTN.sol\":20672:21538  contract BTS20Pausable is BTS20, Pausable {\r... */\n  mstore(0x40, 0x80)\n    /* \"contracts/WrappedBTN.sol\":2408:2432  _addPauser(_msgSender()) */\n  tag_6\n    /* \"contracts/WrappedBTN.sol\":2419:2431  _msgSender() */\n  tag_7\n    /* \"contracts/WrappedBTN.sol\":2419:2429  _msgSender */\n  shl(0x20, tag_8)\n    /* \"contracts/WrappedBTN.sol\":2419:2431  _msgSender() */\n  0x20\n  shr\n  jump\t// in\ntag_7:\n    /* \"contracts/WrappedBTN.sol\":2408:2418  _addPauser */\n  shl(0x20, tag_9)\n    /* \"contracts/WrappedBTN.sol\":2408:2432  _addPauser(_msgSender()) */\n  0x20\n  shr\n  jump\t// in\ntag_6:\n    /* \"contracts/WrappedBTN.sol\":3668:3673  false */\n  0x00\n    /* \"contracts/WrappedBTN.sol\":3658:3665  _paused */\n  0x04\n  0x00\n    /* \"contracts/WrappedBTN.sol\":3658:3673  _paused = false */\n  0x0100\n  exp\n  dup2\n  sload\n  dup2\n  0xff\n  mul\n  not\n  and\n  swap1\n  dup4\n  iszero\n  iszero\n  mul\n  or\n  swap1\n  sstore\n  pop\n    /* \"contracts/WrappedBTN.sol\":20672:21538  contract BTS20Pausable is BTS20, Pausable {\r... */\n  jump(tag_11)\n    /* \"contracts/WrappedBTN.sol\":1037:1135  function _msgSender() internal view returns (address payable) {\r... */\ntag_8:\n    /* \"contracts/WrappedBTN.sol\":1082:1097  address payable */\n  0x00\n    /* \"contracts/WrappedBTN.sol\":1117:1127  msg.sender */\n  caller\n    /* \"contracts/WrappedBTN.sol\":1110:1127  return msg.sender */\n  swap1\n  pop\n    /* \"contracts/WrappedBTN.sol\":1037:1135  function _msgSender() internal view returns (address payable) {\r... */\n  swap1\n  jump\t// out\n    /* \"contracts/WrappedBTN.sol\":2896:3018  function _addPauser(address account) internal {\r... */\ntag_9:\n    /* \"contracts/WrappedBTN.sol\":2953:2974  _pausers.add(account) */\n  tag_14\n    /* \"contracts/WrappedBTN.sol\":2966:2973  account */\n  dup2\n    /* \"contracts/WrappedBTN.sol\":2953:2961  _pausers */\n  0x03\n    /* \"contracts/WrappedBTN.sol\":2953:2965  _pausers.add */\n  or(tag_0_143, shl(0x20, tag_15))\n  swap1\n    /* \"contracts/WrappedBTN.sol\":2953:2974  _pausers.add(account) */\n  swap2\n  swap1\n  0x20\n  shr\n  jump\t// in\ntag_14:\n    /* \"contracts/WrappedBTN.sol\":3002:3009  account */\n  dup1\n    /* \"contracts/WrappedBTN.sol\":2990:3010  PauserAdded(account) */\n  0xffffffffffffffffffffffffffffffffffffffff\n  and\n  0x6719d08c1888103bea251a4ed56406bd0c3e69723c8a1686e017e7bbe159b6f8\n  mload(0x40)\n  mload(0x40)\n  dup1\n  swap2\n  sub\n  swap1\n  log2\n    /* \"contracts/WrappedBTN.sol\":2896:3018  function _addPauser(address account) internal {\r... */\n  pop\n  jump\t// out\n    /* \"contracts/WrappedBTN.sol\":1416:1594  function add(Role storage role, address account) internal {\r... */\ntag_15:\n    /* \"contracts/WrappedBTN.sol\":1494:1512  has(role, account) */\n  tag_17\n    /* \"contracts/WrappedBTN.sol\":1498:1502  role */\n  dup3\n    /* \"contracts/WrappedBTN.sol\":1504:1511  account */\n  dup3\n    /* \"contracts/WrappedBTN.sol\":1494:1497  has */\n  shl(0x20, tag_18)\n    /* \"contracts/WrappedBTN.sol\":1494:1512  has(role, account) */\n  0x20\n  shr\n  jump\t// in\ntag_17:\n    /* \"contracts/WrappedBTN.sol\":1493:1512  !has(role, account) */\n  iszero\n    /* \"contracts/WrappedBTN.sol\":1485:1548  require(!has(role, account), \"Roles: Account already has role\") */\n  tag_19\n  jumpi\n  mload(0x40)\n  0x08c379a000000000000000000000000000000000000000000000000000000000\n  dup2\n  mstore\n  0x04\n  add\n  dup1\n  dup1\n  0x20\n  add\n  dup3\n  dup2\n  sub\n  dup3\n  mstore\n  0x1f\n  dup2\n  mstore\n  0x20\n  add\n  dup1\n  0x526f6c65733a204163636f756e7420616c72656164792068617320726f6c6500\n  dup2\n  mstore\n  pop\n  0x20\n  add\n  swap2\n  pop\n  pop\n  mload(0x40)\n  dup1\n  swap2\n  sub\n  swap1\n  revert\ntag_19:\n    /* \"contracts/WrappedBTN.sol\":1582:1586  true */\n  0x01\n    /* \"contracts/WrappedBTN.sol\":1559:1563  role */\n  dup3\n    /* \"contracts/WrappedBTN.sol\":1559:1570  role.bearer */\n  0x00\n  add\n    /* \"contracts/WrappedBTN.sol\":1559:1579  role.bearer[account] */\n  0x00\n    /* \"contracts/WrappedBTN.sol\":1571:1578  account */\n  dup4\n    /* \"contracts/WrappedBTN.sol\":1559:1579  role.bearer[account] */\n  0xffffffffffffffffffffffffffffffffffffffff\n  and\n  0xffffffffffffffffffffffffffffffffffffffff\n  and\n  dup2\n  mstore\n  0x20\n  add\n  swap1\n  dup2\n  mstore\n  0x20\n  add\n  0x00\n  keccak256\n  0x00\n    /* \"contracts/WrappedBTN.sol\":1559:1586  role.bearer[account] = true */\n  0x0100\n  exp\n  dup2\n  sload\n  dup2\n  0xff\n  mul\n  not\n  and\n  swap1\n  dup4\n  iszero\n  iszero\n  mul\n  or\n  swap1\n  sstore\n  pop\n    /* \"contracts/WrappedBTN.sol\":1416:1594  function add(Role storage role, address account) internal {\r... */\n  pop\n  pop\n  jump\t// out\n    /* \"contracts/WrappedBTN.sol\":1952:2155  function has(Role storage role, address account) internal view returns (bool) {\r... */\ntag_18:\n    /* \"contracts/WrappedBTN.sol\":2024:2028  bool */\n  0x00\n    /* \"contracts/WrappedBTN.sol\":2068:2069  0 */\n  dup1\n    /* \"contracts/WrappedBTN.sol\":2049:2070  account != address(0) */\n  0xffffffffffffffffffffffffffffffffffffffff\n  and\n    /* \"contracts/WrappedBTN.sol\":2049:2056  account */\n  dup3\n    /* \"contracts/WrappedBTN.sol\":2049:2070  account != address(0) */\n  0xffffffffffffffffffffffffffffffffffffffff\n  and\n  eq\n  iszero\n    /* \"contracts/WrappedBTN.sol\":2041:2109  require(account != address(0), \"Roles: Account is the zero address\") */\n  tag_21\n  jumpi\n  mload(0x40)\n  0x08c379a000000000000000000000000000000000000000000000000000000000\n  dup2\n  mstore\n  0x04\n  add\n  dup1\n  dup1\n  0x20\n  add\n  dup3\n  dup2\n  sub\n  dup3\n  mstore\n  0x22\n  dup2\n  mstore\n  0x20\n  add\n  dup1\n  data_d67578b85ba6d73375c4493f438c3d9072fd4105433709f73a70d19f74a8eed3\n  0x22\n  swap2\n  codecopy\n  0x40\n  add\n  swap2\n  pop\n  pop\n  mload(0x40)\n  dup1\n  swap2\n  sub\n  swap1\n  revert\ntag_21:\n    /* \"contracts/WrappedBTN.sol\":2127:2131  role */\n  dup3\n    /* \"contracts/WrappedBTN.sol\":2127:2138  role.bearer */\n  0x00\n  add\n    /* \"contracts/WrappedBTN.sol\":2127:2147  role.bearer[account] */\n  0x00\n    /* \"contracts/WrappedBTN.sol\":2139:2146  account */\n  dup4\n    /* \"contracts/WrappedBTN.sol\":2127:2147  role.bearer[account] */\n  0xffffffffffffffffffffffffffffffffffffffff\n  and\n  0xffffffffffffffffffffffffffffffffffffffff\n  and\n  dup2\n  mstore\n  0x20\n  add\n  swap1\n  dup2\n  mstore\n  0x20\n  add\n  0x00\n  keccak256\n  0x00\n  swap1\n  sload\n  swap1\n  0x0100\n  exp\n  swap1\n  div\n  0xff\n  and\n    /* \"contracts/WrappedBTN.sol\":2120:2147  return role.bearer[account] */\n  swap1\n  pop\n    /* \"contracts/WrappedBTN.sol\":1952:2155  function has(Role storage role, address account) internal view returns (bool) {\r... */\n  swap3\n  swap2\n  pop\n  pop\n  jump\t// out\n    /* \"contracts/WrappedBTN.sol\":20672:21538  contract BTS20Pausable is BTS20, Pausable {\r... */\ntag_11:\n  dataSize(sub_0)\n  dup1\n  dataOffset(sub_0)\n  0x00\n  codecopy\n  0x00\n  return\nstop\ndata_d67578b85ba6d73375c4493f438c3d9072fd4105433709f73a70d19f74a8eed3 526f6c65733a204163636f756e7420697320746865207a65726f2061646472657373\n\nsub_0: assembly {\n        /* \"contracts/WrappedBTN.sol\":20672:21538  contract BTS20Pausable is BTS20, Pausable {\r... */\n      mstore(0x40, 0x80)\n      callvalue\n        /* \"--CODEGEN--\":8:17   */\n      dup1\n        /* \"--CODEGEN--\":5:7   */\n      iszero\n      tag_1\n      jumpi\n        /* \"--CODEGEN--\":30:31   */\n      0x00\n        /* \"--CODEGEN--\":27:28   */\n      dup1\n        /* \"--CODEGEN--\":20:32   */\n      revert\n        /* \"--CODEGEN--\":5:7   */\n    tag_1:\n        /* \"contracts/WrappedBTN.sol\":20672:21538  contract BTS20Pausable is BTS20, Pausable {\r... */\n      pop\n      jumpi(tag_2, lt(calldatasize, 0x04))\n      shr(0xe0, calldataload(0x00))\n      dup1\n      0x6ef8d66d\n      gt\n      tag_17\n      jumpi\n      dup1\n      0x8456cb59\n      gt\n      tag_18\n      jumpi\n      dup1\n      0x8456cb59\n      eq\n      tag_13\n      jumpi\n      dup1\n      0xa457c2d7\n      eq\n      tag_14\n      jumpi\n      dup1\n      0xa9059cbb\n      eq\n      tag_15\n      jumpi\n      dup1\n      0xdd62ed3e\n      eq\n      tag_16\n      jumpi\n      jump(tag_2)\n    tag_18:\n      dup1\n      0x6ef8d66d\n      eq\n      tag_10\n      jumpi\n      dup1\n      0x70a08231\n      eq\n      tag_11\n      jumpi\n      dup1\n      0x82dc1ec4\n      eq\n      tag_12\n      jumpi\n      jump(tag_2)\n    tag_17:\n      dup1\n      0x39509351\n      gt\n      tag_19\n      jumpi\n      dup1\n      0x39509351\n      eq\n      tag_6\n      jumpi\n      dup1\n      0x3f4ba83a\n      eq\n      tag_7\n      jumpi\n      dup1\n      0x46fbf68e\n      eq\n      tag_8\n      jumpi\n      dup1\n      0x5c975abb\n      eq\n      tag_9\n      jumpi\n      jump(tag_2)\n    tag_19:\n      dup1\n      0x095ea7b3\n      eq\n      tag_3\n      jumpi\n      dup1\n      0x18160ddd\n      eq\n      tag_4\n      jumpi\n      dup1\n      0x23b872dd\n      eq\n      tag_5\n      jumpi\n    tag_2:\n      0x00\n      dup1\n      revert\n        /* \"contracts/WrappedBTN.sol\":21029:21169  function approve(address spender, uint256 value) public whenNotPaused returns (bool) {\r... */\n    tag_3:\n      tag_20\n      0x04\n      dup1\n      calldatasize\n      sub\n        /* \"--CODEGEN--\":13:15   */\n      0x40\n        /* \"--CODEGEN--\":8:11   */\n      dup2\n        /* \"--CODEGEN--\":5:16   */\n      lt\n        /* \"--CODEGEN--\":2:4   */\n      iszero\n      tag_21\n      jumpi\n        /* \"--CODEGEN--\":29:30   */\n      0x00\n        /* \"--CODEGEN--\":26:27   */\n      dup1\n        /* \"--CODEGEN--\":19:31   */\n      revert\n        /* \"--CODEGEN--\":2:4   */\n    tag_21:\n        /* \"contracts/WrappedBTN.sol\":21029:21169  function approve(address spender, uint256 value) public whenNotPaused returns (bool) {\r... */\n      dup2\n      add\n      swap1\n      dup1\n      dup1\n      calldataload\n      0xffffffffffffffffffffffffffffffffffffffff\n      and\n      swap1\n      0x20\n      add\n      swap1\n      swap3\n      swap2\n      swap1\n      dup1\n      calldataload\n      swap1\n      0x20\n      add\n      swap1\n      swap3\n      swap2\n      swap1\n      pop\n      pop\n      pop\n      tag_22\n      jump\t// in\n    tag_20:\n      mload(0x40)\n      dup1\n      dup3\n      iszero\n      iszero\n      iszero\n      iszero\n      dup2\n      mstore\n      0x20\n      add\n      swap2\n      pop\n      pop\n      mload(0x40)\n      dup1\n      swap2\n      sub\n      swap1\n      return\n        /* \"contracts/WrappedBTN.sol\":12453:12544  function totalSupply() public view returns (uint256) {\r... */\n    tag_4:\n      tag_23\n      tag_24\n      jump\t// in\n    tag_23:\n      mload(0x40)\n      dup1\n      dup3\n      dup2\n      mstore\n      0x20\n      add\n      swap2\n      pop\n      pop\n      mload(0x40)\n      dup1\n      swap2\n      sub\n      swap1\n      return\n        /* \"contracts/WrappedBTN.sol\":20861:21021  function transferFrom(address from, address to, uint256 value) public whenNotPaused returns (bool) {\r... */\n    tag_5:\n      tag_25\n      0x04\n      dup1\n      calldatasize\n      sub\n        /* \"--CODEGEN--\":13:15   */\n      0x60\n        /* \"--CODEGEN--\":8:11   */\n      dup2\n        /* \"--CODEGEN--\":5:16   */\n      lt\n        /* \"--CODEGEN--\":2:4   */\n      iszero\n      tag_26\n      jumpi\n        /* \"--CODEGEN--\":29:30   */\n      0x00\n        /* \"--CODEGEN--\":26:27   */\n      dup1\n        /* \"--CODEGEN--\":19:31   */\n      revert\n        /* \"--CODEGEN--\":2:4   */\n    tag_26:\n        /* \"contracts/WrappedBTN.sol\":20861:21021  function transferFrom(address from, address to, uint256 value) public whenNotPaused returns (bool) {\r... */\n      dup2\n      add\n      swap1\n      dup1\n      dup1\n      calldataload\n      0xffffffffffffffffffffffffffffffffffffffff\n      and\n      swap1\n      0x20\n      add\n      swap1\n      swap3\n      swap2\n      swap1\n      dup1\n      calldataload\n      0xffffffffffffffffffffffffffffffffffffffff\n      and\n      swap1\n      0x20\n      add\n      swap1\n      swap3\n      swap2\n      swap1\n      dup1\n      calldataload\n      swap1\n      0x20\n      add\n      swap1\n      swap3\n      swap2\n      swap1\n      pop\n      pop\n      pop\n      tag_27\n      jump\t// in\n    tag_25:\n      mload(0x40)\n      dup1\n      dup3\n      iszero\n      iszero\n      iszero\n      iszero\n      dup2\n      mstore\n      0x20\n      add\n      swap2\n      pop\n      pop\n      mload(0x40)\n      dup1\n      swap2\n      sub\n      swap1\n      return\n        /* \"contracts/WrappedBTN.sol\":21177:21347  function increaseAllowance(address spender, uint256 addedValue) public whenNotPaused returns (bool) {\r... */\n    tag_6:\n      tag_28\n      0x04\n      dup1\n      calldatasize\n      sub\n        /* \"--CODEGEN--\":13:15   */\n      0x40\n        /* \"--CODEGEN--\":8:11   */\n      dup2\n        /* \"--CODEGEN--\":5:16   */\n      lt\n        /* \"--CODEGEN--\":2:4   */\n      iszero\n      tag_29\n      jumpi\n        /* \"--CODEGEN--\":29:30   */\n      0x00\n        /* \"--CODEGEN--\":26:27   */\n      dup1\n        /* \"--CODEGEN--\":19:31   */\n      revert\n        /* \"--CODEGEN--\":2:4   */\n    tag_29:\n        /* \"contracts/WrappedBTN.sol\":21177:21347  function increaseAllowance(address spender, uint256 addedValue) public whenNotPaused returns (bool) {\r... */\n      dup2\n      add\n      swap1\n      dup1\n      dup1\n      calldataload\n      0xffffffffffffffffffffffffffffffffffffffff\n      and\n      swap1\n      0x20\n      add\n      swap1\n      swap3\n      swap2\n      swap1\n      dup1\n      calldataload\n      swap1\n      0x20\n      add\n      swap1\n      swap3\n      swap2\n      swap1\n      pop\n      pop\n      pop\n      tag_30\n      jump\t// in\n    tag_28:\n      mload(0x40)\n      dup1\n      dup3\n      iszero\n      iszero\n      iszero\n      iszero\n      dup2\n      mstore\n      0x20\n      add\n      swap2\n      pop\n      pop\n      mload(0x40)\n      dup1\n      swap2\n      sub\n      swap1\n      return\n        /* \"contracts/WrappedBTN.sol\":4574:4694  function unpause() public onlyPauser whenPaused {\r... */\n    tag_7:\n      tag_31\n      tag_32\n      jump\t// in\n    tag_31:\n      stop\n        /* \"contracts/WrappedBTN.sol\":2592:2701  function isPauser(address account) public view returns (bool) {\r... */\n    tag_8:\n      tag_33\n      0x04\n      dup1\n      calldatasize\n      sub\n        /* \"--CODEGEN--\":13:15   */\n      0x20\n        /* \"--CODEGEN--\":8:11   */\n      dup2\n        /* \"--CODEGEN--\":5:16   */\n      lt\n        /* \"--CODEGEN--\":2:4   */\n      iszero\n      tag_34\n      jumpi\n        /* \"--CODEGEN--\":29:30   */\n      0x00\n        /* \"--CODEGEN--\":26:27   */\n      dup1\n        /* \"--CODEGEN--\":19:31   */\n      revert\n        /* \"--CODEGEN--\":2:4   */\n    tag_34:\n        /* \"contracts/WrappedBTN.sol\":2592:2701  function isPauser(address account) public view returns (bool) {\r... */\n      dup2\n      add\n      swap1\n      dup1\n      dup1\n      calldataload\n      0xffffffffffffffffffffffffffffffffffffffff\n      and\n      swap1\n      0x20\n      add\n      swap1\n      swap3\n      swap2\n      swap1\n      pop\n      pop\n      pop\n      tag_35\n      jump\t// in\n    tag_33:\n      mload(0x40)\n      dup1\n      dup3\n      iszero\n      iszero\n      iszero\n      iszero\n      dup2\n      mstore\n      0x20\n      add\n      swap2\n      pop\n      pop\n      mload(0x40)\n      dup1\n      swap2\n      sub\n      swap1\n      return\n        /* \"contracts/WrappedBTN.sol\":3781:3859  function paused() public view returns (bool) {\r... */\n    tag_9:\n      tag_36\n      tag_37\n      jump\t// in\n    tag_36:\n      mload(0x40)\n      dup1\n      dup3\n      iszero\n      iszero\n      iszero\n      iszero\n      dup2\n      mstore\n      0x20\n      add\n      swap2\n      pop\n      pop\n      mload(0x40)\n      dup1\n      swap2\n      sub\n      swap1\n      return\n        /* \"contracts/WrappedBTN.sol\":2809:2888  function renouncePauser() public {\r... */\n    tag_10:\n      tag_38\n      tag_39\n      jump\t// in\n    tag_38:\n      stop\n        /* \"contracts/WrappedBTN.sol\":12607:12717  function balanceOf(address account) public view returns (uint256) {\r... */\n    tag_11:\n      tag_40\n      0x04\n      dup1\n      calldatasize\n      sub\n        /* \"--CODEGEN--\":13:15   */\n      0x20\n        /* \"--CODEGEN--\":8:11   */\n      dup2\n        /* \"--CODEGEN--\":5:16   */\n      lt\n        /* \"--CODEGEN--\":2:4   */\n      iszero\n      tag_41\n      jumpi\n        /* \"--CODEGEN--\":29:30   */\n      0x00\n        /* \"--CODEGEN--\":26:27   */\n      dup1\n        /* \"--CODEGEN--\":19:31   */\n      revert\n        /* \"--CODEGEN--\":2:4   */\n    tag_41:\n        /* \"contracts/WrappedBTN.sol\":12607:12717  function balanceOf(address account) public view returns (uint256) {\r... */\n      dup2\n      add\n      swap1\n      dup1\n      dup1\n      calldataload\n      0xffffffffffffffffffffffffffffffffffffffff\n      and\n      swap1\n      0x20\n      add\n      swap1\n      swap3\n      swap2\n      swap1\n      pop\n      pop\n      pop\n      tag_42\n      jump\t// in\n    tag_40:\n      mload(0x40)\n      dup1\n      dup3\n      dup2\n      mstore\n      0x20\n      add\n      swap2\n      pop\n      pop\n      mload(0x40)\n      dup1\n      swap2\n      sub\n      swap1\n      return\n        /* \"contracts/WrappedBTN.sol\":2709:2801  function addPauser(address account) public onlyPauser {\r... */\n    tag_12:\n      tag_43\n      0x04\n      dup1\n      calldatasize\n      sub\n        /* \"--CODEGEN--\":13:15   */\n      0x20\n        /* \"--CODEGEN--\":8:11   */\n      dup2\n        /* \"--CODEGEN--\":5:16   */\n      lt\n        /* \"--CODEGEN--\":2:4   */\n      iszero\n      tag_44\n      jumpi\n        /* \"--CODEGEN--\":29:30   */\n      0x00\n        /* \"--CODEGEN--\":26:27   */\n      dup1\n        /* \"--CODEGEN--\":19:31   */\n      revert\n        /* \"--CODEGEN--\":2:4   */\n    tag_44:\n        /* \"contracts/WrappedBTN.sol\":2709:2801  function addPauser(address account) public onlyPauser {\r... */\n      dup2\n      add\n      swap1\n      dup1\n      dup1\n      calldataload\n      0xffffffffffffffffffffffffffffffffffffffff\n      and\n      swap1\n      0x20\n      add\n      swap1\n      swap3\n      swap2\n      swap1\n      pop\n      pop\n      pop\n      tag_45\n      jump\t// in\n    tag_43:\n      stop\n        /* \"contracts/WrappedBTN.sol\":4361:4479  function pause() public onlyPauser whenNotPaused {\r... */\n    tag_13:\n      tag_46\n      tag_47\n      jump\t// in\n    tag_46:\n      stop\n        /* \"contracts/WrappedBTN.sol\":21355:21535  function decreaseAllowance(address spender, uint256 subtractedValue) public whenNotPaused returns (bool) {\r... */\n    tag_14:\n      tag_48\n      0x04\n      dup1\n      calldatasize\n      sub\n        /* \"--CODEGEN--\":13:15   */\n      0x40\n        /* \"--CODEGEN--\":8:11   */\n      dup2\n        /* \"--CODEGEN--\":5:16   */\n      lt\n        /* \"--CODEGEN--\":2:4   */\n      iszero\n      tag_49\n      jumpi\n        /* \"--CODEGEN--\":29:30   */\n      0x00\n        /* \"--CODEGEN--\":26:27   */\n      dup1\n        /* \"--CODEGEN--\":19:31   */\n      revert\n        /* \"--CODEGEN--\":2:4   */\n    tag_49:\n        /* \"contracts/WrappedBTN.sol\":21355:21535  function decreaseAllowance(address spender, uint256 subtractedValue) public whenNotPaused returns (bool) {\r... */\n      dup2\n      add\n      swap1\n      dup1\n      dup1\n      calldataload\n      0xffffffffffffffffffffffffffffffffffffffff\n      and\n      swap1\n      0x20\n      add\n      swap1\n      swap3\n      swap2\n      swap1\n      dup1\n      calldataload\n      swap1\n      0x20\n      add\n      swap1\n      swap3\n      swap2\n      swap1\n      pop\n      pop\n      pop\n      tag_50\n      jump\t// in\n    tag_48:\n      mload(0x40)\n      dup1\n      dup3\n      iszero\n      iszero\n      iszero\n      iszero\n      dup2\n      mstore\n      0x20\n      add\n      swap2\n      pop\n      pop\n      mload(0x40)\n      dup1\n      swap2\n      sub\n      swap1\n      return\n        /* \"contracts/WrappedBTN.sol\":20721:20853  function transfer(address to, uint256 value) public whenNotPaused returns (bool) {\r... */\n    tag_15:\n      tag_51\n      0x04\n      dup1\n      calldatasize\n      sub\n        /* \"--CODEGEN--\":13:15   */\n      0x40\n        /* \"--CODEGEN--\":8:11   */\n      dup2\n        /* \"--CODEGEN--\":5:16   */\n      lt\n        /* \"--CODEGEN--\":2:4   */\n      iszero\n      tag_52\n      jumpi\n        /* \"--CODEGEN--\":29:30   */\n      0x00\n        /* \"--CODEGEN--\":26:27   */\n      dup1\n        /* \"--CODEGEN--\":19:31   */\n      revert\n        /* \"--CODEGEN--\":2:4   */\n    tag_52:\n        /* \"contracts/WrappedBTN.sol\":20721:20853  function transfer(address to, uint256 value) public whenNotPaused returns (bool) {\r... */\n      dup2\n      add\n      swap1\n      dup1\n      dup1\n      calldataload\n      0xffffffffffffffffffffffffffffffffffffffff\n      and\n      swap1\n      0x20\n      add\n      swap1\n      swap3\n      swap2\n      swap1\n      dup1\n      calldataload\n      swap1\n      0x20\n      add\n      swap1\n      swap3\n      swap2\n      swap1\n      pop\n      pop\n      pop\n      tag_53\n      jump\t// in\n    tag_51:\n      mload(0x40)\n      dup1\n      dup3\n      iszero\n      iszero\n      iszero\n      iszero\n      dup2\n      mstore\n      0x20\n      add\n      swap2\n      pop\n      pop\n      mload(0x40)\n      dup1\n      swap2\n      sub\n      swap1\n      return\n        /* \"contracts/WrappedBTN.sol\":13151:13285  function allowance(address owner, address spender) public view returns (uint256) {\r... */\n    tag_16:\n      tag_54\n      0x04\n      dup1\n      calldatasize\n      sub\n        /* \"--CODEGEN--\":13:15   */\n      0x40\n        /* \"--CODEGEN--\":8:11   */\n      dup2\n        /* \"--CODEGEN--\":5:16   */\n      lt\n        /* \"--CODEGEN--\":2:4   */\n      iszero\n      tag_55\n      jumpi\n        /* \"--CODEGEN--\":29:30   */\n      0x00\n        /* \"--CODEGEN--\":26:27   */\n      dup1\n        /* \"--CODEGEN--\":19:31   */\n      revert\n        /* \"--CODEGEN--\":2:4   */\n    tag_55:\n        /* \"contracts/WrappedBTN.sol\":13151:13285  function allowance(address owner, address spender) public view returns (uint256) {\r... */\n      dup2\n      add\n      swap1\n      dup1\n      dup1\n      calldataload\n      0xffffffffffffffffffffffffffffffffffffffff\n      and\n      swap1\n      0x20\n      add\n      swap1\n      swap3\n      swap2\n      swap1\n      dup1\n      calldataload\n      0xffffffffffffffffffffffffffffffffffffffff\n      and\n      swap1\n      0x20\n      add\n      swap1\n      swap3\n      swap2\n      swap1\n      pop\n      pop\n      pop\n      tag_56\n      jump\t// in\n    tag_54:\n      mload(0x40)\n      dup1\n      dup3\n      dup2\n      mstore\n      0x20\n      add\n      swap2\n      pop\n      pop\n      mload(0x40)\n      dup1\n      swap2\n      sub\n      swap1\n      return\n        /* \"contracts/WrappedBTN.sol\":21029:21169  function approve(address spender, uint256 value) public whenNotPaused returns (bool) {\r... */\n    tag_22:\n        /* \"contracts/WrappedBTN.sol\":21108:21112  bool */\n      0x00\n        /* \"contracts/WrappedBTN.sol\":4018:4025  _paused */\n      0x04\n      0x00\n      swap1\n      sload\n      swap1\n      0x0100\n      exp\n      swap1\n      div\n      0xff\n      and\n        /* \"contracts/WrappedBTN.sol\":4017:4025  !_paused */\n      iszero\n        /* \"contracts/WrappedBTN.sol\":4009:4046  require(!_paused, \"Pausable: Paused\") */\n      tag_58\n      jumpi\n      mload(0x40)\n      0x08c379a000000000000000000000000000000000000000000000000000000000\n      dup2\n      mstore\n      0x04\n      add\n      dup1\n      dup1\n      0x20\n      add\n      dup3\n      dup2\n      sub\n      dup3\n      mstore\n      0x10\n      dup2\n      mstore\n      0x20\n      add\n      dup1\n      0x5061757361626c653a2050617573656400000000000000000000000000000000\n      dup2\n      mstore\n      pop\n      0x20\n      add\n      swap2\n      pop\n      pop\n      mload(0x40)\n      dup1\n      swap2\n      sub\n      swap1\n      revert\n    tag_58:\n        /* \"contracts/WrappedBTN.sol\":21132:21161  super.approve(spender, value) */\n      tag_60\n        /* \"contracts/WrappedBTN.sol\":21146:21153  spender */\n      dup4\n        /* \"contracts/WrappedBTN.sol\":21155:21160  value */\n      dup4\n        /* \"contracts/WrappedBTN.sol\":21132:21145  super.approve */\n      tag_61\n        /* \"contracts/WrappedBTN.sol\":21132:21161  super.approve(spender, value) */\n      jump\t// in\n    tag_60:\n        /* \"contracts/WrappedBTN.sol\":21125:21161  return super.approve(spender, value) */\n      swap1\n      pop\n        /* \"contracts/WrappedBTN.sol\":21029:21169  function approve(address spender, uint256 value) public whenNotPaused returns (bool) {\r... */\n      swap3\n      swap2\n      pop\n      pop\n      jump\t// out\n        /* \"contracts/WrappedBTN.sol\":12453:12544  function totalSupply() public view returns (uint256) {\r... */\n    tag_24:\n        /* \"contracts/WrappedBTN.sol\":12497:12504  uint256 */\n      0x00\n        /* \"contracts/WrappedBTN.sol\":12524:12536  _totalSupply */\n      sload(0x02)\n        /* \"contracts/WrappedBTN.sol\":12517:12536  return _totalSupply */\n      swap1\n      pop\n        /* \"contracts/WrappedBTN.sol\":12453:12544  function totalSupply() public view returns (uint256) {\r... */\n      swap1\n      jump\t// out\n        /* \"contracts/WrappedBTN.sol\":20861:21021  function transferFrom(address from, address to, uint256 value) public whenNotPaused returns (bool) {\r... */\n    tag_27:\n        /* \"contracts/WrappedBTN.sol\":20954:20958  bool */\n      0x00\n        /* \"contracts/WrappedBTN.sol\":4018:4025  _paused */\n      0x04\n      0x00\n      swap1\n      sload\n      swap1\n      0x0100\n      exp\n      swap1\n      div\n      0xff\n      and\n        /* \"contracts/WrappedBTN.sol\":4017:4025  !_paused */\n      iszero\n        /* \"contracts/WrappedBTN.sol\":4009:4046  require(!_paused, \"Pausable: Paused\") */\n      tag_64\n      jumpi\n      mload(0x40)\n      0x08c379a000000000000000000000000000000000000000000000000000000000\n      dup2\n      mstore\n      0x04\n      add\n      dup1\n      dup1\n      0x20\n      add\n      dup3\n      dup2\n      sub\n      dup3\n      mstore\n      0x10\n      dup2\n      mstore\n      0x20\n      add\n      dup1\n      0x5061757361626c653a2050617573656400000000000000000000000000000000\n      dup2\n      mstore\n      pop\n      0x20\n      add\n      swap2\n      pop\n      pop\n      mload(0x40)\n      dup1\n      swap2\n      sub\n      swap1\n      revert\n    tag_64:\n        /* \"contracts/WrappedBTN.sol\":20978:21013  super.transferFrom(from, to, value) */\n      tag_66\n        /* \"contracts/WrappedBTN.sol\":20997:21001  from */\n      dup5\n        /* \"contracts/WrappedBTN.sol\":21003:21005  to */\n      dup5\n        /* \"contracts/WrappedBTN.sol\":21007:21012  value */\n      dup5\n        /* \"contracts/WrappedBTN.sol\":20978:20996  super.transferFrom */\n      tag_67\n        /* \"contracts/WrappedBTN.sol\":20978:21013  super.transferFrom(from, to, value) */\n      jump\t// in\n    tag_66:\n        /* \"contracts/WrappedBTN.sol\":20971:21013  return super.transferFrom(from, to, value) */\n      swap1\n      pop\n        /* \"contracts/WrappedBTN.sol\":20861:21021  function transferFrom(address from, address to, uint256 value) public whenNotPaused returns (bool) {\r... */\n      swap4\n      swap3\n      pop\n      pop\n      pop\n      jump\t// out\n        /* \"contracts/WrappedBTN.sol\":21177:21347  function increaseAllowance(address spender, uint256 addedValue) public whenNotPaused returns (bool) {\r... */\n    tag_30:\n        /* \"contracts/WrappedBTN.sol\":21271:21275  bool */\n      0x00\n        /* \"contracts/WrappedBTN.sol\":4018:4025  _paused */\n      0x04\n      0x00\n      swap1\n      sload\n      swap1\n      0x0100\n      exp\n      swap1\n      div\n      0xff\n      and\n        /* \"contracts/WrappedBTN.sol\":4017:4025  !_paused */\n      iszero\n        /* \"contracts/WrappedBTN.sol\":4009:4046  require(!_paused, \"Pausable: Paused\") */\n      tag_69\n      jumpi\n      mload(0x40)\n      0x08c379a000000000000000000000000000000000000000000000000000000000\n      dup2\n      mstore\n      0x04\n      add\n      dup1\n      dup1\n      0x20\n      add\n      dup3\n      dup2\n      sub\n      dup3\n      mstore\n      0x10\n      dup2\n      mstore\n      0x20\n      add\n      dup1\n      0x5061757361626c653a2050617573656400000000000000000000000000000000\n      dup2\n      mstore\n      pop\n      0x20\n      add\n      swap2\n      pop\n      pop\n      mload(0x40)\n      dup1\n      swap2\n      sub\n      swap1\n      revert\n    tag_69:\n        /* \"contracts/WrappedBTN.sol\":21295:21339  super.increaseAllowance(spender, addedValue) */\n      tag_71\n        /* \"contracts/WrappedBTN.sol\":21319:21326  spender */\n      dup4\n        /* \"contracts/WrappedBTN.sol\":21328:21338  addedValue */\n      dup4\n        /* \"contracts/WrappedBTN.sol\":21295:21318  super.increaseAllowance */\n      tag_72\n        /* \"contracts/WrappedBTN.sol\":21295:21339  super.increaseAllowance(spender, addedValue) */\n      jump\t// in\n    tag_71:\n        /* \"contracts/WrappedBTN.sol\":21288:21339  return super.increaseAllowance(spender, addedValue) */\n      swap1\n      pop\n        /* \"contracts/WrappedBTN.sol\":21177:21347  function increaseAllowance(address spender, uint256 addedValue) public whenNotPaused returns (bool) {\r... */\n      swap3\n      swap2\n      pop\n      pop\n      jump\t// out\n        /* \"contracts/WrappedBTN.sol\":4574:4694  function unpause() public onlyPauser whenPaused {\r... */\n    tag_32:\n        /* \"contracts/WrappedBTN.sol\":2489:2511  isPauser(_msgSender()) */\n      tag_74\n        /* \"contracts/WrappedBTN.sol\":2498:2510  _msgSender() */\n      tag_75\n        /* \"contracts/WrappedBTN.sol\":2498:2508  _msgSender */\n      tag_76\n        /* \"contracts/WrappedBTN.sol\":2498:2510  _msgSender() */\n      jump\t// in\n    tag_75:\n        /* \"contracts/WrappedBTN.sol\":2489:2497  isPauser */\n      tag_35\n        /* \"contracts/WrappedBTN.sol\":2489:2511  isPauser(_msgSender()) */\n      jump\t// in\n    tag_74:\n        /* \"contracts/WrappedBTN.sol\":2481:2564  require(isPauser(_msgSender()), \"PauserRole: Caller does not have the Pauser role\") */\n      tag_77\n      jumpi\n      mload(0x40)\n      0x08c379a000000000000000000000000000000000000000000000000000000000\n      dup2\n      mstore\n      0x04\n      add\n      dup1\n      dup1\n      0x20\n      add\n      dup3\n      dup2\n      sub\n      dup3\n      mstore\n      0x30\n      dup2\n      mstore\n      0x20\n      add\n      dup1\n      data_25be98b058b1d92833258d8df9a974b792278100a2477c820a0105a1f1183130\n      0x30\n      swap2\n      codecopy\n      0x40\n      add\n      swap2\n      pop\n      pop\n      mload(0x40)\n      dup1\n      swap2\n      sub\n      swap1\n      revert\n    tag_77:\n        /* \"contracts/WrappedBTN.sol\":4217:4224  _paused */\n      0x04\n      0x00\n      swap1\n      sload\n      swap1\n      0x0100\n      exp\n      swap1\n      div\n      0xff\n      and\n        /* \"contracts/WrappedBTN.sol\":4209:4249  require(_paused, \"Pausable: Not paused\") */\n      tag_79\n      jumpi\n      mload(0x40)\n      0x08c379a000000000000000000000000000000000000000000000000000000000\n      dup2\n      mstore\n      0x04\n      add\n      dup1\n      dup1\n      0x20\n      add\n      dup3\n      dup2\n      sub\n      dup3\n      mstore\n      0x14\n      dup2\n      mstore\n      0x20\n      add\n      dup1\n      0x5061757361626c653a204e6f7420706175736564000000000000000000000000\n      dup2\n      mstore\n      pop\n      0x20\n      add\n      swap2\n      pop\n      pop\n      mload(0x40)\n      dup1\n      swap2\n      sub\n      swap1\n      revert\n    tag_79:\n        /* \"contracts/WrappedBTN.sol\":4643:4648  false */\n      0x00\n        /* \"contracts/WrappedBTN.sol\":4633:4640  _paused */\n      0x04\n      0x00\n        /* \"contracts/WrappedBTN.sol\":4633:4648  _paused = false */\n      0x0100\n      exp\n      dup2\n      sload\n      dup2\n      0xff\n      mul\n      not\n      and\n      swap1\n      dup4\n      iszero\n      iszero\n      mul\n      or\n      swap1\n      sstore\n      pop\n        /* \"contracts/WrappedBTN.sol\":4664:4686  Unpaused(_msgSender()) */\n      0x5db9ee0a495bf2e6ff9c91a7834c1ba4fdd244a5e8aa4e537bd38aeae4b073aa\n        /* \"contracts/WrappedBTN.sol\":4673:4685  _msgSender() */\n      tag_81\n        /* \"contracts/WrappedBTN.sol\":4673:4683  _msgSender */\n      tag_76\n        /* \"contracts/WrappedBTN.sol\":4673:4685  _msgSender() */\n      jump\t// in\n    tag_81:\n        /* \"contracts/WrappedBTN.sol\":4664:4686  Unpaused(_msgSender()) */\n      mload(0x40)\n      dup1\n      dup3\n      0xffffffffffffffffffffffffffffffffffffffff\n      and\n      0xffffffffffffffffffffffffffffffffffffffff\n      and\n      dup2\n      mstore\n      0x20\n      add\n      swap2\n      pop\n      pop\n      mload(0x40)\n      dup1\n      swap2\n      sub\n      swap1\n      log1\n        /* \"contracts/WrappedBTN.sol\":4574:4694  function unpause() public onlyPauser whenPaused {\r... */\n      jump\t// out\n        /* \"contracts/WrappedBTN.sol\":2592:2701  function isPauser(address account) public view returns (bool) {\r... */\n    tag_35:\n        /* \"contracts/WrappedBTN.sol\":2648:2652  bool */\n      0x00\n        /* \"contracts/WrappedBTN.sol\":2672:2693  _pausers.has(account) */\n      tag_83\n        /* \"contracts/WrappedBTN.sol\":2685:2692  account */\n      dup3\n        /* \"contracts/WrappedBTN.sol\":2672:2680  _pausers */\n      0x03\n        /* \"contracts/WrappedBTN.sol\":2672:2684  _pausers.has */\n      tag_84\n      swap1\n        /* \"contracts/WrappedBTN.sol\":2672:2693  _pausers.has(account) */\n      swap2\n      swap1\n      0xffffffff\n      and\n      jump\t// in\n    tag_83:\n        /* \"contracts/WrappedBTN.sol\":2665:2693  return _pausers.has(account) */\n      swap1\n      pop\n        /* \"contracts/WrappedBTN.sol\":2592:2701  function isPauser(address account) public view returns (bool) {\r... */\n      swap2\n      swap1\n      pop\n      jump\t// out\n        /* \"contracts/WrappedBTN.sol\":3781:3859  function paused() public view returns (bool) {\r... */\n    tag_37:\n        /* \"contracts/WrappedBTN.sol\":3820:3824  bool */\n      0x00\n        /* \"contracts/WrappedBTN.sol\":3844:3851  _paused */\n      0x04\n      0x00\n      swap1\n      sload\n      swap1\n      0x0100\n      exp\n      swap1\n      div\n      0xff\n      and\n        /* \"contracts/WrappedBTN.sol\":3837:3851  return _paused */\n      swap1\n      pop\n        /* \"contracts/WrappedBTN.sol\":3781:3859  function paused() public view returns (bool) {\r... */\n      swap1\n      jump\t// out\n        /* \"contracts/WrappedBTN.sol\":2809:2888  function renouncePauser() public {\r... */\n    tag_39:\n        /* \"contracts/WrappedBTN.sol\":2853:2880  _removePauser(_msgSender()) */\n      tag_87\n        /* \"contracts/WrappedBTN.sol\":2867:2879  _msgSender() */\n      tag_88\n        /* \"contracts/WrappedBTN.sol\":2867:2877  _msgSender */\n      tag_76\n        /* \"contracts/WrappedBTN.sol\":2867:2879  _msgSender() */\n      jump\t// in\n    tag_88:\n        /* \"contracts/WrappedBTN.sol\":2853:2866  _removePauser */\n      tag_89\n        /* \"contracts/WrappedBTN.sol\":2853:2880  _removePauser(_msgSender()) */\n      jump\t// in\n    tag_87:\n        /* \"contracts/WrappedBTN.sol\":2809:2888  function renouncePauser() public {\r... */\n      jump\t// out\n        /* \"contracts/WrappedBTN.sol\":12607:12717  function balanceOf(address account) public view returns (uint256) {\r... */\n    tag_42:\n        /* \"contracts/WrappedBTN.sol\":12664:12671  uint256 */\n      0x00\n        /* \"contracts/WrappedBTN.sol\":12691:12700  _balances */\n      dup1\n        /* \"contracts/WrappedBTN.sol\":12691:12709  _balances[account] */\n      0x00\n        /* \"contracts/WrappedBTN.sol\":12701:12708  account */\n      dup4\n        /* \"contracts/WrappedBTN.sol\":12691:12709  _balances[account] */\n      0xffffffffffffffffffffffffffffffffffffffff\n      and\n      0xffffffffffffffffffffffffffffffffffffffff\n      and\n      dup2\n      mstore\n      0x20\n      add\n      swap1\n      dup2\n      mstore\n      0x20\n      add\n      0x00\n      keccak256\n      sload\n        /* \"contracts/WrappedBTN.sol\":12684:12709  return _balances[account] */\n      swap1\n      pop\n        /* \"contracts/WrappedBTN.sol\":12607:12717  function balanceOf(address account) public view returns (uint256) {\r... */\n      swap2\n      swap1\n      pop\n      jump\t// out\n        /* \"contracts/WrappedBTN.sol\":2709:2801  function addPauser(address account) public onlyPauser {\r... */\n    tag_45:\n        /* \"contracts/WrappedBTN.sol\":2489:2511  isPauser(_msgSender()) */\n      tag_92\n        /* \"contracts/WrappedBTN.sol\":2498:2510  _msgSender() */\n      tag_93\n        /* \"contracts/WrappedBTN.sol\":2498:2508  _msgSender */\n      tag_76\n        /* \"contracts/WrappedBTN.sol\":2498:2510  _msgSender() */\n      jump\t// in\n    tag_93:\n        /* \"contracts/WrappedBTN.sol\":2489:2497  isPauser */\n      tag_35\n        /* \"contracts/WrappedBTN.sol\":2489:2511  isPauser(_msgSender()) */\n      jump\t// in\n    tag_92:\n        /* \"contracts/WrappedBTN.sol\":2481:2564  require(isPauser(_msgSender()), \"PauserRole: Caller does not have the Pauser role\") */\n      tag_94\n      jumpi\n      mload(0x40)\n      0x08c379a000000000000000000000000000000000000000000000000000000000\n      dup2\n      mstore\n      0x04\n      add\n      dup1\n      dup1\n      0x20\n      add\n      dup3\n      dup2\n      sub\n      dup3\n      mstore\n      0x30\n      dup2\n      mstore\n      0x20\n      add\n      dup1\n      data_25be98b058b1d92833258d8df9a974b792278100a2477c820a0105a1f1183130\n      0x30\n      swap2\n      codecopy\n      0x40\n      add\n      swap2\n      pop\n      pop\n      mload(0x40)\n      dup1\n      swap2\n      sub\n      swap1\n      revert\n    tag_94:\n        /* \"contracts/WrappedBTN.sol\":2774:2793  _addPauser(account) */\n      tag_96\n        /* \"contracts/WrappedBTN.sol\":2785:2792  account */\n      dup2\n        /* \"contracts/WrappedBTN.sol\":2774:2784  _addPauser */\n      tag_97\n        /* \"contracts/WrappedBTN.sol\":2774:2793  _addPauser(account) */\n      jump\t// in\n    tag_96:\n        /* \"contracts/WrappedBTN.sol\":2709:2801  function addPauser(address account) public onlyPauser {\r... */\n      pop\n      jump\t// out\n        /* \"contracts/WrappedBTN.sol\":4361:4479  function pause() public onlyPauser whenNotPaused {\r... */\n    tag_47:\n        /* \"contracts/WrappedBTN.sol\":2489:2511  isPauser(_msgSender()) */\n      tag_99\n        /* \"contracts/WrappedBTN.sol\":2498:2510  _msgSender() */\n      tag_100\n        /* \"contracts/WrappedBTN.sol\":2498:2508  _msgSender */\n      tag_76\n        /* \"contracts/WrappedBTN.sol\":2498:2510  _msgSender() */\n      jump\t// in\n    tag_100:\n        /* \"contracts/WrappedBTN.sol\":2489:2497  isPauser */\n      tag_35\n        /* \"contracts/WrappedBTN.sol\":2489:2511  isPauser(_msgSender()) */\n      jump\t// in\n    tag_99:\n        /* \"contracts/WrappedBTN.sol\":2481:2564  require(isPauser(_msgSender()), \"PauserRole: Caller does not have the Pauser role\") */\n      tag_101\n      jumpi\n      mload(0x40)\n      0x08c379a000000000000000000000000000000000000000000000000000000000\n      dup2\n      mstore\n      0x04\n      add\n      dup1\n      dup1\n      0x20\n      add\n      dup3\n      dup2\n      sub\n      dup3\n      mstore\n      0x30\n      dup2\n      mstore\n      0x20\n      add\n      dup1\n      data_25be98b058b1d92833258d8df9a974b792278100a2477c820a0105a1f1183130\n      0x30\n      swap2\n      codecopy\n      0x40\n      add\n      swap2\n      pop\n      pop\n      mload(0x40)\n      dup1\n      swap2\n      sub\n      swap1\n      revert\n    tag_101:\n        /* \"contracts/WrappedBTN.sol\":4018:4025  _paused */\n      0x04\n      0x00\n      swap1\n      sload\n      swap1\n      0x0100\n      exp\n      swap1\n      div\n      0xff\n      and\n        /* \"contracts/WrappedBTN.sol\":4017:4025  !_paused */\n      iszero\n        /* \"contracts/WrappedBTN.sol\":4009:4046  require(!_paused, \"Pausable: Paused\") */\n      tag_103\n      jumpi\n      mload(0x40)\n      0x08c379a000000000000000000000000000000000000000000000000000000000\n      dup2\n      mstore\n      0x04\n      add\n      dup1\n      dup1\n      0x20\n      add\n      dup3\n      dup2\n      sub\n      dup3\n      mstore\n      0x10\n      dup2\n      mstore\n      0x20\n      add\n      dup1\n      0x5061757361626c653a2050617573656400000000000000000000000000000000\n      dup2\n      mstore\n      pop\n      0x20\n      add\n      swap2\n      pop\n      pop\n      mload(0x40)\n      dup1\n      swap2\n      sub\n      swap1\n      revert\n    tag_103:\n        /* \"contracts/WrappedBTN.sol\":4431:4435  true */\n      0x01\n        /* \"contracts/WrappedBTN.sol\":4421:4428  _paused */\n      0x04\n      0x00\n        /* \"contracts/WrappedBTN.sol\":4421:4435  _paused = true */\n      0x0100\n      exp\n      dup2\n      sload\n      dup2\n      0xff\n      mul\n      not\n      and\n      swap1\n      dup4\n      iszero\n      iszero\n      mul\n      or\n      swap1\n      sstore\n      pop\n        /* \"contracts/WrappedBTN.sol\":4451:4471  Paused(_msgSender()) */\n      0x62e78cea01bee320cd4e420270b5ea74000d11b0c9f74754ebdbfc544b05a258\n        /* \"contracts/WrappedBTN.sol\":4458:4470  _msgSender() */\n      tag_105\n        /* \"contracts/WrappedBTN.sol\":4458:4468  _msgSender */\n      tag_76\n        /* \"contracts/WrappedBTN.sol\":4458:4470  _msgSender() */\n      jump\t// in\n    tag_105:\n        /* \"contracts/WrappedBTN.sol\":4451:4471  Paused(_msgSender()) */\n      mload(0x40)\n      dup1\n      dup3\n      0xffffffffffffffffffffffffffffffffffffffff\n      and\n      0xffffffffffffffffffffffffffffffffffffffff\n      and\n      dup2\n      mstore\n      0x20\n      add\n      swap2\n      pop\n      pop\n      mload(0x40)\n      dup1\n      swap2\n      sub\n      swap1\n      log1\n        /* \"contracts/WrappedBTN.sol\":4361:4479  function pause() public onlyPauser whenNotPaused {\r... */\n      jump\t// out\n        /* \"contracts/WrappedBTN.sol\":21355:21535  function decreaseAllowance(address spender, uint256 subtractedValue) public whenNotPaused returns (bool) {\r... */\n    tag_50:\n        /* \"contracts/WrappedBTN.sol\":21454:21458  bool */\n      0x00\n        /* \"contracts/WrappedBTN.sol\":4018:4025  _paused */\n      0x04\n      0x00\n      swap1\n      sload\n      swap1\n      0x0100\n      exp\n      swap1\n      div\n      0xff\n      and\n        /* \"contracts/WrappedBTN.sol\":4017:4025  !_paused */\n      iszero\n        /* \"contracts/WrappedBTN.sol\":4009:4046  require(!_paused, \"Pausable: Paused\") */\n      tag_107\n      jumpi\n      mload(0x40)\n      0x08c379a000000000000000000000000000000000000000000000000000000000\n      dup2\n      mstore\n      0x04\n      add\n      dup1\n      dup1\n      0x20\n      add\n      dup3\n      dup2\n      sub\n      dup3\n      mstore\n      0x10\n      dup2\n      mstore\n      0x20\n      add\n      dup1\n      0x5061757361626c653a2050617573656400000000000000000000000000000000\n      dup2\n      mstore\n      pop\n      0x20\n      add\n      swap2\n      pop\n      pop\n      mload(0x40)\n      dup1\n      swap2\n      sub\n      swap1\n      revert\n    tag_107:\n        /* \"contracts/WrappedBTN.sol\":21478:21527  super.decreaseAllowance(spender, subtractedValue) */\n      tag_109\n        /* \"contracts/WrappedBTN.sol\":21502:21509  spender */\n      dup4\n        /* \"contracts/WrappedBTN.sol\":21511:21526  subtractedValue */\n      dup4\n        /* \"contracts/WrappedBTN.sol\":21478:21501  super.decreaseAllowance */\n      tag_110\n        /* \"contracts/WrappedBTN.sol\":21478:21527  super.decreaseAllowance(spender, subtractedValue) */\n      jump\t// in\n    tag_109:\n        /* \"contracts/WrappedBTN.sol\":21471:21527  return super.decreaseAllowance(spender, subtractedValue) */\n      swap1\n      pop\n        /* \"contracts/WrappedBTN.sol\":21355:21535  function decreaseAllowance(address spender, uint256 subtractedValue) public whenNotPaused returns (bool) {\r... */\n      swap3\n      swap2\n      pop\n      pop\n      jump\t// out\n        /* \"contracts/WrappedBTN.sol\":20721:20853  function transfer(address to, uint256 value) public whenNotPaused returns (bool) {\r... */\n    tag_53:\n        /* \"contracts/WrappedBTN.sol\":20796:20800  bool */\n      0x00\n        /* \"contracts/WrappedBTN.sol\":4018:4025  _paused */\n      0x04\n      0x00\n      swap1\n      sload\n      swap1\n      0x0100\n      exp\n      swap1\n      div\n      0xff\n      and\n        /* \"contracts/WrappedBTN.sol\":4017:4025  !_paused */\n      iszero\n        /* \"contracts/WrappedBTN.sol\":4009:4046  require(!_paused, \"Pausable: Paused\") */\n      tag_112\n      jumpi\n      mload(0x40)\n      0x08c379a000000000000000000000000000000000000000000000000000000000\n      dup2\n      mstore\n      0x04\n      add\n      dup1\n      dup1\n      0x20\n      add\n      dup3\n      dup2\n      sub\n      dup3\n      mstore\n      0x10\n      dup2\n      mstore\n      0x20\n      add\n      dup1\n      0x5061757361626c653a2050617573656400000000000000000000000000000000\n      dup2\n      mstore\n      pop\n      0x20\n      add\n      swap2\n      pop\n      pop\n      mload(0x40)\n      dup1\n      swap2\n      sub\n      swap1\n      revert\n    tag_112:\n        /* \"contracts/WrappedBTN.sol\":20820:20845  super.transfer(to, value) */\n      tag_114\n        /* \"contracts/WrappedBTN.sol\":20835:20837  to */\n      dup4\n        /* \"contracts/WrappedBTN.sol\":20839:20844  value */\n      dup4\n        /* \"contracts/WrappedBTN.sol\":20820:20834  super.transfer */\n      tag_115\n        /* \"contracts/WrappedBTN.sol\":20820:20845  super.transfer(to, value) */\n      jump\t// in\n    tag_114:\n        /* \"contracts/WrappedBTN.sol\":20813:20845  return super.transfer(to, value) */\n      swap1\n      pop\n        /* \"contracts/WrappedBTN.sol\":20721:20853  function transfer(address to, uint256 value) public whenNotPaused returns (bool) {\r... */\n      swap3\n      swap2\n      pop\n      pop\n      jump\t// out\n        /* \"contracts/WrappedBTN.sol\":13151:13285  function allowance(address owner, address spender) public view returns (uint256) {\r... */\n    tag_56:\n        /* \"contracts/WrappedBTN.sol\":13223:13230  uint256 */\n      0x00\n        /* \"contracts/WrappedBTN.sol\":13250:13261  _allowances */\n      0x01\n        /* \"contracts/WrappedBTN.sol\":13250:13268  _allowances[owner] */\n      0x00\n        /* \"contracts/WrappedBTN.sol\":13262:13267  owner */\n      dup5\n        /* \"contracts/WrappedBTN.sol\":13250:13268  _allowances[owner] */\n      0xffffffffffffffffffffffffffffffffffffffff\n      and\n      0xffffffffffffffffffffffffffffffffffffffff\n      and\n      dup2\n      mstore\n      0x20\n      add\n      swap1\n      dup2\n      mstore\n      0x20\n      add\n      0x00\n      keccak256\n        /* \"contracts/WrappedBTN.sol\":13250:13277  _allowances[owner][spender] */\n      0x00\n        /* \"contracts/WrappedBTN.sol\":13269:13276  spender */\n      dup4\n        /* \"contracts/WrappedBTN.sol\":13250:13277  _allowances[owner][spender] */\n      0xffffffffffffffffffffffffffffffffffffffff\n      and\n      0xffffffffffffffffffffffffffffffffffffffff\n      and\n      dup2\n      mstore\n      0x20\n      add\n      swap1\n      dup2\n      mstore\n      0x20\n      add\n      0x00\n      keccak256\n      sload\n        /* \"contracts/WrappedBTN.sol\":13243:13277  return _allowances[owner][spender] */\n      swap1\n      pop\n        /* \"contracts/WrappedBTN.sol\":13151:13285  function allowance(address owner, address spender) public view returns (uint256) {\r... */\n      swap3\n      swap2\n      pop\n      pop\n      jump\t// out\n        /* \"contracts/WrappedBTN.sol\":13432:13584  function approve(address spender, uint256 amount) public returns (bool) {\r... */\n    tag_61:\n        /* \"contracts/WrappedBTN.sol\":13498:13502  bool */\n      0x00\n        /* \"contracts/WrappedBTN.sol\":13515:13554  _approve(_msgSender(), spender, amount) */\n      tag_118\n        /* \"contracts/WrappedBTN.sol\":13524:13536  _msgSender() */\n      tag_119\n        /* \"contracts/WrappedBTN.sol\":13524:13534  _msgSender */\n      tag_76\n        /* \"contracts/WrappedBTN.sol\":13524:13536  _msgSender() */\n      jump\t// in\n    tag_119:\n        /* \"contracts/WrappedBTN.sol\":13538:13545  spender */\n      dup5\n        /* \"contracts/WrappedBTN.sol\":13547:13553  amount */\n      dup5\n        /* \"contracts/WrappedBTN.sol\":13515:13523  _approve */\n      tag_120\n        /* \"contracts/WrappedBTN.sol\":13515:13554  _approve(_msgSender(), spender, amount) */\n      jump\t// in\n    tag_118:\n        /* \"contracts/WrappedBTN.sol\":13572:13576  true */\n      0x01\n        /* \"contracts/WrappedBTN.sol\":13565:13576  return true */\n      swap1\n      pop\n        /* \"contracts/WrappedBTN.sol\":13432:13584  function approve(address spender, uint256 amount) public returns (bool) {\r... */\n      swap3\n      swap2\n      pop\n      pop\n      jump\t// out\n        /* \"contracts/WrappedBTN.sol\":14056:14360  function transferFrom(address sender, address recipient, uint256 amount) public returns (bool) {\r... */\n    tag_67:\n        /* \"contracts/WrappedBTN.sol\":14145:14149  bool */\n      0x00\n        /* \"contracts/WrappedBTN.sol\":14162:14198  _transfer(sender, recipient, amount) */\n      tag_122\n        /* \"contracts/WrappedBTN.sol\":14172:14178  sender */\n      dup5\n        /* \"contracts/WrappedBTN.sol\":14180:14189  recipient */\n      dup5\n        /* \"contracts/WrappedBTN.sol\":14191:14197  amount */\n      dup5\n        /* \"contracts/WrappedBTN.sol\":14162:14171  _transfer */\n      tag_123\n        /* \"contracts/WrappedBTN.sol\":14162:14198  _transfer(sender, recipient, amount) */\n      jump\t// in\n    tag_122:\n        /* \"contracts/WrappedBTN.sol\":14209:14330  _approve(sender, _msgSender(), _allowances[sender][_msgSender()].sub(amount, \"BTS20: Transfer amount exceeds allowance\")) */\n      tag_124\n        /* \"contracts/WrappedBTN.sol\":14218:14224  sender */\n      dup5\n        /* \"contracts/WrappedBTN.sol\":14226:14238  _msgSender() */\n      tag_125\n        /* \"contracts/WrappedBTN.sol\":14226:14236  _msgSender */\n      tag_76\n        /* \"contracts/WrappedBTN.sol\":14226:14238  _msgSender() */\n      jump\t// in\n    tag_125:\n        /* \"contracts/WrappedBTN.sol\":14240:14329  _allowances[sender][_msgSender()].sub(amount, \"BTS20: Transfer amount exceeds allowance\") */\n      tag_126\n        /* \"contracts/WrappedBTN.sol\":14278:14284  amount */\n      dup6\n        /* \"contracts/WrappedBTN.sol\":14240:14329  _allowances[sender][_msgSender()].sub(amount, \"BTS20: Transfer amount exceeds allowance\") */\n      mload(0x40)\n      dup1\n      0x60\n      add\n      0x40\n      mstore\n      dup1\n      0x28\n      dup2\n      mstore\n      0x20\n      add\n      data_87e68e359a508fdd807276992d1ea1de946879eb16f1af103adae6d91f2c7695\n      0x28\n      swap2\n      codecopy\n        /* \"contracts/WrappedBTN.sol\":14240:14251  _allowances */\n      0x01\n        /* \"contracts/WrappedBTN.sol\":14240:14259  _allowances[sender] */\n      0x00\n        /* \"contracts/WrappedBTN.sol\":14252:14258  sender */\n      dup12\n        /* \"contracts/WrappedBTN.sol\":14240:14259  _allowances[sender] */\n      0xffffffffffffffffffffffffffffffffffffffff\n      and\n      0xffffffffffffffffffffffffffffffffffffffff\n      and\n      dup2\n      mstore\n      0x20\n      add\n      swap1\n      dup2\n      mstore\n      0x20\n      add\n      0x00\n      keccak256\n        /* \"contracts/WrappedBTN.sol\":14240:14273  _allowances[sender][_msgSender()] */\n      0x00\n        /* \"contracts/WrappedBTN.sol\":14260:14272  _msgSender() */\n      tag_127\n        /* \"contracts/WrappedBTN.sol\":14260:14270  _msgSender */\n      tag_76\n        /* \"contracts/WrappedBTN.sol\":14260:14272  _msgSender() */\n      jump\t// in\n    tag_127:\n        /* \"contracts/WrappedBTN.sol\":14240:14273  _allowances[sender][_msgSender()] */\n      0xffffffffffffffffffffffffffffffffffffffff\n      and\n      0xffffffffffffffffffffffffffffffffffffffff\n      and\n      dup2\n      mstore\n      0x20\n      add\n      swap1\n      dup2\n      mstore\n      0x20\n      add\n      0x00\n      keccak256\n      sload\n        /* \"contracts/WrappedBTN.sol\":14240:14277  _allowances[sender][_msgSender()].sub */\n      tag_128\n      swap1\n        /* \"contracts/WrappedBTN.sol\":14240:14329  _allowances[sender][_msgSender()].sub(amount, \"BTS20: Transfer amount exceeds allowance\") */\n      swap3\n      swap2\n      swap1\n      0xffffffff\n      and\n      jump\t// in\n    tag_126:\n        /* \"contracts/WrappedBTN.sol\":14209:14217  _approve */\n      tag_120\n        /* \"contracts/WrappedBTN.sol\":14209:14330  _approve(sender, _msgSender(), _allowances[sender][_msgSender()].sub(amount, \"BTS20: Transfer amount exceeds allowance\")) */\n      jump\t// in\n    tag_124:\n        /* \"contracts/WrappedBTN.sol\":14348:14352  true */\n      0x01\n        /* \"contracts/WrappedBTN.sol\":14341:14352  return true */\n      swap1\n      pop\n        /* \"contracts/WrappedBTN.sol\":14056:14360  function transferFrom(address sender, address recipient, uint256 amount) public returns (bool) {\r... */\n      swap4\n      swap3\n      pop\n      pop\n      pop\n      jump\t// out\n        /* \"contracts/WrappedBTN.sol\":14769:14979  function increaseAllowance(address spender, uint256 addedValue) public returns (bool) {\r... */\n    tag_72:\n        /* \"contracts/WrappedBTN.sol\":14849:14853  bool */\n      0x00\n        /* \"contracts/WrappedBTN.sol\":14866:14949  _approve(_msgSender(), spender, _allowances[_msgSender()][spender].add(addedValue)) */\n      tag_130\n        /* \"contracts/WrappedBTN.sol\":14875:14887  _msgSender() */\n      tag_131\n        /* \"contracts/WrappedBTN.sol\":14875:14885  _msgSender */\n      tag_76\n        /* \"contracts/WrappedBTN.sol\":14875:14887  _msgSender() */\n      jump\t// in\n    tag_131:\n        /* \"contracts/WrappedBTN.sol\":14889:14896  spender */\n      dup5\n        /* \"contracts/WrappedBTN.sol\":14898:14948  _allowances[_msgSender()][spender].add(addedValue) */\n      tag_132\n        /* \"contracts/WrappedBTN.sol\":14937:14947  addedValue */\n      dup6\n        /* \"contracts/WrappedBTN.sol\":14898:14909  _allowances */\n      0x01\n        /* \"contracts/WrappedBTN.sol\":14898:14923  _allowances[_msgSender()] */\n      0x00\n        /* \"contracts/WrappedBTN.sol\":14910:14922  _msgSender() */\n      tag_133\n        /* \"contracts/WrappedBTN.sol\":14910:14920  _msgSender */\n      tag_76\n        /* \"contracts/WrappedBTN.sol\":14910:14922  _msgSender() */\n      jump\t// in\n    tag_133:\n        /* \"contracts/WrappedBTN.sol\":14898:14923  _allowances[_msgSender()] */\n      0xffffffffffffffffffffffffffffffffffffffff\n      and\n      0xffffffffffffffffffffffffffffffffffffffff\n      and\n      dup2\n      mstore\n      0x20\n      add\n      swap1\n      dup2\n      mstore\n      0x20\n      add\n      0x00\n      keccak256\n        /* \"contracts/WrappedBTN.sol\":14898:14932  _allowances[_msgSender()][spender] */\n      0x00\n        /* \"contracts/WrappedBTN.sol\":14924:14931  spender */\n      dup10\n        /* \"contracts/WrappedBTN.sol\":14898:14932  _allowances[_msgSender()][spender] */\n      0xffffffffffffffffffffffffffffffffffffffff\n      and\n      0xffffffffffffffffffffffffffffffffffffffff\n      and\n      dup2\n      mstore\n      0x20\n      add\n      swap1\n      dup2\n      mstore\n      0x20\n      add\n      0x00\n      keccak256\n      sload\n        /* \"contracts/WrappedBTN.sol\":14898:14936  _allowances[_msgSender()][spender].add */\n      tag_134\n      swap1\n        /* \"contracts/WrappedBTN.sol\":14898:14948  _allowances[_msgSender()][spender].add(addedValue) */\n      swap2\n      swap1\n      0xffffffff\n      and\n      jump\t// in\n    tag_132:\n        /* \"contracts/WrappedBTN.sol\":14866:14874  _approve */\n      tag_120\n        /* \"contracts/WrappedBTN.sol\":14866:14949  _approve(_msgSender(), spender, _allowances[_msgSender()][spender].add(addedValue)) */\n      jump\t// in\n    tag_130:\n        /* \"contracts/WrappedBTN.sol\":14967:14971  true */\n      0x01\n        /* \"contracts/WrappedBTN.sol\":14960:14971  return true */\n      swap1\n      pop\n        /* \"contracts/WrappedBTN.sol\":14769:14979  function increaseAllowance(address spender, uint256 addedValue) public returns (bool) {\r... */\n      swap3\n      swap2\n      pop\n      pop\n      jump\t// out\n        /* \"contracts/WrappedBTN.sol\":1037:1135  function _msgSender() internal view returns (address payable) {\r... */\n    tag_76:\n        /* \"contracts/WrappedBTN.sol\":1082:1097  address payable */\n      0x00\n        /* \"contracts/WrappedBTN.sol\":1117:1127  msg.sender */\n      caller\n        /* \"contracts/WrappedBTN.sol\":1110:1127  return msg.sender */\n      swap1\n      pop\n        /* \"contracts/WrappedBTN.sol\":1037:1135  function _msgSender() internal view returns (address payable) {\r... */\n      swap1\n      jump\t// out\n        /* \"contracts/WrappedBTN.sol\":1952:2155  function has(Role storage role, address account) internal view returns (bool) {\r... */\n    tag_84:\n        /* \"contracts/WrappedBTN.sol\":2024:2028  bool */\n      0x00\n        /* \"contracts/WrappedBTN.sol\":2068:2069  0 */\n      dup1\n        /* \"contracts/WrappedBTN.sol\":2049:2070  account != address(0) */\n      0xffffffffffffffffffffffffffffffffffffffff\n      and\n        /* \"contracts/WrappedBTN.sol\":2049:2056  account */\n      dup3\n        /* \"contracts/WrappedBTN.sol\":2049:2070  account != address(0) */\n      0xffffffffffffffffffffffffffffffffffffffff\n      and\n      eq\n      iszero\n        /* \"contracts/WrappedBTN.sol\":2041:2109  require(account != address(0), \"Roles: Account is the zero address\") */\n      tag_137\n      jumpi\n      mload(0x40)\n      0x08c379a000000000000000000000000000000000000000000000000000000000\n      dup2\n      mstore\n      0x04\n      add\n      dup1\n      dup1\n      0x20\n      add\n      dup3\n      dup2\n      sub\n      dup3\n      mstore\n      0x22\n      dup2\n      mstore\n      0x20\n      add\n      dup1\n      data_d67578b85ba6d73375c4493f438c3d9072fd4105433709f73a70d19f74a8eed3\n      0x22\n      swap2\n      codecopy\n      0x40\n      add\n      swap2\n      pop\n      pop\n      mload(0x40)\n      dup1\n      swap2\n      sub\n      swap1\n      revert\n    tag_137:\n        /* \"contracts/WrappedBTN.sol\":2127:2131  role */\n      dup3\n        /* \"contracts/WrappedBTN.sol\":2127:2138  role.bearer */\n      0x00\n      add\n        /* \"contracts/WrappedBTN.sol\":2127:2147  role.bearer[account] */\n      0x00\n        /* \"contracts/WrappedBTN.sol\":2139:2146  account */\n      dup4\n        /* \"contracts/WrappedBTN.sol\":2127:2147  role.bearer[account] */\n      0xffffffffffffffffffffffffffffffffffffffff\n      and\n      0xffffffffffffffffffffffffffffffffffffffff\n      and\n      dup2\n      mstore\n      0x20\n      add\n      swap1\n      dup2\n      mstore\n      0x20\n      add\n      0x00\n      keccak256\n      0x00\n      swap1\n      sload\n      swap1\n      0x0100\n      exp\n      swap1\n      div\n      0xff\n      and\n        /* \"contracts/WrappedBTN.sol\":2120:2147  return role.bearer[account] */\n      swap1\n      pop\n        /* \"contracts/WrappedBTN.sol\":1952:2155  function has(Role storage role, address account) internal view returns (bool) {\r... */\n      swap3\n      swap2\n      pop\n      pop\n      jump\t// out\n        /* \"contracts/WrappedBTN.sol\":3026:3156  function _removePauser(address account) internal {\r... */\n    tag_89:\n        /* \"contracts/WrappedBTN.sol\":3086:3110  _pausers.remove(account) */\n      tag_139\n        /* \"contracts/WrappedBTN.sol\":3102:3109  account */\n      dup2\n        /* \"contracts/WrappedBTN.sol\":3086:3094  _pausers */\n      0x03\n        /* \"contracts/WrappedBTN.sol\":3086:3101  _pausers.remove */\n      tag_140\n      swap1\n        /* \"contracts/WrappedBTN.sol\":3086:3110  _pausers.remove(account) */\n      swap2\n      swap1\n      0xffffffff\n      and\n      jump\t// in\n    tag_139:\n        /* \"contracts/WrappedBTN.sol\":3140:3147  account */\n      dup1\n        /* \"contracts/WrappedBTN.sol\":3126:3148  PauserRemoved(account) */\n      0xffffffffffffffffffffffffffffffffffffffff\n      and\n      0xcd265ebaf09df2871cc7bd4133404a235ba12eff2041bb89d9c714a2621c7c7e\n      mload(0x40)\n      mload(0x40)\n      dup1\n      swap2\n      sub\n      swap1\n      log2\n        /* \"contracts/WrappedBTN.sol\":3026:3156  function _removePauser(address account) internal {\r... */\n      pop\n      jump\t// out\n        /* \"contracts/WrappedBTN.sol\":2896:3018  function _addPauser(address account) internal {\r... */\n    tag_97:\n        /* \"contracts/WrappedBTN.sol\":2953:2974  _pausers.add(account) */\n      tag_142\n        /* \"contracts/WrappedBTN.sol\":2966:2973  account */\n      dup2\n        /* \"contracts/WrappedBTN.sol\":2953:2961  _pausers */\n      0x03\n        /* \"contracts/WrappedBTN.sol\":2953:2965  _pausers.add */\n      tag_143\n      swap1\n        /* \"contracts/WrappedBTN.sol\":2953:2974  _pausers.add(account) */\n      swap2\n      swap1\n      0xffffffff\n      and\n      jump\t// in\n    tag_142:\n        /* \"contracts/WrappedBTN.sol\":3002:3009  account */\n      dup1\n        /* \"contracts/WrappedBTN.sol\":2990:3010  PauserAdded(account) */\n      0xffffffffffffffffffffffffffffffffffffffff\n      and\n      0x6719d08c1888103bea251a4ed56406bd0c3e69723c8a1686e017e7bbe159b6f8\n      mload(0x40)\n      mload(0x40)\n      dup1\n      swap2\n      sub\n      swap1\n      log2\n        /* \"contracts/WrappedBTN.sol\":2896:3018  function _addPauser(address account) internal {\r... */\n      pop\n      jump\t// out\n        /* \"contracts/WrappedBTN.sol\":15482:15743  function decreaseAllowance(address spender, uint256 subtractedValue) public returns (bool) {\r... */\n    tag_110:\n        /* \"contracts/WrappedBTN.sol\":15567:15571  bool */\n      0x00\n        /* \"contracts/WrappedBTN.sol\":15584:15713  _approve(_msgSender(), spender, _allowances[_msgSender()][spender].sub(subtractedValue, \"BTS20: Decreased allowance below zero\")) */\n      tag_145\n        /* \"contracts/WrappedBTN.sol\":15593:15605  _msgSender() */\n      tag_146\n        /* \"contracts/WrappedBTN.sol\":15593:15603  _msgSender */\n      tag_76\n        /* \"contracts/WrappedBTN.sol\":15593:15605  _msgSender() */\n      jump\t// in\n    tag_146:\n        /* \"contracts/WrappedBTN.sol\":15607:15614  spender */\n      dup5\n        /* \"contracts/WrappedBTN.sol\":15616:15712  _allowances[_msgSender()][spender].sub(subtractedValue, \"BTS20: Decreased allowance below zero\") */\n      tag_147\n        /* \"contracts/WrappedBTN.sol\":15655:15670  subtractedValue */\n      dup6\n        /* \"contracts/WrappedBTN.sol\":15616:15712  _allowances[_msgSender()][spender].sub(subtractedValue, \"BTS20: Decreased allowance below zero\") */\n      mload(0x40)\n      dup1\n      0x60\n      add\n      0x40\n      mstore\n      dup1\n      0x25\n      dup2\n      mstore\n      0x20\n      add\n      data_37fc6950a7d42389a48f4b64dc2e97ff802031381fae362d19398bbcbbb73aff\n      0x25\n      swap2\n      codecopy\n        /* \"contracts/WrappedBTN.sol\":15616:15627  _allowances */\n      0x01\n        /* \"contracts/WrappedBTN.sol\":15616:15641  _allowances[_msgSender()] */\n      0x00\n        /* \"contracts/WrappedBTN.sol\":15628:15640  _msgSender() */\n      tag_148\n        /* \"contracts/WrappedBTN.sol\":15628:15638  _msgSender */\n      tag_76\n        /* \"contracts/WrappedBTN.sol\":15628:15640  _msgSender() */\n      jump\t// in\n    tag_148:\n        /* \"contracts/WrappedBTN.sol\":15616:15641  _allowances[_msgSender()] */\n      0xffffffffffffffffffffffffffffffffffffffff\n      and\n      0xffffffffffffffffffffffffffffffffffffffff\n      and\n      dup2\n      mstore\n      0x20\n      add\n      swap1\n      dup2\n      mstore\n      0x20\n      add\n      0x00\n      keccak256\n        /* \"contracts/WrappedBTN.sol\":15616:15650  _allowances[_msgSender()][spender] */\n      0x00\n        /* \"contracts/WrappedBTN.sol\":15642:15649  spender */\n      dup11\n        /* \"contracts/WrappedBTN.sol\":15616:15650  _allowances[_msgSender()][spender] */\n      0xffffffffffffffffffffffffffffffffffffffff\n      and\n      0xffffffffffffffffffffffffffffffffffffffff\n      and\n      dup2\n      mstore\n      0x20\n      add\n      swap1\n      dup2\n      mstore\n      0x20\n      add\n      0x00\n      keccak256\n      sload\n        /* \"contracts/WrappedBTN.sol\":15616:15654  _allowances[_msgSender()][spender].sub */\n      tag_128\n      swap1\n        /* \"contracts/WrappedBTN.sol\":15616:15712  _allowances[_msgSender()][spender].sub(subtractedValue, \"BTS20: Decreased allowance below zero\") */\n      swap3\n      swap2\n      swap1\n      0xffffffff\n      and\n      jump\t// in\n    tag_147:\n        /* \"contracts/WrappedBTN.sol\":15584:15592  _approve */\n      tag_120\n        /* \"contracts/WrappedBTN.sol\":15584:15713  _approve(_msgSender(), spender, _allowances[_msgSender()][spender].sub(subtractedValue, \"BTS20: Decreased allowance below zero\")) */\n      jump\t// in\n    tag_145:\n        /* \"contracts/WrappedBTN.sol\":15731:15735  true */\n      0x01\n        /* \"contracts/WrappedBTN.sol\":15724:15735  return true */\n      swap1\n      pop\n        /* \"contracts/WrappedBTN.sol\":15482:15743  function decreaseAllowance(address spender, uint256 subtractedValue) public returns (bool) {\r... */\n      swap3\n      swap2\n      pop\n      pop\n      jump\t// out\n        /* \"contracts/WrappedBTN.sol\":12930:13088  function transfer(address recipient, uint256 amount) public returns (bool) {\r... */\n    tag_115:\n        /* \"contracts/WrappedBTN.sol\":12999:13003  bool */\n      0x00\n        /* \"contracts/WrappedBTN.sol\":13016:13058  _transfer(_msgSender(), recipient, amount) */\n      tag_150\n        /* \"contracts/WrappedBTN.sol\":13026:13038  _msgSender() */\n      tag_151\n        /* \"contracts/WrappedBTN.sol\":13026:13036  _msgSender */\n      tag_76\n        /* \"contracts/WrappedBTN.sol\":13026:13038  _msgSender() */\n      jump\t// in\n    tag_151:\n        /* \"contracts/WrappedBTN.sol\":13040:13049  recipient */\n      dup5\n        /* \"contracts/WrappedBTN.sol\":13051:13057  amount */\n      dup5\n        /* \"contracts/WrappedBTN.sol\":13016:13025  _transfer */\n      tag_123\n        /* \"contracts/WrappedBTN.sol\":13016:13058  _transfer(_msgSender(), recipient, amount) */\n      jump\t// in\n    tag_150:\n        /* \"contracts/WrappedBTN.sol\":13076:13080  true */\n      0x01\n        /* \"contracts/WrappedBTN.sol\":13069:13080  return true */\n      swap1\n      pop\n        /* \"contracts/WrappedBTN.sol\":12930:13088  function transfer(address recipient, uint256 amount) public returns (bool) {\r... */\n      swap3\n      swap2\n      pop\n      pop\n      jump\t// out\n        /* \"contracts/WrappedBTN.sol\":18413:18751  function _approve(address owner, address spender, uint256 amount) internal {\r... */\n    tag_120:\n        /* \"contracts/WrappedBTN.sol\":18524:18525  0 */\n      0x00\n        /* \"contracts/WrappedBTN.sol\":18507:18526  owner != address(0) */\n      0xffffffffffffffffffffffffffffffffffffffff\n      and\n        /* \"contracts/WrappedBTN.sol\":18507:18512  owner */\n      dup4\n        /* \"contracts/WrappedBTN.sol\":18507:18526  owner != address(0) */\n      0xffffffffffffffffffffffffffffffffffffffff\n      and\n      eq\n      iszero\n        /* \"contracts/WrappedBTN.sol\":18499:18567  require(owner != address(0), \"BTS20: Approve from the zero address\") */\n      tag_153\n      jumpi\n      mload(0x40)\n      0x08c379a000000000000000000000000000000000000000000000000000000000\n      dup2\n      mstore\n      0x04\n      add\n      dup1\n      dup1\n      0x20\n      add\n      dup3\n      dup2\n      sub\n      dup3\n      mstore\n      0x24\n      dup2\n      mstore\n      0x20\n      add\n      dup1\n      data_d7972261d3cd252e74752e913ed29c8220929ede1fc34ef44423bbf2fce46186\n      0x24\n      swap2\n      codecopy\n      0x40\n      add\n      swap2\n      pop\n      pop\n      mload(0x40)\n      dup1\n      swap2\n      sub\n      swap1\n      revert\n    tag_153:\n        /* \"contracts/WrappedBTN.sol\":18605:18606  0 */\n      0x00\n        /* \"contracts/WrappedBTN.sol\":18586:18607  spender != address(0) */\n      0xffffffffffffffffffffffffffffffffffffffff\n      and\n        /* \"contracts/WrappedBTN.sol\":18586:18593  spender */\n      dup3\n        /* \"contracts/WrappedBTN.sol\":18586:18607  spender != address(0) */\n      0xffffffffffffffffffffffffffffffffffffffff\n      and\n      eq\n      iszero\n        /* \"contracts/WrappedBTN.sol\":18578:18646  require(spender != address(0), \"BTS20: Approve to the zero address\") */\n      tag_154\n      jumpi\n      mload(0x40)\n      0x08c379a000000000000000000000000000000000000000000000000000000000\n      dup2\n      mstore\n      0x04\n      add\n      dup1\n      dup1\n      0x20\n      add\n      dup3\n      dup2\n      sub\n      dup3\n      mstore\n      0x22\n      dup2\n      mstore\n      0x20\n      add\n      dup1\n      data_9b2d9f322da2dd8c80668fcb5cf0c608e8d3c6f6d680cf2587a3f8fed2786a8c\n      0x22\n      swap2\n      codecopy\n      0x40\n      add\n      swap2\n      pop\n      pop\n      mload(0x40)\n      dup1\n      swap2\n      sub\n      swap1\n      revert\n    tag_154:\n        /* \"contracts/WrappedBTN.sol\":18689:18695  amount */\n      dup1\n        /* \"contracts/WrappedBTN.sol\":18659:18670  _allowances */\n      0x01\n        /* \"contracts/WrappedBTN.sol\":18659:18677  _allowances[owner] */\n      0x00\n        /* \"contracts/WrappedBTN.sol\":18671:18676  owner */\n      dup6\n        /* \"contracts/WrappedBTN.sol\":18659:18677  _allowances[owner] */\n      0xffffffffffffffffffffffffffffffffffffffff\n      and\n      0xffffffffffffffffffffffffffffffffffffffff\n      and\n      dup2\n      mstore\n      0x20\n      add\n      swap1\n      dup2\n      mstore\n      0x20\n      add\n      0x00\n      keccak256\n        /* \"contracts/WrappedBTN.sol\":18659:18686  _allowances[owner][spender] */\n      0x00\n        /* \"contracts/WrappedBTN.sol\":18678:18685  spender */\n      dup5\n        /* \"contracts/WrappedBTN.sol\":18659:18686  _allowances[owner][spender] */\n      0xffffffffffffffffffffffffffffffffffffffff\n      and\n      0xffffffffffffffffffffffffffffffffffffffff\n      and\n      dup2\n      mstore\n      0x20\n      add\n      swap1\n      dup2\n      mstore\n      0x20\n      add\n      0x00\n      keccak256\n        /* \"contracts/WrappedBTN.sol\":18659:18695  _allowances[owner][spender] = amount */\n      dup2\n      swap1\n      sstore\n      pop\n        /* \"contracts/WrappedBTN.sol\":18727:18734  spender */\n      dup2\n        /* \"contracts/WrappedBTN.sol\":18711:18743  Approval(owner, spender, amount) */\n      0xffffffffffffffffffffffffffffffffffffffff\n      and\n        /* \"contracts/WrappedBTN.sol\":18720:18725  owner */\n      dup4\n        /* \"contracts/WrappedBTN.sol\":18711:18743  Approval(owner, spender, amount) */\n      0xffffffffffffffffffffffffffffffffffffffff\n      and\n      0x8c5be1e5ebec7d5bd14f71427d1e84f3dd0314c0f7b2291e5b200ac8c7c3b925\n        /* \"contracts/WrappedBTN.sol\":18736:18742  amount */\n      dup4\n        /* \"contracts/WrappedBTN.sol\":18711:18743  Approval(owner, spender, amount) */\n      mload(0x40)\n      dup1\n      dup3\n      dup2\n      mstore\n      0x20\n      add\n      swap2\n      pop\n      pop\n      mload(0x40)\n      dup1\n      swap2\n      sub\n      swap1\n      log3\n        /* \"contracts/WrappedBTN.sol\":18413:18751  function _approve(address owner, address spender, uint256 amount) internal {\r... */\n      pop\n      pop\n      pop\n      jump\t// out\n        /* \"contracts/WrappedBTN.sol\":16233:16704  function _transfer(address sender, address recipient, uint256 amount) internal {\r... */\n    tag_123:\n        /* \"contracts/WrappedBTN.sol\":16349:16350  0 */\n      0x00\n        /* \"contracts/WrappedBTN.sol\":16331:16351  sender != address(0) */\n      0xffffffffffffffffffffffffffffffffffffffff\n      and\n        /* \"contracts/WrappedBTN.sol\":16331:16337  sender */\n      dup4\n        /* \"contracts/WrappedBTN.sol\":16331:16351  sender != address(0) */\n      0xffffffffffffffffffffffffffffffffffffffff\n      and\n      eq\n      iszero\n        /* \"contracts/WrappedBTN.sol\":16323:16393  require(sender != address(0), \"BTS20: Transfer from the zero address\") */\n      tag_156\n      jumpi\n      mload(0x40)\n      0x08c379a000000000000000000000000000000000000000000000000000000000\n      dup2\n      mstore\n      0x04\n      add\n      dup1\n      dup1\n      0x20\n      add\n      dup3\n      dup2\n      sub\n      dup3\n      mstore\n      0x25\n      dup2\n      mstore\n      0x20\n      add\n      dup1\n      data_d8ff05f8feabf81285302cda791794684205b00c2f336932c9fd89d301cd3546\n      0x25\n      swap2\n      codecopy\n      0x40\n      add\n      swap2\n      pop\n      pop\n      mload(0x40)\n      dup1\n      swap2\n      sub\n      swap1\n      revert\n    tag_156:\n        /* \"contracts/WrappedBTN.sol\":16433:16434  0 */\n      0x00\n        /* \"contracts/WrappedBTN.sol\":16412:16435  recipient != address(0) */\n      0xffffffffffffffffffffffffffffffffffffffff\n      and\n        /* \"contracts/WrappedBTN.sol\":16412:16421  recipient */\n      dup3\n        /* \"contracts/WrappedBTN.sol\":16412:16435  recipient != address(0) */\n      0xffffffffffffffffffffffffffffffffffffffff\n      and\n      eq\n      iszero\n        /* \"contracts/WrappedBTN.sol\":16404:16475  require(recipient != address(0), \"BTS20: Transfer to the zero address\") */\n      tag_157\n      jumpi\n      mload(0x40)\n      0x08c379a000000000000000000000000000000000000000000000000000000000\n      dup2\n      mstore\n      0x04\n      add\n      dup1\n      dup1\n      0x20\n      add\n      dup3\n      dup2\n      sub\n      dup3\n      mstore\n      0x23\n      dup2\n      mstore\n      0x20\n      add\n      dup1\n      data_abfcc4036b636772042361b678bf07dfc9675125fbde01e4f42f2f1ced170bf7\n      0x23\n      swap2\n      codecopy\n      0x40\n      add\n      swap2\n      pop\n      pop\n      mload(0x40)\n      dup1\n      swap2\n      sub\n      swap1\n      revert\n    tag_157:\n        /* \"contracts/WrappedBTN.sol\":16508:16579  _balances[sender].sub(amount, \"BTS20: Transfer amount exceeds balance\") */\n      tag_158\n        /* \"contracts/WrappedBTN.sol\":16530:16536  amount */\n      dup2\n        /* \"contracts/WrappedBTN.sol\":16508:16579  _balances[sender].sub(amount, \"BTS20: Transfer amount exceeds balance\") */\n      mload(0x40)\n      dup1\n      0x60\n      add\n      0x40\n      mstore\n      dup1\n      0x26\n      dup2\n      mstore\n      0x20\n      add\n      data_76f25704edc14b693833bd3cbaaa43f45bc1e651767d89a8e2c5ed5e969d9054\n      0x26\n      swap2\n      codecopy\n        /* \"contracts/WrappedBTN.sol\":16508:16517  _balances */\n      0x00\n        /* \"contracts/WrappedBTN.sol\":16508:16525  _balances[sender] */\n      dup1\n        /* \"contracts/WrappedBTN.sol\":16518:16524  sender */\n      dup8\n        /* \"contracts/WrappedBTN.sol\":16508:16525  _balances[sender] */\n      0xffffffffffffffffffffffffffffffffffffffff\n      and\n      0xffffffffffffffffffffffffffffffffffffffff\n      and\n      dup2\n      mstore\n      0x20\n      add\n      swap1\n      dup2\n      mstore\n      0x20\n      add\n      0x00\n      keccak256\n      sload\n        /* \"contracts/WrappedBTN.sol\":16508:16529  _balances[sender].sub */\n      tag_128\n      swap1\n        /* \"contracts/WrappedBTN.sol\":16508:16579  _balances[sender].sub(amount, \"BTS20: Transfer amount exceeds balance\") */\n      swap3\n      swap2\n      swap1\n      0xffffffff\n      and\n      jump\t// in\n    tag_158:\n        /* \"contracts/WrappedBTN.sol\":16488:16497  _balances */\n      0x00\n        /* \"contracts/WrappedBTN.sol\":16488:16505  _balances[sender] */\n      dup1\n        /* \"contracts/WrappedBTN.sol\":16498:16504  sender */\n      dup6\n        /* \"contracts/WrappedBTN.sol\":16488:16505  _balances[sender] */\n      0xffffffffffffffffffffffffffffffffffffffff\n      and\n      0xffffffffffffffffffffffffffffffffffffffff\n      and\n      dup2\n      mstore\n      0x20\n      add\n      swap1\n      dup2\n      mstore\n      0x20\n      add\n      0x00\n      keccak256\n        /* \"contracts/WrappedBTN.sol\":16488:16579  _balances[sender] = _balances[sender].sub(amount, \"BTS20: Transfer amount exceeds balance\") */\n      dup2\n      swap1\n      sstore\n      pop\n        /* \"contracts/WrappedBTN.sol\":16613:16645  _balances[recipient].add(amount) */\n      tag_159\n        /* \"contracts/WrappedBTN.sol\":16638:16644  amount */\n      dup2\n        /* \"contracts/WrappedBTN.sol\":16613:16622  _balances */\n      0x00\n        /* \"contracts/WrappedBTN.sol\":16613:16633  _balances[recipient] */\n      dup1\n        /* \"contracts/WrappedBTN.sol\":16623:16632  recipient */\n      dup6\n        /* \"contracts/WrappedBTN.sol\":16613:16633  _balances[recipient] */\n      0xffffffffffffffffffffffffffffffffffffffff\n      and\n      0xffffffffffffffffffffffffffffffffffffffff\n      and\n      dup2\n      mstore\n      0x20\n      add\n      swap1\n      dup2\n      mstore\n      0x20\n      add\n      0x00\n      keccak256\n      sload\n        /* \"contracts/WrappedBTN.sol\":16613:16637  _balances[recipient].add */\n      tag_134\n      swap1\n        /* \"contracts/WrappedBTN.sol\":16613:16645  _balances[recipient].add(amount) */\n      swap2\n      swap1\n      0xffffffff\n      and\n      jump\t// in\n    tag_159:\n        /* \"contracts/WrappedBTN.sol\":16590:16599  _balances */\n      0x00\n        /* \"contracts/WrappedBTN.sol\":16590:16610  _balances[recipient] */\n      dup1\n        /* \"contracts/WrappedBTN.sol\":16600:16609  recipient */\n      dup5\n        /* \"contracts/WrappedBTN.sol\":16590:16610  _balances[recipient] */\n      0xffffffffffffffffffffffffffffffffffffffff\n      and\n      0xffffffffffffffffffffffffffffffffffffffff\n      and\n      dup2\n      mstore\n      0x20\n      add\n      swap1\n      dup2\n      mstore\n      0x20\n      add\n      0x00\n      keccak256\n        /* \"contracts/WrappedBTN.sol\":16590:16645  _balances[recipient] = _balances[recipient].add(amount) */\n      dup2\n      swap1\n      sstore\n      pop\n        /* \"contracts/WrappedBTN.sol\":16678:16687  recipient */\n      dup2\n        /* \"contracts/WrappedBTN.sol\":16661:16696  Transfer(sender, recipient, amount) */\n      0xffffffffffffffffffffffffffffffffffffffff\n      and\n        /* \"contracts/WrappedBTN.sol\":16670:16676  sender */\n      dup4\n        /* \"contracts/WrappedBTN.sol\":16661:16696  Transfer(sender, recipient, amount) */\n      0xffffffffffffffffffffffffffffffffffffffff\n      and\n      0xddf252ad1be2c89b69c2b068fc378daa952ba7f163c4a11628f55a4df523b3ef\n        /* \"contracts/WrappedBTN.sol\":16689:16695  amount */\n      dup4\n        /* \"contracts/WrappedBTN.sol\":16661:16696  Transfer(sender, recipient, amount) */\n      mload(0x40)\n      dup1\n      dup3\n      dup2\n      mstore\n      0x20\n      add\n      swap2\n      pop\n      pop\n      mload(0x40)\n      dup1\n      swap2\n      sub\n      swap1\n      log3\n        /* \"contracts/WrappedBTN.sol\":16233:16704  function _transfer(address sender, address recipient, uint256 amount) internal {\r... */\n      pop\n      pop\n      pop\n      jump\t// out\n        /* \"contracts/WrappedBTN.sol\":5885:6077  function sub(uint256 a, uint256 b, string memory errorMessage) internal pure returns (uint256) {\r... */\n    tag_128:\n        /* \"contracts/WrappedBTN.sol\":5971:5978  uint256 */\n      0x00\n        /* \"contracts/WrappedBTN.sol\":6004:6005  a */\n      dup4\n        /* \"contracts/WrappedBTN.sol\":5999:6000  b */\n      dup4\n        /* \"contracts/WrappedBTN.sol\":5999:6005  b <= a */\n      gt\n      iszero\n        /* \"contracts/WrappedBTN.sol\":6007:6019  errorMessage */\n      dup3\n        /* \"contracts/WrappedBTN.sol\":5991:6020  require(b <= a, errorMessage) */\n      swap1\n      tag_161\n      jumpi\n      mload(0x40)\n      0x08c379a000000000000000000000000000000000000000000000000000000000\n      dup2\n      mstore\n      0x04\n      add\n      dup1\n      dup1\n      0x20\n      add\n      dup3\n      dup2\n      sub\n      dup3\n      mstore\n      dup4\n      dup2\n      dup2\n      mload\n      dup2\n      mstore\n      0x20\n      add\n      swap2\n      pop\n      dup1\n      mload\n      swap1\n      0x20\n      add\n      swap1\n      dup1\n      dup4\n      dup4\n        /* \"--CODEGEN--\":23:24   */\n      0x00\n        /* \"--CODEGEN--\":8:108   */\n    tag_162:\n        /* \"--CODEGEN--\":33:36   */\n      dup4\n        /* \"--CODEGEN--\":30:31   */\n      dup2\n        /* \"--CODEGEN--\":27:37   */\n      lt\n        /* \"--CODEGEN--\":8:108   */\n      iszero\n      tag_164\n      jumpi\n        /* \"--CODEGEN--\":99:100   */\n      dup1\n        /* \"--CODEGEN--\":94:97   */\n      dup3\n        /* \"--CODEGEN--\":90:101   */\n      add\n        /* \"--CODEGEN--\":84:102   */\n      mload\n        /* \"--CODEGEN--\":80:81   */\n      dup2\n        /* \"--CODEGEN--\":75:78   */\n      dup5\n        /* \"--CODEGEN--\":71:82   */\n      add\n        /* \"--CODEGEN--\":64:103   */\n      mstore\n        /* \"--CODEGEN--\":52:54   */\n      0x20\n        /* \"--CODEGEN--\":49:50   */\n      dup2\n        /* \"--CODEGEN--\":45:55   */\n      add\n        /* \"--CODEGEN--\":40:55   */\n      swap1\n      pop\n        /* \"--CODEGEN--\":8:108   */\n      jump(tag_162)\n    tag_164:\n        /* \"--CODEGEN--\":12:26   */\n      pop\n        /* \"contracts/WrappedBTN.sol\":5991:6020  require(b <= a, errorMessage) */\n      pop\n      pop\n      pop\n      swap1\n      pop\n      swap1\n      dup2\n      add\n      swap1\n      0x1f\n      and\n      dup1\n      iszero\n      tag_165\n      jumpi\n      dup1\n      dup3\n      sub\n      dup1\n      mload\n      0x01\n      dup4\n      0x20\n      sub\n      0x0100\n      exp\n      sub\n      not\n      and\n      dup2\n      mstore\n      0x20\n      add\n      swap2\n      pop\n    tag_165:\n      pop\n      swap3\n      pop\n      pop\n      pop\n      mload(0x40)\n      dup1\n      swap2\n      sub\n      swap1\n      revert\n    tag_161:\n      pop\n        /* \"contracts/WrappedBTN.sol\":6031:6040  uint256 c */\n      0x00\n        /* \"contracts/WrappedBTN.sol\":6047:6048  b */\n      dup4\n        /* \"contracts/WrappedBTN.sol\":6043:6044  a */\n      dup6\n        /* \"contracts/WrappedBTN.sol\":6043:6048  a - b */\n      sub\n        /* \"contracts/WrappedBTN.sol\":6031:6048  uint256 c = a - b */\n      swap1\n      pop\n        /* \"contracts/WrappedBTN.sol\":6068:6069  c */\n      dup1\n        /* \"contracts/WrappedBTN.sol\":6061:6069  return c */\n      swap2\n      pop\n      pop\n        /* \"contracts/WrappedBTN.sol\":5885:6077  function sub(uint256 a, uint256 b, string memory errorMessage) internal pure returns (uint256) {\r... */\n      swap4\n      swap3\n      pop\n      pop\n      pop\n      jump\t// out\n        /* \"contracts/WrappedBTN.sol\":4956:5137  function add(uint256 a, uint256 b) internal pure returns (uint256) {\r... */\n    tag_134:\n        /* \"contracts/WrappedBTN.sol\":5014:5021  uint256 */\n      0x00\n        /* \"contracts/WrappedBTN.sol\":5034:5043  uint256 c */\n      dup1\n        /* \"contracts/WrappedBTN.sol\":5050:5051  b */\n      dup3\n        /* \"contracts/WrappedBTN.sol\":5046:5047  a */\n      dup5\n        /* \"contracts/WrappedBTN.sol\":5046:5051  a + b */\n      add\n        /* \"contracts/WrappedBTN.sol\":5034:5051  uint256 c = a + b */\n      swap1\n      pop\n        /* \"contracts/WrappedBTN.sol\":5075:5076  a */\n      dup4\n        /* \"contracts/WrappedBTN.sol\":5070:5071  c */\n      dup2\n        /* \"contracts/WrappedBTN.sol\":5070:5076  c >= a */\n      lt\n      iszero\n        /* \"contracts/WrappedBTN.sol\":5062:5108  require(c >= a, \"SafeMath: Addition overflow\") */\n      tag_167\n      jumpi\n      mload(0x40)\n      0x08c379a000000000000000000000000000000000000000000000000000000000\n      dup2\n      mstore\n      0x04\n      add\n      dup1\n      dup1\n      0x20\n      add\n      dup3\n      dup2\n      sub\n      dup3\n      mstore\n      0x1b\n      dup2\n      mstore\n      0x20\n      add\n      dup1\n      0x536166654d6174683a204164646974696f6e206f766572666c6f770000000000\n      dup2\n      mstore\n      pop\n      0x20\n      add\n      swap2\n      pop\n      pop\n      mload(0x40)\n      dup1\n      swap2\n      sub\n      swap1\n      revert\n    tag_167:\n        /* \"contracts/WrappedBTN.sol\":5128:5129  c */\n      dup1\n        /* \"contracts/WrappedBTN.sol\":5121:5129  return c */\n      swap2\n      pop\n      pop\n        /* \"contracts/WrappedBTN.sol\":4956:5137  function add(uint256 a, uint256 b) internal pure returns (uint256) {\r... */\n      swap3\n      swap2\n      pop\n      pop\n      jump\t// out\n        /* \"contracts/WrappedBTN.sol\":1674:1857  function remove(Role storage role, address account) internal {\r... */\n    tag_140:\n        /* \"contracts/WrappedBTN.sol\":1754:1772  has(role, account) */\n      tag_169\n        /* \"contracts/WrappedBTN.sol\":1758:1762  role */\n      dup3\n        /* \"contracts/WrappedBTN.sol\":1764:1771  account */\n      dup3\n        /* \"contracts/WrappedBTN.sol\":1754:1757  has */\n      tag_84\n        /* \"contracts/WrappedBTN.sol\":1754:1772  has(role, account) */\n      jump\t// in\n    tag_169:\n        /* \"contracts/WrappedBTN.sol\":1746:1810  require(has(role, account), \"Roles: Account does not have role\") */\n      tag_170\n      jumpi\n      mload(0x40)\n      0x08c379a000000000000000000000000000000000000000000000000000000000\n      dup2\n      mstore\n      0x04\n      add\n      dup1\n      dup1\n      0x20\n      add\n      dup3\n      dup2\n      sub\n      dup3\n      mstore\n      0x21\n      dup2\n      mstore\n      0x20\n      add\n      dup1\n      data_9ca6d2ff41a51c9782528d6910cf1462165939eb4fadef346e3fb45a1da14f44\n      0x21\n      swap2\n      codecopy\n      0x40\n      add\n      swap2\n      pop\n      pop\n      mload(0x40)\n      dup1\n      swap2\n      sub\n      swap1\n      revert\n    tag_170:\n        /* \"contracts/WrappedBTN.sol\":1844:1849  false */\n      0x00\n        /* \"contracts/WrappedBTN.sol\":1821:1825  role */\n      dup3\n        /* \"contracts/WrappedBTN.sol\":1821:1832  role.bearer */\n      0x00\n      add\n        /* \"contracts/WrappedBTN.sol\":1821:1841  role.bearer[account] */\n      0x00\n        /* \"contracts/WrappedBTN.sol\":1833:1840  account */\n      dup4\n        /* \"contracts/WrappedBTN.sol\":1821:1841  role.bearer[account] */\n      0xffffffffffffffffffffffffffffffffffffffff\n      and\n      0xffffffffffffffffffffffffffffffffffffffff\n      and\n      dup2\n      mstore\n      0x20\n      add\n      swap1\n      dup2\n      mstore\n      0x20\n      add\n      0x00\n      keccak256\n      0x00\n        /* \"contracts/WrappedBTN.sol\":1821:1849  role.bearer[account] = false */\n      0x0100\n      exp\n      dup2\n      sload\n      dup2\n      0xff\n      mul\n      not\n      and\n      swap1\n      dup4\n      iszero\n      iszero\n      mul\n      or\n      swap1\n      sstore\n      pop\n        /* \"contracts/WrappedBTN.sol\":1674:1857  function remove(Role storage role, address account) internal {\r... */\n      pop\n      pop\n      jump\t// out\n        /* \"contracts/WrappedBTN.sol\":1416:1594  function add(Role storage role, address account) internal {\r... */\n    tag_143:\n        /* \"contracts/WrappedBTN.sol\":1494:1512  has(role, account) */\n      tag_172\n        /* \"contracts/WrappedBTN.sol\":1498:1502  role */\n      dup3\n        /* \"contracts/WrappedBTN.sol\":1504:1511  account */\n      dup3\n        /* \"contracts/WrappedBTN.sol\":1494:1497  has */\n      tag_84\n        /* \"contracts/WrappedBTN.sol\":1494:1512  has(role, account) */\n      jump\t// in\n    tag_172:\n        /* \"contracts/WrappedBTN.sol\":1493:1512  !has(role, account) */\n      iszero\n        /* \"contracts/WrappedBTN.sol\":1485:1548  require(!has(role, account), \"Roles: Account already has role\") */\n      tag_173\n      jumpi\n      mload(0x40)\n      0x08c379a000000000000000000000000000000000000000000000000000000000\n      dup2\n      mstore\n      0x04\n      add\n      dup1\n      dup1\n      0x20\n      add\n      dup3\n      dup2\n      sub\n      dup3\n      mstore\n      0x1f\n      dup2\n      mstore\n      0x20\n      add\n      dup1\n      0x526f6c65733a204163636f756e7420616c72656164792068617320726f6c6500\n      dup2\n      mstore\n      pop\n      0x20\n      add\n      swap2\n      pop\n      pop\n      mload(0x40)\n      dup1\n      swap2\n      sub\n      swap1\n      revert\n    tag_173:\n        /* \"contracts/WrappedBTN.sol\":1582:1586  true */\n      0x01\n        /* \"contracts/WrappedBTN.sol\":1559:1563  role */\n      dup3\n        /* \"contracts/WrappedBTN.sol\":1559:1570  role.bearer */\n      0x00\n      add\n        /* \"contracts/WrappedBTN.sol\":1559:1579  role.bearer[account] */\n      0x00\n        /* \"contracts/WrappedBTN.sol\":1571:1578  account */\n      dup4\n        /* \"contracts/WrappedBTN.sol\":1559:1579  role.bearer[account] */\n      0xffffffffffffffffffffffffffffffffffffffff\n      and\n      0xffffffffffffffffffffffffffffffffffffffff\n      and\n      dup2\n      mstore\n      0x20\n      add\n      swap1\n      dup2\n      mstore\n      0x20\n      add\n      0x00\n      keccak256\n      0x00\n        /* \"contracts/WrappedBTN.sol\":1559:1586  role.bearer[account] = true */\n      0x0100\n      exp\n      dup2\n      sload\n      dup2\n      0xff\n      mul\n      not\n      and\n      swap1\n      dup4\n      iszero\n      iszero\n      mul\n      or\n      swap1\n      sstore\n      pop\n        /* \"contracts/WrappedBTN.sol\":1416:1594  function add(Role storage role, address account) internal {\r... */\n      pop\n      pop\n      jump\t// out\n    stop\n    data_25be98b058b1d92833258d8df9a974b792278100a2477c820a0105a1f1183130 506175736572526f6c653a2043616c6c657220646f6573206e6f742068617665207468652050617573657220726f6c65\n    data_37fc6950a7d42389a48f4b64dc2e97ff802031381fae362d19398bbcbbb73aff 42545332303a2044656372656173656420616c6c6f77616e63652062656c6f77207a65726f\n    data_76f25704edc14b693833bd3cbaaa43f45bc1e651767d89a8e2c5ed5e969d9054 42545332303a205472616e7366657220616d6f756e7420657863656564732062616c616e6365\n    data_87e68e359a508fdd807276992d1ea1de946879eb16f1af103adae6d91f2c7695 42545332303a205472616e7366657220616d6f756e74206578636565647320616c6c6f77616e6365\n    data_9b2d9f322da2dd8c80668fcb5cf0c608e8d3c6f6d680cf2587a3f8fed2786a8c 42545332303a20417070726f766520746f20746865207a65726f2061646472657373\n    data_9ca6d2ff41a51c9782528d6910cf1462165939eb4fadef346e3fb45a1da14f44 526f6c65733a204163636f756e7420646f6573206e6f74206861766520726f6c65\n    data_abfcc4036b636772042361b678bf07dfc9675125fbde01e4f42f2f1ced170bf7 42545332303a205472616e7366657220746f20746865207a65726f2061646472657373\n    data_d67578b85ba6d73375c4493f438c3d9072fd4105433709f73a70d19f74a8eed3 526f6c65733a204163636f756e7420697320746865207a65726f2061646472657373\n    data_d7972261d3cd252e74752e913ed29c8220929ede1fc34ef44423bbf2fce46186 42545332303a20417070726f76652066726f6d20746865207a65726f2061646472657373\n    data_d8ff05f8feabf81285302cda791794684205b00c2f336932c9fd89d301cd3546 42545332303a205472616e736665722066726f6d20746865207a65726f2061646472657373\n\n    auxdata: 0xa265627a7a7231582084b0d20e52fd46b75d38e0f93ff1f94de5c07ee1a8a8c9735e2af20415bb6b6164736f6c63430005110032\n}\n",
				"bytecode": {
					"linkReferences": {},
					"object": "608060405262000024620000186200004560201b60201c565b6200004d60201b60201c565b6000600460006101000a81548160ff02191690831515021790555062000272565b600033905090565b62000068816003620000ae60201b6200171e1790919060201c565b8073ffffffffffffffffffffffffffffffffffffffff167f6719d08c1888103bea251a4ed56406bd0c3e69723c8a1686e017e7bbe159b6f860405160405180910390a250565b620000c082826200019260201b60201c565b1562000134576040517f08c379a000000000000000000000000000000000000000000000000000000000815260040180806020018281038252601f8152602001807f526f6c65733a204163636f756e7420616c72656164792068617320726f6c650081525060200191505060405180910390fd5b60018260000160008373ffffffffffffffffffffffffffffffffffffffff1673ffffffffffffffffffffffffffffffffffffffff16815260200190815260200160002060006101000a81548160ff0219169083151502179055505050565b60008073ffffffffffffffffffffffffffffffffffffffff168273ffffffffffffffffffffffffffffffffffffffff1614156200021b576040517f08c379a000000000000000000000000000000000000000000000000000000000815260040180806020018281038252602281526020018062001c246022913960400191505060405180910390fd5b8260000160008373ffffffffffffffffffffffffffffffffffffffff1673ffffffffffffffffffffffffffffffffffffffff16815260200190815260200160002060009054906101000a900460ff16905092915050565b6119a280620002826000396000f3fe608060405234801561001057600080fd5b50600436106100ea5760003560e01c80636ef8d66d1161008c5780638456cb59116100665780638456cb591461038d578063a457c2d714610397578063a9059cbb146103fd578063dd62ed3e14610463576100ea565b80636ef8d66d146102e757806370a08231146102f157806382dc1ec414610349576100ea565b806339509351116100c857806339509351146101f95780633f4ba83a1461025f57806346fbf68e146102695780635c975abb146102c5576100ea565b8063095ea7b3146100ef57806318160ddd1461015557806323b872dd14610173575b600080fd5b61013b6004803603604081101561010557600080fd5b81019080803573ffffffffffffffffffffffffffffffffffffffff169060200190929190803590602001909291905050506104db565b604051808215151515815260200191505060405180910390f35b61015d610572565b6040518082815260200191505060405180910390f35b6101df6004803603606081101561018957600080fd5b81019080803573ffffffffffffffffffffffffffffffffffffffff169060200190929190803573ffffffffffffffffffffffffffffffffffffffff1690602001909291908035906020019092919050505061057c565b604051808215151515815260200191505060405180910390f35b6102456004803603604081101561020f57600080fd5b81019080803573ffffffffffffffffffffffffffffffffffffffff16906020019092919080359060200190929190505050610615565b604051808215151515815260200191505060405180910390f35b6102676106ac565b005b6102ab6004803603602081101561027f57600080fd5b81019080803573ffffffffffffffffffffffffffffffffffffffff16906020019092919050505061081a565b604051808215151515815260200191505060405180910390f35b6102cd610837565b604051808215151515815260200191505060405180910390f35b6102ef61084e565b005b6103336004803603602081101561030757600080fd5b81019080803573ffffffffffffffffffffffffffffffffffffffff169060200190929190505050610860565b6040518082815260200191505060405180910390f35b61038b6004803603602081101561035f57600080fd5b81019080803573ffffffffffffffffffffffffffffffffffffffff1690602001909291905050506108a8565b005b610395610919565b005b6103e3600480360360408110156103ad57600080fd5b81019080803573ffffffffffffffffffffffffffffffffffffffff16906020019092919080359060200190929190505050610a88565b604051808215151515815260200191505060405180910390f35b6104496004803603604081101561041357600080fd5b81019080803573ffffffffffffffffffffffffffffffffffffffff16906020019092919080359060200190929190505050610b1f565b604051808215151515815260200191505060405180910390f35b6104c56004803603604081101561047957600080fd5b81019080803573ffffffffffffffffffffffffffffffffffffffff169060200190929190803573ffffffffffffffffffffffffffffffffffffffff169060200190929190505050610bb6565b6040518082815260200191505060405180910390f35b6000600460009054906101000a900460ff1615610560576040517f08c379a00000000000000000000000000000000000000000000000000000000081526004018080602001828103825260108152602001807f5061757361626c653a205061757365640000000000000000000000000000000081525060200191505060405180910390fd5b61056a8383610c3d565b905092915050565b6000600254905090565b6000600460009054906101000a900460ff1615610601576040517f08c379a00000000000000000000000000000000000000000000000000000000081526004018080602001828103825260108152602001807f5061757361626c653a205061757365640000000000000000000000000000000081525060200191505060405180910390fd5b61060c848484610c5b565b90509392505050565b6000600460009054906101000a900460ff161561069a576040517f08c379a00000000000000000000000000000000000000000000000000000000081526004018080602001828103825260108152602001807f5061757361626c653a205061757365640000000000000000000000000000000081525060200191505060405180910390fd5b6106a48383610d34565b905092915050565b6106bc6106b7610de7565b61081a565b610711576040517f08c379a00000000000000000000000000000000000000000000000000000000081526004018080602001828103825260308152602001806117fa6030913960400191505060405180910390fd5b600460009054906101000a900460ff16610793576040517f08c379a00000000000000000000000000000000000000000000000000000000081526004018080602001828103825260148152602001807f5061757361626c653a204e6f742070617573656400000000000000000000000081525060200191505060405180910390fd5b6000600460006101000a81548160ff0219169083151502179055507f5db9ee0a495bf2e6ff9c91a7834c1ba4fdd244a5e8aa4e537bd38aeae4b073aa6107d7610de7565b604051808273ffffffffffffffffffffffffffffffffffffffff1673ffffffffffffffffffffffffffffffffffffffff16815260200191505060405180910390a1565b6000610830826003610def90919063ffffffff16565b9050919050565b6000600460009054906101000a900460ff16905090565b61085e610859610de7565b610ecd565b565b60008060008373ffffffffffffffffffffffffffffffffffffffff1673ffffffffffffffffffffffffffffffffffffffff168152602001908152602001600020549050919050565b6108b86108b3610de7565b61081a565b61090d576040517f08c379a00000000000000000000000000000000000000000000000000000000081526004018080602001828103825260308152602001806117fa6030913960400191505060405180910390fd5b61091681610f27565b50565b610929610924610de7565b61081a565b61097e576040517f08c379a00000000000000000000000000000000000000000000000000000000081526004018080602001828103825260308152602001806117fa6030913960400191505060405180910390fd5b600460009054906101000a900460ff1615610a01576040517f08c379a00000000000000000000000000000000000000000000000000000000081526004018080602001828103825260108152602001807f5061757361626c653a205061757365640000000000000000000000000000000081525060200191505060405180910390fd5b6001600460006101000a81548160ff0219169083151502179055507f62e78cea01bee320cd4e420270b5ea74000d11b0c9f74754ebdbfc544b05a258610a45610de7565b604051808273ffffffffffffffffffffffffffffffffffffffff1673ffffffffffffffffffffffffffffffffffffffff16815260200191505060405180910390a1565b6000600460009054906101000a900460ff1615610b0d576040517f08c379a00000000000000000000000000000000000000000000000000000000081526004018080602001828103825260108152602001807f5061757361626c653a205061757365640000000000000000000000000000000081525060200191505060405180910390fd5b610b178383610f81565b905092915050565b6000600460009054906101000a900460ff1615610ba4576040517f08c379a00000000000000000000000000000000000000000000000000000000081526004018080602001828103825260108152602001807f5061757361626c653a205061757365640000000000000000000000000000000081525060200191505060405180910390fd5b610bae838361104e565b905092915050565b6000600160008473ffffffffffffffffffffffffffffffffffffffff1673ffffffffffffffffffffffffffffffffffffffff16815260200190815260200160002060008373ffffffffffffffffffffffffffffffffffffffff1673ffffffffffffffffffffffffffffffffffffffff16815260200190815260200160002054905092915050565b6000610c51610c4a610de7565b848461106c565b6001905092915050565b6000610c68848484611263565b610d2984610c74610de7565b610d248560405180606001604052806028815260200161187560289139600160008b73ffffffffffffffffffffffffffffffffffffffff1673ffffffffffffffffffffffffffffffffffffffff1681526020019081526020016000206000610cda610de7565b73ffffffffffffffffffffffffffffffffffffffff1673ffffffffffffffffffffffffffffffffffffffff168152602001908152602001600020546115199092919063ffffffff16565b61106c565b600190509392505050565b6000610ddd610d41610de7565b84610dd88560016000610d52610de7565b73ffffffffffffffffffffffffffffffffffffffff1673ffffffffffffffffffffffffffffffffffffffff16815260200190815260200160002060008973ffffffffffffffffffffffffffffffffffffffff1673ffffffffffffffffffffffffffffffffffffffff168152602001908152602001600020546115d990919063ffffffff16565b61106c565b6001905092915050565b600033905090565b60008073ffffffffffffffffffffffffffffffffffffffff168273ffffffffffffffffffffffffffffffffffffffff161415610e76576040517f08c379a00000000000000000000000000000000000000000000000000000000081526004018080602001828103825260228152602001806119036022913960400191505060405180910390fd5b8260000160008373ffffffffffffffffffffffffffffffffffffffff1673ffffffffffffffffffffffffffffffffffffffff16815260200190815260200160002060009054906101000a900460ff16905092915050565b610ee181600361166190919063ffffffff16565b8073ffffffffffffffffffffffffffffffffffffffff167fcd265ebaf09df2871cc7bd4133404a235ba12eff2041bb89d9c714a2621c7c7e60405160405180910390a250565b610f3b81600361171e90919063ffffffff16565b8073ffffffffffffffffffffffffffffffffffffffff167f6719d08c1888103bea251a4ed56406bd0c3e69723c8a1686e017e7bbe159b6f860405160405180910390a250565b6000611044610f8e610de7565b8461103f8560405180606001604052806025815260200161182a6025913960016000610fb8610de7565b73ffffffffffffffffffffffffffffffffffffffff1673ffffffffffffffffffffffffffffffffffffffff16815260200190815260200160002060008a73ffffffffffffffffffffffffffffffffffffffff1673ffffffffffffffffffffffffffffffffffffffff168152602001908152602001600020546115199092919063ffffffff16565b61106c565b6001905092915050565b600061106261105b610de7565b8484611263565b6001905092915050565b600073ffffffffffffffffffffffffffffffffffffffff168373ffffffffffffffffffffffffffffffffffffffff1614156110f2576040517f08c379a00000000000000000000000000000000000000000000000000000000081526004018080602001828103825260248152602001806119256024913960400191505060405180910390fd5b600073ffffffffffffffffffffffffffffffffffffffff168273ffffffffffffffffffffffffffffffffffffffff161415611178576040517f08c379a000000000000000000000000000000000000000000000000000000000815260040180806020018281038252602281526020018061189d6022913960400191505060405180910390fd5b80600160008573ffffffffffffffffffffffffffffffffffffffff1673ffffffffffffffffffffffffffffffffffffffff16815260200190815260200160002060008473ffffffffffffffffffffffffffffffffffffffff1673ffffffffffffffffffffffffffffffffffffffff168152602001908152602001600020819055508173ffffffffffffffffffffffffffffffffffffffff168373ffffffffffffffffffffffffffffffffffffffff167f8c5be1e5ebec7d5bd14f71427d1e84f3dd0314c0f7b2291e5b200ac8c7c3b925836040518082815260200191505060405180910390a3505050565b600073ffffffffffffffffffffffffffffffffffffffff168373ffffffffffffffffffffffffffffffffffffffff1614156112e9576040517f08c379a00000000000000000000000000000000000000000000000000000000081526004018080602001828103825260258152602001806119496025913960400191505060405180910390fd5b600073ffffffffffffffffffffffffffffffffffffffff168273ffffffffffffffffffffffffffffffffffffffff16141561136f576040517f08c379a00000000000000000000000000000000000000000000000000000000081526004018080602001828103825260238152602001806118e06023913960400191505060405180910390fd5b6113da8160405180606001604052806026815260200161184f602691396000808773ffffffffffffffffffffffffffffffffffffffff1673ffffffffffffffffffffffffffffffffffffffff168152602001908152602001600020546115199092919063ffffffff16565b6000808573ffffffffffffffffffffffffffffffffffffffff1673ffffffffffffffffffffffffffffffffffffffff1681526020019081526020016000208190555061146d816000808573ffffffffffffffffffffffffffffffffffffffff1673ffffffffffffffffffffffffffffffffffffffff168152602001908152602001600020546115d990919063ffffffff16565b6000808473ffffffffffffffffffffffffffffffffffffffff1673ffffffffffffffffffffffffffffffffffffffff168152602001908152602001600020819055508173ffffffffffffffffffffffffffffffffffffffff168373ffffffffffffffffffffffffffffffffffffffff167fddf252ad1be2c89b69c2b068fc378daa952ba7f163c4a11628f55a4df523b3ef836040518082815260200191505060405180910390a3505050565b60008383111582906115c6576040517f08c379a00000000000000000000000000000000000000000000000000000000081526004018080602001828103825283818151815260200191508051906020019080838360005b8381101561158b578082015181840152602081019050611570565b50505050905090810190601f1680156115b85780820380516001836020036101000a031916815260200191505b509250505060405180910390fd5b5060008385039050809150509392505050565b600080828401905083811015611657576040517f08c379a000000000000000000000000000000000000000000000000000000000815260040180806020018281038252601b8152602001807f536166654d6174683a204164646974696f6e206f766572666c6f77000000000081525060200191505060405180910390fd5b8091505092915050565b61166b8282610def565b6116c0576040517f08c379a00000000000000000000000000000000000000000000000000000000081526004018080602001828103825260218152602001806118bf6021913960400191505060405180910390fd5b60008260000160008373ffffffffffffffffffffffffffffffffffffffff1673ffffffffffffffffffffffffffffffffffffffff16815260200190815260200160002060006101000a81548160ff0219169083151502179055505050565b6117288282610def565b1561179b576040517f08c379a000000000000000000000000000000000000000000000000000000000815260040180806020018281038252601f8152602001807f526f6c65733a204163636f756e7420616c72656164792068617320726f6c650081525060200191505060405180910390fd5b60018260000160008373ffffffffffffffffffffffffffffffffffffffff1673ffffffffffffffffffffffffffffffffffffffff16815260200190815260200160002060006101000a81548160ff021916908315150217905550505056fe506175736572526f6c653a2043616c6c657220646f6573206e6f742068617665207468652050617573657220726f6c6542545332303a2044656372656173656420616c6c6f77616e63652062656c6f77207a65726f42545332303a205472616e7366657220616d6f756e7420657863656564732062616c616e636542545332303a205472616e7366657220616d6f756e74206578636565647320616c6c6f77616e636542545332303a20417070726f766520746f20746865207a65726f2061646472657373526f6c65733a204163636f756e7420646f6573206e6f74206861766520726f6c6542545332303a205472616e7366657220746f20746865207a65726f2061646472657373526f6c65733a204163636f756e7420697320746865207a65726f206164647265737342545332303a20417070726f76652066726f6d20746865207a65726f206164647265737342545332303a205472616e736665722066726f6d20746865207a65726f2061646472657373a265627a7a7231582084b0d20e52fd46b75d38e0f93ff1f94de5c07ee1a8a8c9735e2af20415bb6b6164736f6c63430005110032526f6c65733a204163636f756e7420697320746865207a65726f2061646472657373",
					"opcodes": "PUSH1 0x80 PUSH1 0x40 MSTORE PUSH3 0x24 PUSH3 0x18 PUSH3 0x45 PUSH1 0x20 SHL PUSH1 0x20 SHR JUMP JUMPDEST PUSH3 0x4D PUSH1 0x20 SHL PUSH1 0x20 SHR JUMP JUMPDEST PUSH1 0x0 PUSH1 0x4 PUSH1 0x0 PUSH2 0x100 EXP DUP2 SLOAD DUP2 PUSH1 0xFF MUL NOT AND SWAP1 DUP4 ISZERO ISZERO MUL OR SWAP1 SSTORE POP PUSH3 0x272 JUMP JUMPDEST PUSH1 0x0 CALLER SWAP1 POP SWAP1 JUMP JUMPDEST PUSH3 0x68 DUP2 PUSH1 0x3 PUSH3 0xAE PUSH1 0x20 SHL PUSH3 0x171E OR SWAP1 SWAP2 SWAP1 PUSH1 0x20 SHR JUMP JUMPDEST DUP1 PUSH20 0xFFFFFFFFFFFFFFFFFFFFFFFFFFFFFFFFFFFFFFFF AND PUSH32 0x6719D08C1888103BEA251A4ED56406BD0C3E69723C8A1686E017E7BBE159B6F8 PUSH1 0x40 MLOAD PUSH1 0x40 MLOAD DUP1 SWAP2 SUB SWAP1 LOG2 POP JUMP JUMPDEST PUSH3 0xC0 DUP3 DUP3 PUSH3 0x192 PUSH1 0x20 SHL PUSH1 0x20 SHR JUMP JUMPDEST ISZERO PUSH3 0x134 JUMPI PUSH1 0x40 MLOAD PUSH32 0x8C379A000000000000000000000000000000000000000000000000000000000 DUP2 MSTORE PUSH1 0x4 ADD DUP1 DUP1 PUSH1 0x20 ADD DUP3 DUP2 SUB DUP3 MSTORE PUSH1 0x1F DUP2 MSTORE PUSH1 0x20 ADD DUP1 PUSH32 0x526F6C65733A204163636F756E7420616C72656164792068617320726F6C6500 DUP2 MSTORE POP PUSH1 0x20 ADD SWAP2 POP POP PUSH1 0x40 MLOAD DUP1 SWAP2 SUB SWAP1 REVERT JUMPDEST PUSH1 0x1 DUP3 PUSH1 0x0 ADD PUSH1 0x0 DUP4 PUSH20 0xFFFFFFFFFFFFFFFFFFFFFFFFFFFFFFFFFFFFFFFF AND PUSH20 0xFFFFFFFFFFFFFFFFFFFFFFFFFFFFFFFFFFFFFFFF AND DUP2 MSTORE PUSH1 0x20 ADD SWAP1 DUP2 MSTORE PUSH1 0x20 ADD PUSH1 0x0 KECCAK256 PUSH1 0x0 PUSH2 0x100 EXP DUP2 SLOAD DUP2 PUSH1 0xFF MUL NOT AND SWAP1 DUP4 ISZERO ISZERO MUL OR SWAP1 SSTORE POP POP POP JUMP JUMPDEST PUSH1 0x0 DUP1 PUSH20 0xFFFFFFFFFFFFFFFFFFFFFFFFFFFFFFFFFFFFFFFF AND DUP3 PUSH20 0xFFFFFFFFFFFFFFFFFFFFFFFFFFFFFFFFFFFFFFFF AND EQ ISZERO PUSH3 0x21B JUMPI PUSH1 0x40 MLOAD PUSH32 0x8C379A000000000000000000000000000000000000000000000000000000000 DUP2 MSTORE PUSH1 0x4 ADD DUP1 DUP1 PUSH1 0x20 ADD DUP3 DUP2 SUB DUP3 MSTORE PUSH1 0x22 DUP2 MSTORE PUSH1 0x20 ADD DUP1 PUSH3 0x1C24 PUSH1 0x22 SWAP2 CODECOPY PUSH1 0x40 ADD SWAP2 POP POP PUSH1 0x40 MLOAD DUP1 SWAP2 SUB SWAP1 REVERT JUMPDEST DUP3 PUSH1 0x0 ADD PUSH1 0x0 DUP4 PUSH20 0xFFFFFFFFFFFFFFFFFFFFFFFFFFFFFFFFFFFFFFFF AND PUSH20 0xFFFFFFFFFFFFFFFFFFFFFFFFFFFFFFFFFFFFFFFF AND DUP2 MSTORE PUSH1 0x20 ADD SWAP1 DUP2 MSTORE PUSH1 0x20 ADD PUSH1 0x0 KECCAK256 PUSH1 0x0 SWAP1 SLOAD SWAP1 PUSH2 0x100 EXP SWAP1 DIV PUSH1 0xFF AND SWAP1 POP SWAP3 SWAP2 POP POP JUMP JUMPDEST PUSH2 0x19A2 DUP1 PUSH3 0x282 PUSH1 0x0 CODECOPY PUSH1 0x0 RETURN INVALID PUSH1 0x80 PUSH1 0x40 MSTORE CALLVALUE DUP1 ISZERO PUSH2 0x10 JUMPI PUSH1 0x0 DUP1 REVERT JUMPDEST POP PUSH1 0x4 CALLDATASIZE LT PUSH2 0xEA JUMPI PUSH1 0x0 CALLDATALOAD PUSH1 0xE0 SHR DUP1 PUSH4 0x6EF8D66D GT PUSH2 0x8C JUMPI DUP1 PUSH4 0x8456CB59 GT PUSH2 0x66 JUMPI DUP1 PUSH4 0x8456CB59 EQ PUSH2 0x38D JUMPI DUP1 PUSH4 0xA457C2D7 EQ PUSH2 0x397 JUMPI DUP1 PUSH4 0xA9059CBB EQ PUSH2 0x3FD JUMPI DUP1 PUSH4 0xDD62ED3E EQ PUSH2 0x463 JUMPI PUSH2 0xEA JUMP JUMPDEST DUP1 PUSH4 0x6EF8D66D EQ PUSH2 0x2E7 JUMPI DUP1 PUSH4 0x70A08231 EQ PUSH2 0x2F1 JUMPI DUP1 PUSH4 0x82DC1EC4 EQ PUSH2 0x349 JUMPI PUSH2 0xEA JUMP JUMPDEST DUP1 PUSH4 0x39509351 GT PUSH2 0xC8 JUMPI DUP1 PUSH4 0x39509351 EQ PUSH2 0x1F9 JUMPI DUP1 PUSH4 0x3F4BA83A EQ PUSH2 0x25F JUMPI DUP1 PUSH4 0x46FBF68E EQ PUSH2 0x269 JUMPI DUP1 PUSH4 0x5C975ABB EQ PUSH2 0x2C5 JUMPI PUSH2 0xEA JUMP JUMPDEST DUP1 PUSH4 0x95EA7B3 EQ PUSH2 0xEF JUMPI DUP1 PUSH4 0x18160DDD EQ PUSH2 0x155 JUMPI DUP1 PUSH4 0x23B872DD EQ PUSH2 0x173 JUMPI JUMPDEST PUSH1 0x0 DUP1 REVERT JUMPDEST PUSH2 0x13B PUSH1 0x4 DUP1 CALLDATASIZE SUB PUSH1 0x40 DUP2 LT ISZERO PUSH2 0x105 JUMPI PUSH1 0x0 DUP1 REVERT JUMPDEST DUP2 ADD SWAP1 DUP1 DUP1 CALLDATALOAD PUSH20 0xFFFFFFFFFFFFFFFFFFFFFFFFFFFFFFFFFFFFFFFF AND SWAP1 PUSH1 0x20 ADD SWAP1 SWAP3 SWAP2 SWAP1 DUP1 CALLDATALOAD SWAP1 PUSH1 0x20 ADD SWAP1 SWAP3 SWAP2 SWAP1 POP POP POP PUSH2 0x4DB JUMP JUMPDEST PUSH1 0x40 MLOAD DUP1 DUP3 ISZERO ISZERO ISZERO ISZERO DUP2 MSTORE PUSH1 0x20 ADD SWAP2 POP POP PUSH1 0x40 MLOAD DUP1 SWAP2 SUB SWAP1 RETURN JUMPDEST PUSH2 0x15D PUSH2 0x572 JUMP JUMPDEST PUSH1 0x40 MLOAD DUP1 DUP3 DUP2 MSTORE PUSH1 0x20 ADD SWAP2 POP POP PUSH1 0x40 MLOAD DUP1 SWAP2 SUB SWAP1 RETURN JUMPDEST PUSH2 0x1DF PUSH1 0x4 DUP1 CALLDATASIZE SUB PUSH1 0x60 DUP2 LT ISZERO PUSH2 0x189 JUMPI PUSH1 0x0 DUP1 REVERT JUMPDEST DUP2 ADD SWAP1 DUP1 DUP1 CALLDATALOAD PUSH20 0xFFFFFFFFFFFFFFFFFFFFFFFFFFFFFFFFFFFFFFFF AND SWAP1 PUSH1 0x20 ADD SWAP1 SWAP3 SWAP2 SWAP1 DUP1 CALLDATALOAD PUSH20 0xFFFFFFFFFFFFFFFFFFFFFFFFFFFFFFFFFFFFFFFF AND SWAP1 PUSH1 0x20 ADD SWAP1 SWAP3 SWAP2 SWAP1 DUP1 CALLDATALOAD SWAP1 PUSH1 0x20 ADD SWAP1 SWAP3 SWAP2 SWAP1 POP POP POP PUSH2 0x57C JUMP JUMPDEST PUSH1 0x40 MLOAD DUP1 DUP3 ISZERO ISZERO ISZERO ISZERO DUP2 MSTORE PUSH1 0x20 ADD SWAP2 POP POP PUSH1 0x40 MLOAD DUP1 SWAP2 SUB SWAP1 RETURN JUMPDEST PUSH2 0x245 PUSH1 0x4 DUP1 CALLDATASIZE SUB PUSH1 0x40 DUP2 LT ISZERO PUSH2 0x20F JUMPI PUSH1 0x0 DUP1 REVERT JUMPDEST DUP2 ADD SWAP1 DUP1 DUP1 CALLDATALOAD PUSH20 0xFFFFFFFFFFFFFFFFFFFFFFFFFFFFFFFFFFFFFFFF AND SWAP1 PUSH1 0x20 ADD SWAP1 SWAP3 SWAP2 SWAP1 DUP1 CALLDATALOAD SWAP1 PUSH1 0x20 ADD SWAP1 SWAP3 SWAP2 SWAP1 POP POP POP PUSH2 0x615 JUMP JUMPDEST PUSH1 0x40 MLOAD DUP1 DUP3 ISZERO ISZERO ISZERO ISZERO DUP2 MSTORE PUSH1 0x20 ADD SWAP2 POP POP PUSH1 0x40 MLOAD DUP1 SWAP2 SUB SWAP1 RETURN JUMPDEST PUSH2 0x267 PUSH2 0x6AC JUMP JUMPDEST STOP JUMPDEST PUSH2 0x2AB PUSH1 0x4 DUP1 CALLDATASIZE SUB PUSH1 0x20 DUP2 LT ISZERO PUSH2 0x27F JUMPI PUSH1 0x0 DUP1 REVERT JUMPDEST DUP2 ADD SWAP1 DUP1 DUP1 CALLDATALOAD PUSH20 0xFFFFFFFFFFFFFFFFFFFFFFFFFFFFFFFFFFFFFFFF AND SWAP1 PUSH1 0x20 ADD SWAP1 SWAP3 SWAP2 SWAP1 POP POP POP PUSH2 0x81A JUMP JUMPDEST PUSH1 0x40 MLOAD DUP1 DUP3 ISZERO ISZERO ISZERO ISZERO DUP2 MSTORE PUSH1 0x20 ADD SWAP2 POP POP PUSH1 0x40 MLOAD DUP1 SWAP2 SUB SWAP1 RETURN JUMPDEST PUSH2 0x2CD PUSH2 0x837 JUMP JUMPDEST PUSH1 0x40 MLOAD DUP1 DUP3 ISZERO ISZERO ISZERO ISZERO DUP2 MSTORE PUSH1 0x20 ADD SWAP2 POP POP PUSH1 0x40 MLOAD DUP1 SWAP2 SUB SWAP1 RETURN JUMPDEST PUSH2 0x2EF PUSH2 0x84E JUMP JUMPDEST STOP JUMPDEST PUSH2 0x333 PUSH1 0x4 DUP1 CALLDATASIZE SUB PUSH1 0x20 DUP2 LT ISZERO PUSH2 0x307 JUMPI PUSH1 0x0 DUP1 REVERT JUMPDEST DUP2 ADD SWAP1 DUP1 DUP1 CALLDATALOAD PUSH20 0xFFFFFFFFFFFFFFFFFFFFFFFFFFFFFFFFFFFFFFFF AND SWAP1 PUSH1 0x20 ADD SWAP1 SWAP3 SWAP2 SWAP1 POP POP POP PUSH2 0x860 JUMP JUMPDEST PUSH1 0x40 MLOAD DUP1 DUP3 DUP2 MSTORE PUSH1 0x20 ADD SWAP2 POP POP PUSH1 0x40 MLOAD DUP1 SWAP2 SUB SWAP1 RETURN JUMPDEST PUSH2 0x38B PUSH1 0x4 DUP1 CALLDATASIZE SUB PUSH1 0x20 DUP2 LT ISZERO PUSH2 0x35F JUMPI PUSH1 0x0 DUP1 REVERT JUMPDEST DUP2 ADD SWAP1 DUP1 DUP1 CALLDATALOAD PUSH20 0xFFFFFFFFFFFFFFFFFFFFFFFFFFFFFFFFFFFFFFFF AND SWAP1 PUSH1 0x20 ADD SWAP1 SWAP3 SWAP2 SWAP1 POP POP POP PUSH2 0x8A8 JUMP JUMPDEST STOP JUMPDEST PUSH2 0x395 PUSH2 0x919 JUMP JUMPDEST STOP JUMPDEST PUSH2 0x3E3 PUSH1 0x4 DUP1 CALLDATASIZE SUB PUSH1 0x40 DUP2 LT ISZERO PUSH2 0x3AD JUMPI PUSH1 0x0 DUP1 REVERT JUMPDEST DUP2 ADD SWAP1 DUP1 DUP1 CALLDATALOAD PUSH20 0xFFFFFFFFFFFFFFFFFFFFFFFFFFFFFFFFFFFFFFFF AND SWAP1 PUSH1 0x20 ADD SWAP1 SWAP3 SWAP2 SWAP1 DUP1 CALLDATALOAD SWAP1 PUSH1 0x20 ADD SWAP1 SWAP3 SWAP2 SWAP1 POP POP POP PUSH2 0xA88 JUMP JUMPDEST PUSH1 0x40 MLOAD DUP1 DUP3 ISZERO ISZERO ISZERO ISZERO DUP2 MSTORE PUSH1 0x20 ADD SWAP2 POP POP PUSH1 0x40 MLOAD DUP1 SWAP2 SUB SWAP1 RETURN JUMPDEST PUSH2 0x449 PUSH1 0x4 DUP1 CALLDATASIZE SUB PUSH1 0x40 DUP2 LT ISZERO PUSH2 0x413 JUMPI PUSH1 0x0 DUP1 REVERT JUMPDEST DUP2 ADD SWAP1 DUP1 DUP1 CALLDATALOAD PUSH20 0xFFFFFFFFFFFFFFFFFFFFFFFFFFFFFFFFFFFFFFFF AND SWAP1 PUSH1 0x20 ADD SWAP1 SWAP3 SWAP2 SWAP1 DUP1 CALLDATALOAD SWAP1 PUSH1 0x20 ADD SWAP1 SWAP3 SWAP2 SWAP1 POP POP POP PUSH2 0xB1F JUMP JUMPDEST PUSH1 0x40 MLOAD DUP1 DUP3 ISZERO ISZERO ISZERO ISZERO DUP2 MSTORE PUSH1 0x20 ADD SWAP2 POP POP PUSH1 0x40 MLOAD DUP1 SWAP2 SUB SWAP1 RETURN JUMPDEST PUSH2 0x4C5 PUSH1 0x4 DUP1 CALLDATASIZE SUB PUSH1 0x40 DUP2 LT ISZERO PUSH2 0x479 JUMPI PUSH1 0x0 DUP1 REVERT JUMPDEST DUP2 ADD SWAP1 DUP1 DUP1 CALLDATALOAD PUSH20 0xFFFFFFFFFFFFFFFFFFFFFFFFFFFFFFFFFFFFFFFF AND SWAP1 PUSH1 0x20 ADD SWAP1 SWAP3 SWAP2 SWAP1 DUP1 CALLDATALOAD PUSH20 0xFFFFFFFFFFFFFFFFFFFFFFFFFFFFFFFFFFFFFFFF AND SWAP1 PUSH1 0x20 ADD SWAP1 SWAP3 SWAP2 SWAP1 POP POP POP PUSH2 0xBB6 JUMP JUMPDEST PUSH1 0x40 MLOAD DUP1 DUP3 DUP2 MSTORE PUSH1 0x20 ADD SWAP2 POP POP PUSH1 0x40 MLOAD DUP1 SWAP2 SUB SWAP1 RETURN JUMPDEST PUSH1 0x0 PUSH1 0x4 PUSH1 0x0 SWAP1 SLOAD SWAP1 PUSH2 0x100 EXP SWAP1 DIV PUSH1 0xFF AND ISZERO PUSH2 0x560 JUMPI PUSH1 0x40 MLOAD PUSH32 0x8C379A000000000000000000000000000000000000000000000000000000000 DUP2 MSTORE PUSH1 0x4 ADD DUP1 DUP1 PUSH1 0x20 ADD DUP3 DUP2 SUB DUP3 MSTORE PUSH1 0x10 DUP2 MSTORE PUSH1 0x20 ADD DUP1 PUSH32 0x5061757361626C653A2050617573656400000000000000000000000000000000 DUP2 MSTORE POP PUSH1 0x20 ADD SWAP2 POP POP PUSH1 0x40 MLOAD DUP1 SWAP2 SUB SWAP1 REVERT JUMPDEST PUSH2 0x56A DUP4 DUP4 PUSH2 0xC3D JUMP JUMPDEST SWAP1 POP SWAP3 SWAP2 POP POP JUMP JUMPDEST PUSH1 0x0 PUSH1 0x2 SLOAD SWAP1 POP SWAP1 JUMP JUMPDEST PUSH1 0x0 PUSH1 0x4 PUSH1 0x0 SWAP1 SLOAD SWAP1 PUSH2 0x100 EXP SWAP1 DIV PUSH1 0xFF AND ISZERO PUSH2 0x601 JUMPI PUSH1 0x40 MLOAD PUSH32 0x8C379A000000000000000000000000000000000000000000000000000000000 DUP2 MSTORE PUSH1 0x4 ADD DUP1 DUP1 PUSH1 0x20 ADD DUP3 DUP2 SUB DUP3 MSTORE PUSH1 0x10 DUP2 MSTORE PUSH1 0x20 ADD DUP1 PUSH32 0x5061757361626C653A2050617573656400000000000000000000000000000000 DUP2 MSTORE POP PUSH1 0x20 ADD SWAP2 POP POP PUSH1 0x40 MLOAD DUP1 SWAP2 SUB SWAP1 REVERT JUMPDEST PUSH2 0x60C DUP5 DUP5 DUP5 PUSH2 0xC5B JUMP JUMPDEST SWAP1 POP SWAP4 SWAP3 POP POP POP JUMP JUMPDEST PUSH1 0x0 PUSH1 0x4 PUSH1 0x0 SWAP1 SLOAD SWAP1 PUSH2 0x100 EXP SWAP1 DIV PUSH1 0xFF AND ISZERO PUSH2 0x69A JUMPI PUSH1 0x40 MLOAD PUSH32 0x8C379A000000000000000000000000000000000000000000000000000000000 DUP2 MSTORE PUSH1 0x4 ADD DUP1 DUP1 PUSH1 0x20 ADD DUP3 DUP2 SUB DUP3 MSTORE PUSH1 0x10 DUP2 MSTORE PUSH1 0x20 ADD DUP1 PUSH32 0x5061757361626C653A2050617573656400000000000000000000000000000000 DUP2 MSTORE POP PUSH1 0x20 ADD SWAP2 POP POP PUSH1 0x40 MLOAD DUP1 SWAP2 SUB SWAP1 REVERT JUMPDEST PUSH2 0x6A4 DUP4 DUP4 PUSH2 0xD34 JUMP JUMPDEST SWAP1 POP SWAP3 SWAP2 POP POP JUMP JUMPDEST PUSH2 0x6BC PUSH2 0x6B7 PUSH2 0xDE7 JUMP JUMPDEST PUSH2 0x81A JUMP JUMPDEST PUSH2 0x711 JUMPI PUSH1 0x40 MLOAD PUSH32 0x8C379A000000000000000000000000000000000000000000000000000000000 DUP2 MSTORE PUSH1 0x4 ADD DUP1 DUP1 PUSH1 0x20 ADD DUP3 DUP2 SUB DUP3 MSTORE PUSH1 0x30 DUP2 MSTORE PUSH1 0x20 ADD DUP1 PUSH2 0x17FA PUSH1 0x30 SWAP2 CODECOPY PUSH1 0x40 ADD SWAP2 POP POP PUSH1 0x40 MLOAD DUP1 SWAP2 SUB SWAP1 REVERT JUMPDEST PUSH1 0x4 PUSH1 0x0 SWAP1 SLOAD SWAP1 PUSH2 0x100 EXP SWAP1 DIV PUSH1 0xFF AND PUSH2 0x793 JUMPI PUSH1 0x40 MLOAD PUSH32 0x8C379A000000000000000000000000000000000000000000000000000000000 DUP2 MSTORE PUSH1 0x4 ADD DUP1 DUP1 PUSH1 0x20 ADD DUP3 DUP2 SUB DUP3 MSTORE PUSH1 0x14 DUP2 MSTORE PUSH1 0x20 ADD DUP1 PUSH32 0x5061757361626C653A204E6F7420706175736564000000000000000000000000 DUP2 MSTORE POP PUSH1 0x20 ADD SWAP2 POP POP PUSH1 0x40 MLOAD DUP1 SWAP2 SUB SWAP1 REVERT JUMPDEST PUSH1 0x0 PUSH1 0x4 PUSH1 0x0 PUSH2 0x100 EXP DUP2 SLOAD DUP2 PUSH1 0xFF MUL NOT AND SWAP1 DUP4 ISZERO ISZERO MUL OR SWAP1 SSTORE POP PUSH32 0x5DB9EE0A495BF2E6FF9C91A7834C1BA4FDD244A5E8AA4E537BD38AEAE4B073AA PUSH2 0x7D7 PUSH2 0xDE7 JUMP JUMPDEST PUSH1 0x40 MLOAD DUP1 DUP3 PUSH20 0xFFFFFFFFFFFFFFFFFFFFFFFFFFFFFFFFFFFFFFFF AND PUSH20 0xFFFFFFFFFFFFFFFFFFFFFFFFFFFFFFFFFFFFFFFF AND DUP2 MSTORE PUSH1 0x20 ADD SWAP2 POP POP PUSH1 0x40 MLOAD DUP1 SWAP2 SUB SWAP1 LOG1 JUMP JUMPDEST PUSH1 0x0 PUSH2 0x830 DUP3 PUSH1 0x3 PUSH2 0xDEF SWAP1 SWAP2 SWAP1 PUSH4 0xFFFFFFFF AND JUMP JUMPDEST SWAP1 POP SWAP2 SWAP1 POP JUMP JUMPDEST PUSH1 0x0 PUSH1 0x4 PUSH1 0x0 SWAP1 SLOAD SWAP1 PUSH2 0x100 EXP SWAP1 DIV PUSH1 0xFF AND SWAP1 POP SWAP1 JUMP JUMPDEST PUSH2 0x85E PUSH2 0x859 PUSH2 0xDE7 JUMP JUMPDEST PUSH2 0xECD JUMP JUMPDEST JUMP JUMPDEST PUSH1 0x0 DUP1 PUSH1 0x0 DUP4 PUSH20 0xFFFFFFFFFFFFFFFFFFFFFFFFFFFFFFFFFFFFFFFF AND PUSH20 0xFFFFFFFFFFFFFFFFFFFFFFFFFFFFFFFFFFFFFFFF AND DUP2 MSTORE PUSH1 0x20 ADD SWAP1 DUP2 MSTORE PUSH1 0x20 ADD PUSH1 0x0 KECCAK256 SLOAD SWAP1 POP SWAP2 SWAP1 POP JUMP JUMPDEST PUSH2 0x8B8 PUSH2 0x8B3 PUSH2 0xDE7 JUMP JUMPDEST PUSH2 0x81A JUMP JUMPDEST PUSH2 0x90D JUMPI PUSH1 0x40 MLOAD PUSH32 0x8C379A000000000000000000000000000000000000000000000000000000000 DUP2 MSTORE PUSH1 0x4 ADD DUP1 DUP1 PUSH1 0x20 ADD DUP3 DUP2 SUB DUP3 MSTORE PUSH1 0x30 DUP2 MSTORE PUSH1 0x20 ADD DUP1 PUSH2 0x17FA PUSH1 0x30 SWAP2 CODECOPY PUSH1 0x40 ADD SWAP2 POP POP PUSH1 0x40 MLOAD DUP1 SWAP2 SUB SWAP1 REVERT JUMPDEST PUSH2 0x916 DUP2 PUSH2 0xF27 JUMP JUMPDEST POP JUMP JUMPDEST PUSH2 0x929 PUSH2 0x924 PUSH2 0xDE7 JUMP JUMPDEST PUSH2 0x81A JUMP JUMPDEST PUSH2 0x97E JUMPI PUSH1 0x40 MLOAD PUSH32 0x8C379A000000000000000000000000000000000000000000000000000000000 DUP2 MSTORE PUSH1 0x4 ADD DUP1 DUP1 PUSH1 0x20 ADD DUP3 DUP2 SUB DUP3 MSTORE PUSH1 0x30 DUP2 MSTORE PUSH1 0x20 ADD DUP1 PUSH2 0x17FA PUSH1 0x30 SWAP2 CODECOPY PUSH1 0x40 ADD SWAP2 POP POP PUSH1 0x40 MLOAD DUP1 SWAP2 SUB SWAP1 REVERT JUMPDEST PUSH1 0x4 PUSH1 0x0 SWAP1 SLOAD SWAP1 PUSH2 0x100 EXP SWAP1 DIV PUSH1 0xFF AND ISZERO PUSH2 0xA01 JUMPI PUSH1 0x40 MLOAD PUSH32 0x8C379A000000000000000000000000000000000000000000000000000000000 DUP2 MSTORE PUSH1 0x4 ADD DUP1 DUP1 PUSH1 0x20 ADD DUP3 DUP2 SUB DUP3 MSTORE PUSH1 0x10 DUP2 MSTORE PUSH1 0x20 ADD DUP1 PUSH32 0x5061757361626C653A2050617573656400000000000000000000000000000000 DUP2 MSTORE POP PUSH1 0x20 ADD SWAP2 POP POP PUSH1 0x40 MLOAD DUP1 SWAP2 SUB SWAP1 REVERT JUMPDEST PUSH1 0x1 PUSH1 0x4 PUSH1 0x0 PUSH2 0x100 EXP DUP2 SLOAD DUP2 PUSH1 0xFF MUL NOT AND SWAP1 DUP4 ISZERO ISZERO MUL OR SWAP1 SSTORE POP PUSH32 0x62E78CEA01BEE320CD4E420270B5EA74000D11B0C9F74754EBDBFC544B05A258 PUSH2 0xA45 PUSH2 0xDE7 JUMP JUMPDEST PUSH1 0x40 MLOAD DUP1 DUP3 PUSH20 0xFFFFFFFFFFFFFFFFFFFFFFFFFFFFFFFFFFFFFFFF AND PUSH20 0xFFFFFFFFFFFFFFFFFFFFFFFFFFFFFFFFFFFFFFFF AND DUP2 MSTORE PUSH1 0x20 ADD SWAP2 POP POP PUSH1 0x40 MLOAD DUP1 SWAP2 SUB SWAP1 LOG1 JUMP JUMPDEST PUSH1 0x0 PUSH1 0x4 PUSH1 0x0 SWAP1 SLOAD SWAP1 PUSH2 0x100 EXP SWAP1 DIV PUSH1 0xFF AND ISZERO PUSH2 0xB0D JUMPI PUSH1 0x40 MLOAD PUSH32 0x8C379A000000000000000000000000000000000000000000000000000000000 DUP2 MSTORE PUSH1 0x4 ADD DUP1 DUP1 PUSH1 0x20 ADD DUP3 DUP2 SUB DUP3 MSTORE PUSH1 0x10 DUP2 MSTORE PUSH1 0x20 ADD DUP1 PUSH32 0x5061757361626C653A2050617573656400000000000000000000000000000000 DUP2 MSTORE POP PUSH1 0x20 ADD SWAP2 POP POP PUSH1 0x40 MLOAD DUP1 SWAP2 SUB SWAP1 REVERT JUMPDEST PUSH2 0xB17 DUP4 DUP4 PUSH2 0xF81 JUMP JUMPDEST SWAP1 POP SWAP3 SWAP2 POP POP JUMP JUMPDEST PUSH1 0x0 PUSH1 0x4 PUSH1 0x0 SWAP1 SLOAD SWAP1 PUSH2 0x100 EXP SWAP1 DIV PUSH1 0xFF AND ISZERO PUSH2 0xBA4 JUMPI PUSH1 0x40 MLOAD PUSH32 0x8C379A000000000000000000000000000000000000000000000000000000000 DUP2 MSTORE PUSH1 0x4 ADD DUP1 DUP1 PUSH1 0x20 ADD DUP3 DUP2 SUB DUP3 MSTORE PUSH1 0x10 DUP2 MSTORE PUSH1 0x20 ADD DUP1 PUSH32 0x5061757361626C653A2050617573656400000000000000000000000000000000 DUP2 MSTORE POP PUSH1 0x20 ADD SWAP2 POP POP PUSH1 0x40 MLOAD DUP1 SWAP2 SUB SWAP1 REVERT JUMPDEST PUSH2 0xBAE DUP4 DUP4 PUSH2 0x104E JUMP JUMPDEST SWAP1 POP SWAP3 SWAP2 POP POP JUMP JUMPDEST PUSH1 0x0 PUSH1 0x1 PUSH1 0x0 DUP5 PUSH20 0xFFFFFFFFFFFFFFFFFFFFFFFFFFFFFFFFFFFFFFFF AND PUSH20 0xFFFFFFFFFFFFFFFFFFFFFFFFFFFFFFFFFFFFFFFF AND DUP2 MSTORE PUSH1 0x20 ADD SWAP1 DUP2 MSTORE PUSH1 0x20 ADD PUSH1 0x0 KECCAK256 PUSH1 0x0 DUP4 PUSH20 0xFFFFFFFFFFFFFFFFFFFFFFFFFFFFFFFFFFFFFFFF AND PUSH20 0xFFFFFFFFFFFFFFFFFFFFFFFFFFFFFFFFFFFFFFFF AND DUP2 MSTORE PUSH1 0x20 ADD SWAP1 DUP2 MSTORE PUSH1 0x20 ADD PUSH1 0x0 KECCAK256 SLOAD SWAP1 POP SWAP3 SWAP2 POP POP JUMP JUMPDEST PUSH1 0x0 PUSH2 0xC51 PUSH2 0xC4A PUSH2 0xDE7 JUMP JUMPDEST DUP5 DUP5 PUSH2 0x106C JUMP JUMPDEST PUSH1 0x1 SWAP1 POP SWAP3 SWAP2 POP POP JUMP JUMPDEST PUSH1 0x0 PUSH2 0xC68 DUP5 DUP5 DUP5 PUSH2 0x1263 JUMP JUMPDEST PUSH2 0xD29 DUP5 PUSH2 0xC74 PUSH2 0xDE7 JUMP JUMPDEST PUSH2 0xD24 DUP6 PUSH1 0x40 MLOAD DUP1 PUSH1 0x60 ADD PUSH1 0x40 MSTORE DUP1 PUSH1 0x28 DUP2 MSTORE PUSH1 0x20 ADD PUSH2 0x1875 PUSH1 0x28 SWAP2 CODECOPY PUSH1 0x1 PUSH1 0x0 DUP12 PUSH20 0xFFFFFFFFFFFFFFFFFFFFFFFFFFFFFFFFFFFFFFFF AND PUSH20 0xFFFFFFFFFFFFFFFFFFFFFFFFFFFFFFFFFFFFFFFF AND DUP2 MSTORE PUSH1 0x20 ADD SWAP1 DUP2 MSTORE PUSH1 0x20 ADD PUSH1 0x0 KECCAK256 PUSH1 0x0 PUSH2 0xCDA PUSH2 0xDE7 JUMP JUMPDEST PUSH20 0xFFFFFFFFFFFFFFFFFFFFFFFFFFFFFFFFFFFFFFFF AND PUSH20 0xFFFFFFFFFFFFFFFFFFFFFFFFFFFFFFFFFFFFFFFF AND DUP2 MSTORE PUSH1 0x20 ADD SWAP1 DUP2 MSTORE PUSH1 0x20 ADD PUSH1 0x0 KECCAK256 SLOAD PUSH2 0x1519 SWAP1 SWAP3 SWAP2 SWAP1 PUSH4 0xFFFFFFFF AND JUMP JUMPDEST PUSH2 0x106C JUMP JUMPDEST PUSH1 0x1 SWAP1 POP SWAP4 SWAP3 POP POP POP JUMP JUMPDEST PUSH1 0x0 PUSH2 0xDDD PUSH2 0xD41 PUSH2 0xDE7 JUMP JUMPDEST DUP5 PUSH2 0xDD8 DUP6 PUSH1 0x1 PUSH1 0x0 PUSH2 0xD52 PUSH2 0xDE7 JUMP JUMPDEST PUSH20 0xFFFFFFFFFFFFFFFFFFFFFFFFFFFFFFFFFFFFFFFF AND PUSH20 0xFFFFFFFFFFFFFFFFFFFFFFFFFFFFFFFFFFFFFFFF AND DUP2 MSTORE PUSH1 0x20 ADD SWAP1 DUP2 MSTORE PUSH1 0x20 ADD PUSH1 0x0 KECCAK256 PUSH1 0x0 DUP10 PUSH20 0xFFFFFFFFFFFFFFFFFFFFFFFFFFFFFFFFFFFFFFFF AND PUSH20 0xFFFFFFFFFFFFFFFFFFFFFFFFFFFFFFFFFFFFFFFF AND DUP2 MSTORE PUSH1 0x20 ADD SWAP1 DUP2 MSTORE PUSH1 0x20 ADD PUSH1 0x0 KECCAK256 SLOAD PUSH2 0x15D9 SWAP1 SWAP2 SWAP1 PUSH4 0xFFFFFFFF AND JUMP JUMPDEST PUSH2 0x106C JUMP JUMPDEST PUSH1 0x1 SWAP1 POP SWAP3 SWAP2 POP POP JUMP JUMPDEST PUSH1 0x0 CALLER SWAP1 POP SWAP1 JUMP JUMPDEST PUSH1 0x0 DUP1 PUSH20 0xFFFFFFFFFFFFFFFFFFFFFFFFFFFFFFFFFFFFFFFF AND DUP3 PUSH20 0xFFFFFFFFFFFFFFFFFFFFFFFFFFFFFFFFFFFFFFFF AND EQ ISZERO PUSH2 0xE76 JUMPI PUSH1 0x40 MLOAD PUSH32 0x8C379A000000000000000000000000000000000000000000000000000000000 DUP2 MSTORE PUSH1 0x4 ADD DUP1 DUP1 PUSH1 0x20 ADD DUP3 DUP2 SUB DUP3 MSTORE PUSH1 0x22 DUP2 MSTORE PUSH1 0x20 ADD DUP1 PUSH2 0x1903 PUSH1 0x22 SWAP2 CODECOPY PUSH1 0x40 ADD SWAP2 POP POP PUSH1 0x40 MLOAD DUP1 SWAP2 SUB SWAP1 REVERT JUMPDEST DUP3 PUSH1 0x0 ADD PUSH1 0x0 DUP4 PUSH20 0xFFFFFFFFFFFFFFFFFFFFFFFFFFFFFFFFFFFFFFFF AND PUSH20 0xFFFFFFFFFFFFFFFFFFFFFFFFFFFFFFFFFFFFFFFF AND DUP2 MSTORE PUSH1 0x20 ADD SWAP1 DUP2 MSTORE PUSH1 0x20 ADD PUSH1 0x0 KECCAK256 PUSH1 0x0 SWAP1 SLOAD SWAP1 PUSH2 0x100 EXP SWAP1 DIV PUSH1 0xFF AND SWAP1 POP SWAP3 SWAP2 POP POP JUMP JUMPDEST PUSH2 0xEE1 DUP2 PUSH1 0x3 PUSH2 0x1661 SWAP1 SWAP2 SWAP1 PUSH4 0xFFFFFFFF AND JUMP JUMPDEST DUP1 PUSH20 0xFFFFFFFFFFFFFFFFFFFFFFFFFFFFFFFFFFFFFFFF AND PUSH32 0xCD265EBAF09DF2871CC7BD4133404A235BA12EFF2041BB89D9C714A2621C7C7E PUSH1 0x40 MLOAD PUSH1 0x40 MLOAD DUP1 SWAP2 SUB SWAP1 LOG2 POP JUMP JUMPDEST PUSH2 0xF3B DUP2 PUSH1 0x3 PUSH2 0x171E SWAP1 SWAP2 SWAP1 PUSH4 0xFFFFFFFF AND JUMP JUMPDEST DUP1 PUSH20 0xFFFFFFFFFFFFFFFFFFFFFFFFFFFFFFFFFFFFFFFF AND PUSH32 0x6719D08C1888103BEA251A4ED56406BD0C3E69723C8A1686E017E7BBE159B6F8 PUSH1 0x40 MLOAD PUSH1 0x40 MLOAD DUP1 SWAP2 SUB SWAP1 LOG2 POP JUMP JUMPDEST PUSH1 0x0 PUSH2 0x1044 PUSH2 0xF8E PUSH2 0xDE7 JUMP JUMPDEST DUP5 PUSH2 0x103F DUP6 PUSH1 0x40 MLOAD DUP1 PUSH1 0x60 ADD PUSH1 0x40 MSTORE DUP1 PUSH1 0x25 DUP2 MSTORE PUSH1 0x20 ADD PUSH2 0x182A PUSH1 0x25 SWAP2 CODECOPY PUSH1 0x1 PUSH1 0x0 PUSH2 0xFB8 PUSH2 0xDE7 JUMP JUMPDEST PUSH20 0xFFFFFFFFFFFFFFFFFFFFFFFFFFFFFFFFFFFFFFFF AND PUSH20 0xFFFFFFFFFFFFFFFFFFFFFFFFFFFFFFFFFFFFFFFF AND DUP2 MSTORE PUSH1 0x20 ADD SWAP1 DUP2 MSTORE PUSH1 0x20 ADD PUSH1 0x0 KECCAK256 PUSH1 0x0 DUP11 PUSH20 0xFFFFFFFFFFFFFFFFFFFFFFFFFFFFFFFFFFFFFFFF AND PUSH20 0xFFFFFFFFFFFFFFFFFFFFFFFFFFFFFFFFFFFFFFFF AND DUP2 MSTORE PUSH1 0x20 ADD SWAP1 DUP2 MSTORE PUSH1 0x20 ADD PUSH1 0x0 KECCAK256 SLOAD PUSH2 0x1519 SWAP1 SWAP3 SWAP2 SWAP1 PUSH4 0xFFFFFFFF AND JUMP JUMPDEST PUSH2 0x106C JUMP JUMPDEST PUSH1 0x1 SWAP1 POP SWAP3 SWAP2 POP POP JUMP JUMPDEST PUSH1 0x0 PUSH2 0x1062 PUSH2 0x105B PUSH2 0xDE7 JUMP JUMPDEST DUP5 DUP5 PUSH2 0x1263 JUMP JUMPDEST PUSH1 0x1 SWAP1 POP SWAP3 SWAP2 POP POP JUMP JUMPDEST PUSH1 0x0 PUSH20 0xFFFFFFFFFFFFFFFFFFFFFFFFFFFFFFFFFFFFFFFF AND DUP4 PUSH20 0xFFFFFFFFFFFFFFFFFFFFFFFFFFFFFFFFFFFFFFFF AND EQ ISZERO PUSH2 0x10F2 JUMPI PUSH1 0x40 MLOAD PUSH32 0x8C379A000000000000000000000000000000000000000000000000000000000 DUP2 MSTORE PUSH1 0x4 ADD DUP1 DUP1 PUSH1 0x20 ADD DUP3 DUP2 SUB DUP3 MSTORE PUSH1 0x24 DUP2 MSTORE PUSH1 0x20 ADD DUP1 PUSH2 0x1925 PUSH1 0x24 SWAP2 CODECOPY PUSH1 0x40 ADD SWAP2 POP POP PUSH1 0x40 MLOAD DUP1 SWAP2 SUB SWAP1 REVERT JUMPDEST PUSH1 0x0 PUSH20 0xFFFFFFFFFFFFFFFFFFFFFFFFFFFFFFFFFFFFFFFF AND DUP3 PUSH20 0xFFFFFFFFFFFFFFFFFFFFFFFFFFFFFFFFFFFFFFFF AND EQ ISZERO PUSH2 0x1178 JUMPI PUSH1 0x40 MLOAD PUSH32 0x8C379A000000000000000000000000000000000000000000000000000000000 DUP2 MSTORE PUSH1 0x4 ADD DUP1 DUP1 PUSH1 0x20 ADD DUP3 DUP2 SUB DUP3 MSTORE PUSH1 0x22 DUP2 MSTORE PUSH1 0x20 ADD DUP1 PUSH2 0x189D PUSH1 0x22 SWAP2 CODECOPY PUSH1 0x40 ADD SWAP2 POP POP PUSH1 0x40 MLOAD DUP1 SWAP2 SUB SWAP1 REVERT JUMPDEST DUP1 PUSH1 0x1 PUSH1 0x0 DUP6 PUSH20 0xFFFFFFFFFFFFFFFFFFFFFFFFFFFFFFFFFFFFFFFF AND PUSH20 0xFFFFFFFFFFFFFFFFFFFFFFFFFFFFFFFFFFFFFFFF AND DUP2 MSTORE PUSH1 0x20 ADD SWAP1 DUP2 MSTORE PUSH1 0x20 ADD PUSH1 0x0 KECCAK256 PUSH1 0x0 DUP5 PUSH20 0xFFFFFFFFFFFFFFFFFFFFFFFFFFFFFFFFFFFFFFFF AND PUSH20 0xFFFFFFFFFFFFFFFFFFFFFFFFFFFFFFFFFFFFFFFF AND DUP2 MSTORE PUSH1 0x20 ADD SWAP1 DUP2 MSTORE PUSH1 0x20 ADD PUSH1 0x0 KECCAK256 DUP2 SWAP1 SSTORE POP DUP2 PUSH20 0xFFFFFFFFFFFFFFFFFFFFFFFFFFFFFFFFFFFFFFFF AND DUP4 PUSH20 0xFFFFFFFFFFFFFFFFFFFFFFFFFFFFFFFFFFFFFFFF AND PUSH32 0x8C5BE1E5EBEC7D5BD14F71427D1E84F3DD0314C0F7B2291E5B200AC8C7C3B925 DUP4 PUSH1 0x40 MLOAD DUP1 DUP3 DUP2 MSTORE PUSH1 0x20 ADD SWAP2 POP POP PUSH1 0x40 MLOAD DUP1 SWAP2 SUB SWAP1 LOG3 POP POP POP JUMP JUMPDEST PUSH1 0x0 PUSH20 0xFFFFFFFFFFFFFFFFFFFFFFFFFFFFFFFFFFFFFFFF AND DUP4 PUSH20 0xFFFFFFFFFFFFFFFFFFFFFFFFFFFFFFFFFFFFFFFF AND EQ ISZERO PUSH2 0x12E9 JUMPI PUSH1 0x40 MLOAD PUSH32 0x8C379A000000000000000000000000000000000000000000000000000000000 DUP2 MSTORE PUSH1 0x4 ADD DUP1 DUP1 PUSH1 0x20 ADD DUP3 DUP2 SUB DUP3 MSTORE PUSH1 0x25 DUP2 MSTORE PUSH1 0x20 ADD DUP1 PUSH2 0x1949 PUSH1 0x25 SWAP2 CODECOPY PUSH1 0x40 ADD SWAP2 POP POP PUSH1 0x40 MLOAD DUP1 SWAP2 SUB SWAP1 REVERT JUMPDEST PUSH1 0x0 PUSH20 0xFFFFFFFFFFFFFFFFFFFFFFFFFFFFFFFFFFFFFFFF AND DUP3 PUSH20 0xFFFFFFFFFFFFFFFFFFFFFFFFFFFFFFFFFFFFFFFF AND EQ ISZERO PUSH2 0x136F JUMPI PUSH1 0x40 MLOAD PUSH32 0x8C379A000000000000000000000000000000000000000000000000000000000 DUP2 MSTORE PUSH1 0x4 ADD DUP1 DUP1 PUSH1 0x20 ADD DUP3 DUP2 SUB DUP3 MSTORE PUSH1 0x23 DUP2 MSTORE PUSH1 0x20 ADD DUP1 PUSH2 0x18E0 PUSH1 0x23 SWAP2 CODECOPY PUSH1 0x40 ADD SWAP2 POP POP PUSH1 0x40 MLOAD DUP1 SWAP2 SUB SWAP1 REVERT JUMPDEST PUSH2 0x13DA DUP2 PUSH1 0x40 MLOAD DUP1 PUSH1 0x60 ADD PUSH1 0x40 MSTORE DUP1 PUSH1 0x26 DUP2 MSTORE PUSH1 0x20 ADD PUSH2 0x184F PUSH1 0x26 SWAP2 CODECOPY PUSH1 0x0 DUP1 DUP8 PUSH20 0xFFFFFFFFFFFFFFFFFFFFFFFFFFFFFFFFFFFFFFFF AND PUSH20 0xFFFFFFFFFFFFFFFFFFFFFFFFFFFFFFFFFFFFFFFF AND DUP2 MSTORE PUSH1 0x20 ADD SWAP1 DUP2 MSTORE PUSH1 0x20 ADD PUSH1 0x0 KECCAK256 SLOAD PUSH2 0x1519 SWAP1 SWAP3 SWAP2 SWAP1 PUSH4 0xFFFFFFFF AND JUMP JUMPDEST PUSH1 0x0 DUP1 DUP6 PUSH20 0xFFFFFFFFFFFFFFFFFFFFFFFFFFFFFFFFFFFFFFFF AND PUSH20 0xFFFFFFFFFFFFFFFFFFFFFFFFFFFFFFFFFFFFFFFF AND DUP2 MSTORE PUSH1 0x20 ADD SWAP1 DUP2 MSTORE PUSH1 0x20 ADD PUSH1 0x0 KECCAK256 DUP2 SWAP1 SSTORE POP PUSH2 0x146D DUP2 PUSH1 0x0 DUP1 DUP6 PUSH20 0xFFFFFFFFFFFFFFFFFFFFFFFFFFFFFFFFFFFFFFFF AND PUSH20 0xFFFFFFFFFFFFFFFFFFFFFFFFFFFFFFFFFFFFFFFF AND DUP2 MSTORE PUSH1 0x20 ADD SWAP1 DUP2 MSTORE PUSH1 0x20 ADD PUSH1 0x0 KECCAK256 SLOAD PUSH2 0x15D9 SWAP1 SWAP2 SWAP1 PUSH4 0xFFFFFFFF AND JUMP JUMPDEST PUSH1 0x0 DUP1 DUP5 PUSH20 0xFFFFFFFFFFFFFFFFFFFFFFFFFFFFFFFFFFFFFFFF AND PUSH20 0xFFFFFFFFFFFFFFFFFFFFFFFFFFFFFFFFFFFFFFFF AND DUP2 MSTORE PUSH1 0x20 ADD SWAP1 DUP2 MSTORE PUSH1 0x20 ADD PUSH1 0x0 KECCAK256 DUP2 SWAP1 SSTORE POP DUP2 PUSH20 0xFFFFFFFFFFFFFFFFFFFFFFFFFFFFFFFFFFFFFFFF AND DUP4 PUSH20 0xFFFFFFFFFFFFFFFFFFFFFFFFFFFFFFFFFFFFFFFF AND PUSH32 0xDDF252AD1BE2C89B69C2B068FC378DAA952BA7F163C4A11628F55A4DF523B3EF DUP4 PUSH1 0x40 MLOAD DUP1 DUP3 DUP2 MSTORE PUSH1 0x20 ADD SWAP2 POP POP PUSH1 0x40 MLOAD DUP1 SWAP2 SUB SWAP1 LOG3 POP POP POP JUMP JUMPDEST PUSH1 0x0 DUP4 DUP4 GT ISZERO DUP3 SWAP1 PUSH2 0x15C6 JUMPI PUSH1 0x40 MLOAD PUSH32 0x8C379A000000000000000000000000000000000000000000000000000000000 DUP2 MSTORE PUSH1 0x4 ADD DUP1 DUP1 PUSH1 0x20 ADD DUP3 DUP2 SUB DUP3 MSTORE DUP4 DUP2 DUP2 MLOAD DUP2 MSTORE PUSH1 0x20 ADD SWAP2 POP DUP1 MLOAD SWAP1 PUSH1 0x20 ADD SWAP1 DUP1 DUP4 DUP4 PUSH1 0x0 JUMPDEST DUP4 DUP2 LT ISZERO PUSH2 0x158B JUMPI DUP1 DUP3 ADD MLOAD DUP2 DUP5 ADD MSTORE PUSH1 0x20 DUP2 ADD SWAP1 POP PUSH2 0x1570 JUMP JUMPDEST POP POP POP POP SWAP1 POP SWAP1 DUP2 ADD SWAP1 PUSH1 0x1F AND DUP1 ISZERO PUSH2 0x15B8 JUMPI DUP1 DUP3 SUB DUP1 MLOAD PUSH1 0x1 DUP4 PUSH1 0x20 SUB PUSH2 0x100 EXP SUB NOT AND DUP2 MSTORE PUSH1 0x20 ADD SWAP2 POP JUMPDEST POP SWAP3 POP POP POP PUSH1 0x40 MLOAD DUP1 SWAP2 SUB SWAP1 REVERT JUMPDEST POP PUSH1 0x0 DUP4 DUP6 SUB SWAP1 POP DUP1 SWAP2 POP POP SWAP4 SWAP3 POP POP POP JUMP JUMPDEST PUSH1 0x0 DUP1 DUP3 DUP5 ADD SWAP1 POP DUP4 DUP2 LT ISZERO PUSH2 0x1657 JUMPI PUSH1 0x40 MLOAD PUSH32 0x8C379A000000000000000000000000000000000000000000000000000000000 DUP2 MSTORE PUSH1 0x4 ADD DUP1 DUP1 PUSH1 0x20 ADD DUP3 DUP2 SUB DUP3 MSTORE PUSH1 0x1B DUP2 MSTORE PUSH1 0x20 ADD DUP1 PUSH32 0x536166654D6174683A204164646974696F6E206F766572666C6F770000000000 DUP2 MSTORE POP PUSH1 0x20 ADD SWAP2 POP POP PUSH1 0x40 MLOAD DUP1 SWAP2 SUB SWAP1 REVERT JUMPDEST DUP1 SWAP2 POP POP SWAP3 SWAP2 POP POP JUMP JUMPDEST PUSH2 0x166B DUP3 DUP3 PUSH2 0xDEF JUMP JUMPDEST PUSH2 0x16C0 JUMPI PUSH1 0x40 MLOAD PUSH32 0x8C379A000000000000000000000000000000000000000000000000000000000 DUP2 MSTORE PUSH1 0x4 ADD DUP1 DUP1 PUSH1 0x20 ADD DUP3 DUP2 SUB DUP3 MSTORE PUSH1 0x21 DUP2 MSTORE PUSH1 0x20 ADD DUP1 PUSH2 0x18BF PUSH1 0x21 SWAP2 CODECOPY PUSH1 0x40 ADD SWAP2 POP POP PUSH1 0x40 MLOAD DUP1 SWAP2 SUB SWAP1 REVERT JUMPDEST PUSH1 0x0 DUP3 PUSH1 0x0 ADD PUSH1 0x0 DUP4 PUSH20 0xFFFFFFFFFFFFFFFFFFFFFFFFFFFFFFFFFFFFFFFF AND PUSH20 0xFFFFFFFFFFFFFFFFFFFFFFFFFFFFFFFFFFFFFFFF AND DUP2 MSTORE PUSH1 0x20 ADD SWAP1 DUP2 MSTORE PUSH1 0x20 ADD PUSH1 0x0 KECCAK256 PUSH1 0x0 PUSH2 0x100 EXP DUP2 SLOAD DUP2 PUSH1 0xFF MUL NOT AND SWAP1 DUP4 ISZERO ISZERO MUL OR SWAP1 SSTORE POP POP POP JUMP JUMPDEST PUSH2 0x1728 DUP3 DUP3 PUSH2 0xDEF JUMP JUMPDEST ISZERO PUSH2 0x179B JUMPI PUSH1 0x40 MLOAD PUSH32 0x8C379A000000000000000000000000000000000000000000000000000000000 DUP2 MSTORE PUSH1 0x4 ADD DUP1 DUP1 PUSH1 0x20 ADD DUP3 DUP2 SUB DUP3 MSTORE PUSH1 0x1F DUP2 MSTORE PUSH1 0x20 ADD DUP1 PUSH32 0x526F6C65733A204163636F756E7420616C72656164792068617320726F6C6500 DUP2 MSTORE POP PUSH1 0x20 ADD SWAP2 POP POP PUSH1 0x40 MLOAD DUP1 SWAP2 SUB SWAP1 REVERT JUMPDEST PUSH1 0x1 DUP3 PUSH1 0x0 ADD PUSH1 0x0 DUP4 PUSH20 0xFFFFFFFFFFFFFFFFFFFFFFFFFFFFFFFFFFFFFFFF AND PUSH20 0xFFFFFFFFFFFFFFFFFFFFFFFFFFFFFFFFFFFFFFFF AND DUP2 MSTORE PUSH1 0x20 ADD SWAP1 DUP2 MSTORE PUSH1 0x20 ADD PUSH1 0x0 KECCAK256 PUSH1 0x0 PUSH2 0x100 EXP DUP2 SLOAD DUP2 PUSH1 0xFF MUL NOT AND SWAP1 DUP4 ISZERO ISZERO MUL OR SWAP1 SSTORE POP POP POP JUMP INVALID POP PUSH2 0x7573 PUSH6 0x72526F6C653A KECCAK256 NUMBER PUSH2 0x6C6C PUSH6 0x7220646F6573 KECCAK256 PUSH15 0x6F7420686176652074686520506175 PUSH20 0x657220726F6C6542545332303A20446563726561 PUSH20 0x656420616C6C6F77616E63652062656C6F77207A PUSH6 0x726F42545332 ADDRESS GASPRICE KECCAK256 SLOAD PUSH19 0x616E7366657220616D6F756E74206578636565 PUSH5 0x732062616C PUSH2 0x6E63 PUSH6 0x42545332303A KECCAK256 SLOAD PUSH19 0x616E7366657220616D6F756E74206578636565 PUSH5 0x7320616C6C PUSH16 0x77616E636542545332303A2041707072 PUSH16 0x766520746F20746865207A65726F2061 PUSH5 0x6472657373 MSTORE PUSH16 0x6C65733A204163636F756E7420646F65 PUSH20 0x206E6F74206861766520726F6C6542545332303A KECCAK256 SLOAD PUSH19 0x616E7366657220746F20746865207A65726F20 PUSH2 0x6464 PUSH19 0x657373526F6C65733A204163636F756E742069 PUSH20 0x20746865207A65726F2061646472657373425453 ORIGIN ADDRESS GASPRICE KECCAK256 COINBASE PUSH17 0x70726F76652066726F6D20746865207A65 PUSH19 0x6F206164647265737342545332303A20547261 PUSH15 0x736665722066726F6D20746865207A PUSH6 0x726F20616464 PUSH19 0x657373A265627A7A7231582084B0D20E52FD46 0xB7 0x5D CODESIZE 0xE0 0xF9 EXTCODEHASH CALL 0xF9 0x4D 0xE5 0xC0 PUSH31 0xE1A8A8C9735E2AF20415BB6B6164736F6C63430005110032526F6C65733A20 COINBASE PUSH4 0x636F756E PUSH21 0x20697320746865207A65726F206164647265737300 "
				},
				"gasEstimates": {
					"creation": {
						"codeDepositCost": "1312400",
						"executionCost": "infinite",
						"totalCost": "infinite"
					},
					"external": {
						"addPauser(address)": "infinite",
						"allowance(address,address)": "1409",
						"approve(address,uint256)": "infinite",
						"balanceOf(address)": "1241",
						"decreaseAllowance(address,uint256)": "infinite",
						"increaseAllowance(address,uint256)": "infinite",
						"isPauser(address)": "infinite",
						"pause()": "infinite",
						"paused()": "1150",
						"renouncePauser()": "infinite",
						"totalSupply()": "1059",
						"transfer(address,uint256)": "infinite",
						"transferFrom(address,address,uint256)": "infinite",
						"unpause()": "infinite"
					}
				},
				"methodIdentifiers": {
					"addPauser(address)": "82dc1ec4",
					"allowance(address,address)": "dd62ed3e",
					"approve(address,uint256)": "095ea7b3",
					"balanceOf(address)": "70a08231",
					"decreaseAllowance(address,uint256)": "a457c2d7",
					"increaseAllowance(address,uint256)": "39509351",
					"isPauser(address)": "46fbf68e",
					"pause()": "8456cb59",
					"paused()": "5c975abb",
					"renouncePauser()": "6ef8d66d",
					"totalSupply()": "18160ddd",
					"transfer(address,uint256)": "a9059cbb",
					"transferFrom(address,address,uint256)": "23b872dd",
					"unpause()": "3f4ba83a"
				}
			},
			"storageLayout": {
				"storage": [
					{
						"astId": 555,
						"contract": "contracts/WrappedBTN.sol:BTS20Pausable",
						"label": "_balances",
						"offset": 0,
						"slot": "0",
						"type": "t_mapping(t_address,t_uint256)"
					},
					{
						"astId": 561,
						"contract": "contracts/WrappedBTN.sol:BTS20Pausable",
						"label": "_allowances",
						"offset": 0,
						"slot": "1",
						"type": "t_mapping(t_address,t_mapping(t_address,t_uint256))"
					},
					{
						"astId": 563,
						"contract": "contracts/WrappedBTN.sol:BTS20Pausable",
						"label": "_totalSupply",
						"offset": 0,
						"slot": "2",
						"type": "t_uint256"
					},
					{
						"astId": 120,
						"contract": "contracts/WrappedBTN.sol:BTS20Pausable",
						"label": "_pausers",
						"offset": 0,
						"slot": "3",
						"type": "t_struct(Role)31_storage"
					},
					{
						"astId": 222,
						"contract": "contracts/WrappedBTN.sol:BTS20Pausable",
						"label": "_paused",
						"offset": 0,
						"slot": "4",
						"type": "t_bool"
					}
				],
				"types": {
					"t_address": {
						"encoding": "inplace",
						"label": "address",
						"numberOfBytes": "20"
					},
					"t_bool": {
						"encoding": "inplace",
						"label": "bool",
						"numberOfBytes": "1"
					},
					"t_mapping(t_address,t_bool)": {
						"encoding": "mapping",
						"key": "t_address",
						"label": "mapping(address => bool)",
						"numberOfBytes": "32",
						"value": "t_bool"
					},
					"t_mapping(t_address,t_mapping(t_address,t_uint256))": {
						"encoding": "mapping",
						"key": "t_address",
						"label": "mapping(address => mapping(address => uint256))",
						"numberOfBytes": "32",
						"value": "t_mapping(t_address,t_uint256)"
					},
					"t_mapping(t_address,t_uint256)": {
						"encoding": "mapping",
						"key": "t_address",
						"label": "mapping(address => uint256)",
						"numberOfBytes": "32",
						"value": "t_uint256"
					},
					"t_struct(Role)31_storage": {
						"encoding": "inplace",
						"label": "struct Roles.Role",
						"members": [
							{
								"astId": 30,
								"contract": "contracts/WrappedBTN.sol:BTS20Pausable",
								"label": "bearer",
								"offset": 0,
								"slot": "0",
								"type": "t_mapping(t_address,t_bool)"
							}
						],
						"numberOfBytes": "32"
					},
					"t_uint256": {
						"encoding": "inplace",
						"label": "uint256",
						"numberOfBytes": "32"
					}
				}
			},
			"userdoc": {
				"methods": {}
			}
		}
	}
}