{
	"contracts/WrappedBTN.sol": {
		"WrappedBTN": {
			"abi": [
				{
					"inputs": [],
					"payable": false,
					"stateMutability": "nonpayable",
					"type": "constructor"
				},
				{
					"anonymous": false,
					"inputs": [
						{
							"indexed": true,
							"internalType": "address",
							"name": "owner",
							"type": "address"
						},
						{
							"indexed": true,
							"internalType": "address",
							"name": "spender",
							"type": "address"
						},
						{
							"indexed": false,
							"internalType": "uint256",
							"name": "value",
							"type": "uint256"
						}
					],
					"name": "Approval",
					"type": "event"
				},
				{
					"anonymous": false,
					"inputs": [
						{
							"indexed": false,
							"internalType": "address",
							"name": "account",
							"type": "address"
						}
					],
					"name": "Paused",
					"type": "event"
				},
				{
					"anonymous": false,
					"inputs": [
						{
							"indexed": true,
							"internalType": "address",
							"name": "account",
							"type": "address"
						}
					],
					"name": "PauserAdded",
					"type": "event"
				},
				{
					"anonymous": false,
					"inputs": [
						{
							"indexed": true,
							"internalType": "address",
							"name": "account",
							"type": "address"
						}
					],
					"name": "PauserRemoved",
					"type": "event"
				},
				{
					"anonymous": false,
					"inputs": [
						{
							"indexed": true,
							"internalType": "address",
							"name": "from",
							"type": "address"
						},
						{
							"indexed": true,
							"internalType": "address",
							"name": "to",
							"type": "address"
						},
						{
							"indexed": false,
							"internalType": "uint256",
							"name": "value",
							"type": "uint256"
						}
					],
					"name": "Transfer",
					"type": "event"
				},
				{
					"anonymous": false,
					"inputs": [
						{
							"indexed": false,
							"internalType": "address",
							"name": "account",
							"type": "address"
						}
					],
					"name": "Unpaused",
					"type": "event"
				},
				{
					"constant": true,
					"inputs": [],
					"name": "ERR_INVALID_ZERO_VALUE",
					"outputs": [
						{
							"internalType": "uint256",
							"name": "",
							"type": "uint256"
						}
					],
					"payable": false,
					"stateMutability": "view",
					"type": "function"
				},
				{
					"constant": true,
					"inputs": [],
					"name": "ERR_NO_ERROR",
					"outputs": [
						{
							"internalType": "uint256",
							"name": "",
							"type": "uint256"
						}
					],
					"payable": false,
					"stateMutability": "view",
					"type": "function"
				},
				{
					"constant": false,
					"inputs": [
						{
							"internalType": "address",
							"name": "account",
							"type": "address"
						}
					],
					"name": "addPauser",
					"outputs": [],
					"payable": false,
					"stateMutability": "nonpayable",
					"type": "function"
				},
				{
					"constant": true,
					"inputs": [
						{
							"internalType": "address",
							"name": "owner",
							"type": "address"
						},
						{
							"internalType": "address",
							"name": "spender",
							"type": "address"
						}
					],
					"name": "allowance",
					"outputs": [
						{
							"internalType": "uint256",
							"name": "",
							"type": "uint256"
						}
					],
					"payable": false,
					"stateMutability": "view",
					"type": "function"
				},
				{
					"constant": false,
					"inputs": [
						{
							"internalType": "address",
							"name": "spender",
							"type": "address"
						},
						{
							"internalType": "uint256",
							"name": "value",
							"type": "uint256"
						}
					],
					"name": "approve",
					"outputs": [
						{
							"internalType": "bool",
							"name": "",
							"type": "bool"
						}
					],
					"payable": false,
					"stateMutability": "nonpayable",
					"type": "function"
				},
				{
					"constant": true,
					"inputs": [
						{
							"internalType": "address",
							"name": "account",
							"type": "address"
						}
					],
					"name": "balanceOf",
					"outputs": [
						{
							"internalType": "uint256",
							"name": "",
							"type": "uint256"
						}
					],
					"payable": false,
					"stateMutability": "view",
					"type": "function"
				},
				{
					"constant": true,
					"inputs": [],
					"name": "decimals",
					"outputs": [
						{
							"internalType": "uint8",
							"name": "",
							"type": "uint8"
						}
					],
					"payable": false,
					"stateMutability": "view",
					"type": "function"
				},
				{
					"constant": false,
					"inputs": [
						{
							"internalType": "address",
							"name": "spender",
							"type": "address"
						},
						{
							"internalType": "uint256",
							"name": "subtractedValue",
							"type": "uint256"
						}
					],
					"name": "decreaseAllowance",
					"outputs": [
						{
							"internalType": "bool",
							"name": "",
							"type": "bool"
						}
					],
					"payable": false,
					"stateMutability": "nonpayable",
					"type": "function"
				},
				{
					"constant": false,
					"inputs": [],
					"name": "deposit",
					"outputs": [
						{
							"internalType": "uint256",
							"name": "",
							"type": "uint256"
						}
					],
					"payable": true,
					"stateMutability": "payable",
					"type": "function"
				},
				{
					"constant": false,
					"inputs": [
						{
							"internalType": "address",
							"name": "spender",
							"type": "address"
						},
						{
							"internalType": "uint256",
							"name": "addedValue",
							"type": "uint256"
						}
					],
					"name": "increaseAllowance",
					"outputs": [
						{
							"internalType": "bool",
							"name": "",
							"type": "bool"
						}
					],
					"payable": false,
					"stateMutability": "nonpayable",
					"type": "function"
				},
				{
					"constant": true,
					"inputs": [
						{
							"internalType": "address",
							"name": "account",
							"type": "address"
						}
					],
					"name": "isPauser",
					"outputs": [
						{
							"internalType": "bool",
							"name": "",
							"type": "bool"
						}
					],
					"payable": false,
					"stateMutability": "view",
					"type": "function"
				},
				{
					"constant": true,
					"inputs": [],
					"name": "name",
					"outputs": [
						{
							"internalType": "string",
							"name": "",
							"type": "string"
						}
					],
					"payable": false,
					"stateMutability": "view",
					"type": "function"
				},
				{
					"constant": false,
					"inputs": [],
					"name": "pause",
					"outputs": [],
					"payable": false,
					"stateMutability": "nonpayable",
					"type": "function"
				},
				{
					"constant": true,
					"inputs": [],
					"name": "paused",
					"outputs": [
						{
							"internalType": "bool",
							"name": "",
							"type": "bool"
						}
					],
					"payable": false,
					"stateMutability": "view",
					"type": "function"
				},
				{
					"constant": false,
					"inputs": [],
					"name": "renouncePauser",
					"outputs": [],
					"payable": false,
					"stateMutability": "nonpayable",
					"type": "function"
				},
				{
					"constant": true,
					"inputs": [],
					"name": "symbol",
					"outputs": [
						{
							"internalType": "string",
							"name": "",
							"type": "string"
						}
					],
					"payable": false,
					"stateMutability": "view",
					"type": "function"
				},
				{
					"constant": true,
					"inputs": [],
					"name": "totalSupply",
					"outputs": [
						{
							"internalType": "uint256",
							"name": "",
							"type": "uint256"
						}
					],
					"payable": false,
					"stateMutability": "view",
					"type": "function"
				},
				{
					"constant": false,
					"inputs": [
						{
							"internalType": "address",
							"name": "to",
							"type": "address"
						},
						{
							"internalType": "uint256",
							"name": "value",
							"type": "uint256"
						}
					],
					"name": "transfer",
					"outputs": [
						{
							"internalType": "bool",
							"name": "",
							"type": "bool"
						}
					],
					"payable": false,
					"stateMutability": "nonpayable",
					"type": "function"
				},
				{
					"constant": false,
					"inputs": [
						{
							"internalType": "address",
							"name": "from",
							"type": "address"
						},
						{
							"internalType": "address",
							"name": "to",
							"type": "address"
						},
						{
							"internalType": "uint256",
							"name": "value",
							"type": "uint256"
						}
					],
					"name": "transferFrom",
					"outputs": [
						{
							"internalType": "bool",
							"name": "",
							"type": "bool"
						}
					],
					"payable": false,
					"stateMutability": "nonpayable",
					"type": "function"
				},
				{
					"constant": false,
					"inputs": [],
					"name": "unpause",
					"outputs": [],
					"payable": false,
					"stateMutability": "nonpayable",
					"type": "function"
				},
				{
					"constant": false,
					"inputs": [
						{
							"internalType": "uint256",
							"name": "amount",
							"type": "uint256"
						}
					],
					"name": "withdraw",
					"outputs": [
						{
							"internalType": "uint256",
							"name": "",
							"type": "uint256"
						}
					],
					"payable": false,
					"stateMutability": "nonpayable",
					"type": "function"
				}
			],
			"devdoc": {
				"methods": {
					"allowance(address,address)": {
						"details": "See {IBTS20-allowance}."
					},
					"balanceOf(address)": {
						"details": "See {IBTS20-balanceOf}."
					},
					"decimals()": {
						"details": "Returns the number of decimals used to get its user representation. For example, if `decimals` equals `2`, a balance of `505` tokens should be displayed to a user as `5,05` (`505 / 10 ** 2`).      * Tokens usually opt for a value of 18, imitating the relationship between Ether and Wei.      * NOTE: This information is only used for _display_ purposes: it in no way affects any of the arithmetic of the contract, including {IBTS20-balanceOf} and {IBTS20-transfer}."
					},
					"name()": {
						"details": "Returns the name of the token."
					},
					"pause()": {
						"details": "Called by a pauser to pause, triggers stopped state."
					},
					"paused()": {
						"details": "Returns true if the contract is paused, and false otherwise."
					},
					"symbol()": {
						"details": "Returns the symbol of the token, usually a shorter version of the name."
					},
					"totalSupply()": {
						"details": "See {IBTS20-totalSupply}."
					},
					"unpause()": {
						"details": "Called by a pauser to unpause, returns to normal state."
					}
				}
			},
			"evm": {
				"assembly": "    /* \"contracts/WrappedBTN.sol\":21542:23165  contract WrappedBTN is BTS20, BTS20Detailed, BTS20Pausable {\r... */\n  mstore(0x40, 0x80)\n    /* \"contracts/WrappedBTN.sol\":21862:21936  constructor () public BTS20Detailed(\"Wrapped Bitnet\", \"WBTN\", 18) {\r... */\n  callvalue\n    /* \"--CODEGEN--\":8:17   */\n  dup1\n    /* \"--CODEGEN--\":5:7   */\n  iszero\n  tag_1\n  jumpi\n    /* \"--CODEGEN--\":30:31   */\n  0x00\n    /* \"--CODEGEN--\":27:28   */\n  dup1\n    /* \"--CODEGEN--\":20:32   */\n  revert\n    /* \"--CODEGEN--\":5:7   */\ntag_1:\n    /* \"contracts/WrappedBTN.sol\":21862:21936  constructor () public BTS20Detailed(\"Wrapped Bitnet\", \"WBTN\", 18) {\r... */\n  pop\n    /* \"contracts/WrappedBTN.sol\":19493:19660  constructor (string memory name, string memory symbol, uint8 decimals) public {\r... */\n  mload(0x40)\n  dup1\n  0x40\n  add\n  0x40\n  mstore\n  dup1\n  0x0e\n  dup2\n  mstore\n  0x20\n  add\n  0x57726170706564204269746e6574000000000000000000000000000000000000\n  dup2\n  mstore\n  pop\n  mload(0x40)\n  dup1\n  0x40\n  add\n  0x40\n  mstore\n  dup1\n  0x04\n  dup2\n  mstore\n  0x20\n  add\n  0x5742544e00000000000000000000000000000000000000000000000000000000\n  dup2\n  mstore\n  pop\n    /* \"contracts/WrappedBTN.sol\":21924:21926  18 */\n  0x12\n    /* \"contracts/WrappedBTN.sol\":19590:19594  name */\n  dup3\n    /* \"contracts/WrappedBTN.sol\":19582:19587  _name */\n  0x03\n    /* \"contracts/WrappedBTN.sol\":19582:19594  _name = name */\n  swap1\n  dup1\n  mload\n  swap1\n  0x20\n  add\n  swap1\n  tag_9\n  swap3\n  swap2\n  swap1\n  tag_10\n  jump\t// in\ntag_9:\n  pop\n    /* \"contracts/WrappedBTN.sol\":19615:19621  symbol */\n  dup2\n    /* \"contracts/WrappedBTN.sol\":19605:19612  _symbol */\n  0x04\n    /* \"contracts/WrappedBTN.sol\":19605:19621  _symbol = symbol */\n  swap1\n  dup1\n  mload\n  swap1\n  0x20\n  add\n  swap1\n  tag_11\n  swap3\n  swap2\n  swap1\n  tag_10\n  jump\t// in\ntag_11:\n  pop\n    /* \"contracts/WrappedBTN.sol\":19644:19652  decimals */\n  dup1\n    /* \"contracts/WrappedBTN.sol\":19632:19641  _decimals */\n  0x05\n  0x00\n    /* \"contracts/WrappedBTN.sol\":19632:19652  _decimals = decimals */\n  0x0100\n  exp\n  dup2\n  sload\n  dup2\n  0xff\n  mul\n  not\n  and\n  swap1\n  dup4\n  0xff\n  and\n  mul\n  or\n  swap1\n  sstore\n  pop\n    /* \"contracts/WrappedBTN.sol\":19493:19660  constructor (string memory name, string memory symbol, uint8 decimals) public {\r... */\n  pop\n  pop\n  pop\n    /* \"contracts/WrappedBTN.sol\":2408:2432  _addPauser(_msgSender()) */\n  tag_13\n    /* \"contracts/WrappedBTN.sol\":2419:2431  _msgSender() */\n  tag_14\n    /* \"contracts/WrappedBTN.sol\":2419:2429  _msgSender */\n  shl(0x20, tag_15)\n    /* \"contracts/WrappedBTN.sol\":2419:2431  _msgSender() */\n  0x20\n  shr\n  jump\t// in\ntag_14:\n    /* \"contracts/WrappedBTN.sol\":2408:2418  _addPauser */\n  shl(0x20, tag_16)\n    /* \"contracts/WrappedBTN.sol\":2408:2432  _addPauser(_msgSender()) */\n  0x20\n  shr\n  jump\t// in\ntag_13:\n    /* \"contracts/WrappedBTN.sol\":3668:3673  false */\n  0x00\n    /* \"contracts/WrappedBTN.sol\":3658:3665  _paused */\n  0x07\n  0x00\n    /* \"contracts/WrappedBTN.sol\":3658:3673  _paused = false */\n  0x0100\n  exp\n  dup2\n  sload\n  dup2\n  0xff\n  mul\n  not\n  and\n  swap1\n  dup4\n  iszero\n  iszero\n  mul\n  or\n  swap1\n  sstore\n  pop\n    /* \"contracts/WrappedBTN.sol\":21542:23165  contract WrappedBTN is BTS20, BTS20Detailed, BTS20Pausable {\r... */\n  jump(tag_19)\n    /* \"contracts/WrappedBTN.sol\":1037:1135  function _msgSender() internal view returns (address payable) {\r... */\ntag_15:\n    /* \"contracts/WrappedBTN.sol\":1082:1097  address payable */\n  0x00\n    /* \"contracts/WrappedBTN.sol\":1117:1127  msg.sender */\n  caller\n    /* \"contracts/WrappedBTN.sol\":1110:1127  return msg.sender */\n  swap1\n  pop\n    /* \"contracts/WrappedBTN.sol\":1037:1135  function _msgSender() internal view returns (address payable) {\r... */\n  swap1\n  jump\t// out\n    /* \"contracts/WrappedBTN.sol\":2896:3018  function _addPauser(address account) internal {\r... */\ntag_16:\n    /* \"contracts/WrappedBTN.sol\":2953:2974  _pausers.add(account) */\n  tag_22\n    /* \"contracts/WrappedBTN.sol\":2966:2973  account */\n  dup2\n    /* \"contracts/WrappedBTN.sol\":2953:2961  _pausers */\n  0x06\n    /* \"contracts/WrappedBTN.sol\":2953:2965  _pausers.add */\n  or(tag_0_219, shl(0x20, tag_23))\n  swap1\n    /* \"contracts/WrappedBTN.sol\":2953:2974  _pausers.add(account) */\n  swap2\n  swap1\n  0x20\n  shr\n  jump\t// in\ntag_22:\n    /* \"contracts/WrappedBTN.sol\":3002:3009  account */\n  dup1\n    /* \"contracts/WrappedBTN.sol\":2990:3010  PauserAdded(account) */\n  0xffffffffffffffffffffffffffffffffffffffff\n  and\n  0x6719d08c1888103bea251a4ed56406bd0c3e69723c8a1686e017e7bbe159b6f8\n  mload(0x40)\n  mload(0x40)\n  dup1\n  swap2\n  sub\n  swap1\n  log2\n    /* \"contracts/WrappedBTN.sol\":2896:3018  function _addPauser(address account) internal {\r... */\n  pop\n  jump\t// out\n    /* \"contracts/WrappedBTN.sol\":1416:1594  function add(Role storage role, address account) internal {\r... */\ntag_23:\n    /* \"contracts/WrappedBTN.sol\":1494:1512  has(role, account) */\n  tag_25\n    /* \"contracts/WrappedBTN.sol\":1498:1502  role */\n  dup3\n    /* \"contracts/WrappedBTN.sol\":1504:1511  account */\n  dup3\n    /* \"contracts/WrappedBTN.sol\":1494:1497  has */\n  shl(0x20, tag_26)\n    /* \"contracts/WrappedBTN.sol\":1494:1512  has(role, account) */\n  0x20\n  shr\n  jump\t// in\ntag_25:\n    /* \"contracts/WrappedBTN.sol\":1493:1512  !has(role, account) */\n  iszero\n    /* \"contracts/WrappedBTN.sol\":1485:1548  require(!has(role, account), \"Roles: Account already has role\") */\n  tag_27\n  jumpi\n  mload(0x40)\n  0x08c379a000000000000000000000000000000000000000000000000000000000\n  dup2\n  mstore\n  0x04\n  add\n  dup1\n  dup1\n  0x20\n  add\n  dup3\n  dup2\n  sub\n  dup3\n  mstore\n  0x1f\n  dup2\n  mstore\n  0x20\n  add\n  dup1\n  0x526f6c65733a204163636f756e7420616c72656164792068617320726f6c6500\n  dup2\n  mstore\n  pop\n  0x20\n  add\n  swap2\n  pop\n  pop\n  mload(0x40)\n  dup1\n  swap2\n  sub\n  swap1\n  revert\ntag_27:\n    /* \"contracts/WrappedBTN.sol\":1582:1586  true */\n  0x01\n    /* \"contracts/WrappedBTN.sol\":1559:1563  role */\n  dup3\n    /* \"contracts/WrappedBTN.sol\":1559:1570  role.bearer */\n  0x00\n  add\n    /* \"contracts/WrappedBTN.sol\":1559:1579  role.bearer[account] */\n  0x00\n    /* \"contracts/WrappedBTN.sol\":1571:1578  account */\n  dup4\n    /* \"contracts/WrappedBTN.sol\":1559:1579  role.bearer[account] */\n  0xffffffffffffffffffffffffffffffffffffffff\n  and\n  0xffffffffffffffffffffffffffffffffffffffff\n  and\n  dup2\n  mstore\n  0x20\n  add\n  swap1\n  dup2\n  mstore\n  0x20\n  add\n  0x00\n  keccak256\n  0x00\n    /* \"contracts/WrappedBTN.sol\":1559:1586  role.bearer[account] = true */\n  0x0100\n  exp\n  dup2\n  sload\n  dup2\n  0xff\n  mul\n  not\n  and\n  swap1\n  dup4\n  iszero\n  iszero\n  mul\n  or\n  swap1\n  sstore\n  pop\n    /* \"contracts/WrappedBTN.sol\":1416:1594  function add(Role storage role, address account) internal {\r... */\n  pop\n  pop\n  jump\t// out\n    /* \"contracts/WrappedBTN.sol\":1952:2155  function has(Role storage role, address account) internal view returns (bool) {\r... */\ntag_26:\n    /* \"contracts/WrappedBTN.sol\":2024:2028  bool */\n  0x00\n    /* \"contracts/WrappedBTN.sol\":2068:2069  0 */\n  dup1\n    /* \"contracts/WrappedBTN.sol\":2049:2070  account != address(0) */\n  0xffffffffffffffffffffffffffffffffffffffff\n  and\n    /* \"contracts/WrappedBTN.sol\":2049:2056  account */\n  dup3\n    /* \"contracts/WrappedBTN.sol\":2049:2070  account != address(0) */\n  0xffffffffffffffffffffffffffffffffffffffff\n  and\n  eq\n  iszero\n    /* \"contracts/WrappedBTN.sol\":2041:2109  require(account != address(0), \"Roles: Account is the zero address\") */\n  tag_29\n  jumpi\n  mload(0x40)\n  0x08c379a000000000000000000000000000000000000000000000000000000000\n  dup2\n  mstore\n  0x04\n  add\n  dup1\n  dup1\n  0x20\n  add\n  dup3\n  dup2\n  sub\n  dup3\n  mstore\n  0x22\n  dup2\n  mstore\n  0x20\n  add\n  dup1\n  data_d67578b85ba6d73375c4493f438c3d9072fd4105433709f73a70d19f74a8eed3\n  0x22\n  swap2\n  codecopy\n  0x40\n  add\n  swap2\n  pop\n  pop\n  mload(0x40)\n  dup1\n  swap2\n  sub\n  swap1\n  revert\ntag_29:\n    /* \"contracts/WrappedBTN.sol\":2127:2131  role */\n  dup3\n    /* \"contracts/WrappedBTN.sol\":2127:2138  role.bearer */\n  0x00\n  add\n    /* \"contracts/WrappedBTN.sol\":2127:2147  role.bearer[account] */\n  0x00\n    /* \"contracts/WrappedBTN.sol\":2139:2146  account */\n  dup4\n    /* \"contracts/WrappedBTN.sol\":2127:2147  role.bearer[account] */\n  0xffffffffffffffffffffffffffffffffffffffff\n  and\n  0xffffffffffffffffffffffffffffffffffffffff\n  and\n  dup2\n  mstore\n  0x20\n  add\n  swap1\n  dup2\n  mstore\n  0x20\n  add\n  0x00\n  keccak256\n  0x00\n  swap1\n  sload\n  swap1\n  0x0100\n  exp\n  swap1\n  div\n  0xff\n  and\n    /* \"contracts/WrappedBTN.sol\":2120:2147  return role.bearer[account] */\n  swap1\n  pop\n    /* \"contracts/WrappedBTN.sol\":1952:2155  function has(Role storage role, address account) internal view returns (bool) {\r... */\n  swap3\n  swap2\n  pop\n  pop\n  jump\t// out\n    /* \"contracts/WrappedBTN.sol\":21542:23165  contract WrappedBTN is BTS20, BTS20Detailed, BTS20Pausable {\r... */\ntag_10:\n  dup3\n  dup1\n  sload\n  0x01\n  dup2\n  0x01\n  and\n  iszero\n  0x0100\n  mul\n  sub\n  and\n  0x02\n  swap1\n  div\n  swap1\n  0x00\n  mstore\n  keccak256(0x00, 0x20)\n  swap1\n  0x1f\n  add\n  0x20\n  swap1\n  div\n  dup2\n  add\n  swap3\n  dup3\n  0x1f\n  lt\n  tag_31\n  jumpi\n  dup1\n  mload\n  not(0xff)\n  and\n  dup4\n  dup1\n  add\n  or\n  dup6\n  sstore\n  jump(tag_30)\ntag_31:\n  dup3\n  dup1\n  add\n  0x01\n  add\n  dup6\n  sstore\n  dup3\n  iszero\n  tag_30\n  jumpi\n  swap2\n  dup3\n  add\ntag_32:\n  dup3\n  dup2\n  gt\n  iszero\n  tag_33\n  jumpi\n  dup3\n  mload\n  dup3\n  sstore\n  swap2\n  0x20\n  add\n  swap2\n  swap1\n  0x01\n  add\n  swap1\n  jump(tag_32)\ntag_33:\ntag_30:\n  pop\n  swap1\n  pop\n  tag_34\n  swap2\n  swap1\n  tag_35\n  jump\t// in\ntag_34:\n  pop\n  swap1\n  jump\t// out\ntag_35:\n  tag_36\n  swap2\n  swap1\ntag_37:\n  dup1\n  dup3\n  gt\n  iszero\n  tag_38\n  jumpi\n  0x00\n  dup2\n  0x00\n  swap1\n  sstore\n  pop\n  0x01\n  add\n  jump(tag_37)\ntag_38:\n  pop\n  swap1\n  jump\ntag_36:\n  swap1\n  jump\t// out\ntag_19:\n  dataSize(sub_0)\n  dup1\n  dataOffset(sub_0)\n  0x00\n  codecopy\n  0x00\n  return\nstop\ndata_d67578b85ba6d73375c4493f438c3d9072fd4105433709f73a70d19f74a8eed3 526f6c65733a204163636f756e7420697320746865207a65726f2061646472657373\n\nsub_0: assembly {\n        /* \"contracts/WrappedBTN.sol\":21542:23165  contract WrappedBTN is BTS20, BTS20Detailed, BTS20Pausable {\r... */\n      mstore(0x40, 0x80)\n      jumpi(tag_1, lt(calldatasize, 0x04))\n      shr(0xe0, calldataload(0x00))\n      dup1\n      0x5c975abb\n      gt\n      tag_23\n      jumpi\n      dup1\n      0x8456cb59\n      gt\n      tag_24\n      jumpi\n      dup1\n      0x8456cb59\n      eq\n      tag_17\n      jumpi\n      dup1\n      0x95d89b41\n      eq\n      tag_18\n      jumpi\n      dup1\n      0xa457c2d7\n      eq\n      tag_19\n      jumpi\n      dup1\n      0xa9059cbb\n      eq\n      tag_20\n      jumpi\n      dup1\n      0xd0e30db0\n      eq\n      tag_21\n      jumpi\n      dup1\n      0xdd62ed3e\n      eq\n      tag_22\n      jumpi\n      jump(tag_1)\n    tag_24:\n      dup1\n      0x5c975abb\n      eq\n      tag_12\n      jumpi\n      dup1\n      0x6d7497b3\n      eq\n      tag_13\n      jumpi\n      dup1\n      0x6ef8d66d\n      eq\n      tag_14\n      jumpi\n      dup1\n      0x70a08231\n      eq\n      tag_15\n      jumpi\n      dup1\n      0x82dc1ec4\n      eq\n      tag_16\n      jumpi\n      jump(tag_1)\n    tag_23:\n      dup1\n      0x313ce567\n      gt\n      tag_25\n      jumpi\n      dup1\n      0x313ce567\n      eq\n      tag_7\n      jumpi\n      dup1\n      0x35052d6e\n      eq\n      tag_8\n      jumpi\n      dup1\n      0x39509351\n      eq\n      tag_9\n      jumpi\n      dup1\n      0x3f4ba83a\n      eq\n      tag_10\n      jumpi\n      dup1\n      0x46fbf68e\n      eq\n      tag_11\n      jumpi\n      jump(tag_1)\n    tag_25:\n      dup1\n      0x06fdde03\n      eq\n      tag_2\n      jumpi\n      dup1\n      0x095ea7b3\n      eq\n      tag_3\n      jumpi\n      dup1\n      0x18160ddd\n      eq\n      tag_4\n      jumpi\n      dup1\n      0x23b872dd\n      eq\n      tag_5\n      jumpi\n      dup1\n      0x2e1a7d4d\n      eq\n      tag_6\n      jumpi\n    tag_1:\n      0x00\n      dup1\n      revert\n        /* \"contracts/WrappedBTN.sol\":19730:19813  function name() public view returns (string memory) {\r... */\n    tag_2:\n      callvalue\n        /* \"--CODEGEN--\":8:17   */\n      dup1\n        /* \"--CODEGEN--\":5:7   */\n      iszero\n      tag_26\n      jumpi\n        /* \"--CODEGEN--\":30:31   */\n      0x00\n        /* \"--CODEGEN--\":27:28   */\n      dup1\n        /* \"--CODEGEN--\":20:32   */\n      revert\n        /* \"--CODEGEN--\":5:7   */\n    tag_26:\n        /* \"contracts/WrappedBTN.sol\":19730:19813  function name() public view returns (string memory) {\r... */\n      pop\n      tag_27\n      tag_28\n      jump\t// in\n    tag_27:\n      mload(0x40)\n      dup1\n      dup1\n      0x20\n      add\n      dup3\n      dup2\n      sub\n      dup3\n      mstore\n      dup4\n      dup2\n      dup2\n      mload\n      dup2\n      mstore\n      0x20\n      add\n      swap2\n      pop\n      dup1\n      mload\n      swap1\n      0x20\n      add\n      swap1\n      dup1\n      dup4\n      dup4\n        /* \"--CODEGEN--\":23:24   */\n      0x00\n        /* \"--CODEGEN--\":8:108   */\n    tag_29:\n        /* \"--CODEGEN--\":33:36   */\n      dup4\n        /* \"--CODEGEN--\":30:31   */\n      dup2\n        /* \"--CODEGEN--\":27:37   */\n      lt\n        /* \"--CODEGEN--\":8:108   */\n      iszero\n      tag_31\n      jumpi\n        /* \"--CODEGEN--\":99:100   */\n      dup1\n        /* \"--CODEGEN--\":94:97   */\n      dup3\n        /* \"--CODEGEN--\":90:101   */\n      add\n        /* \"--CODEGEN--\":84:102   */\n      mload\n        /* \"--CODEGEN--\":80:81   */\n      dup2\n        /* \"--CODEGEN--\":75:78   */\n      dup5\n        /* \"--CODEGEN--\":71:82   */\n      add\n        /* \"--CODEGEN--\":64:103   */\n      mstore\n        /* \"--CODEGEN--\":52:54   */\n      0x20\n        /* \"--CODEGEN--\":49:50   */\n      dup2\n        /* \"--CODEGEN--\":45:55   */\n      add\n        /* \"--CODEGEN--\":40:55   */\n      swap1\n      pop\n        /* \"--CODEGEN--\":8:108   */\n      jump(tag_29)\n    tag_31:\n        /* \"--CODEGEN--\":12:26   */\n      pop\n        /* \"contracts/WrappedBTN.sol\":19730:19813  function name() public view returns (string memory) {\r... */\n      pop\n      pop\n      pop\n      swap1\n      pop\n      swap1\n      dup2\n      add\n      swap1\n      0x1f\n      and\n      dup1\n      iszero\n      tag_32\n      jumpi\n      dup1\n      dup3\n      sub\n      dup1\n      mload\n      0x01\n      dup4\n      0x20\n      sub\n      0x0100\n      exp\n      sub\n      not\n      and\n      dup2\n      mstore\n      0x20\n      add\n      swap2\n      pop\n    tag_32:\n      pop\n      swap3\n      pop\n      pop\n      pop\n      mload(0x40)\n      dup1\n      swap2\n      sub\n      swap1\n      return\n        /* \"contracts/WrappedBTN.sol\":21029:21169  function approve(address spender, uint256 value) public whenNotPaused returns (bool) {\r... */\n    tag_3:\n      callvalue\n        /* \"--CODEGEN--\":8:17   */\n      dup1\n        /* \"--CODEGEN--\":5:7   */\n      iszero\n      tag_33\n      jumpi\n        /* \"--CODEGEN--\":30:31   */\n      0x00\n        /* \"--CODEGEN--\":27:28   */\n      dup1\n        /* \"--CODEGEN--\":20:32   */\n      revert\n        /* \"--CODEGEN--\":5:7   */\n    tag_33:\n        /* \"contracts/WrappedBTN.sol\":21029:21169  function approve(address spender, uint256 value) public whenNotPaused returns (bool) {\r... */\n      pop\n      tag_34\n      0x04\n      dup1\n      calldatasize\n      sub\n        /* \"--CODEGEN--\":13:15   */\n      0x40\n        /* \"--CODEGEN--\":8:11   */\n      dup2\n        /* \"--CODEGEN--\":5:16   */\n      lt\n        /* \"--CODEGEN--\":2:4   */\n      iszero\n      tag_35\n      jumpi\n        /* \"--CODEGEN--\":29:30   */\n      0x00\n        /* \"--CODEGEN--\":26:27   */\n      dup1\n        /* \"--CODEGEN--\":19:31   */\n      revert\n        /* \"--CODEGEN--\":2:4   */\n    tag_35:\n        /* \"contracts/WrappedBTN.sol\":21029:21169  function approve(address spender, uint256 value) public whenNotPaused returns (bool) {\r... */\n      dup2\n      add\n      swap1\n      dup1\n      dup1\n      calldataload\n      0xffffffffffffffffffffffffffffffffffffffff\n      and\n      swap1\n      0x20\n      add\n      swap1\n      swap3\n      swap2\n      swap1\n      dup1\n      calldataload\n      swap1\n      0x20\n      add\n      swap1\n      swap3\n      swap2\n      swap1\n      pop\n      pop\n      pop\n      tag_36\n      jump\t// in\n    tag_34:\n      mload(0x40)\n      dup1\n      dup3\n      iszero\n      iszero\n      iszero\n      iszero\n      dup2\n      mstore\n      0x20\n      add\n      swap2\n      pop\n      pop\n      mload(0x40)\n      dup1\n      swap2\n      sub\n      swap1\n      return\n        /* \"contracts/WrappedBTN.sol\":12453:12544  function totalSupply() public view returns (uint256) {\r... */\n    tag_4:\n      callvalue\n        /* \"--CODEGEN--\":8:17   */\n      dup1\n        /* \"--CODEGEN--\":5:7   */\n      iszero\n      tag_37\n      jumpi\n        /* \"--CODEGEN--\":30:31   */\n      0x00\n        /* \"--CODEGEN--\":27:28   */\n      dup1\n        /* \"--CODEGEN--\":20:32   */\n      revert\n        /* \"--CODEGEN--\":5:7   */\n    tag_37:\n        /* \"contracts/WrappedBTN.sol\":12453:12544  function totalSupply() public view returns (uint256) {\r... */\n      pop\n      tag_38\n      tag_39\n      jump\t// in\n    tag_38:\n      mload(0x40)\n      dup1\n      dup3\n      dup2\n      mstore\n      0x20\n      add\n      swap2\n      pop\n      pop\n      mload(0x40)\n      dup1\n      swap2\n      sub\n      swap1\n      return\n        /* \"contracts/WrappedBTN.sol\":20861:21021  function transferFrom(address from, address to, uint256 value) public whenNotPaused returns (bool) {\r... */\n    tag_5:\n      callvalue\n        /* \"--CODEGEN--\":8:17   */\n      dup1\n        /* \"--CODEGEN--\":5:7   */\n      iszero\n      tag_40\n      jumpi\n        /* \"--CODEGEN--\":30:31   */\n      0x00\n        /* \"--CODEGEN--\":27:28   */\n      dup1\n        /* \"--CODEGEN--\":20:32   */\n      revert\n        /* \"--CODEGEN--\":5:7   */\n    tag_40:\n        /* \"contracts/WrappedBTN.sol\":20861:21021  function transferFrom(address from, address to, uint256 value) public whenNotPaused returns (bool) {\r... */\n      pop\n      tag_41\n      0x04\n      dup1\n      calldatasize\n      sub\n        /* \"--CODEGEN--\":13:15   */\n      0x60\n        /* \"--CODEGEN--\":8:11   */\n      dup2\n        /* \"--CODEGEN--\":5:16   */\n      lt\n        /* \"--CODEGEN--\":2:4   */\n      iszero\n      tag_42\n      jumpi\n        /* \"--CODEGEN--\":29:30   */\n      0x00\n        /* \"--CODEGEN--\":26:27   */\n      dup1\n        /* \"--CODEGEN--\":19:31   */\n      revert\n        /* \"--CODEGEN--\":2:4   */\n    tag_42:\n        /* \"contracts/WrappedBTN.sol\":20861:21021  function transferFrom(address from, address to, uint256 value) public whenNotPaused returns (bool) {\r... */\n      dup2\n      add\n      swap1\n      dup1\n      dup1\n      calldataload\n      0xffffffffffffffffffffffffffffffffffffffff\n      and\n      swap1\n      0x20\n      add\n      swap1\n      swap3\n      swap2\n      swap1\n      dup1\n      calldataload\n      0xffffffffffffffffffffffffffffffffffffffff\n      and\n      swap1\n      0x20\n      add\n      swap1\n      swap3\n      swap2\n      swap1\n      dup1\n      calldataload\n      swap1\n      0x20\n      add\n      swap1\n      swap3\n      swap2\n      swap1\n      pop\n      pop\n      pop\n      tag_43\n      jump\t// in\n    tag_41:\n      mload(0x40)\n      dup1\n      dup3\n      iszero\n      iszero\n      iszero\n      iszero\n      dup2\n      mstore\n      0x20\n      add\n      swap2\n      pop\n      pop\n      mload(0x40)\n      dup1\n      swap2\n      sub\n      swap1\n      return\n        /* \"contracts/WrappedBTN.sol\":22654:23162  function withdraw(uint256 amount) public whenNotPaused returns (uint256) {\r... */\n    tag_6:\n      callvalue\n        /* \"--CODEGEN--\":8:17   */\n      dup1\n        /* \"--CODEGEN--\":5:7   */\n      iszero\n      tag_44\n      jumpi\n        /* \"--CODEGEN--\":30:31   */\n      0x00\n        /* \"--CODEGEN--\":27:28   */\n      dup1\n        /* \"--CODEGEN--\":20:32   */\n      revert\n        /* \"--CODEGEN--\":5:7   */\n    tag_44:\n        /* \"contracts/WrappedBTN.sol\":22654:23162  function withdraw(uint256 amount) public whenNotPaused returns (uint256) {\r... */\n      pop\n      tag_45\n      0x04\n      dup1\n      calldatasize\n      sub\n        /* \"--CODEGEN--\":13:15   */\n      0x20\n        /* \"--CODEGEN--\":8:11   */\n      dup2\n        /* \"--CODEGEN--\":5:16   */\n      lt\n        /* \"--CODEGEN--\":2:4   */\n      iszero\n      tag_46\n      jumpi\n        /* \"--CODEGEN--\":29:30   */\n      0x00\n        /* \"--CODEGEN--\":26:27   */\n      dup1\n        /* \"--CODEGEN--\":19:31   */\n      revert\n        /* \"--CODEGEN--\":2:4   */\n    tag_46:\n        /* \"contracts/WrappedBTN.sol\":22654:23162  function withdraw(uint256 amount) public whenNotPaused returns (uint256) {\r... */\n      dup2\n      add\n      swap1\n      dup1\n      dup1\n      calldataload\n      swap1\n      0x20\n      add\n      swap1\n      swap3\n      swap2\n      swap1\n      pop\n      pop\n      pop\n      tag_47\n      jump\t// in\n    tag_45:\n      mload(0x40)\n      dup1\n      dup3\n      dup2\n      mstore\n      0x20\n      add\n      swap2\n      pop\n      pop\n      mload(0x40)\n      dup1\n      swap2\n      sub\n      swap1\n      return\n        /* \"contracts/WrappedBTN.sol\":20582:20665  function decimals() public view returns (uint8) {\r... */\n    tag_7:\n      callvalue\n        /* \"--CODEGEN--\":8:17   */\n      dup1\n        /* \"--CODEGEN--\":5:7   */\n      iszero\n      tag_48\n      jumpi\n        /* \"--CODEGEN--\":30:31   */\n      0x00\n        /* \"--CODEGEN--\":27:28   */\n      dup1\n        /* \"--CODEGEN--\":20:32   */\n      revert\n        /* \"--CODEGEN--\":5:7   */\n    tag_48:\n        /* \"contracts/WrappedBTN.sol\":20582:20665  function decimals() public view returns (uint8) {\r... */\n      pop\n      tag_49\n      tag_50\n      jump\t// in\n    tag_49:\n      mload(0x40)\n      dup1\n      dup3\n      0xff\n      and\n      0xff\n      and\n      dup2\n      mstore\n      0x20\n      add\n      swap2\n      pop\n      pop\n      mload(0x40)\n      dup1\n      swap2\n      sub\n      swap1\n      return\n        /* \"contracts/WrappedBTN.sol\":21638:21680  uint256 public constant ERR_NO_ERROR = 0x0 */\n    tag_8:\n      callvalue\n        /* \"--CODEGEN--\":8:17   */\n      dup1\n        /* \"--CODEGEN--\":5:7   */\n      iszero\n      tag_51\n      jumpi\n        /* \"--CODEGEN--\":30:31   */\n      0x00\n        /* \"--CODEGEN--\":27:28   */\n      dup1\n        /* \"--CODEGEN--\":20:32   */\n      revert\n        /* \"--CODEGEN--\":5:7   */\n    tag_51:\n        /* \"contracts/WrappedBTN.sol\":21638:21680  uint256 public constant ERR_NO_ERROR = 0x0 */\n      pop\n      tag_52\n      tag_53\n      jump\t// in\n    tag_52:\n      mload(0x40)\n      dup1\n      dup3\n      dup2\n      mstore\n      0x20\n      add\n      swap2\n      pop\n      pop\n      mload(0x40)\n      dup1\n      swap2\n      sub\n      swap1\n      return\n        /* \"contracts/WrappedBTN.sol\":21177:21347  function increaseAllowance(address spender, uint256 addedValue) public whenNotPaused returns (bool) {\r... */\n    tag_9:\n      callvalue\n        /* \"--CODEGEN--\":8:17   */\n      dup1\n        /* \"--CODEGEN--\":5:7   */\n      iszero\n      tag_54\n      jumpi\n        /* \"--CODEGEN--\":30:31   */\n      0x00\n        /* \"--CODEGEN--\":27:28   */\n      dup1\n        /* \"--CODEGEN--\":20:32   */\n      revert\n        /* \"--CODEGEN--\":5:7   */\n    tag_54:\n        /* \"contracts/WrappedBTN.sol\":21177:21347  function increaseAllowance(address spender, uint256 addedValue) public whenNotPaused returns (bool) {\r... */\n      pop\n      tag_55\n      0x04\n      dup1\n      calldatasize\n      sub\n        /* \"--CODEGEN--\":13:15   */\n      0x40\n        /* \"--CODEGEN--\":8:11   */\n      dup2\n        /* \"--CODEGEN--\":5:16   */\n      lt\n        /* \"--CODEGEN--\":2:4   */\n      iszero\n      tag_56\n      jumpi\n        /* \"--CODEGEN--\":29:30   */\n      0x00\n        /* \"--CODEGEN--\":26:27   */\n      dup1\n        /* \"--CODEGEN--\":19:31   */\n      revert\n        /* \"--CODEGEN--\":2:4   */\n    tag_56:\n        /* \"contracts/WrappedBTN.sol\":21177:21347  function increaseAllowance(address spender, uint256 addedValue) public whenNotPaused returns (bool) {\r... */\n      dup2\n      add\n      swap1\n      dup1\n      dup1\n      calldataload\n      0xffffffffffffffffffffffffffffffffffffffff\n      and\n      swap1\n      0x20\n      add\n      swap1\n      swap3\n      swap2\n      swap1\n      dup1\n      calldataload\n      swap1\n      0x20\n      add\n      swap1\n      swap3\n      swap2\n      swap1\n      pop\n      pop\n      pop\n      tag_57\n      jump\t// in\n    tag_55:\n      mload(0x40)\n      dup1\n      dup3\n      iszero\n      iszero\n      iszero\n      iszero\n      dup2\n      mstore\n      0x20\n      add\n      swap2\n      pop\n      pop\n      mload(0x40)\n      dup1\n      swap2\n      sub\n      swap1\n      return\n        /* \"contracts/WrappedBTN.sol\":4574:4694  function unpause() public onlyPauser whenPaused {\r... */\n    tag_10:\n      callvalue\n        /* \"--CODEGEN--\":8:17   */\n      dup1\n        /* \"--CODEGEN--\":5:7   */\n      iszero\n      tag_58\n      jumpi\n        /* \"--CODEGEN--\":30:31   */\n      0x00\n        /* \"--CODEGEN--\":27:28   */\n      dup1\n        /* \"--CODEGEN--\":20:32   */\n      revert\n        /* \"--CODEGEN--\":5:7   */\n    tag_58:\n        /* \"contracts/WrappedBTN.sol\":4574:4694  function unpause() public onlyPauser whenPaused {\r... */\n      pop\n      tag_59\n      tag_60\n      jump\t// in\n    tag_59:\n      stop\n        /* \"contracts/WrappedBTN.sol\":2592:2701  function isPauser(address account) public view returns (bool) {\r... */\n    tag_11:\n      callvalue\n        /* \"--CODEGEN--\":8:17   */\n      dup1\n        /* \"--CODEGEN--\":5:7   */\n      iszero\n      tag_61\n      jumpi\n        /* \"--CODEGEN--\":30:31   */\n      0x00\n        /* \"--CODEGEN--\":27:28   */\n      dup1\n        /* \"--CODEGEN--\":20:32   */\n      revert\n        /* \"--CODEGEN--\":5:7   */\n    tag_61:\n        /* \"contracts/WrappedBTN.sol\":2592:2701  function isPauser(address account) public view returns (bool) {\r... */\n      pop\n      tag_62\n      0x04\n      dup1\n      calldatasize\n      sub\n        /* \"--CODEGEN--\":13:15   */\n      0x20\n        /* \"--CODEGEN--\":8:11   */\n      dup2\n        /* \"--CODEGEN--\":5:16   */\n      lt\n        /* \"--CODEGEN--\":2:4   */\n      iszero\n      tag_63\n      jumpi\n        /* \"--CODEGEN--\":29:30   */\n      0x00\n        /* \"--CODEGEN--\":26:27   */\n      dup1\n        /* \"--CODEGEN--\":19:31   */\n      revert\n        /* \"--CODEGEN--\":2:4   */\n    tag_63:\n        /* \"contracts/WrappedBTN.sol\":2592:2701  function isPauser(address account) public view returns (bool) {\r... */\n      dup2\n      add\n      swap1\n      dup1\n      dup1\n      calldataload\n      0xffffffffffffffffffffffffffffffffffffffff\n      and\n      swap1\n      0x20\n      add\n      swap1\n      swap3\n      swap2\n      swap1\n      pop\n      pop\n      pop\n      tag_64\n      jump\t// in\n    tag_62:\n      mload(0x40)\n      dup1\n      dup3\n      iszero\n      iszero\n      iszero\n      iszero\n      dup2\n      mstore\n      0x20\n      add\n      swap2\n      pop\n      pop\n      mload(0x40)\n      dup1\n      swap2\n      sub\n      swap1\n      return\n        /* \"contracts/WrappedBTN.sol\":3781:3859  function paused() public view returns (bool) {\r... */\n    tag_12:\n      callvalue\n        /* \"--CODEGEN--\":8:17   */\n      dup1\n        /* \"--CODEGEN--\":5:7   */\n      iszero\n      tag_65\n      jumpi\n        /* \"--CODEGEN--\":30:31   */\n      0x00\n        /* \"--CODEGEN--\":27:28   */\n      dup1\n        /* \"--CODEGEN--\":20:32   */\n      revert\n        /* \"--CODEGEN--\":5:7   */\n    tag_65:\n        /* \"contracts/WrappedBTN.sol\":3781:3859  function paused() public view returns (bool) {\r... */\n      pop\n      tag_66\n      tag_67\n      jump\t// in\n    tag_66:\n      mload(0x40)\n      dup1\n      dup3\n      iszero\n      iszero\n      iszero\n      iszero\n      dup2\n      mstore\n      0x20\n      add\n      swap2\n      pop\n      pop\n      mload(0x40)\n      dup1\n      swap2\n      sub\n      swap1\n      return\n        /* \"contracts/WrappedBTN.sol\":21758:21811  uint256 public constant ERR_INVALID_ZERO_VALUE = 0x01 */\n    tag_13:\n      callvalue\n        /* \"--CODEGEN--\":8:17   */\n      dup1\n        /* \"--CODEGEN--\":5:7   */\n      iszero\n      tag_68\n      jumpi\n        /* \"--CODEGEN--\":30:31   */\n      0x00\n        /* \"--CODEGEN--\":27:28   */\n      dup1\n        /* \"--CODEGEN--\":20:32   */\n      revert\n        /* \"--CODEGEN--\":5:7   */\n    tag_68:\n        /* \"contracts/WrappedBTN.sol\":21758:21811  uint256 public constant ERR_INVALID_ZERO_VALUE = 0x01 */\n      pop\n      tag_69\n      tag_70\n      jump\t// in\n    tag_69:\n      mload(0x40)\n      dup1\n      dup3\n      dup2\n      mstore\n      0x20\n      add\n      swap2\n      pop\n      pop\n      mload(0x40)\n      dup1\n      swap2\n      sub\n      swap1\n      return\n        /* \"contracts/WrappedBTN.sol\":2809:2888  function renouncePauser() public {\r... */\n    tag_14:\n      callvalue\n        /* \"--CODEGEN--\":8:17   */\n      dup1\n        /* \"--CODEGEN--\":5:7   */\n      iszero\n      tag_71\n      jumpi\n        /* \"--CODEGEN--\":30:31   */\n      0x00\n        /* \"--CODEGEN--\":27:28   */\n      dup1\n        /* \"--CODEGEN--\":20:32   */\n      revert\n        /* \"--CODEGEN--\":5:7   */\n    tag_71:\n        /* \"contracts/WrappedBTN.sol\":2809:2888  function renouncePauser() public {\r... */\n      pop\n      tag_72\n      tag_73\n      jump\t// in\n    tag_72:\n      stop\n        /* \"contracts/WrappedBTN.sol\":12607:12717  function balanceOf(address account) public view returns (uint256) {\r... */\n    tag_15:\n      callvalue\n        /* \"--CODEGEN--\":8:17   */\n      dup1\n        /* \"--CODEGEN--\":5:7   */\n      iszero\n      tag_74\n      jumpi\n        /* \"--CODEGEN--\":30:31   */\n      0x00\n        /* \"--CODEGEN--\":27:28   */\n      dup1\n        /* \"--CODEGEN--\":20:32   */\n      revert\n        /* \"--CODEGEN--\":5:7   */\n    tag_74:\n        /* \"contracts/WrappedBTN.sol\":12607:12717  function balanceOf(address account) public view returns (uint256) {\r... */\n      pop\n      tag_75\n      0x04\n      dup1\n      calldatasize\n      sub\n        /* \"--CODEGEN--\":13:15   */\n      0x20\n        /* \"--CODEGEN--\":8:11   */\n      dup2\n        /* \"--CODEGEN--\":5:16   */\n      lt\n        /* \"--CODEGEN--\":2:4   */\n      iszero\n      tag_76\n      jumpi\n        /* \"--CODEGEN--\":29:30   */\n      0x00\n        /* \"--CODEGEN--\":26:27   */\n      dup1\n        /* \"--CODEGEN--\":19:31   */\n      revert\n        /* \"--CODEGEN--\":2:4   */\n    tag_76:\n        /* \"contracts/WrappedBTN.sol\":12607:12717  function balanceOf(address account) public view returns (uint256) {\r... */\n      dup2\n      add\n      swap1\n      dup1\n      dup1\n      calldataload\n      0xffffffffffffffffffffffffffffffffffffffff\n      and\n      swap1\n      0x20\n      add\n      swap1\n      swap3\n      swap2\n      swap1\n      pop\n      pop\n      pop\n      tag_77\n      jump\t// in\n    tag_75:\n      mload(0x40)\n      dup1\n      dup3\n      dup2\n      mstore\n      0x20\n      add\n      swap2\n      pop\n      pop\n      mload(0x40)\n      dup1\n      swap2\n      sub\n      swap1\n      return\n        /* \"contracts/WrappedBTN.sol\":2709:2801  function addPauser(address account) public onlyPauser {\r... */\n    tag_16:\n      callvalue\n        /* \"--CODEGEN--\":8:17   */\n      dup1\n        /* \"--CODEGEN--\":5:7   */\n      iszero\n      tag_78\n      jumpi\n        /* \"--CODEGEN--\":30:31   */\n      0x00\n        /* \"--CODEGEN--\":27:28   */\n      dup1\n        /* \"--CODEGEN--\":20:32   */\n      revert\n        /* \"--CODEGEN--\":5:7   */\n    tag_78:\n        /* \"contracts/WrappedBTN.sol\":2709:2801  function addPauser(address account) public onlyPauser {\r... */\n      pop\n      tag_79\n      0x04\n      dup1\n      calldatasize\n      sub\n        /* \"--CODEGEN--\":13:15   */\n      0x20\n        /* \"--CODEGEN--\":8:11   */\n      dup2\n        /* \"--CODEGEN--\":5:16   */\n      lt\n        /* \"--CODEGEN--\":2:4   */\n      iszero\n      tag_80\n      jumpi\n        /* \"--CODEGEN--\":29:30   */\n      0x00\n        /* \"--CODEGEN--\":26:27   */\n      dup1\n        /* \"--CODEGEN--\":19:31   */\n      revert\n        /* \"--CODEGEN--\":2:4   */\n    tag_80:\n        /* \"contracts/WrappedBTN.sol\":2709:2801  function addPauser(address account) public onlyPauser {\r... */\n      dup2\n      add\n      swap1\n      dup1\n      dup1\n      calldataload\n      0xffffffffffffffffffffffffffffffffffffffff\n      and\n      swap1\n      0x20\n      add\n      swap1\n      swap3\n      swap2\n      swap1\n      pop\n      pop\n      pop\n      tag_81\n      jump\t// in\n    tag_79:\n      stop\n        /* \"contracts/WrappedBTN.sol\":4361:4479  function pause() public onlyPauser whenNotPaused {\r... */\n    tag_17:\n      callvalue\n        /* \"--CODEGEN--\":8:17   */\n      dup1\n        /* \"--CODEGEN--\":5:7   */\n      iszero\n      tag_82\n      jumpi\n        /* \"--CODEGEN--\":30:31   */\n      0x00\n        /* \"--CODEGEN--\":27:28   */\n      dup1\n        /* \"--CODEGEN--\":20:32   */\n      revert\n        /* \"--CODEGEN--\":5:7   */\n    tag_82:\n        /* \"contracts/WrappedBTN.sol\":4361:4479  function pause() public onlyPauser whenNotPaused {\r... */\n      pop\n      tag_83\n      tag_84\n      jump\t// in\n    tag_83:\n      stop\n        /* \"contracts/WrappedBTN.sol\":19932:20019  function symbol() public view returns (string memory) {\r... */\n    tag_18:\n      callvalue\n        /* \"--CODEGEN--\":8:17   */\n      dup1\n        /* \"--CODEGEN--\":5:7   */\n      iszero\n      tag_85\n      jumpi\n        /* \"--CODEGEN--\":30:31   */\n      0x00\n        /* \"--CODEGEN--\":27:28   */\n      dup1\n        /* \"--CODEGEN--\":20:32   */\n      revert\n        /* \"--CODEGEN--\":5:7   */\n    tag_85:\n        /* \"contracts/WrappedBTN.sol\":19932:20019  function symbol() public view returns (string memory) {\r... */\n      pop\n      tag_86\n      tag_87\n      jump\t// in\n    tag_86:\n      mload(0x40)\n      dup1\n      dup1\n      0x20\n      add\n      dup3\n      dup2\n      sub\n      dup3\n      mstore\n      dup4\n      dup2\n      dup2\n      mload\n      dup2\n      mstore\n      0x20\n      add\n      swap2\n      pop\n      dup1\n      mload\n      swap1\n      0x20\n      add\n      swap1\n      dup1\n      dup4\n      dup4\n        /* \"--CODEGEN--\":23:24   */\n      0x00\n        /* \"--CODEGEN--\":8:108   */\n    tag_88:\n        /* \"--CODEGEN--\":33:36   */\n      dup4\n        /* \"--CODEGEN--\":30:31   */\n      dup2\n        /* \"--CODEGEN--\":27:37   */\n      lt\n        /* \"--CODEGEN--\":8:108   */\n      iszero\n      tag_90\n      jumpi\n        /* \"--CODEGEN--\":99:100   */\n      dup1\n        /* \"--CODEGEN--\":94:97   */\n      dup3\n        /* \"--CODEGEN--\":90:101   */\n      add\n        /* \"--CODEGEN--\":84:102   */\n      mload\n        /* \"--CODEGEN--\":80:81   */\n      dup2\n        /* \"--CODEGEN--\":75:78   */\n      dup5\n        /* \"--CODEGEN--\":71:82   */\n      add\n        /* \"--CODEGEN--\":64:103   */\n      mstore\n        /* \"--CODEGEN--\":52:54   */\n      0x20\n        /* \"--CODEGEN--\":49:50   */\n      dup2\n        /* \"--CODEGEN--\":45:55   */\n      add\n        /* \"--CODEGEN--\":40:55   */\n      swap1\n      pop\n        /* \"--CODEGEN--\":8:108   */\n      jump(tag_88)\n    tag_90:\n        /* \"--CODEGEN--\":12:26   */\n      pop\n        /* \"contracts/WrappedBTN.sol\":19932:20019  function symbol() public view returns (string memory) {\r... */\n      pop\n      pop\n      pop\n      swap1\n      pop\n      swap1\n      dup2\n      add\n      swap1\n      0x1f\n      and\n      dup1\n      iszero\n      tag_91\n      jumpi\n      dup1\n      dup3\n      sub\n      dup1\n      mload\n      0x01\n      dup4\n      0x20\n      sub\n      0x0100\n      exp\n      sub\n      not\n      and\n      dup2\n      mstore\n      0x20\n      add\n      swap2\n      pop\n    tag_91:\n      pop\n      swap3\n      pop\n      pop\n      pop\n      mload(0x40)\n      dup1\n      swap2\n      sub\n      swap1\n      return\n        /* \"contracts/WrappedBTN.sol\":21355:21535  function decreaseAllowance(address spender, uint256 subtractedValue) public whenNotPaused returns (bool) {\r... */\n    tag_19:\n      callvalue\n        /* \"--CODEGEN--\":8:17   */\n      dup1\n        /* \"--CODEGEN--\":5:7   */\n      iszero\n      tag_92\n      jumpi\n        /* \"--CODEGEN--\":30:31   */\n      0x00\n        /* \"--CODEGEN--\":27:28   */\n      dup1\n        /* \"--CODEGEN--\":20:32   */\n      revert\n        /* \"--CODEGEN--\":5:7   */\n    tag_92:\n        /* \"contracts/WrappedBTN.sol\":21355:21535  function decreaseAllowance(address spender, uint256 subtractedValue) public whenNotPaused returns (bool) {\r... */\n      pop\n      tag_93\n      0x04\n      dup1\n      calldatasize\n      sub\n        /* \"--CODEGEN--\":13:15   */\n      0x40\n        /* \"--CODEGEN--\":8:11   */\n      dup2\n        /* \"--CODEGEN--\":5:16   */\n      lt\n        /* \"--CODEGEN--\":2:4   */\n      iszero\n      tag_94\n      jumpi\n        /* \"--CODEGEN--\":29:30   */\n      0x00\n        /* \"--CODEGEN--\":26:27   */\n      dup1\n        /* \"--CODEGEN--\":19:31   */\n      revert\n        /* \"--CODEGEN--\":2:4   */\n    tag_94:\n        /* \"contracts/WrappedBTN.sol\":21355:21535  function decreaseAllowance(address spender, uint256 subtractedValue) public whenNotPaused returns (bool) {\r... */\n      dup2\n      add\n      swap1\n      dup1\n      dup1\n      calldataload\n      0xffffffffffffffffffffffffffffffffffffffff\n      and\n      swap1\n      0x20\n      add\n      swap1\n      swap3\n      swap2\n      swap1\n      dup1\n      calldataload\n      swap1\n      0x20\n      add\n      swap1\n      swap3\n      swap2\n      swap1\n      pop\n      pop\n      pop\n      tag_95\n      jump\t// in\n    tag_93:\n      mload(0x40)\n      dup1\n      dup3\n      iszero\n      iszero\n      iszero\n      iszero\n      dup2\n      mstore\n      0x20\n      add\n      swap2\n      pop\n      pop\n      mload(0x40)\n      dup1\n      swap2\n      sub\n      swap1\n      return\n        /* \"contracts/WrappedBTN.sol\":20721:20853  function transfer(address to, uint256 value) public whenNotPaused returns (bool) {\r... */\n    tag_20:\n      callvalue\n        /* \"--CODEGEN--\":8:17   */\n      dup1\n        /* \"--CODEGEN--\":5:7   */\n      iszero\n      tag_96\n      jumpi\n        /* \"--CODEGEN--\":30:31   */\n      0x00\n        /* \"--CODEGEN--\":27:28   */\n      dup1\n        /* \"--CODEGEN--\":20:32   */\n      revert\n        /* \"--CODEGEN--\":5:7   */\n    tag_96:\n        /* \"contracts/WrappedBTN.sol\":20721:20853  function transfer(address to, uint256 value) public whenNotPaused returns (bool) {\r... */\n      pop\n      tag_97\n      0x04\n      dup1\n      calldatasize\n      sub\n        /* \"--CODEGEN--\":13:15   */\n      0x40\n        /* \"--CODEGEN--\":8:11   */\n      dup2\n        /* \"--CODEGEN--\":5:16   */\n      lt\n        /* \"--CODEGEN--\":2:4   */\n      iszero\n      tag_98\n      jumpi\n        /* \"--CODEGEN--\":29:30   */\n      0x00\n        /* \"--CODEGEN--\":26:27   */\n      dup1\n        /* \"--CODEGEN--\":19:31   */\n      revert\n        /* \"--CODEGEN--\":2:4   */\n    tag_98:\n        /* \"contracts/WrappedBTN.sol\":20721:20853  function transfer(address to, uint256 value) public whenNotPaused returns (bool) {\r... */\n      dup2\n      add\n      swap1\n      dup1\n      dup1\n      calldataload\n      0xffffffffffffffffffffffffffffffffffffffff\n      and\n      swap1\n      0x20\n      add\n      swap1\n      swap3\n      swap2\n      swap1\n      dup1\n      calldataload\n      swap1\n      0x20\n      add\n      swap1\n      swap3\n      swap2\n      swap1\n      pop\n      pop\n      pop\n      tag_99\n      jump\t// in\n    tag_97:\n      mload(0x40)\n      dup1\n      dup3\n      iszero\n      iszero\n      iszero\n      iszero\n      dup2\n      mstore\n      0x20\n      add\n      swap2\n      pop\n      pop\n      mload(0x40)\n      dup1\n      swap2\n      sub\n      swap1\n      return\n        /* \"contracts/WrappedBTN.sol\":22087:22480  function deposit() public whenNotPaused payable returns (uint256) {\r... */\n    tag_21:\n      tag_100\n      tag_101\n      jump\t// in\n    tag_100:\n      mload(0x40)\n      dup1\n      dup3\n      dup2\n      mstore\n      0x20\n      add\n      swap2\n      pop\n      pop\n      mload(0x40)\n      dup1\n      swap2\n      sub\n      swap1\n      return\n        /* \"contracts/WrappedBTN.sol\":13151:13285  function allowance(address owner, address spender) public view returns (uint256) {\r... */\n    tag_22:\n      callvalue\n        /* \"--CODEGEN--\":8:17   */\n      dup1\n        /* \"--CODEGEN--\":5:7   */\n      iszero\n      tag_102\n      jumpi\n        /* \"--CODEGEN--\":30:31   */\n      0x00\n        /* \"--CODEGEN--\":27:28   */\n      dup1\n        /* \"--CODEGEN--\":20:32   */\n      revert\n        /* \"--CODEGEN--\":5:7   */\n    tag_102:\n        /* \"contracts/WrappedBTN.sol\":13151:13285  function allowance(address owner, address spender) public view returns (uint256) {\r... */\n      pop\n      tag_103\n      0x04\n      dup1\n      calldatasize\n      sub\n        /* \"--CODEGEN--\":13:15   */\n      0x40\n        /* \"--CODEGEN--\":8:11   */\n      dup2\n        /* \"--CODEGEN--\":5:16   */\n      lt\n        /* \"--CODEGEN--\":2:4   */\n      iszero\n      tag_104\n      jumpi\n        /* \"--CODEGEN--\":29:30   */\n      0x00\n        /* \"--CODEGEN--\":26:27   */\n      dup1\n        /* \"--CODEGEN--\":19:31   */\n      revert\n        /* \"--CODEGEN--\":2:4   */\n    tag_104:\n        /* \"contracts/WrappedBTN.sol\":13151:13285  function allowance(address owner, address spender) public view returns (uint256) {\r... */\n      dup2\n      add\n      swap1\n      dup1\n      dup1\n      calldataload\n      0xffffffffffffffffffffffffffffffffffffffff\n      and\n      swap1\n      0x20\n      add\n      swap1\n      swap3\n      swap2\n      swap1\n      dup1\n      calldataload\n      0xffffffffffffffffffffffffffffffffffffffff\n      and\n      swap1\n      0x20\n      add\n      swap1\n      swap3\n      swap2\n      swap1\n      pop\n      pop\n      pop\n      tag_105\n      jump\t// in\n    tag_103:\n      mload(0x40)\n      dup1\n      dup3\n      dup2\n      mstore\n      0x20\n      add\n      swap2\n      pop\n      pop\n      mload(0x40)\n      dup1\n      swap2\n      sub\n      swap1\n      return\n        /* \"contracts/WrappedBTN.sol\":19730:19813  function name() public view returns (string memory) {\r... */\n    tag_28:\n        /* \"contracts/WrappedBTN.sol\":19767:19780  string memory */\n      0x60\n        /* \"contracts/WrappedBTN.sol\":19800:19805  _name */\n      0x03\n        /* \"contracts/WrappedBTN.sol\":19793:19805  return _name */\n      dup1\n      sload\n      0x01\n      dup2\n      0x01\n      and\n      iszero\n      0x0100\n      mul\n      sub\n      and\n      0x02\n      swap1\n      div\n      dup1\n      0x1f\n      add\n      0x20\n      dup1\n      swap2\n      div\n      mul\n      0x20\n      add\n      mload(0x40)\n      swap1\n      dup2\n      add\n      0x40\n      mstore\n      dup1\n      swap3\n      swap2\n      swap1\n      dup2\n      dup2\n      mstore\n      0x20\n      add\n      dup3\n      dup1\n      sload\n      0x01\n      dup2\n      0x01\n      and\n      iszero\n      0x0100\n      mul\n      sub\n      and\n      0x02\n      swap1\n      div\n      dup1\n      iszero\n      tag_107\n      jumpi\n      dup1\n      0x1f\n      lt\n      tag_108\n      jumpi\n      0x0100\n      dup1\n      dup4\n      sload\n      div\n      mul\n      dup4\n      mstore\n      swap2\n      0x20\n      add\n      swap2\n      jump(tag_107)\n    tag_108:\n      dup3\n      add\n      swap2\n      swap1\n      0x00\n      mstore\n      keccak256(0x00, 0x20)\n      swap1\n    tag_109:\n      dup2\n      sload\n      dup2\n      mstore\n      swap1\n      0x01\n      add\n      swap1\n      0x20\n      add\n      dup1\n      dup4\n      gt\n      tag_109\n      jumpi\n      dup3\n      swap1\n      sub\n      0x1f\n      and\n      dup3\n      add\n      swap2\n    tag_107:\n      pop\n      pop\n      pop\n      pop\n      pop\n      swap1\n      pop\n        /* \"contracts/WrappedBTN.sol\":19730:19813  function name() public view returns (string memory) {\r... */\n      swap1\n      jump\t// out\n        /* \"contracts/WrappedBTN.sol\":21029:21169  function approve(address spender, uint256 value) public whenNotPaused returns (bool) {\r... */\n    tag_36:\n        /* \"contracts/WrappedBTN.sol\":21108:21112  bool */\n      0x00\n        /* \"contracts/WrappedBTN.sol\":4018:4025  _paused */\n      0x07\n      0x00\n      swap1\n      sload\n      swap1\n      0x0100\n      exp\n      swap1\n      div\n      0xff\n      and\n        /* \"contracts/WrappedBTN.sol\":4017:4025  !_paused */\n      iszero\n        /* \"contracts/WrappedBTN.sol\":4009:4046  require(!_paused, \"Pausable: Paused\") */\n      tag_111\n      jumpi\n      mload(0x40)\n      0x08c379a000000000000000000000000000000000000000000000000000000000\n      dup2\n      mstore\n      0x04\n      add\n      dup1\n      dup1\n      0x20\n      add\n      dup3\n      dup2\n      sub\n      dup3\n      mstore\n      0x10\n      dup2\n      mstore\n      0x20\n      add\n      dup1\n      0x5061757361626c653a2050617573656400000000000000000000000000000000\n      dup2\n      mstore\n      pop\n      0x20\n      add\n      swap2\n      pop\n      pop\n      mload(0x40)\n      dup1\n      swap2\n      sub\n      swap1\n      revert\n    tag_111:\n        /* \"contracts/WrappedBTN.sol\":21132:21161  super.approve(spender, value) */\n      tag_113\n        /* \"contracts/WrappedBTN.sol\":21146:21153  spender */\n      dup4\n        /* \"contracts/WrappedBTN.sol\":21155:21160  value */\n      dup4\n        /* \"contracts/WrappedBTN.sol\":21132:21145  super.approve */\n      tag_114\n        /* \"contracts/WrappedBTN.sol\":21132:21161  super.approve(spender, value) */\n      jump\t// in\n    tag_113:\n        /* \"contracts/WrappedBTN.sol\":21125:21161  return super.approve(spender, value) */\n      swap1\n      pop\n        /* \"contracts/WrappedBTN.sol\":21029:21169  function approve(address spender, uint256 value) public whenNotPaused returns (bool) {\r... */\n      swap3\n      swap2\n      pop\n      pop\n      jump\t// out\n        /* \"contracts/WrappedBTN.sol\":12453:12544  function totalSupply() public view returns (uint256) {\r... */\n    tag_39:\n        /* \"contracts/WrappedBTN.sol\":12497:12504  uint256 */\n      0x00\n        /* \"contracts/WrappedBTN.sol\":12524:12536  _totalSupply */\n      sload(0x02)\n        /* \"contracts/WrappedBTN.sol\":12517:12536  return _totalSupply */\n      swap1\n      pop\n        /* \"contracts/WrappedBTN.sol\":12453:12544  function totalSupply() public view returns (uint256) {\r... */\n      swap1\n      jump\t// out\n        /* \"contracts/WrappedBTN.sol\":20861:21021  function transferFrom(address from, address to, uint256 value) public whenNotPaused returns (bool) {\r... */\n    tag_43:\n        /* \"contracts/WrappedBTN.sol\":20954:20958  bool */\n      0x00\n        /* \"contracts/WrappedBTN.sol\":4018:4025  _paused */\n      0x07\n      0x00\n      swap1\n      sload\n      swap1\n      0x0100\n      exp\n      swap1\n      div\n      0xff\n      and\n        /* \"contracts/WrappedBTN.sol\":4017:4025  !_paused */\n      iszero\n        /* \"contracts/WrappedBTN.sol\":4009:4046  require(!_paused, \"Pausable: Paused\") */\n      tag_117\n      jumpi\n      mload(0x40)\n      0x08c379a000000000000000000000000000000000000000000000000000000000\n      dup2\n      mstore\n      0x04\n      add\n      dup1\n      dup1\n      0x20\n      add\n      dup3\n      dup2\n      sub\n      dup3\n      mstore\n      0x10\n      dup2\n      mstore\n      0x20\n      add\n      dup1\n      0x5061757361626c653a2050617573656400000000000000000000000000000000\n      dup2\n      mstore\n      pop\n      0x20\n      add\n      swap2\n      pop\n      pop\n      mload(0x40)\n      dup1\n      swap2\n      sub\n      swap1\n      revert\n    tag_117:\n        /* \"contracts/WrappedBTN.sol\":20978:21013  super.transferFrom(from, to, value) */\n      tag_119\n        /* \"contracts/WrappedBTN.sol\":20997:21001  from */\n      dup5\n        /* \"contracts/WrappedBTN.sol\":21003:21005  to */\n      dup5\n        /* \"contracts/WrappedBTN.sol\":21007:21012  value */\n      dup5\n        /* \"contracts/WrappedBTN.sol\":20978:20996  super.transferFrom */\n      tag_120\n        /* \"contracts/WrappedBTN.sol\":20978:21013  super.transferFrom(from, to, value) */\n      jump\t// in\n    tag_119:\n        /* \"contracts/WrappedBTN.sol\":20971:21013  return super.transferFrom(from, to, value) */\n      swap1\n      pop\n        /* \"contracts/WrappedBTN.sol\":20861:21021  function transferFrom(address from, address to, uint256 value) public whenNotPaused returns (bool) {\r... */\n      swap4\n      swap3\n      pop\n      pop\n      pop\n      jump\t// out\n        /* \"contracts/WrappedBTN.sol\":22654:23162  function withdraw(uint256 amount) public whenNotPaused returns (uint256) {\r... */\n    tag_47:\n        /* \"contracts/WrappedBTN.sol\":22718:22725  uint256 */\n      0x00\n        /* \"contracts/WrappedBTN.sol\":4018:4025  _paused */\n      0x07\n      0x00\n      swap1\n      sload\n      swap1\n      0x0100\n      exp\n      swap1\n      div\n      0xff\n      and\n        /* \"contracts/WrappedBTN.sol\":4017:4025  !_paused */\n      iszero\n        /* \"contracts/WrappedBTN.sol\":4009:4046  require(!_paused, \"Pausable: Paused\") */\n      tag_122\n      jumpi\n      mload(0x40)\n      0x08c379a000000000000000000000000000000000000000000000000000000000\n      dup2\n      mstore\n      0x04\n      add\n      dup1\n      dup1\n      0x20\n      add\n      dup3\n      dup2\n      sub\n      dup3\n      mstore\n      0x10\n      dup2\n      mstore\n      0x20\n      add\n      dup1\n      0x5061757361626c653a2050617573656400000000000000000000000000000000\n      dup2\n      mstore\n      pop\n      0x20\n      add\n      swap2\n      pop\n      pop\n      mload(0x40)\n      dup1\n      swap2\n      sub\n      swap1\n      revert\n    tag_122:\n        /* \"contracts/WrappedBTN.sol\":22807:22808  0 */\n      0x00\n        /* \"contracts/WrappedBTN.sol\":22797:22803  amount */\n      dup3\n        /* \"contracts/WrappedBTN.sol\":22797:22808  amount == 0 */\n      eq\n        /* \"contracts/WrappedBTN.sol\":22793:22866  if (amount == 0) {\r... */\n      iszero\n      tag_124\n      jumpi\n        /* \"contracts/WrappedBTN.sol\":21807:21811  0x01 */\n      0x01\n        /* \"contracts/WrappedBTN.sol\":22825:22854  return ERR_INVALID_ZERO_VALUE */\n      swap1\n      pop\n      jump(tag_123)\n        /* \"contracts/WrappedBTN.sol\":22793:22866  if (amount == 0) {\r... */\n    tag_124:\n        /* \"contracts/WrappedBTN.sol\":22951:22976  _burn(msg.sender, amount) */\n      tag_125\n        /* \"contracts/WrappedBTN.sol\":22957:22967  msg.sender */\n      caller\n        /* \"contracts/WrappedBTN.sol\":22969:22975  amount */\n      dup4\n        /* \"contracts/WrappedBTN.sol\":22951:22956  _burn */\n      tag_126\n        /* \"contracts/WrappedBTN.sol\":22951:22976  _burn(msg.sender, amount) */\n      jump\t// in\n    tag_125:\n        /* \"contracts/WrappedBTN.sol\":23064:23074  msg.sender */\n      caller\n        /* \"contracts/WrappedBTN.sol\":23064:23083  msg.sender.transfer */\n      0xffffffffffffffffffffffffffffffffffffffff\n      and\n        /* \"contracts/WrappedBTN.sol\":23064:23091  msg.sender.transfer(amount) */\n      0x08fc\n        /* \"contracts/WrappedBTN.sol\":23084:23090  amount */\n      dup4\n        /* \"contracts/WrappedBTN.sol\":23064:23091  msg.sender.transfer(amount) */\n      swap1\n      dup2\n      iszero\n      mul\n      swap1\n      mload(0x40)\n      0x00\n      mload(0x40)\n      dup1\n      dup4\n      sub\n      dup2\n      dup6\n      dup9\n      dup9\n      call\n      swap4\n      pop\n      pop\n      pop\n      pop\n      iszero\n        /* \"--CODEGEN--\":8:17   */\n      dup1\n        /* \"--CODEGEN--\":5:7   */\n      iszero\n      tag_127\n      jumpi\n        /* \"--CODEGEN--\":45:61   */\n      returndatasize\n        /* \"--CODEGEN--\":42:43   */\n      0x00\n        /* \"--CODEGEN--\":39:40   */\n      dup1\n        /* \"--CODEGEN--\":24:62   */\n      returndatacopy\n        /* \"--CODEGEN--\":77:93   */\n      returndatasize\n        /* \"--CODEGEN--\":74:75   */\n      0x00\n        /* \"--CODEGEN--\":67:94   */\n      revert\n        /* \"--CODEGEN--\":5:7   */\n    tag_127:\n        /* \"contracts/WrappedBTN.sol\":23064:23091  msg.sender.transfer(amount) */\n      pop\n        /* \"contracts/WrappedBTN.sol\":21677:21680  0x0 */\n      0x00\n        /* \"contracts/WrappedBTN.sol\":23135:23154  return ERR_NO_ERROR */\n      swap1\n      pop\n        /* \"contracts/WrappedBTN.sol\":4057:4058  _ */\n    tag_123:\n        /* \"contracts/WrappedBTN.sol\":22654:23162  function withdraw(uint256 amount) public whenNotPaused returns (uint256) {\r... */\n      swap2\n      swap1\n      pop\n      jump\t// out\n        /* \"contracts/WrappedBTN.sol\":20582:20665  function decimals() public view returns (uint8) {\r... */\n    tag_50:\n        /* \"contracts/WrappedBTN.sol\":20623:20628  uint8 */\n      0x00\n        /* \"contracts/WrappedBTN.sol\":20648:20657  _decimals */\n      0x05\n      0x00\n      swap1\n      sload\n      swap1\n      0x0100\n      exp\n      swap1\n      div\n      0xff\n      and\n        /* \"contracts/WrappedBTN.sol\":20641:20657  return _decimals */\n      swap1\n      pop\n        /* \"contracts/WrappedBTN.sol\":20582:20665  function decimals() public view returns (uint8) {\r... */\n      swap1\n      jump\t// out\n        /* \"contracts/WrappedBTN.sol\":21638:21680  uint256 public constant ERR_NO_ERROR = 0x0 */\n    tag_53:\n        /* \"contracts/WrappedBTN.sol\":21677:21680  0x0 */\n      0x00\n        /* \"contracts/WrappedBTN.sol\":21638:21680  uint256 public constant ERR_NO_ERROR = 0x0 */\n      dup2\n      jump\t// out\n        /* \"contracts/WrappedBTN.sol\":21177:21347  function increaseAllowance(address spender, uint256 addedValue) public whenNotPaused returns (bool) {\r... */\n    tag_57:\n        /* \"contracts/WrappedBTN.sol\":21271:21275  bool */\n      0x00\n        /* \"contracts/WrappedBTN.sol\":4018:4025  _paused */\n      0x07\n      0x00\n      swap1\n      sload\n      swap1\n      0x0100\n      exp\n      swap1\n      div\n      0xff\n      and\n        /* \"contracts/WrappedBTN.sol\":4017:4025  !_paused */\n      iszero\n        /* \"contracts/WrappedBTN.sol\":4009:4046  require(!_paused, \"Pausable: Paused\") */\n      tag_130\n      jumpi\n      mload(0x40)\n      0x08c379a000000000000000000000000000000000000000000000000000000000\n      dup2\n      mstore\n      0x04\n      add\n      dup1\n      dup1\n      0x20\n      add\n      dup3\n      dup2\n      sub\n      dup3\n      mstore\n      0x10\n      dup2\n      mstore\n      0x20\n      add\n      dup1\n      0x5061757361626c653a2050617573656400000000000000000000000000000000\n      dup2\n      mstore\n      pop\n      0x20\n      add\n      swap2\n      pop\n      pop\n      mload(0x40)\n      dup1\n      swap2\n      sub\n      swap1\n      revert\n    tag_130:\n        /* \"contracts/WrappedBTN.sol\":21295:21339  super.increaseAllowance(spender, addedValue) */\n      tag_132\n        /* \"contracts/WrappedBTN.sol\":21319:21326  spender */\n      dup4\n        /* \"contracts/WrappedBTN.sol\":21328:21338  addedValue */\n      dup4\n        /* \"contracts/WrappedBTN.sol\":21295:21318  super.increaseAllowance */\n      tag_133\n        /* \"contracts/WrappedBTN.sol\":21295:21339  super.increaseAllowance(spender, addedValue) */\n      jump\t// in\n    tag_132:\n        /* \"contracts/WrappedBTN.sol\":21288:21339  return super.increaseAllowance(spender, addedValue) */\n      swap1\n      pop\n        /* \"contracts/WrappedBTN.sol\":21177:21347  function increaseAllowance(address spender, uint256 addedValue) public whenNotPaused returns (bool) {\r... */\n      swap3\n      swap2\n      pop\n      pop\n      jump\t// out\n        /* \"contracts/WrappedBTN.sol\":4574:4694  function unpause() public onlyPauser whenPaused {\r... */\n    tag_60:\n        /* \"contracts/WrappedBTN.sol\":2489:2511  isPauser(_msgSender()) */\n      tag_135\n        /* \"contracts/WrappedBTN.sol\":2498:2510  _msgSender() */\n      tag_136\n        /* \"contracts/WrappedBTN.sol\":2498:2508  _msgSender */\n      tag_137\n        /* \"contracts/WrappedBTN.sol\":2498:2510  _msgSender() */\n      jump\t// in\n    tag_136:\n        /* \"contracts/WrappedBTN.sol\":2489:2497  isPauser */\n      tag_64\n        /* \"contracts/WrappedBTN.sol\":2489:2511  isPauser(_msgSender()) */\n      jump\t// in\n    tag_135:\n        /* \"contracts/WrappedBTN.sol\":2481:2564  require(isPauser(_msgSender()), \"PauserRole: Caller does not have the Pauser role\") */\n      tag_138\n      jumpi\n      mload(0x40)\n      0x08c379a000000000000000000000000000000000000000000000000000000000\n      dup2\n      mstore\n      0x04\n      add\n      dup1\n      dup1\n      0x20\n      add\n      dup3\n      dup2\n      sub\n      dup3\n      mstore\n      0x30\n      dup2\n      mstore\n      0x20\n      add\n      dup1\n      data_25be98b058b1d92833258d8df9a974b792278100a2477c820a0105a1f1183130\n      0x30\n      swap2\n      codecopy\n      0x40\n      add\n      swap2\n      pop\n      pop\n      mload(0x40)\n      dup1\n      swap2\n      sub\n      swap1\n      revert\n    tag_138:\n        /* \"contracts/WrappedBTN.sol\":4217:4224  _paused */\n      0x07\n      0x00\n      swap1\n      sload\n      swap1\n      0x0100\n      exp\n      swap1\n      div\n      0xff\n      and\n        /* \"contracts/WrappedBTN.sol\":4209:4249  require(_paused, \"Pausable: Not paused\") */\n      tag_140\n      jumpi\n      mload(0x40)\n      0x08c379a000000000000000000000000000000000000000000000000000000000\n      dup2\n      mstore\n      0x04\n      add\n      dup1\n      dup1\n      0x20\n      add\n      dup3\n      dup2\n      sub\n      dup3\n      mstore\n      0x14\n      dup2\n      mstore\n      0x20\n      add\n      dup1\n      0x5061757361626c653a204e6f7420706175736564000000000000000000000000\n      dup2\n      mstore\n      pop\n      0x20\n      add\n      swap2\n      pop\n      pop\n      mload(0x40)\n      dup1\n      swap2\n      sub\n      swap1\n      revert\n    tag_140:\n        /* \"contracts/WrappedBTN.sol\":4643:4648  false */\n      0x00\n        /* \"contracts/WrappedBTN.sol\":4633:4640  _paused */\n      0x07\n      0x00\n        /* \"contracts/WrappedBTN.sol\":4633:4648  _paused = false */\n      0x0100\n      exp\n      dup2\n      sload\n      dup2\n      0xff\n      mul\n      not\n      and\n      swap1\n      dup4\n      iszero\n      iszero\n      mul\n      or\n      swap1\n      sstore\n      pop\n        /* \"contracts/WrappedBTN.sol\":4664:4686  Unpaused(_msgSender()) */\n      0x5db9ee0a495bf2e6ff9c91a7834c1ba4fdd244a5e8aa4e537bd38aeae4b073aa\n        /* \"contracts/WrappedBTN.sol\":4673:4685  _msgSender() */\n      tag_142\n        /* \"contracts/WrappedBTN.sol\":4673:4683  _msgSender */\n      tag_137\n        /* \"contracts/WrappedBTN.sol\":4673:4685  _msgSender() */\n      jump\t// in\n    tag_142:\n        /* \"contracts/WrappedBTN.sol\":4664:4686  Unpaused(_msgSender()) */\n      mload(0x40)\n      dup1\n      dup3\n      0xffffffffffffffffffffffffffffffffffffffff\n      and\n      0xffffffffffffffffffffffffffffffffffffffff\n      and\n      dup2\n      mstore\n      0x20\n      add\n      swap2\n      pop\n      pop\n      mload(0x40)\n      dup1\n      swap2\n      sub\n      swap1\n      log1\n        /* \"contracts/WrappedBTN.sol\":4574:4694  function unpause() public onlyPauser whenPaused {\r... */\n      jump\t// out\n        /* \"contracts/WrappedBTN.sol\":2592:2701  function isPauser(address account) public view returns (bool) {\r... */\n    tag_64:\n        /* \"contracts/WrappedBTN.sol\":2648:2652  bool */\n      0x00\n        /* \"contracts/WrappedBTN.sol\":2672:2693  _pausers.has(account) */\n      tag_144\n        /* \"contracts/WrappedBTN.sol\":2685:2692  account */\n      dup3\n        /* \"contracts/WrappedBTN.sol\":2672:2680  _pausers */\n      0x06\n        /* \"contracts/WrappedBTN.sol\":2672:2684  _pausers.has */\n      tag_145\n      swap1\n        /* \"contracts/WrappedBTN.sol\":2672:2693  _pausers.has(account) */\n      swap2\n      swap1\n      0xffffffff\n      and\n      jump\t// in\n    tag_144:\n        /* \"contracts/WrappedBTN.sol\":2665:2693  return _pausers.has(account) */\n      swap1\n      pop\n        /* \"contracts/WrappedBTN.sol\":2592:2701  function isPauser(address account) public view returns (bool) {\r... */\n      swap2\n      swap1\n      pop\n      jump\t// out\n        /* \"contracts/WrappedBTN.sol\":3781:3859  function paused() public view returns (bool) {\r... */\n    tag_67:\n        /* \"contracts/WrappedBTN.sol\":3820:3824  bool */\n      0x00\n        /* \"contracts/WrappedBTN.sol\":3844:3851  _paused */\n      0x07\n      0x00\n      swap1\n      sload\n      swap1\n      0x0100\n      exp\n      swap1\n      div\n      0xff\n      and\n        /* \"contracts/WrappedBTN.sol\":3837:3851  return _paused */\n      swap1\n      pop\n        /* \"contracts/WrappedBTN.sol\":3781:3859  function paused() public view returns (bool) {\r... */\n      swap1\n      jump\t// out\n        /* \"contracts/WrappedBTN.sol\":21758:21811  uint256 public constant ERR_INVALID_ZERO_VALUE = 0x01 */\n    tag_70:\n        /* \"contracts/WrappedBTN.sol\":21807:21811  0x01 */\n      0x01\n        /* \"contracts/WrappedBTN.sol\":21758:21811  uint256 public constant ERR_INVALID_ZERO_VALUE = 0x01 */\n      dup2\n      jump\t// out\n        /* \"contracts/WrappedBTN.sol\":2809:2888  function renouncePauser() public {\r... */\n    tag_73:\n        /* \"contracts/WrappedBTN.sol\":2853:2880  _removePauser(_msgSender()) */\n      tag_148\n        /* \"contracts/WrappedBTN.sol\":2867:2879  _msgSender() */\n      tag_149\n        /* \"contracts/WrappedBTN.sol\":2867:2877  _msgSender */\n      tag_137\n        /* \"contracts/WrappedBTN.sol\":2867:2879  _msgSender() */\n      jump\t// in\n    tag_149:\n        /* \"contracts/WrappedBTN.sol\":2853:2866  _removePauser */\n      tag_150\n        /* \"contracts/WrappedBTN.sol\":2853:2880  _removePauser(_msgSender()) */\n      jump\t// in\n    tag_148:\n        /* \"contracts/WrappedBTN.sol\":2809:2888  function renouncePauser() public {\r... */\n      jump\t// out\n        /* \"contracts/WrappedBTN.sol\":12607:12717  function balanceOf(address account) public view returns (uint256) {\r... */\n    tag_77:\n        /* \"contracts/WrappedBTN.sol\":12664:12671  uint256 */\n      0x00\n        /* \"contracts/WrappedBTN.sol\":12691:12700  _balances */\n      dup1\n        /* \"contracts/WrappedBTN.sol\":12691:12709  _balances[account] */\n      0x00\n        /* \"contracts/WrappedBTN.sol\":12701:12708  account */\n      dup4\n        /* \"contracts/WrappedBTN.sol\":12691:12709  _balances[account] */\n      0xffffffffffffffffffffffffffffffffffffffff\n      and\n      0xffffffffffffffffffffffffffffffffffffffff\n      and\n      dup2\n      mstore\n      0x20\n      add\n      swap1\n      dup2\n      mstore\n      0x20\n      add\n      0x00\n      keccak256\n      sload\n        /* \"contracts/WrappedBTN.sol\":12684:12709  return _balances[account] */\n      swap1\n      pop\n        /* \"contracts/WrappedBTN.sol\":12607:12717  function balanceOf(address account) public view returns (uint256) {\r... */\n      swap2\n      swap1\n      pop\n      jump\t// out\n        /* \"contracts/WrappedBTN.sol\":2709:2801  function addPauser(address account) public onlyPauser {\r... */\n    tag_81:\n        /* \"contracts/WrappedBTN.sol\":2489:2511  isPauser(_msgSender()) */\n      tag_153\n        /* \"contracts/WrappedBTN.sol\":2498:2510  _msgSender() */\n      tag_154\n        /* \"contracts/WrappedBTN.sol\":2498:2508  _msgSender */\n      tag_137\n        /* \"contracts/WrappedBTN.sol\":2498:2510  _msgSender() */\n      jump\t// in\n    tag_154:\n        /* \"contracts/WrappedBTN.sol\":2489:2497  isPauser */\n      tag_64\n        /* \"contracts/WrappedBTN.sol\":2489:2511  isPauser(_msgSender()) */\n      jump\t// in\n    tag_153:\n        /* \"contracts/WrappedBTN.sol\":2481:2564  require(isPauser(_msgSender()), \"PauserRole: Caller does not have the Pauser role\") */\n      tag_155\n      jumpi\n      mload(0x40)\n      0x08c379a000000000000000000000000000000000000000000000000000000000\n      dup2\n      mstore\n      0x04\n      add\n      dup1\n      dup1\n      0x20\n      add\n      dup3\n      dup2\n      sub\n      dup3\n      mstore\n      0x30\n      dup2\n      mstore\n      0x20\n      add\n      dup1\n      data_25be98b058b1d92833258d8df9a974b792278100a2477c820a0105a1f1183130\n      0x30\n      swap2\n      codecopy\n      0x40\n      add\n      swap2\n      pop\n      pop\n      mload(0x40)\n      dup1\n      swap2\n      sub\n      swap1\n      revert\n    tag_155:\n        /* \"contracts/WrappedBTN.sol\":2774:2793  _addPauser(account) */\n      tag_157\n        /* \"contracts/WrappedBTN.sol\":2785:2792  account */\n      dup2\n        /* \"contracts/WrappedBTN.sol\":2774:2784  _addPauser */\n      tag_158\n        /* \"contracts/WrappedBTN.sol\":2774:2793  _addPauser(account) */\n      jump\t// in\n    tag_157:\n        /* \"contracts/WrappedBTN.sol\":2709:2801  function addPauser(address account) public onlyPauser {\r... */\n      pop\n      jump\t// out\n        /* \"contracts/WrappedBTN.sol\":4361:4479  function pause() public onlyPauser whenNotPaused {\r... */\n    tag_84:\n        /* \"contracts/WrappedBTN.sol\":2489:2511  isPauser(_msgSender()) */\n      tag_160\n        /* \"contracts/WrappedBTN.sol\":2498:2510  _msgSender() */\n      tag_161\n        /* \"contracts/WrappedBTN.sol\":2498:2508  _msgSender */\n      tag_137\n        /* \"contracts/WrappedBTN.sol\":2498:2510  _msgSender() */\n      jump\t// in\n    tag_161:\n        /* \"contracts/WrappedBTN.sol\":2489:2497  isPauser */\n      tag_64\n        /* \"contracts/WrappedBTN.sol\":2489:2511  isPauser(_msgSender()) */\n      jump\t// in\n    tag_160:\n        /* \"contracts/WrappedBTN.sol\":2481:2564  require(isPauser(_msgSender()), \"PauserRole: Caller does not have the Pauser role\") */\n      tag_162\n      jumpi\n      mload(0x40)\n      0x08c379a000000000000000000000000000000000000000000000000000000000\n      dup2\n      mstore\n      0x04\n      add\n      dup1\n      dup1\n      0x20\n      add\n      dup3\n      dup2\n      sub\n      dup3\n      mstore\n      0x30\n      dup2\n      mstore\n      0x20\n      add\n      dup1\n      data_25be98b058b1d92833258d8df9a974b792278100a2477c820a0105a1f1183130\n      0x30\n      swap2\n      codecopy\n      0x40\n      add\n      swap2\n      pop\n      pop\n      mload(0x40)\n      dup1\n      swap2\n      sub\n      swap1\n      revert\n    tag_162:\n        /* \"contracts/WrappedBTN.sol\":4018:4025  _paused */\n      0x07\n      0x00\n      swap1\n      sload\n      swap1\n      0x0100\n      exp\n      swap1\n      div\n      0xff\n      and\n        /* \"contracts/WrappedBTN.sol\":4017:4025  !_paused */\n      iszero\n        /* \"contracts/WrappedBTN.sol\":4009:4046  require(!_paused, \"Pausable: Paused\") */\n      tag_164\n      jumpi\n      mload(0x40)\n      0x08c379a000000000000000000000000000000000000000000000000000000000\n      dup2\n      mstore\n      0x04\n      add\n      dup1\n      dup1\n      0x20\n      add\n      dup3\n      dup2\n      sub\n      dup3\n      mstore\n      0x10\n      dup2\n      mstore\n      0x20\n      add\n      dup1\n      0x5061757361626c653a2050617573656400000000000000000000000000000000\n      dup2\n      mstore\n      pop\n      0x20\n      add\n      swap2\n      pop\n      pop\n      mload(0x40)\n      dup1\n      swap2\n      sub\n      swap1\n      revert\n    tag_164:\n        /* \"contracts/WrappedBTN.sol\":4431:4435  true */\n      0x01\n        /* \"contracts/WrappedBTN.sol\":4421:4428  _paused */\n      0x07\n      0x00\n        /* \"contracts/WrappedBTN.sol\":4421:4435  _paused = true */\n      0x0100\n      exp\n      dup2\n      sload\n      dup2\n      0xff\n      mul\n      not\n      and\n      swap1\n      dup4\n      iszero\n      iszero\n      mul\n      or\n      swap1\n      sstore\n      pop\n        /* \"contracts/WrappedBTN.sol\":4451:4471  Paused(_msgSender()) */\n      0x62e78cea01bee320cd4e420270b5ea74000d11b0c9f74754ebdbfc544b05a258\n        /* \"contracts/WrappedBTN.sol\":4458:4470  _msgSender() */\n      tag_166\n        /* \"contracts/WrappedBTN.sol\":4458:4468  _msgSender */\n      tag_137\n        /* \"contracts/WrappedBTN.sol\":4458:4470  _msgSender() */\n      jump\t// in\n    tag_166:\n        /* \"contracts/WrappedBTN.sol\":4451:4471  Paused(_msgSender()) */\n      mload(0x40)\n      dup1\n      dup3\n      0xffffffffffffffffffffffffffffffffffffffff\n      and\n      0xffffffffffffffffffffffffffffffffffffffff\n      and\n      dup2\n      mstore\n      0x20\n      add\n      swap2\n      pop\n      pop\n      mload(0x40)\n      dup1\n      swap2\n      sub\n      swap1\n      log1\n        /* \"contracts/WrappedBTN.sol\":4361:4479  function pause() public onlyPauser whenNotPaused {\r... */\n      jump\t// out\n        /* \"contracts/WrappedBTN.sol\":19932:20019  function symbol() public view returns (string memory) {\r... */\n    tag_87:\n        /* \"contracts/WrappedBTN.sol\":19971:19984  string memory */\n      0x60\n        /* \"contracts/WrappedBTN.sol\":20004:20011  _symbol */\n      0x04\n        /* \"contracts/WrappedBTN.sol\":19997:20011  return _symbol */\n      dup1\n      sload\n      0x01\n      dup2\n      0x01\n      and\n      iszero\n      0x0100\n      mul\n      sub\n      and\n      0x02\n      swap1\n      div\n      dup1\n      0x1f\n      add\n      0x20\n      dup1\n      swap2\n      div\n      mul\n      0x20\n      add\n      mload(0x40)\n      swap1\n      dup2\n      add\n      0x40\n      mstore\n      dup1\n      swap3\n      swap2\n      swap1\n      dup2\n      dup2\n      mstore\n      0x20\n      add\n      dup3\n      dup1\n      sload\n      0x01\n      dup2\n      0x01\n      and\n      iszero\n      0x0100\n      mul\n      sub\n      and\n      0x02\n      swap1\n      div\n      dup1\n      iszero\n      tag_168\n      jumpi\n      dup1\n      0x1f\n      lt\n      tag_169\n      jumpi\n      0x0100\n      dup1\n      dup4\n      sload\n      div\n      mul\n      dup4\n      mstore\n      swap2\n      0x20\n      add\n      swap2\n      jump(tag_168)\n    tag_169:\n      dup3\n      add\n      swap2\n      swap1\n      0x00\n      mstore\n      keccak256(0x00, 0x20)\n      swap1\n    tag_170:\n      dup2\n      sload\n      dup2\n      mstore\n      swap1\n      0x01\n      add\n      swap1\n      0x20\n      add\n      dup1\n      dup4\n      gt\n      tag_170\n      jumpi\n      dup3\n      swap1\n      sub\n      0x1f\n      and\n      dup3\n      add\n      swap2\n    tag_168:\n      pop\n      pop\n      pop\n      pop\n      pop\n      swap1\n      pop\n        /* \"contracts/WrappedBTN.sol\":19932:20019  function symbol() public view returns (string memory) {\r... */\n      swap1\n      jump\t// out\n        /* \"contracts/WrappedBTN.sol\":21355:21535  function decreaseAllowance(address spender, uint256 subtractedValue) public whenNotPaused returns (bool) {\r... */\n    tag_95:\n        /* \"contracts/WrappedBTN.sol\":21454:21458  bool */\n      0x00\n        /* \"contracts/WrappedBTN.sol\":4018:4025  _paused */\n      0x07\n      0x00\n      swap1\n      sload\n      swap1\n      0x0100\n      exp\n      swap1\n      div\n      0xff\n      and\n        /* \"contracts/WrappedBTN.sol\":4017:4025  !_paused */\n      iszero\n        /* \"contracts/WrappedBTN.sol\":4009:4046  require(!_paused, \"Pausable: Paused\") */\n      tag_172\n      jumpi\n      mload(0x40)\n      0x08c379a000000000000000000000000000000000000000000000000000000000\n      dup2\n      mstore\n      0x04\n      add\n      dup1\n      dup1\n      0x20\n      add\n      dup3\n      dup2\n      sub\n      dup3\n      mstore\n      0x10\n      dup2\n      mstore\n      0x20\n      add\n      dup1\n      0x5061757361626c653a2050617573656400000000000000000000000000000000\n      dup2\n      mstore\n      pop\n      0x20\n      add\n      swap2\n      pop\n      pop\n      mload(0x40)\n      dup1\n      swap2\n      sub\n      swap1\n      revert\n    tag_172:\n        /* \"contracts/WrappedBTN.sol\":21478:21527  super.decreaseAllowance(spender, subtractedValue) */\n      tag_174\n        /* \"contracts/WrappedBTN.sol\":21502:21509  spender */\n      dup4\n        /* \"contracts/WrappedBTN.sol\":21511:21526  subtractedValue */\n      dup4\n        /* \"contracts/WrappedBTN.sol\":21478:21501  super.decreaseAllowance */\n      tag_175\n        /* \"contracts/WrappedBTN.sol\":21478:21527  super.decreaseAllowance(spender, subtractedValue) */\n      jump\t// in\n    tag_174:\n        /* \"contracts/WrappedBTN.sol\":21471:21527  return super.decreaseAllowance(spender, subtractedValue) */\n      swap1\n      pop\n        /* \"contracts/WrappedBTN.sol\":21355:21535  function decreaseAllowance(address spender, uint256 subtractedValue) public whenNotPaused returns (bool) {\r... */\n      swap3\n      swap2\n      pop\n      pop\n      jump\t// out\n        /* \"contracts/WrappedBTN.sol\":20721:20853  function transfer(address to, uint256 value) public whenNotPaused returns (bool) {\r... */\n    tag_99:\n        /* \"contracts/WrappedBTN.sol\":20796:20800  bool */\n      0x00\n        /* \"contracts/WrappedBTN.sol\":4018:4025  _paused */\n      0x07\n      0x00\n      swap1\n      sload\n      swap1\n      0x0100\n      exp\n      swap1\n      div\n      0xff\n      and\n        /* \"contracts/WrappedBTN.sol\":4017:4025  !_paused */\n      iszero\n        /* \"contracts/WrappedBTN.sol\":4009:4046  require(!_paused, \"Pausable: Paused\") */\n      tag_177\n      jumpi\n      mload(0x40)\n      0x08c379a000000000000000000000000000000000000000000000000000000000\n      dup2\n      mstore\n      0x04\n      add\n      dup1\n      dup1\n      0x20\n      add\n      dup3\n      dup2\n      sub\n      dup3\n      mstore\n      0x10\n      dup2\n      mstore\n      0x20\n      add\n      dup1\n      0x5061757361626c653a2050617573656400000000000000000000000000000000\n      dup2\n      mstore\n      pop\n      0x20\n      add\n      swap2\n      pop\n      pop\n      mload(0x40)\n      dup1\n      swap2\n      sub\n      swap1\n      revert\n    tag_177:\n        /* \"contracts/WrappedBTN.sol\":20820:20845  super.transfer(to, value) */\n      tag_179\n        /* \"contracts/WrappedBTN.sol\":20835:20837  to */\n      dup4\n        /* \"contracts/WrappedBTN.sol\":20839:20844  value */\n      dup4\n        /* \"contracts/WrappedBTN.sol\":20820:20834  super.transfer */\n      tag_180\n        /* \"contracts/WrappedBTN.sol\":20820:20845  super.transfer(to, value) */\n      jump\t// in\n    tag_179:\n        /* \"contracts/WrappedBTN.sol\":20813:20845  return super.transfer(to, value) */\n      swap1\n      pop\n        /* \"contracts/WrappedBTN.sol\":20721:20853  function transfer(address to, uint256 value) public whenNotPaused returns (bool) {\r... */\n      swap3\n      swap2\n      pop\n      pop\n      jump\t// out\n        /* \"contracts/WrappedBTN.sol\":22087:22480  function deposit() public whenNotPaused payable returns (uint256) {\r... */\n    tag_101:\n        /* \"contracts/WrappedBTN.sol\":22144:22151  uint256 */\n      0x00\n        /* \"contracts/WrappedBTN.sol\":4018:4025  _paused */\n      0x07\n      0x00\n      swap1\n      sload\n      swap1\n      0x0100\n      exp\n      swap1\n      div\n      0xff\n      and\n        /* \"contracts/WrappedBTN.sol\":4017:4025  !_paused */\n      iszero\n        /* \"contracts/WrappedBTN.sol\":4009:4046  require(!_paused, \"Pausable: Paused\") */\n      tag_182\n      jumpi\n      mload(0x40)\n      0x08c379a000000000000000000000000000000000000000000000000000000000\n      dup2\n      mstore\n      0x04\n      add\n      dup1\n      dup1\n      0x20\n      add\n      dup3\n      dup2\n      sub\n      dup3\n      mstore\n      0x10\n      dup2\n      mstore\n      0x20\n      add\n      dup1\n      0x5061757361626c653a2050617573656400000000000000000000000000000000\n      dup2\n      mstore\n      pop\n      0x20\n      add\n      swap2\n      pop\n      pop\n      mload(0x40)\n      dup1\n      swap2\n      sub\n      swap1\n      revert\n    tag_182:\n        /* \"contracts/WrappedBTN.sol\":22236:22237  0 */\n      0x00\n        /* \"contracts/WrappedBTN.sol\":22223:22232  msg.value */\n      callvalue\n        /* \"contracts/WrappedBTN.sol\":22223:22237  msg.value == 0 */\n      eq\n        /* \"contracts/WrappedBTN.sol\":22219:22295  if (msg.value == 0) {\r... */\n      iszero\n      tag_184\n      jumpi\n        /* \"contracts/WrappedBTN.sol\":21807:21811  0x01 */\n      0x01\n        /* \"contracts/WrappedBTN.sol\":22254:22283  return ERR_INVALID_ZERO_VALUE */\n      swap1\n      pop\n      jump(tag_183)\n        /* \"contracts/WrappedBTN.sol\":22219:22295  if (msg.value == 0) {\r... */\n    tag_184:\n        /* \"contracts/WrappedBTN.sol\":22381:22409  _mint(msg.sender, msg.value) */\n      tag_185\n        /* \"contracts/WrappedBTN.sol\":22387:22397  msg.sender */\n      caller\n        /* \"contracts/WrappedBTN.sol\":22399:22408  msg.value */\n      callvalue\n        /* \"contracts/WrappedBTN.sol\":22381:22386  _mint */\n      tag_186\n        /* \"contracts/WrappedBTN.sol\":22381:22409  _mint(msg.sender, msg.value) */\n      jump\t// in\n    tag_185:\n        /* \"contracts/WrappedBTN.sol\":21677:21680  0x0 */\n      0x00\n        /* \"contracts/WrappedBTN.sol\":22453:22472  return ERR_NO_ERROR */\n      swap1\n      pop\n        /* \"contracts/WrappedBTN.sol\":4057:4058  _ */\n    tag_183:\n        /* \"contracts/WrappedBTN.sol\":22087:22480  function deposit() public whenNotPaused payable returns (uint256) {\r... */\n      swap1\n      jump\t// out\n        /* \"contracts/WrappedBTN.sol\":13151:13285  function allowance(address owner, address spender) public view returns (uint256) {\r... */\n    tag_105:\n        /* \"contracts/WrappedBTN.sol\":13223:13230  uint256 */\n      0x00\n        /* \"contracts/WrappedBTN.sol\":13250:13261  _allowances */\n      0x01\n        /* \"contracts/WrappedBTN.sol\":13250:13268  _allowances[owner] */\n      0x00\n        /* \"contracts/WrappedBTN.sol\":13262:13267  owner */\n      dup5\n        /* \"contracts/WrappedBTN.sol\":13250:13268  _allowances[owner] */\n      0xffffffffffffffffffffffffffffffffffffffff\n      and\n      0xffffffffffffffffffffffffffffffffffffffff\n      and\n      dup2\n      mstore\n      0x20\n      add\n      swap1\n      dup2\n      mstore\n      0x20\n      add\n      0x00\n      keccak256\n        /* \"contracts/WrappedBTN.sol\":13250:13277  _allowances[owner][spender] */\n      0x00\n        /* \"contracts/WrappedBTN.sol\":13269:13276  spender */\n      dup4\n        /* \"contracts/WrappedBTN.sol\":13250:13277  _allowances[owner][spender] */\n      0xffffffffffffffffffffffffffffffffffffffff\n      and\n      0xffffffffffffffffffffffffffffffffffffffff\n      and\n      dup2\n      mstore\n      0x20\n      add\n      swap1\n      dup2\n      mstore\n      0x20\n      add\n      0x00\n      keccak256\n      sload\n        /* \"contracts/WrappedBTN.sol\":13243:13277  return _allowances[owner][spender] */\n      swap1\n      pop\n        /* \"contracts/WrappedBTN.sol\":13151:13285  function allowance(address owner, address spender) public view returns (uint256) {\r... */\n      swap3\n      swap2\n      pop\n      pop\n      jump\t// out\n        /* \"contracts/WrappedBTN.sol\":13432:13584  function approve(address spender, uint256 amount) public returns (bool) {\r... */\n    tag_114:\n        /* \"contracts/WrappedBTN.sol\":13498:13502  bool */\n      0x00\n        /* \"contracts/WrappedBTN.sol\":13515:13554  _approve(_msgSender(), spender, amount) */\n      tag_189\n        /* \"contracts/WrappedBTN.sol\":13524:13536  _msgSender() */\n      tag_190\n        /* \"contracts/WrappedBTN.sol\":13524:13534  _msgSender */\n      tag_137\n        /* \"contracts/WrappedBTN.sol\":13524:13536  _msgSender() */\n      jump\t// in\n    tag_190:\n        /* \"contracts/WrappedBTN.sol\":13538:13545  spender */\n      dup5\n        /* \"contracts/WrappedBTN.sol\":13547:13553  amount */\n      dup5\n        /* \"contracts/WrappedBTN.sol\":13515:13523  _approve */\n      tag_191\n        /* \"contracts/WrappedBTN.sol\":13515:13554  _approve(_msgSender(), spender, amount) */\n      jump\t// in\n    tag_189:\n        /* \"contracts/WrappedBTN.sol\":13572:13576  true */\n      0x01\n        /* \"contracts/WrappedBTN.sol\":13565:13576  return true */\n      swap1\n      pop\n        /* \"contracts/WrappedBTN.sol\":13432:13584  function approve(address spender, uint256 amount) public returns (bool) {\r... */\n      swap3\n      swap2\n      pop\n      pop\n      jump\t// out\n        /* \"contracts/WrappedBTN.sol\":14056:14360  function transferFrom(address sender, address recipient, uint256 amount) public returns (bool) {\r... */\n    tag_120:\n        /* \"contracts/WrappedBTN.sol\":14145:14149  bool */\n      0x00\n        /* \"contracts/WrappedBTN.sol\":14162:14198  _transfer(sender, recipient, amount) */\n      tag_193\n        /* \"contracts/WrappedBTN.sol\":14172:14178  sender */\n      dup5\n        /* \"contracts/WrappedBTN.sol\":14180:14189  recipient */\n      dup5\n        /* \"contracts/WrappedBTN.sol\":14191:14197  amount */\n      dup5\n        /* \"contracts/WrappedBTN.sol\":14162:14171  _transfer */\n      tag_194\n        /* \"contracts/WrappedBTN.sol\":14162:14198  _transfer(sender, recipient, amount) */\n      jump\t// in\n    tag_193:\n        /* \"contracts/WrappedBTN.sol\":14209:14330  _approve(sender, _msgSender(), _allowances[sender][_msgSender()].sub(amount, \"BTS20: Transfer amount exceeds allowance\")) */\n      tag_195\n        /* \"contracts/WrappedBTN.sol\":14218:14224  sender */\n      dup5\n        /* \"contracts/WrappedBTN.sol\":14226:14238  _msgSender() */\n      tag_196\n        /* \"contracts/WrappedBTN.sol\":14226:14236  _msgSender */\n      tag_137\n        /* \"contracts/WrappedBTN.sol\":14226:14238  _msgSender() */\n      jump\t// in\n    tag_196:\n        /* \"contracts/WrappedBTN.sol\":14240:14329  _allowances[sender][_msgSender()].sub(amount, \"BTS20: Transfer amount exceeds allowance\") */\n      tag_197\n        /* \"contracts/WrappedBTN.sol\":14278:14284  amount */\n      dup6\n        /* \"contracts/WrappedBTN.sol\":14240:14329  _allowances[sender][_msgSender()].sub(amount, \"BTS20: Transfer amount exceeds allowance\") */\n      mload(0x40)\n      dup1\n      0x60\n      add\n      0x40\n      mstore\n      dup1\n      0x28\n      dup2\n      mstore\n      0x20\n      add\n      data_87e68e359a508fdd807276992d1ea1de946879eb16f1af103adae6d91f2c7695\n      0x28\n      swap2\n      codecopy\n        /* \"contracts/WrappedBTN.sol\":14240:14251  _allowances */\n      0x01\n        /* \"contracts/WrappedBTN.sol\":14240:14259  _allowances[sender] */\n      0x00\n        /* \"contracts/WrappedBTN.sol\":14252:14258  sender */\n      dup12\n        /* \"contracts/WrappedBTN.sol\":14240:14259  _allowances[sender] */\n      0xffffffffffffffffffffffffffffffffffffffff\n      and\n      0xffffffffffffffffffffffffffffffffffffffff\n      and\n      dup2\n      mstore\n      0x20\n      add\n      swap1\n      dup2\n      mstore\n      0x20\n      add\n      0x00\n      keccak256\n        /* \"contracts/WrappedBTN.sol\":14240:14273  _allowances[sender][_msgSender()] */\n      0x00\n        /* \"contracts/WrappedBTN.sol\":14260:14272  _msgSender() */\n      tag_198\n        /* \"contracts/WrappedBTN.sol\":14260:14270  _msgSender */\n      tag_137\n        /* \"contracts/WrappedBTN.sol\":14260:14272  _msgSender() */\n      jump\t// in\n    tag_198:\n        /* \"contracts/WrappedBTN.sol\":14240:14273  _allowances[sender][_msgSender()] */\n      0xffffffffffffffffffffffffffffffffffffffff\n      and\n      0xffffffffffffffffffffffffffffffffffffffff\n      and\n      dup2\n      mstore\n      0x20\n      add\n      swap1\n      dup2\n      mstore\n      0x20\n      add\n      0x00\n      keccak256\n      sload\n        /* \"contracts/WrappedBTN.sol\":14240:14277  _allowances[sender][_msgSender()].sub */\n      tag_199\n      swap1\n        /* \"contracts/WrappedBTN.sol\":14240:14329  _allowances[sender][_msgSender()].sub(amount, \"BTS20: Transfer amount exceeds allowance\") */\n      swap3\n      swap2\n      swap1\n      0xffffffff\n      and\n      jump\t// in\n    tag_197:\n        /* \"contracts/WrappedBTN.sol\":14209:14217  _approve */\n      tag_191\n        /* \"contracts/WrappedBTN.sol\":14209:14330  _approve(sender, _msgSender(), _allowances[sender][_msgSender()].sub(amount, \"BTS20: Transfer amount exceeds allowance\")) */\n      jump\t// in\n    tag_195:\n        /* \"contracts/WrappedBTN.sol\":14348:14352  true */\n      0x01\n        /* \"contracts/WrappedBTN.sol\":14341:14352  return true */\n      swap1\n      pop\n        /* \"contracts/WrappedBTN.sol\":14056:14360  function transferFrom(address sender, address recipient, uint256 amount) public returns (bool) {\r... */\n      swap4\n      swap3\n      pop\n      pop\n      pop\n      jump\t// out\n        /* \"contracts/WrappedBTN.sol\":17625:17973  function _burn(address account, uint256 amount) internal {\r... */\n    tag_126:\n        /* \"contracts/WrappedBTN.sol\":17720:17721  0 */\n      0x00\n        /* \"contracts/WrappedBTN.sol\":17701:17722  account != address(0) */\n      0xffffffffffffffffffffffffffffffffffffffff\n      and\n        /* \"contracts/WrappedBTN.sol\":17701:17708  account */\n      dup3\n        /* \"contracts/WrappedBTN.sol\":17701:17722  account != address(0) */\n      0xffffffffffffffffffffffffffffffffffffffff\n      and\n      eq\n      iszero\n        /* \"contracts/WrappedBTN.sol\":17693:17760  require(account != address(0), \"BTS20: Burn from the zero address\") */\n      tag_201\n      jumpi\n      mload(0x40)\n      0x08c379a000000000000000000000000000000000000000000000000000000000\n      dup2\n      mstore\n      0x04\n      add\n      dup1\n      dup1\n      0x20\n      add\n      dup3\n      dup2\n      sub\n      dup3\n      mstore\n      0x21\n      dup2\n      mstore\n      0x20\n      add\n      dup1\n      data_a28e8cab5bdd32ed422ad56e9f9a042cc2bc572c11cee6bb8d4b6dd28e11843b\n      0x21\n      swap2\n      codecopy\n      0x40\n      add\n      swap2\n      pop\n      pop\n      mload(0x40)\n      dup1\n      swap2\n      sub\n      swap1\n      revert\n    tag_201:\n        /* \"contracts/WrappedBTN.sol\":17794:17862  _balances[account].sub(amount, \"BTS20: Burn amount exceeds balance\") */\n      tag_202\n        /* \"contracts/WrappedBTN.sol\":17817:17823  amount */\n      dup2\n        /* \"contracts/WrappedBTN.sol\":17794:17862  _balances[account].sub(amount, \"BTS20: Burn amount exceeds balance\") */\n      mload(0x40)\n      dup1\n      0x60\n      add\n      0x40\n      mstore\n      dup1\n      0x22\n      dup2\n      mstore\n      0x20\n      add\n      data_1662877348d3f31d704e5e3c22e53f5907b97c660f2b91f4310559c49e76a721\n      0x22\n      swap2\n      codecopy\n        /* \"contracts/WrappedBTN.sol\":17794:17803  _balances */\n      0x00\n        /* \"contracts/WrappedBTN.sol\":17794:17812  _balances[account] */\n      dup1\n        /* \"contracts/WrappedBTN.sol\":17804:17811  account */\n      dup7\n        /* \"contracts/WrappedBTN.sol\":17794:17812  _balances[account] */\n      0xffffffffffffffffffffffffffffffffffffffff\n      and\n      0xffffffffffffffffffffffffffffffffffffffff\n      and\n      dup2\n      mstore\n      0x20\n      add\n      swap1\n      dup2\n      mstore\n      0x20\n      add\n      0x00\n      keccak256\n      sload\n        /* \"contracts/WrappedBTN.sol\":17794:17816  _balances[account].sub */\n      tag_199\n      swap1\n        /* \"contracts/WrappedBTN.sol\":17794:17862  _balances[account].sub(amount, \"BTS20: Burn amount exceeds balance\") */\n      swap3\n      swap2\n      swap1\n      0xffffffff\n      and\n      jump\t// in\n    tag_202:\n        /* \"contracts/WrappedBTN.sol\":17773:17782  _balances */\n      0x00\n        /* \"contracts/WrappedBTN.sol\":17773:17791  _balances[account] */\n      dup1\n        /* \"contracts/WrappedBTN.sol\":17783:17790  account */\n      dup5\n        /* \"contracts/WrappedBTN.sol\":17773:17791  _balances[account] */\n      0xffffffffffffffffffffffffffffffffffffffff\n      and\n      0xffffffffffffffffffffffffffffffffffffffff\n      and\n      dup2\n      mstore\n      0x20\n      add\n      swap1\n      dup2\n      mstore\n      0x20\n      add\n      0x00\n      keccak256\n        /* \"contracts/WrappedBTN.sol\":17773:17862  _balances[account] = _balances[account].sub(amount, \"BTS20: Burn amount exceeds balance\") */\n      dup2\n      swap1\n      sstore\n      pop\n        /* \"contracts/WrappedBTN.sol\":17888:17912  _totalSupply.sub(amount) */\n      tag_203\n        /* \"contracts/WrappedBTN.sol\":17905:17911  amount */\n      dup2\n        /* \"contracts/WrappedBTN.sol\":17888:17900  _totalSupply */\n      sload(0x02)\n        /* \"contracts/WrappedBTN.sol\":17888:17904  _totalSupply.sub */\n      tag_204\n      swap1\n        /* \"contracts/WrappedBTN.sol\":17888:17912  _totalSupply.sub(amount) */\n      swap2\n      swap1\n      0xffffffff\n      and\n      jump\t// in\n    tag_203:\n        /* \"contracts/WrappedBTN.sol\":17873:17885  _totalSupply */\n      0x02\n        /* \"contracts/WrappedBTN.sol\":17873:17912  _totalSupply = _totalSupply.sub(amount) */\n      dup2\n      swap1\n      sstore\n      pop\n        /* \"contracts/WrappedBTN.sol\":17954:17955  0 */\n      0x00\n        /* \"contracts/WrappedBTN.sol\":17928:17965  Transfer(account, address(0), amount) */\n      0xffffffffffffffffffffffffffffffffffffffff\n      and\n        /* \"contracts/WrappedBTN.sol\":17937:17944  account */\n      dup3\n        /* \"contracts/WrappedBTN.sol\":17928:17965  Transfer(account, address(0), amount) */\n      0xffffffffffffffffffffffffffffffffffffffff\n      and\n      0xddf252ad1be2c89b69c2b068fc378daa952ba7f163c4a11628f55a4df523b3ef\n        /* \"contracts/WrappedBTN.sol\":17958:17964  amount */\n      dup4\n        /* \"contracts/WrappedBTN.sol\":17928:17965  Transfer(account, address(0), amount) */\n      mload(0x40)\n      dup1\n      dup3\n      dup2\n      mstore\n      0x20\n      add\n      swap2\n      pop\n      pop\n      mload(0x40)\n      dup1\n      swap2\n      sub\n      swap1\n      log3\n        /* \"contracts/WrappedBTN.sol\":17625:17973  function _burn(address account, uint256 amount) internal {\r... */\n      pop\n      pop\n      jump\t// out\n        /* \"contracts/WrappedBTN.sol\":14769:14979  function increaseAllowance(address spender, uint256 addedValue) public returns (bool) {\r... */\n    tag_133:\n        /* \"contracts/WrappedBTN.sol\":14849:14853  bool */\n      0x00\n        /* \"contracts/WrappedBTN.sol\":14866:14949  _approve(_msgSender(), spender, _allowances[_msgSender()][spender].add(addedValue)) */\n      tag_206\n        /* \"contracts/WrappedBTN.sol\":14875:14887  _msgSender() */\n      tag_207\n        /* \"contracts/WrappedBTN.sol\":14875:14885  _msgSender */\n      tag_137\n        /* \"contracts/WrappedBTN.sol\":14875:14887  _msgSender() */\n      jump\t// in\n    tag_207:\n        /* \"contracts/WrappedBTN.sol\":14889:14896  spender */\n      dup5\n        /* \"contracts/WrappedBTN.sol\":14898:14948  _allowances[_msgSender()][spender].add(addedValue) */\n      tag_208\n        /* \"contracts/WrappedBTN.sol\":14937:14947  addedValue */\n      dup6\n        /* \"contracts/WrappedBTN.sol\":14898:14909  _allowances */\n      0x01\n        /* \"contracts/WrappedBTN.sol\":14898:14923  _allowances[_msgSender()] */\n      0x00\n        /* \"contracts/WrappedBTN.sol\":14910:14922  _msgSender() */\n      tag_209\n        /* \"contracts/WrappedBTN.sol\":14910:14920  _msgSender */\n      tag_137\n        /* \"contracts/WrappedBTN.sol\":14910:14922  _msgSender() */\n      jump\t// in\n    tag_209:\n        /* \"contracts/WrappedBTN.sol\":14898:14923  _allowances[_msgSender()] */\n      0xffffffffffffffffffffffffffffffffffffffff\n      and\n      0xffffffffffffffffffffffffffffffffffffffff\n      and\n      dup2\n      mstore\n      0x20\n      add\n      swap1\n      dup2\n      mstore\n      0x20\n      add\n      0x00\n      keccak256\n        /* \"contracts/WrappedBTN.sol\":14898:14932  _allowances[_msgSender()][spender] */\n      0x00\n        /* \"contracts/WrappedBTN.sol\":14924:14931  spender */\n      dup10\n        /* \"contracts/WrappedBTN.sol\":14898:14932  _allowances[_msgSender()][spender] */\n      0xffffffffffffffffffffffffffffffffffffffff\n      and\n      0xffffffffffffffffffffffffffffffffffffffff\n      and\n      dup2\n      mstore\n      0x20\n      add\n      swap1\n      dup2\n      mstore\n      0x20\n      add\n      0x00\n      keccak256\n      sload\n        /* \"contracts/WrappedBTN.sol\":14898:14936  _allowances[_msgSender()][spender].add */\n      tag_210\n      swap1\n        /* \"contracts/WrappedBTN.sol\":14898:14948  _allowances[_msgSender()][spender].add(addedValue) */\n      swap2\n      swap1\n      0xffffffff\n      and\n      jump\t// in\n    tag_208:\n        /* \"contracts/WrappedBTN.sol\":14866:14874  _approve */\n      tag_191\n        /* \"contracts/WrappedBTN.sol\":14866:14949  _approve(_msgSender(), spender, _allowances[_msgSender()][spender].add(addedValue)) */\n      jump\t// in\n    tag_206:\n        /* \"contracts/WrappedBTN.sol\":14967:14971  true */\n      0x01\n        /* \"contracts/WrappedBTN.sol\":14960:14971  return true */\n      swap1\n      pop\n        /* \"contracts/WrappedBTN.sol\":14769:14979  function increaseAllowance(address spender, uint256 addedValue) public returns (bool) {\r... */\n      swap3\n      swap2\n      pop\n      pop\n      jump\t// out\n        /* \"contracts/WrappedBTN.sol\":1037:1135  function _msgSender() internal view returns (address payable) {\r... */\n    tag_137:\n        /* \"contracts/WrappedBTN.sol\":1082:1097  address payable */\n      0x00\n        /* \"contracts/WrappedBTN.sol\":1117:1127  msg.sender */\n      caller\n        /* \"contracts/WrappedBTN.sol\":1110:1127  return msg.sender */\n      swap1\n      pop\n        /* \"contracts/WrappedBTN.sol\":1037:1135  function _msgSender() internal view returns (address payable) {\r... */\n      swap1\n      jump\t// out\n        /* \"contracts/WrappedBTN.sol\":1952:2155  function has(Role storage role, address account) internal view returns (bool) {\r... */\n    tag_145:\n        /* \"contracts/WrappedBTN.sol\":2024:2028  bool */\n      0x00\n        /* \"contracts/WrappedBTN.sol\":2068:2069  0 */\n      dup1\n        /* \"contracts/WrappedBTN.sol\":2049:2070  account != address(0) */\n      0xffffffffffffffffffffffffffffffffffffffff\n      and\n        /* \"contracts/WrappedBTN.sol\":2049:2056  account */\n      dup3\n        /* \"contracts/WrappedBTN.sol\":2049:2070  account != address(0) */\n      0xffffffffffffffffffffffffffffffffffffffff\n      and\n      eq\n      iszero\n        /* \"contracts/WrappedBTN.sol\":2041:2109  require(account != address(0), \"Roles: Account is the zero address\") */\n      tag_213\n      jumpi\n      mload(0x40)\n      0x08c379a000000000000000000000000000000000000000000000000000000000\n      dup2\n      mstore\n      0x04\n      add\n      dup1\n      dup1\n      0x20\n      add\n      dup3\n      dup2\n      sub\n      dup3\n      mstore\n      0x22\n      dup2\n      mstore\n      0x20\n      add\n      dup1\n      data_d67578b85ba6d73375c4493f438c3d9072fd4105433709f73a70d19f74a8eed3\n      0x22\n      swap2\n      codecopy\n      0x40\n      add\n      swap2\n      pop\n      pop\n      mload(0x40)\n      dup1\n      swap2\n      sub\n      swap1\n      revert\n    tag_213:\n        /* \"contracts/WrappedBTN.sol\":2127:2131  role */\n      dup3\n        /* \"contracts/WrappedBTN.sol\":2127:2138  role.bearer */\n      0x00\n      add\n        /* \"contracts/WrappedBTN.sol\":2127:2147  role.bearer[account] */\n      0x00\n        /* \"contracts/WrappedBTN.sol\":2139:2146  account */\n      dup4\n        /* \"contracts/WrappedBTN.sol\":2127:2147  role.bearer[account] */\n      0xffffffffffffffffffffffffffffffffffffffff\n      and\n      0xffffffffffffffffffffffffffffffffffffffff\n      and\n      dup2\n      mstore\n      0x20\n      add\n      swap1\n      dup2\n      mstore\n      0x20\n      add\n      0x00\n      keccak256\n      0x00\n      swap1\n      sload\n      swap1\n      0x0100\n      exp\n      swap1\n      div\n      0xff\n      and\n        /* \"contracts/WrappedBTN.sol\":2120:2147  return role.bearer[account] */\n      swap1\n      pop\n        /* \"contracts/WrappedBTN.sol\":1952:2155  function has(Role storage role, address account) internal view returns (bool) {\r... */\n      swap3\n      swap2\n      pop\n      pop\n      jump\t// out\n        /* \"contracts/WrappedBTN.sol\":3026:3156  function _removePauser(address account) internal {\r... */\n    tag_150:\n        /* \"contracts/WrappedBTN.sol\":3086:3110  _pausers.remove(account) */\n      tag_215\n        /* \"contracts/WrappedBTN.sol\":3102:3109  account */\n      dup2\n        /* \"contracts/WrappedBTN.sol\":3086:3094  _pausers */\n      0x06\n        /* \"contracts/WrappedBTN.sol\":3086:3101  _pausers.remove */\n      tag_216\n      swap1\n        /* \"contracts/WrappedBTN.sol\":3086:3110  _pausers.remove(account) */\n      swap2\n      swap1\n      0xffffffff\n      and\n      jump\t// in\n    tag_215:\n        /* \"contracts/WrappedBTN.sol\":3140:3147  account */\n      dup1\n        /* \"contracts/WrappedBTN.sol\":3126:3148  PauserRemoved(account) */\n      0xffffffffffffffffffffffffffffffffffffffff\n      and\n      0xcd265ebaf09df2871cc7bd4133404a235ba12eff2041bb89d9c714a2621c7c7e\n      mload(0x40)\n      mload(0x40)\n      dup1\n      swap2\n      sub\n      swap1\n      log2\n        /* \"contracts/WrappedBTN.sol\":3026:3156  function _removePauser(address account) internal {\r... */\n      pop\n      jump\t// out\n        /* \"contracts/WrappedBTN.sol\":2896:3018  function _addPauser(address account) internal {\r... */\n    tag_158:\n        /* \"contracts/WrappedBTN.sol\":2953:2974  _pausers.add(account) */\n      tag_218\n        /* \"contracts/WrappedBTN.sol\":2966:2973  account */\n      dup2\n        /* \"contracts/WrappedBTN.sol\":2953:2961  _pausers */\n      0x06\n        /* \"contracts/WrappedBTN.sol\":2953:2965  _pausers.add */\n      tag_219\n      swap1\n        /* \"contracts/WrappedBTN.sol\":2953:2974  _pausers.add(account) */\n      swap2\n      swap1\n      0xffffffff\n      and\n      jump\t// in\n    tag_218:\n        /* \"contracts/WrappedBTN.sol\":3002:3009  account */\n      dup1\n        /* \"contracts/WrappedBTN.sol\":2990:3010  PauserAdded(account) */\n      0xffffffffffffffffffffffffffffffffffffffff\n      and\n      0x6719d08c1888103bea251a4ed56406bd0c3e69723c8a1686e017e7bbe159b6f8\n      mload(0x40)\n      mload(0x40)\n      dup1\n      swap2\n      sub\n      swap1\n      log2\n        /* \"contracts/WrappedBTN.sol\":2896:3018  function _addPauser(address account) internal {\r... */\n      pop\n      jump\t// out\n        /* \"contracts/WrappedBTN.sol\":15482:15743  function decreaseAllowance(address spender, uint256 subtractedValue) public returns (bool) {\r... */\n    tag_175:\n        /* \"contracts/WrappedBTN.sol\":15567:15571  bool */\n      0x00\n        /* \"contracts/WrappedBTN.sol\":15584:15713  _approve(_msgSender(), spender, _allowances[_msgSender()][spender].sub(subtractedValue, \"BTS20: Decreased allowance below zero\")) */\n      tag_221\n        /* \"contracts/WrappedBTN.sol\":15593:15605  _msgSender() */\n      tag_222\n        /* \"contracts/WrappedBTN.sol\":15593:15603  _msgSender */\n      tag_137\n        /* \"contracts/WrappedBTN.sol\":15593:15605  _msgSender() */\n      jump\t// in\n    tag_222:\n        /* \"contracts/WrappedBTN.sol\":15607:15614  spender */\n      dup5\n        /* \"contracts/WrappedBTN.sol\":15616:15712  _allowances[_msgSender()][spender].sub(subtractedValue, \"BTS20: Decreased allowance below zero\") */\n      tag_223\n        /* \"contracts/WrappedBTN.sol\":15655:15670  subtractedValue */\n      dup6\n        /* \"contracts/WrappedBTN.sol\":15616:15712  _allowances[_msgSender()][spender].sub(subtractedValue, \"BTS20: Decreased allowance below zero\") */\n      mload(0x40)\n      dup1\n      0x60\n      add\n      0x40\n      mstore\n      dup1\n      0x25\n      dup2\n      mstore\n      0x20\n      add\n      data_37fc6950a7d42389a48f4b64dc2e97ff802031381fae362d19398bbcbbb73aff\n      0x25\n      swap2\n      codecopy\n        /* \"contracts/WrappedBTN.sol\":15616:15627  _allowances */\n      0x01\n        /* \"contracts/WrappedBTN.sol\":15616:15641  _allowances[_msgSender()] */\n      0x00\n        /* \"contracts/WrappedBTN.sol\":15628:15640  _msgSender() */\n      tag_224\n        /* \"contracts/WrappedBTN.sol\":15628:15638  _msgSender */\n      tag_137\n        /* \"contracts/WrappedBTN.sol\":15628:15640  _msgSender() */\n      jump\t// in\n    tag_224:\n        /* \"contracts/WrappedBTN.sol\":15616:15641  _allowances[_msgSender()] */\n      0xffffffffffffffffffffffffffffffffffffffff\n      and\n      0xffffffffffffffffffffffffffffffffffffffff\n      and\n      dup2\n      mstore\n      0x20\n      add\n      swap1\n      dup2\n      mstore\n      0x20\n      add\n      0x00\n      keccak256\n        /* \"contracts/WrappedBTN.sol\":15616:15650  _allowances[_msgSender()][spender] */\n      0x00\n        /* \"contracts/WrappedBTN.sol\":15642:15649  spender */\n      dup11\n        /* \"contracts/WrappedBTN.sol\":15616:15650  _allowances[_msgSender()][spender] */\n      0xffffffffffffffffffffffffffffffffffffffff\n      and\n      0xffffffffffffffffffffffffffffffffffffffff\n      and\n      dup2\n      mstore\n      0x20\n      add\n      swap1\n      dup2\n      mstore\n      0x20\n      add\n      0x00\n      keccak256\n      sload\n        /* \"contracts/WrappedBTN.sol\":15616:15654  _allowances[_msgSender()][spender].sub */\n      tag_199\n      swap1\n        /* \"contracts/WrappedBTN.sol\":15616:15712  _allowances[_msgSender()][spender].sub(subtractedValue, \"BTS20: Decreased allowance below zero\") */\n      swap3\n      swap2\n      swap1\n      0xffffffff\n      and\n      jump\t// in\n    tag_223:\n        /* \"contracts/WrappedBTN.sol\":15584:15592  _approve */\n      tag_191\n        /* \"contracts/WrappedBTN.sol\":15584:15713  _approve(_msgSender(), spender, _allowances[_msgSender()][spender].sub(subtractedValue, \"BTS20: Decreased allowance below zero\")) */\n      jump\t// in\n    tag_221:\n        /* \"contracts/WrappedBTN.sol\":15731:15735  true */\n      0x01\n        /* \"contracts/WrappedBTN.sol\":15724:15735  return true */\n      swap1\n      pop\n        /* \"contracts/WrappedBTN.sol\":15482:15743  function decreaseAllowance(address spender, uint256 subtractedValue) public returns (bool) {\r... */\n      swap3\n      swap2\n      pop\n      pop\n      jump\t// out\n        /* \"contracts/WrappedBTN.sol\":12930:13088  function transfer(address recipient, uint256 amount) public returns (bool) {\r... */\n    tag_180:\n        /* \"contracts/WrappedBTN.sol\":12999:13003  bool */\n      0x00\n        /* \"contracts/WrappedBTN.sol\":13016:13058  _transfer(_msgSender(), recipient, amount) */\n      tag_226\n        /* \"contracts/WrappedBTN.sol\":13026:13038  _msgSender() */\n      tag_227\n        /* \"contracts/WrappedBTN.sol\":13026:13036  _msgSender */\n      tag_137\n        /* \"contracts/WrappedBTN.sol\":13026:13038  _msgSender() */\n      jump\t// in\n    tag_227:\n        /* \"contracts/WrappedBTN.sol\":13040:13049  recipient */\n      dup5\n        /* \"contracts/WrappedBTN.sol\":13051:13057  amount */\n      dup5\n        /* \"contracts/WrappedBTN.sol\":13016:13025  _transfer */\n      tag_194\n        /* \"contracts/WrappedBTN.sol\":13016:13058  _transfer(_msgSender(), recipient, amount) */\n      jump\t// in\n    tag_226:\n        /* \"contracts/WrappedBTN.sol\":13076:13080  true */\n      0x01\n        /* \"contracts/WrappedBTN.sol\":13069:13080  return true */\n      swap1\n      pop\n        /* \"contracts/WrappedBTN.sol\":12930:13088  function transfer(address recipient, uint256 amount) public returns (bool) {\r... */\n      swap3\n      swap2\n      pop\n      pop\n      jump\t// out\n        /* \"contracts/WrappedBTN.sol\":16985:17293  function _mint(address account, uint256 amount) internal {\r... */\n    tag_186:\n        /* \"contracts/WrappedBTN.sol\":17080:17081  0 */\n      0x00\n        /* \"contracts/WrappedBTN.sol\":17061:17082  account != address(0) */\n      0xffffffffffffffffffffffffffffffffffffffff\n      and\n        /* \"contracts/WrappedBTN.sol\":17061:17068  account */\n      dup3\n        /* \"contracts/WrappedBTN.sol\":17061:17082  account != address(0) */\n      0xffffffffffffffffffffffffffffffffffffffff\n      and\n      eq\n      iszero\n        /* \"contracts/WrappedBTN.sol\":17053:17118  require(account != address(0), \"BTS20: Mint to the zero address\") */\n      tag_229\n      jumpi\n      mload(0x40)\n      0x08c379a000000000000000000000000000000000000000000000000000000000\n      dup2\n      mstore\n      0x04\n      add\n      dup1\n      dup1\n      0x20\n      add\n      dup3\n      dup2\n      sub\n      dup3\n      mstore\n      0x1f\n      dup2\n      mstore\n      0x20\n      add\n      dup1\n      0x42545332303a204d696e7420746f20746865207a65726f206164647265737300\n      dup2\n      mstore\n      pop\n      0x20\n      add\n      swap2\n      pop\n      pop\n      mload(0x40)\n      dup1\n      swap2\n      sub\n      swap1\n      revert\n    tag_229:\n        /* \"contracts/WrappedBTN.sol\":17146:17170  _totalSupply.add(amount) */\n      tag_230\n        /* \"contracts/WrappedBTN.sol\":17163:17169  amount */\n      dup2\n        /* \"contracts/WrappedBTN.sol\":17146:17158  _totalSupply */\n      sload(0x02)\n        /* \"contracts/WrappedBTN.sol\":17146:17162  _totalSupply.add */\n      tag_210\n      swap1\n        /* \"contracts/WrappedBTN.sol\":17146:17170  _totalSupply.add(amount) */\n      swap2\n      swap1\n      0xffffffff\n      and\n      jump\t// in\n    tag_230:\n        /* \"contracts/WrappedBTN.sol\":17131:17143  _totalSupply */\n      0x02\n        /* \"contracts/WrappedBTN.sol\":17131:17170  _totalSupply = _totalSupply.add(amount) */\n      dup2\n      swap1\n      sstore\n      pop\n        /* \"contracts/WrappedBTN.sol\":17202:17232  _balances[account].add(amount) */\n      tag_231\n        /* \"contracts/WrappedBTN.sol\":17225:17231  amount */\n      dup2\n        /* \"contracts/WrappedBTN.sol\":17202:17211  _balances */\n      0x00\n        /* \"contracts/WrappedBTN.sol\":17202:17220  _balances[account] */\n      dup1\n        /* \"contracts/WrappedBTN.sol\":17212:17219  account */\n      dup6\n        /* \"contracts/WrappedBTN.sol\":17202:17220  _balances[account] */\n      0xffffffffffffffffffffffffffffffffffffffff\n      and\n      0xffffffffffffffffffffffffffffffffffffffff\n      and\n      dup2\n      mstore\n      0x20\n      add\n      swap1\n      dup2\n      mstore\n      0x20\n      add\n      0x00\n      keccak256\n      sload\n        /* \"contracts/WrappedBTN.sol\":17202:17224  _balances[account].add */\n      tag_210\n      swap1\n        /* \"contracts/WrappedBTN.sol\":17202:17232  _balances[account].add(amount) */\n      swap2\n      swap1\n      0xffffffff\n      and\n      jump\t// in\n    tag_231:\n        /* \"contracts/WrappedBTN.sol\":17181:17190  _balances */\n      0x00\n        /* \"contracts/WrappedBTN.sol\":17181:17199  _balances[account] */\n      dup1\n        /* \"contracts/WrappedBTN.sol\":17191:17198  account */\n      dup5\n        /* \"contracts/WrappedBTN.sol\":17181:17199  _balances[account] */\n      0xffffffffffffffffffffffffffffffffffffffff\n      and\n      0xffffffffffffffffffffffffffffffffffffffff\n      and\n      dup2\n      mstore\n      0x20\n      add\n      swap1\n      dup2\n      mstore\n      0x20\n      add\n      0x00\n      keccak256\n        /* \"contracts/WrappedBTN.sol\":17181:17232  _balances[account] = _balances[account].add(amount) */\n      dup2\n      swap1\n      sstore\n      pop\n        /* \"contracts/WrappedBTN.sol\":17269:17276  account */\n      dup2\n        /* \"contracts/WrappedBTN.sol\":17248:17285  Transfer(address(0), account, amount) */\n      0xffffffffffffffffffffffffffffffffffffffff\n      and\n        /* \"contracts/WrappedBTN.sol\":17265:17266  0 */\n      0x00\n        /* \"contracts/WrappedBTN.sol\":17248:17285  Transfer(address(0), account, amount) */\n      0xffffffffffffffffffffffffffffffffffffffff\n      and\n      0xddf252ad1be2c89b69c2b068fc378daa952ba7f163c4a11628f55a4df523b3ef\n        /* \"contracts/WrappedBTN.sol\":17278:17284  amount */\n      dup4\n        /* \"contracts/WrappedBTN.sol\":17248:17285  Transfer(address(0), account, amount) */\n      mload(0x40)\n      dup1\n      dup3\n      dup2\n      mstore\n      0x20\n      add\n      swap2\n      pop\n      pop\n      mload(0x40)\n      dup1\n      swap2\n      sub\n      swap1\n      log3\n        /* \"contracts/WrappedBTN.sol\":16985:17293  function _mint(address account, uint256 amount) internal {\r... */\n      pop\n      pop\n      jump\t// out\n        /* \"contracts/WrappedBTN.sol\":18413:18751  function _approve(address owner, address spender, uint256 amount) internal {\r... */\n    tag_191:\n        /* \"contracts/WrappedBTN.sol\":18524:18525  0 */\n      0x00\n        /* \"contracts/WrappedBTN.sol\":18507:18526  owner != address(0) */\n      0xffffffffffffffffffffffffffffffffffffffff\n      and\n        /* \"contracts/WrappedBTN.sol\":18507:18512  owner */\n      dup4\n        /* \"contracts/WrappedBTN.sol\":18507:18526  owner != address(0) */\n      0xffffffffffffffffffffffffffffffffffffffff\n      and\n      eq\n      iszero\n        /* \"contracts/WrappedBTN.sol\":18499:18567  require(owner != address(0), \"BTS20: Approve from the zero address\") */\n      tag_233\n      jumpi\n      mload(0x40)\n      0x08c379a000000000000000000000000000000000000000000000000000000000\n      dup2\n      mstore\n      0x04\n      add\n      dup1\n      dup1\n      0x20\n      add\n      dup3\n      dup2\n      sub\n      dup3\n      mstore\n      0x24\n      dup2\n      mstore\n      0x20\n      add\n      dup1\n      data_d7972261d3cd252e74752e913ed29c8220929ede1fc34ef44423bbf2fce46186\n      0x24\n      swap2\n      codecopy\n      0x40\n      add\n      swap2\n      pop\n      pop\n      mload(0x40)\n      dup1\n      swap2\n      sub\n      swap1\n      revert\n    tag_233:\n        /* \"contracts/WrappedBTN.sol\":18605:18606  0 */\n      0x00\n        /* \"contracts/WrappedBTN.sol\":18586:18607  spender != address(0) */\n      0xffffffffffffffffffffffffffffffffffffffff\n      and\n        /* \"contracts/WrappedBTN.sol\":18586:18593  spender */\n      dup3\n        /* \"contracts/WrappedBTN.sol\":18586:18607  spender != address(0) */\n      0xffffffffffffffffffffffffffffffffffffffff\n      and\n      eq\n      iszero\n        /* \"contracts/WrappedBTN.sol\":18578:18646  require(spender != address(0), \"BTS20: Approve to the zero address\") */\n      tag_234\n      jumpi\n      mload(0x40)\n      0x08c379a000000000000000000000000000000000000000000000000000000000\n      dup2\n      mstore\n      0x04\n      add\n      dup1\n      dup1\n      0x20\n      add\n      dup3\n      dup2\n      sub\n      dup3\n      mstore\n      0x22\n      dup2\n      mstore\n      0x20\n      add\n      dup1\n      data_9b2d9f322da2dd8c80668fcb5cf0c608e8d3c6f6d680cf2587a3f8fed2786a8c\n      0x22\n      swap2\n      codecopy\n      0x40\n      add\n      swap2\n      pop\n      pop\n      mload(0x40)\n      dup1\n      swap2\n      sub\n      swap1\n      revert\n    tag_234:\n        /* \"contracts/WrappedBTN.sol\":18689:18695  amount */\n      dup1\n        /* \"contracts/WrappedBTN.sol\":18659:18670  _allowances */\n      0x01\n        /* \"contracts/WrappedBTN.sol\":18659:18677  _allowances[owner] */\n      0x00\n        /* \"contracts/WrappedBTN.sol\":18671:18676  owner */\n      dup6\n        /* \"contracts/WrappedBTN.sol\":18659:18677  _allowances[owner] */\n      0xffffffffffffffffffffffffffffffffffffffff\n      and\n      0xffffffffffffffffffffffffffffffffffffffff\n      and\n      dup2\n      mstore\n      0x20\n      add\n      swap1\n      dup2\n      mstore\n      0x20\n      add\n      0x00\n      keccak256\n        /* \"contracts/WrappedBTN.sol\":18659:18686  _allowances[owner][spender] */\n      0x00\n        /* \"contracts/WrappedBTN.sol\":18678:18685  spender */\n      dup5\n        /* \"contracts/WrappedBTN.sol\":18659:18686  _allowances[owner][spender] */\n      0xffffffffffffffffffffffffffffffffffffffff\n      and\n      0xffffffffffffffffffffffffffffffffffffffff\n      and\n      dup2\n      mstore\n      0x20\n      add\n      swap1\n      dup2\n      mstore\n      0x20\n      add\n      0x00\n      keccak256\n        /* \"contracts/WrappedBTN.sol\":18659:18695  _allowances[owner][spender] = amount */\n      dup2\n      swap1\n      sstore\n      pop\n        /* \"contracts/WrappedBTN.sol\":18727:18734  spender */\n      dup2\n        /* \"contracts/WrappedBTN.sol\":18711:18743  Approval(owner, spender, amount) */\n      0xffffffffffffffffffffffffffffffffffffffff\n      and\n        /* \"contracts/WrappedBTN.sol\":18720:18725  owner */\n      dup4\n        /* \"contracts/WrappedBTN.sol\":18711:18743  Approval(owner, spender, amount) */\n      0xffffffffffffffffffffffffffffffffffffffff\n      and\n      0x8c5be1e5ebec7d5bd14f71427d1e84f3dd0314c0f7b2291e5b200ac8c7c3b925\n        /* \"contracts/WrappedBTN.sol\":18736:18742  amount */\n      dup4\n        /* \"contracts/WrappedBTN.sol\":18711:18743  Approval(owner, spender, amount) */\n      mload(0x40)\n      dup1\n      dup3\n      dup2\n      mstore\n      0x20\n      add\n      swap2\n      pop\n      pop\n      mload(0x40)\n      dup1\n      swap2\n      sub\n      swap1\n      log3\n        /* \"contracts/WrappedBTN.sol\":18413:18751  function _approve(address owner, address spender, uint256 amount) internal {\r... */\n      pop\n      pop\n      pop\n      jump\t// out\n        /* \"contracts/WrappedBTN.sol\":16233:16704  function _transfer(address sender, address recipient, uint256 amount) internal {\r... */\n    tag_194:\n        /* \"contracts/WrappedBTN.sol\":16349:16350  0 */\n      0x00\n        /* \"contracts/WrappedBTN.sol\":16331:16351  sender != address(0) */\n      0xffffffffffffffffffffffffffffffffffffffff\n      and\n        /* \"contracts/WrappedBTN.sol\":16331:16337  sender */\n      dup4\n        /* \"contracts/WrappedBTN.sol\":16331:16351  sender != address(0) */\n      0xffffffffffffffffffffffffffffffffffffffff\n      and\n      eq\n      iszero\n        /* \"contracts/WrappedBTN.sol\":16323:16393  require(sender != address(0), \"BTS20: Transfer from the zero address\") */\n      tag_236\n      jumpi\n      mload(0x40)\n      0x08c379a000000000000000000000000000000000000000000000000000000000\n      dup2\n      mstore\n      0x04\n      add\n      dup1\n      dup1\n      0x20\n      add\n      dup3\n      dup2\n      sub\n      dup3\n      mstore\n      0x25\n      dup2\n      mstore\n      0x20\n      add\n      dup1\n      data_d8ff05f8feabf81285302cda791794684205b00c2f336932c9fd89d301cd3546\n      0x25\n      swap2\n      codecopy\n      0x40\n      add\n      swap2\n      pop\n      pop\n      mload(0x40)\n      dup1\n      swap2\n      sub\n      swap1\n      revert\n    tag_236:\n        /* \"contracts/WrappedBTN.sol\":16433:16434  0 */\n      0x00\n        /* \"contracts/WrappedBTN.sol\":16412:16435  recipient != address(0) */\n      0xffffffffffffffffffffffffffffffffffffffff\n      and\n        /* \"contracts/WrappedBTN.sol\":16412:16421  recipient */\n      dup3\n        /* \"contracts/WrappedBTN.sol\":16412:16435  recipient != address(0) */\n      0xffffffffffffffffffffffffffffffffffffffff\n      and\n      eq\n      iszero\n        /* \"contracts/WrappedBTN.sol\":16404:16475  require(recipient != address(0), \"BTS20: Transfer to the zero address\") */\n      tag_237\n      jumpi\n      mload(0x40)\n      0x08c379a000000000000000000000000000000000000000000000000000000000\n      dup2\n      mstore\n      0x04\n      add\n      dup1\n      dup1\n      0x20\n      add\n      dup3\n      dup2\n      sub\n      dup3\n      mstore\n      0x23\n      dup2\n      mstore\n      0x20\n      add\n      dup1\n      data_abfcc4036b636772042361b678bf07dfc9675125fbde01e4f42f2f1ced170bf7\n      0x23\n      swap2\n      codecopy\n      0x40\n      add\n      swap2\n      pop\n      pop\n      mload(0x40)\n      dup1\n      swap2\n      sub\n      swap1\n      revert\n    tag_237:\n        /* \"contracts/WrappedBTN.sol\":16508:16579  _balances[sender].sub(amount, \"BTS20: Transfer amount exceeds balance\") */\n      tag_238\n        /* \"contracts/WrappedBTN.sol\":16530:16536  amount */\n      dup2\n        /* \"contracts/WrappedBTN.sol\":16508:16579  _balances[sender].sub(amount, \"BTS20: Transfer amount exceeds balance\") */\n      mload(0x40)\n      dup1\n      0x60\n      add\n      0x40\n      mstore\n      dup1\n      0x26\n      dup2\n      mstore\n      0x20\n      add\n      data_76f25704edc14b693833bd3cbaaa43f45bc1e651767d89a8e2c5ed5e969d9054\n      0x26\n      swap2\n      codecopy\n        /* \"contracts/WrappedBTN.sol\":16508:16517  _balances */\n      0x00\n        /* \"contracts/WrappedBTN.sol\":16508:16525  _balances[sender] */\n      dup1\n        /* \"contracts/WrappedBTN.sol\":16518:16524  sender */\n      dup8\n        /* \"contracts/WrappedBTN.sol\":16508:16525  _balances[sender] */\n      0xffffffffffffffffffffffffffffffffffffffff\n      and\n      0xffffffffffffffffffffffffffffffffffffffff\n      and\n      dup2\n      mstore\n      0x20\n      add\n      swap1\n      dup2\n      mstore\n      0x20\n      add\n      0x00\n      keccak256\n      sload\n        /* \"contracts/WrappedBTN.sol\":16508:16529  _balances[sender].sub */\n      tag_199\n      swap1\n        /* \"contracts/WrappedBTN.sol\":16508:16579  _balances[sender].sub(amount, \"BTS20: Transfer amount exceeds balance\") */\n      swap3\n      swap2\n      swap1\n      0xffffffff\n      and\n      jump\t// in\n    tag_238:\n        /* \"contracts/WrappedBTN.sol\":16488:16497  _balances */\n      0x00\n        /* \"contracts/WrappedBTN.sol\":16488:16505  _balances[sender] */\n      dup1\n        /* \"contracts/WrappedBTN.sol\":16498:16504  sender */\n      dup6\n        /* \"contracts/WrappedBTN.sol\":16488:16505  _balances[sender] */\n      0xffffffffffffffffffffffffffffffffffffffff\n      and\n      0xffffffffffffffffffffffffffffffffffffffff\n      and\n      dup2\n      mstore\n      0x20\n      add\n      swap1\n      dup2\n      mstore\n      0x20\n      add\n      0x00\n      keccak256\n        /* \"contracts/WrappedBTN.sol\":16488:16579  _balances[sender] = _balances[sender].sub(amount, \"BTS20: Transfer amount exceeds balance\") */\n      dup2\n      swap1\n      sstore\n      pop\n        /* \"contracts/WrappedBTN.sol\":16613:16645  _balances[recipient].add(amount) */\n      tag_239\n        /* \"contracts/WrappedBTN.sol\":16638:16644  amount */\n      dup2\n        /* \"contracts/WrappedBTN.sol\":16613:16622  _balances */\n      0x00\n        /* \"contracts/WrappedBTN.sol\":16613:16633  _balances[recipient] */\n      dup1\n        /* \"contracts/WrappedBTN.sol\":16623:16632  recipient */\n      dup6\n        /* \"contracts/WrappedBTN.sol\":16613:16633  _balances[recipient] */\n      0xffffffffffffffffffffffffffffffffffffffff\n      and\n      0xffffffffffffffffffffffffffffffffffffffff\n      and\n      dup2\n      mstore\n      0x20\n      add\n      swap1\n      dup2\n      mstore\n      0x20\n      add\n      0x00\n      keccak256\n      sload\n        /* \"contracts/WrappedBTN.sol\":16613:16637  _balances[recipient].add */\n      tag_210\n      swap1\n        /* \"contracts/WrappedBTN.sol\":16613:16645  _balances[recipient].add(amount) */\n      swap2\n      swap1\n      0xffffffff\n      and\n      jump\t// in\n    tag_239:\n        /* \"contracts/WrappedBTN.sol\":16590:16599  _balances */\n      0x00\n        /* \"contracts/WrappedBTN.sol\":16590:16610  _balances[recipient] */\n      dup1\n        /* \"contracts/WrappedBTN.sol\":16600:16609  recipient */\n      dup5\n        /* \"contracts/WrappedBTN.sol\":16590:16610  _balances[recipient] */\n      0xffffffffffffffffffffffffffffffffffffffff\n      and\n      0xffffffffffffffffffffffffffffffffffffffff\n      and\n      dup2\n      mstore\n      0x20\n      add\n      swap1\n      dup2\n      mstore\n      0x20\n      add\n      0x00\n      keccak256\n        /* \"contracts/WrappedBTN.sol\":16590:16645  _balances[recipient] = _balances[recipient].add(amount) */\n      dup2\n      swap1\n      sstore\n      pop\n        /* \"contracts/WrappedBTN.sol\":16678:16687  recipient */\n      dup2\n        /* \"contracts/WrappedBTN.sol\":16661:16696  Transfer(sender, recipient, amount) */\n      0xffffffffffffffffffffffffffffffffffffffff\n      and\n        /* \"contracts/WrappedBTN.sol\":16670:16676  sender */\n      dup4\n        /* \"contracts/WrappedBTN.sol\":16661:16696  Transfer(sender, recipient, amount) */\n      0xffffffffffffffffffffffffffffffffffffffff\n      and\n      0xddf252ad1be2c89b69c2b068fc378daa952ba7f163c4a11628f55a4df523b3ef\n        /* \"contracts/WrappedBTN.sol\":16689:16695  amount */\n      dup4\n        /* \"contracts/WrappedBTN.sol\":16661:16696  Transfer(sender, recipient, amount) */\n      mload(0x40)\n      dup1\n      dup3\n      dup2\n      mstore\n      0x20\n      add\n      swap2\n      pop\n      pop\n      mload(0x40)\n      dup1\n      swap2\n      sub\n      swap1\n      log3\n        /* \"contracts/WrappedBTN.sol\":16233:16704  function _transfer(address sender, address recipient, uint256 amount) internal {\r... */\n      pop\n      pop\n      pop\n      jump\t// out\n        /* \"contracts/WrappedBTN.sol\":5885:6077  function sub(uint256 a, uint256 b, string memory errorMessage) internal pure returns (uint256) {\r... */\n    tag_199:\n        /* \"contracts/WrappedBTN.sol\":5971:5978  uint256 */\n      0x00\n        /* \"contracts/WrappedBTN.sol\":6004:6005  a */\n      dup4\n        /* \"contracts/WrappedBTN.sol\":5999:6000  b */\n      dup4\n        /* \"contracts/WrappedBTN.sol\":5999:6005  b <= a */\n      gt\n      iszero\n        /* \"contracts/WrappedBTN.sol\":6007:6019  errorMessage */\n      dup3\n        /* \"contracts/WrappedBTN.sol\":5991:6020  require(b <= a, errorMessage) */\n      swap1\n      tag_241\n      jumpi\n      mload(0x40)\n      0x08c379a000000000000000000000000000000000000000000000000000000000\n      dup2\n      mstore\n      0x04\n      add\n      dup1\n      dup1\n      0x20\n      add\n      dup3\n      dup2\n      sub\n      dup3\n      mstore\n      dup4\n      dup2\n      dup2\n      mload\n      dup2\n      mstore\n      0x20\n      add\n      swap2\n      pop\n      dup1\n      mload\n      swap1\n      0x20\n      add\n      swap1\n      dup1\n      dup4\n      dup4\n        /* \"--CODEGEN--\":23:24   */\n      0x00\n        /* \"--CODEGEN--\":8:108   */\n    tag_242:\n        /* \"--CODEGEN--\":33:36   */\n      dup4\n        /* \"--CODEGEN--\":30:31   */\n      dup2\n        /* \"--CODEGEN--\":27:37   */\n      lt\n        /* \"--CODEGEN--\":8:108   */\n      iszero\n      tag_244\n      jumpi\n        /* \"--CODEGEN--\":99:100   */\n      dup1\n        /* \"--CODEGEN--\":94:97   */\n      dup3\n        /* \"--CODEGEN--\":90:101   */\n      add\n        /* \"--CODEGEN--\":84:102   */\n      mload\n        /* \"--CODEGEN--\":80:81   */\n      dup2\n        /* \"--CODEGEN--\":75:78   */\n      dup5\n        /* \"--CODEGEN--\":71:82   */\n      add\n        /* \"--CODEGEN--\":64:103   */\n      mstore\n        /* \"--CODEGEN--\":52:54   */\n      0x20\n        /* \"--CODEGEN--\":49:50   */\n      dup2\n        /* \"--CODEGEN--\":45:55   */\n      add\n        /* \"--CODEGEN--\":40:55   */\n      swap1\n      pop\n        /* \"--CODEGEN--\":8:108   */\n      jump(tag_242)\n    tag_244:\n        /* \"--CODEGEN--\":12:26   */\n      pop\n        /* \"contracts/WrappedBTN.sol\":5991:6020  require(b <= a, errorMessage) */\n      pop\n      pop\n      pop\n      swap1\n      pop\n      swap1\n      dup2\n      add\n      swap1\n      0x1f\n      and\n      dup1\n      iszero\n      tag_245\n      jumpi\n      dup1\n      dup3\n      sub\n      dup1\n      mload\n      0x01\n      dup4\n      0x20\n      sub\n      0x0100\n      exp\n      sub\n      not\n      and\n      dup2\n      mstore\n      0x20\n      add\n      swap2\n      pop\n    tag_245:\n      pop\n      swap3\n      pop\n      pop\n      pop\n      mload(0x40)\n      dup1\n      swap2\n      sub\n      swap1\n      revert\n    tag_241:\n      pop\n        /* \"contracts/WrappedBTN.sol\":6031:6040  uint256 c */\n      0x00\n        /* \"contracts/WrappedBTN.sol\":6047:6048  b */\n      dup4\n        /* \"contracts/WrappedBTN.sol\":6043:6044  a */\n      dup6\n        /* \"contracts/WrappedBTN.sol\":6043:6048  a - b */\n      sub\n        /* \"contracts/WrappedBTN.sol\":6031:6048  uint256 c = a - b */\n      swap1\n      pop\n        /* \"contracts/WrappedBTN.sol\":6068:6069  c */\n      dup1\n        /* \"contracts/WrappedBTN.sol\":6061:6069  return c */\n      swap2\n      pop\n      pop\n        /* \"contracts/WrappedBTN.sol\":5885:6077  function sub(uint256 a, uint256 b, string memory errorMessage) internal pure returns (uint256) {\r... */\n      swap4\n      swap3\n      pop\n      pop\n      pop\n      jump\t// out\n        /* \"contracts/WrappedBTN.sol\":5412:5548  function sub(uint256 a, uint256 b) internal pure returns (uint256) {\r... */\n    tag_204:\n        /* \"contracts/WrappedBTN.sol\":5470:5477  uint256 */\n      0x00\n        /* \"contracts/WrappedBTN.sol\":5497:5540  sub(a, b, \"SafeMath: Subtraction overflow\") */\n      tag_247\n        /* \"contracts/WrappedBTN.sol\":5501:5502  a */\n      dup4\n        /* \"contracts/WrappedBTN.sol\":5504:5505  b */\n      dup4\n        /* \"contracts/WrappedBTN.sol\":5497:5540  sub(a, b, \"SafeMath: Subtraction overflow\") */\n      mload(0x40)\n      dup1\n      0x40\n      add\n      0x40\n      mstore\n      dup1\n      0x1e\n      dup2\n      mstore\n      0x20\n      add\n      0x536166654d6174683a205375627472616374696f6e206f766572666c6f770000\n      dup2\n      mstore\n      pop\n        /* \"contracts/WrappedBTN.sol\":5497:5500  sub */\n      tag_199\n        /* \"contracts/WrappedBTN.sol\":5497:5540  sub(a, b, \"SafeMath: Subtraction overflow\") */\n      jump\t// in\n    tag_247:\n        /* \"contracts/WrappedBTN.sol\":5490:5540  return sub(a, b, \"SafeMath: Subtraction overflow\") */\n      swap1\n      pop\n        /* \"contracts/WrappedBTN.sol\":5412:5548  function sub(uint256 a, uint256 b) internal pure returns (uint256) {\r... */\n      swap3\n      swap2\n      pop\n      pop\n      jump\t// out\n        /* \"contracts/WrappedBTN.sol\":4956:5137  function add(uint256 a, uint256 b) internal pure returns (uint256) {\r... */\n    tag_210:\n        /* \"contracts/WrappedBTN.sol\":5014:5021  uint256 */\n      0x00\n        /* \"contracts/WrappedBTN.sol\":5034:5043  uint256 c */\n      dup1\n        /* \"contracts/WrappedBTN.sol\":5050:5051  b */\n      dup3\n        /* \"contracts/WrappedBTN.sol\":5046:5047  a */\n      dup5\n        /* \"contracts/WrappedBTN.sol\":5046:5051  a + b */\n      add\n        /* \"contracts/WrappedBTN.sol\":5034:5051  uint256 c = a + b */\n      swap1\n      pop\n        /* \"contracts/WrappedBTN.sol\":5075:5076  a */\n      dup4\n        /* \"contracts/WrappedBTN.sol\":5070:5071  c */\n      dup2\n        /* \"contracts/WrappedBTN.sol\":5070:5076  c >= a */\n      lt\n      iszero\n        /* \"contracts/WrappedBTN.sol\":5062:5108  require(c >= a, \"SafeMath: Addition overflow\") */\n      tag_249\n      jumpi\n      mload(0x40)\n      0x08c379a000000000000000000000000000000000000000000000000000000000\n      dup2\n      mstore\n      0x04\n      add\n      dup1\n      dup1\n      0x20\n      add\n      dup3\n      dup2\n      sub\n      dup3\n      mstore\n      0x1b\n      dup2\n      mstore\n      0x20\n      add\n      dup1\n      0x536166654d6174683a204164646974696f6e206f766572666c6f770000000000\n      dup2\n      mstore\n      pop\n      0x20\n      add\n      swap2\n      pop\n      pop\n      mload(0x40)\n      dup1\n      swap2\n      sub\n      swap1\n      revert\n    tag_249:\n        /* \"contracts/WrappedBTN.sol\":5128:5129  c */\n      dup1\n        /* \"contracts/WrappedBTN.sol\":5121:5129  return c */\n      swap2\n      pop\n      pop\n        /* \"contracts/WrappedBTN.sol\":4956:5137  function add(uint256 a, uint256 b) internal pure returns (uint256) {\r... */\n      swap3\n      swap2\n      pop\n      pop\n      jump\t// out\n        /* \"contracts/WrappedBTN.sol\":1674:1857  function remove(Role storage role, address account) internal {\r... */\n    tag_216:\n        /* \"contracts/WrappedBTN.sol\":1754:1772  has(role, account) */\n      tag_251\n        /* \"contracts/WrappedBTN.sol\":1758:1762  role */\n      dup3\n        /* \"contracts/WrappedBTN.sol\":1764:1771  account */\n      dup3\n        /* \"contracts/WrappedBTN.sol\":1754:1757  has */\n      tag_145\n        /* \"contracts/WrappedBTN.sol\":1754:1772  has(role, account) */\n      jump\t// in\n    tag_251:\n        /* \"contracts/WrappedBTN.sol\":1746:1810  require(has(role, account), \"Roles: Account does not have role\") */\n      tag_252\n      jumpi\n      mload(0x40)\n      0x08c379a000000000000000000000000000000000000000000000000000000000\n      dup2\n      mstore\n      0x04\n      add\n      dup1\n      dup1\n      0x20\n      add\n      dup3\n      dup2\n      sub\n      dup3\n      mstore\n      0x21\n      dup2\n      mstore\n      0x20\n      add\n      dup1\n      data_9ca6d2ff41a51c9782528d6910cf1462165939eb4fadef346e3fb45a1da14f44\n      0x21\n      swap2\n      codecopy\n      0x40\n      add\n      swap2\n      pop\n      pop\n      mload(0x40)\n      dup1\n      swap2\n      sub\n      swap1\n      revert\n    tag_252:\n        /* \"contracts/WrappedBTN.sol\":1844:1849  false */\n      0x00\n        /* \"contracts/WrappedBTN.sol\":1821:1825  role */\n      dup3\n        /* \"contracts/WrappedBTN.sol\":1821:1832  role.bearer */\n      0x00\n      add\n        /* \"contracts/WrappedBTN.sol\":1821:1841  role.bearer[account] */\n      0x00\n        /* \"contracts/WrappedBTN.sol\":1833:1840  account */\n      dup4\n        /* \"contracts/WrappedBTN.sol\":1821:1841  role.bearer[account] */\n      0xffffffffffffffffffffffffffffffffffffffff\n      and\n      0xffffffffffffffffffffffffffffffffffffffff\n      and\n      dup2\n      mstore\n      0x20\n      add\n      swap1\n      dup2\n      mstore\n      0x20\n      add\n      0x00\n      keccak256\n      0x00\n        /* \"contracts/WrappedBTN.sol\":1821:1849  role.bearer[account] = false */\n      0x0100\n      exp\n      dup2\n      sload\n      dup2\n      0xff\n      mul\n      not\n      and\n      swap1\n      dup4\n      iszero\n      iszero\n      mul\n      or\n      swap1\n      sstore\n      pop\n        /* \"contracts/WrappedBTN.sol\":1674:1857  function remove(Role storage role, address account) internal {\r... */\n      pop\n      pop\n      jump\t// out\n        /* \"contracts/WrappedBTN.sol\":1416:1594  function add(Role storage role, address account) internal {\r... */\n    tag_219:\n        /* \"contracts/WrappedBTN.sol\":1494:1512  has(role, account) */\n      tag_254\n        /* \"contracts/WrappedBTN.sol\":1498:1502  role */\n      dup3\n        /* \"contracts/WrappedBTN.sol\":1504:1511  account */\n      dup3\n        /* \"contracts/WrappedBTN.sol\":1494:1497  has */\n      tag_145\n        /* \"contracts/WrappedBTN.sol\":1494:1512  has(role, account) */\n      jump\t// in\n    tag_254:\n        /* \"contracts/WrappedBTN.sol\":1493:1512  !has(role, account) */\n      iszero\n        /* \"contracts/WrappedBTN.sol\":1485:1548  require(!has(role, account), \"Roles: Account already has role\") */\n      tag_255\n      jumpi\n      mload(0x40)\n      0x08c379a000000000000000000000000000000000000000000000000000000000\n      dup2\n      mstore\n      0x04\n      add\n      dup1\n      dup1\n      0x20\n      add\n      dup3\n      dup2\n      sub\n      dup3\n      mstore\n      0x1f\n      dup2\n      mstore\n      0x20\n      add\n      dup1\n      0x526f6c65733a204163636f756e7420616c72656164792068617320726f6c6500\n      dup2\n      mstore\n      pop\n      0x20\n      add\n      swap2\n      pop\n      pop\n      mload(0x40)\n      dup1\n      swap2\n      sub\n      swap1\n      revert\n    tag_255:\n        /* \"contracts/WrappedBTN.sol\":1582:1586  true */\n      0x01\n        /* \"contracts/WrappedBTN.sol\":1559:1563  role */\n      dup3\n        /* \"contracts/WrappedBTN.sol\":1559:1570  role.bearer */\n      0x00\n      add\n        /* \"contracts/WrappedBTN.sol\":1559:1579  role.bearer[account] */\n      0x00\n        /* \"contracts/WrappedBTN.sol\":1571:1578  account */\n      dup4\n        /* \"contracts/WrappedBTN.sol\":1559:1579  role.bearer[account] */\n      0xffffffffffffffffffffffffffffffffffffffff\n      and\n      0xffffffffffffffffffffffffffffffffffffffff\n      and\n      dup2\n      mstore\n      0x20\n      add\n      swap1\n      dup2\n      mstore\n      0x20\n      add\n      0x00\n      keccak256\n      0x00\n        /* \"contracts/WrappedBTN.sol\":1559:1586  role.bearer[account] = true */\n      0x0100\n      exp\n      dup2\n      sload\n      dup2\n      0xff\n      mul\n      not\n      and\n      swap1\n      dup4\n      iszero\n      iszero\n      mul\n      or\n      swap1\n      sstore\n      pop\n        /* \"contracts/WrappedBTN.sol\":1416:1594  function add(Role storage role, address account) internal {\r... */\n      pop\n      pop\n      jump\t// out\n    stop\n    data_1662877348d3f31d704e5e3c22e53f5907b97c660f2b91f4310559c49e76a721 42545332303a204275726e20616d6f756e7420657863656564732062616c616e6365\n    data_25be98b058b1d92833258d8df9a974b792278100a2477c820a0105a1f1183130 506175736572526f6c653a2043616c6c657220646f6573206e6f742068617665207468652050617573657220726f6c65\n    data_37fc6950a7d42389a48f4b64dc2e97ff802031381fae362d19398bbcbbb73aff 42545332303a2044656372656173656420616c6c6f77616e63652062656c6f77207a65726f\n    data_76f25704edc14b693833bd3cbaaa43f45bc1e651767d89a8e2c5ed5e969d9054 42545332303a205472616e7366657220616d6f756e7420657863656564732062616c616e6365\n    data_87e68e359a508fdd807276992d1ea1de946879eb16f1af103adae6d91f2c7695 42545332303a205472616e7366657220616d6f756e74206578636565647320616c6c6f77616e6365\n    data_9b2d9f322da2dd8c80668fcb5cf0c608e8d3c6f6d680cf2587a3f8fed2786a8c 42545332303a20417070726f766520746f20746865207a65726f2061646472657373\n    data_9ca6d2ff41a51c9782528d6910cf1462165939eb4fadef346e3fb45a1da14f44 526f6c65733a204163636f756e7420646f6573206e6f74206861766520726f6c65\n    data_a28e8cab5bdd32ed422ad56e9f9a042cc2bc572c11cee6bb8d4b6dd28e11843b 42545332303a204275726e2066726f6d20746865207a65726f2061646472657373\n    data_abfcc4036b636772042361b678bf07dfc9675125fbde01e4f42f2f1ced170bf7 42545332303a205472616e7366657220746f20746865207a65726f2061646472657373\n    data_d67578b85ba6d73375c4493f438c3d9072fd4105433709f73a70d19f74a8eed3 526f6c65733a204163636f756e7420697320746865207a65726f2061646472657373\n    data_d7972261d3cd252e74752e913ed29c8220929ede1fc34ef44423bbf2fce46186 42545332303a20417070726f76652066726f6d20746865207a65726f2061646472657373\n    data_d8ff05f8feabf81285302cda791794684205b00c2f336932c9fd89d301cd3546 42545332303a205472616e736665722066726f6d20746865207a65726f2061646472657373\n\n    auxdata: 0xa265627a7a72315820dfd49232f2d93729279effdeaf6eedc99132e4037968736dd2dc091b829c92fa64736f6c63430005110032\n}\n",
				"bytecode": {
					"linkReferences": {},
					"object": "60806040523480156200001157600080fd5b506040518060400160405280600e81526020017f57726170706564204269746e65740000000000000000000000000000000000008152506040518060400160405280600481526020017f5742544e0000000000000000000000000000000000000000000000000000000081525060128260039080519060200190620000989291906200033e565b508160049080519060200190620000b19291906200033e565b5080600560006101000a81548160ff021916908360ff160217905550505050620000f0620000e46200011160201b60201c565b6200011960201b60201c565b6000600760006101000a81548160ff021916908315150217905550620003ed565b600033905090565b620001348160066200017a60201b620020e51790919060201c565b8073ffffffffffffffffffffffffffffffffffffffff167f6719d08c1888103bea251a4ed56406bd0c3e69723c8a1686e017e7bbe159b6f860405160405180910390a250565b6200018c82826200025e60201b60201c565b1562000200576040517f08c379a000000000000000000000000000000000000000000000000000000000815260040180806020018281038252601f8152602001807f526f6c65733a204163636f756e7420616c72656164792068617320726f6c650081525060200191505060405180910390fd5b60018260000160008373ffffffffffffffffffffffffffffffffffffffff1673ffffffffffffffffffffffffffffffffffffffff16815260200190815260200160002060006101000a81548160ff0219169083151502179055505050565b60008073ffffffffffffffffffffffffffffffffffffffff168273ffffffffffffffffffffffffffffffffffffffff161415620002e7576040517f08c379a0000000000000000000000000000000000000000000000000000000008152600401808060200182810382526022815260200180620027a96022913960400191505060405180910390fd5b8260000160008373ffffffffffffffffffffffffffffffffffffffff1673ffffffffffffffffffffffffffffffffffffffff16815260200190815260200160002060009054906101000a900460ff16905092915050565b828054600181600116156101000203166002900490600052602060002090601f016020900481019282601f106200038157805160ff1916838001178555620003b2565b82800160010185558215620003b2579182015b82811115620003b157825182559160200191906001019062000394565b5b509050620003c19190620003c5565b5090565b620003ea91905b80821115620003e6576000816000905550600101620003cc565b5090565b90565b6123ac80620003fd6000396000f3fe60806040526004361061012a5760003560e01c80635c975abb116100ab5780638456cb591161006f5780638456cb59146105b557806395d89b41146105cc578063a457c2d71461065c578063a9059cbb146106cf578063d0e30db014610742578063dd62ed3e146107605761012a565b80635c975abb1461048e5780636d7497b3146104bd5780636ef8d66d146104e857806370a08231146104ff57806382dc1ec4146105645761012a565b8063313ce567116100f2578063313ce5671461033f57806335052d6e14610370578063395093511461039b5780633f4ba83a1461040e57806346fbf68e146104255761012a565b806306fdde031461012f578063095ea7b3146101bf57806318160ddd1461023257806323b872dd1461025d5780632e1a7d4d146102f0575b600080fd5b34801561013b57600080fd5b506101446107e5565b6040518080602001828103825283818151815260200191508051906020019080838360005b83811015610184578082015181840152602081019050610169565b50505050905090810190601f1680156101b15780820380516001836020036101000a031916815260200191505b509250505060405180910390f35b3480156101cb57600080fd5b50610218600480360360408110156101e257600080fd5b81019080803573ffffffffffffffffffffffffffffffffffffffff16906020019092919080359060200190929190505050610887565b604051808215151515815260200191505060405180910390f35b34801561023e57600080fd5b5061024761091e565b6040518082815260200191505060405180910390f35b34801561026957600080fd5b506102d66004803603606081101561028057600080fd5b81019080803573ffffffffffffffffffffffffffffffffffffffff169060200190929190803573ffffffffffffffffffffffffffffffffffffffff16906020019092919080359060200190929190505050610928565b604051808215151515815260200191505060405180910390f35b3480156102fc57600080fd5b506103296004803603602081101561031357600080fd5b81019080803590602001909291905050506109c1565b6040518082815260200191505060405180910390f35b34801561034b57600080fd5b50610354610ab3565b604051808260ff1660ff16815260200191505060405180910390f35b34801561037c57600080fd5b50610385610aca565b6040518082815260200191505060405180910390f35b3480156103a757600080fd5b506103f4600480360360408110156103be57600080fd5b81019080803573ffffffffffffffffffffffffffffffffffffffff16906020019092919080359060200190929190505050610acf565b604051808215151515815260200191505060405180910390f35b34801561041a57600080fd5b50610423610b66565b005b34801561043157600080fd5b506104746004803603602081101561044857600080fd5b81019080803573ffffffffffffffffffffffffffffffffffffffff169060200190929190505050610cd4565b604051808215151515815260200191505060405180910390f35b34801561049a57600080fd5b506104a3610cf1565b604051808215151515815260200191505060405180910390f35b3480156104c957600080fd5b506104d2610d08565b6040518082815260200191505060405180910390f35b3480156104f457600080fd5b506104fd610d0d565b005b34801561050b57600080fd5b5061054e6004803603602081101561052257600080fd5b81019080803573ffffffffffffffffffffffffffffffffffffffff169060200190929190505050610d1f565b6040518082815260200191505060405180910390f35b34801561057057600080fd5b506105b36004803603602081101561058757600080fd5b81019080803573ffffffffffffffffffffffffffffffffffffffff169060200190929190505050610d67565b005b3480156105c157600080fd5b506105ca610dd8565b005b3480156105d857600080fd5b506105e1610f47565b6040518080602001828103825283818151815260200191508051906020019080838360005b83811015610621578082015181840152602081019050610606565b50505050905090810190601f16801561064e5780820380516001836020036101000a031916815260200191505b509250505060405180910390f35b34801561066857600080fd5b506106b56004803603604081101561067f57600080fd5b81019080803573ffffffffffffffffffffffffffffffffffffffff16906020019092919080359060200190929190505050610fe9565b604051808215151515815260200191505060405180910390f35b3480156106db57600080fd5b50610728600480360360408110156106f257600080fd5b81019080803573ffffffffffffffffffffffffffffffffffffffff16906020019092919080359060200190929190505050611080565b604051808215151515815260200191505060405180910390f35b61074a611117565b6040518082815260200191505060405180910390f35b34801561076c57600080fd5b506107cf6004803603604081101561078357600080fd5b81019080803573ffffffffffffffffffffffffffffffffffffffff169060200190929190803573ffffffffffffffffffffffffffffffffffffffff1690602001909291905050506111c0565b6040518082815260200191505060405180910390f35b606060038054600181600116156101000203166002900480601f01602080910402602001604051908101604052809291908181526020018280546001816001161561010002031660029004801561087d5780601f106108525761010080835404028352916020019161087d565b820191906000526020600020905b81548152906001019060200180831161086057829003601f168201915b5050505050905090565b6000600760009054906101000a900460ff161561090c576040517f08c379a00000000000000000000000000000000000000000000000000000000081526004018080602001828103825260108152602001807f5061757361626c653a205061757365640000000000000000000000000000000081525060200191505060405180910390fd5b6109168383611247565b905092915050565b6000600254905090565b6000600760009054906101000a900460ff16156109ad576040517f08c379a00000000000000000000000000000000000000000000000000000000081526004018080602001828103825260108152602001807f5061757361626c653a205061757365640000000000000000000000000000000081525060200191505060405180910390fd5b6109b8848484611265565b90509392505050565b6000600760009054906101000a900460ff1615610a46576040517f08c379a00000000000000000000000000000000000000000000000000000000081526004018080602001828103825260108152602001807f5061757361626c653a205061757365640000000000000000000000000000000081525060200191505060405180910390fd5b6000821415610a585760019050610aae565b610a62338361133e565b3373ffffffffffffffffffffffffffffffffffffffff166108fc839081150290604051600060405180830381858888f19350505050158015610aa8573d6000803e3d6000fd5b50600090505b919050565b6000600560009054906101000a900460ff16905090565b600081565b6000600760009054906101000a900460ff1615610b54576040517f08c379a00000000000000000000000000000000000000000000000000000000081526004018080602001828103825260108152602001807f5061757361626c653a205061757365640000000000000000000000000000000081525060200191505060405180910390fd5b610b5e83836114f6565b905092915050565b610b76610b716115a9565b610cd4565b610bcb576040517f08c379a00000000000000000000000000000000000000000000000000000000081526004018080602001828103825260308152602001806121e36030913960400191505060405180910390fd5b600760009054906101000a900460ff16610c4d576040517f08c379a00000000000000000000000000000000000000000000000000000000081526004018080602001828103825260148152602001807f5061757361626c653a204e6f742070617573656400000000000000000000000081525060200191505060405180910390fd5b6000600760006101000a81548160ff0219169083151502179055507f5db9ee0a495bf2e6ff9c91a7834c1ba4fdd244a5e8aa4e537bd38aeae4b073aa610c916115a9565b604051808273ffffffffffffffffffffffffffffffffffffffff1673ffffffffffffffffffffffffffffffffffffffff16815260200191505060405180910390a1565b6000610cea8260066115b190919063ffffffff16565b9050919050565b6000600760009054906101000a900460ff16905090565b600181565b610d1d610d186115a9565b61168f565b565b60008060008373ffffffffffffffffffffffffffffffffffffffff1673ffffffffffffffffffffffffffffffffffffffff168152602001908152602001600020549050919050565b610d77610d726115a9565b610cd4565b610dcc576040517f08c379a00000000000000000000000000000000000000000000000000000000081526004018080602001828103825260308152602001806121e36030913960400191505060405180910390fd5b610dd5816116e9565b50565b610de8610de36115a9565b610cd4565b610e3d576040517f08c379a00000000000000000000000000000000000000000000000000000000081526004018080602001828103825260308152602001806121e36030913960400191505060405180910390fd5b600760009054906101000a900460ff1615610ec0576040517f08c379a00000000000000000000000000000000000000000000000000000000081526004018080602001828103825260108152602001807f5061757361626c653a205061757365640000000000000000000000000000000081525060200191505060405180910390fd5b6001600760006101000a81548160ff0219169083151502179055507f62e78cea01bee320cd4e420270b5ea74000d11b0c9f74754ebdbfc544b05a258610f046115a9565b604051808273ffffffffffffffffffffffffffffffffffffffff1673ffffffffffffffffffffffffffffffffffffffff16815260200191505060405180910390a1565b606060048054600181600116156101000203166002900480601f016020809104026020016040519081016040528092919081815260200182805460018160011615610100020316600290048015610fdf5780601f10610fb457610100808354040283529160200191610fdf565b820191906000526020600020905b815481529060010190602001808311610fc257829003601f168201915b5050505050905090565b6000600760009054906101000a900460ff161561106e576040517f08c379a00000000000000000000000000000000000000000000000000000000081526004018080602001828103825260108152602001807f5061757361626c653a205061757365640000000000000000000000000000000081525060200191505060405180910390fd5b6110788383611743565b905092915050565b6000600760009054906101000a900460ff1615611105576040517f08c379a00000000000000000000000000000000000000000000000000000000081526004018080602001828103825260108152602001807f5061757361626c653a205061757365640000000000000000000000000000000081525060200191505060405180910390fd5b61110f8383611810565b905092915050565b6000600760009054906101000a900460ff161561119c576040517f08c379a00000000000000000000000000000000000000000000000000000000081526004018080602001828103825260108152602001807f5061757361626c653a205061757365640000000000000000000000000000000081525060200191505060405180910390fd5b60003414156111ae57600190506111bd565b6111b8333461182e565b600090505b90565b6000600160008473ffffffffffffffffffffffffffffffffffffffff1673ffffffffffffffffffffffffffffffffffffffff16815260200190815260200160002060008373ffffffffffffffffffffffffffffffffffffffff1673ffffffffffffffffffffffffffffffffffffffff16815260200190815260200160002054905092915050565b600061125b6112546115a9565b84846119e9565b6001905092915050565b6000611272848484611be0565b6113338461127e6115a9565b61132e8560405180606001604052806028815260200161225e60289139600160008b73ffffffffffffffffffffffffffffffffffffffff1673ffffffffffffffffffffffffffffffffffffffff16815260200190815260200160002060006112e46115a9565b73ffffffffffffffffffffffffffffffffffffffff1673ffffffffffffffffffffffffffffffffffffffff16815260200190815260200160002054611e969092919063ffffffff16565b6119e9565b600190509392505050565b600073ffffffffffffffffffffffffffffffffffffffff168273ffffffffffffffffffffffffffffffffffffffff1614156113c4576040517f08c379a00000000000000000000000000000000000000000000000000000000081526004018080602001828103825260218152602001806122c96021913960400191505060405180910390fd5b61142f816040518060600160405280602281526020016121c1602291396000808673ffffffffffffffffffffffffffffffffffffffff1673ffffffffffffffffffffffffffffffffffffffff16815260200190815260200160002054611e969092919063ffffffff16565b6000808473ffffffffffffffffffffffffffffffffffffffff1673ffffffffffffffffffffffffffffffffffffffff1681526020019081526020016000208190555061148681600254611f5690919063ffffffff16565b600281905550600073ffffffffffffffffffffffffffffffffffffffff168273ffffffffffffffffffffffffffffffffffffffff167fddf252ad1be2c89b69c2b068fc378daa952ba7f163c4a11628f55a4df523b3ef836040518082815260200191505060405180910390a35050565b600061159f6115036115a9565b8461159a85600160006115146115a9565b73ffffffffffffffffffffffffffffffffffffffff1673ffffffffffffffffffffffffffffffffffffffff16815260200190815260200160002060008973ffffffffffffffffffffffffffffffffffffffff1673ffffffffffffffffffffffffffffffffffffffff16815260200190815260200160002054611fa090919063ffffffff16565b6119e9565b6001905092915050565b600033905090565b60008073ffffffffffffffffffffffffffffffffffffffff168273ffffffffffffffffffffffffffffffffffffffff161415611638576040517f08c379a000000000000000000000000000000000000000000000000000000000815260040180806020018281038252602281526020018061230d6022913960400191505060405180910390fd5b8260000160008373ffffffffffffffffffffffffffffffffffffffff1673ffffffffffffffffffffffffffffffffffffffff16815260200190815260200160002060009054906101000a900460ff16905092915050565b6116a381600661202890919063ffffffff16565b8073ffffffffffffffffffffffffffffffffffffffff167fcd265ebaf09df2871cc7bd4133404a235ba12eff2041bb89d9c714a2621c7c7e60405160405180910390a250565b6116fd8160066120e590919063ffffffff16565b8073ffffffffffffffffffffffffffffffffffffffff167f6719d08c1888103bea251a4ed56406bd0c3e69723c8a1686e017e7bbe159b6f860405160405180910390a250565b60006118066117506115a9565b8461180185604051806060016040528060258152602001612213602591396001600061177a6115a9565b73ffffffffffffffffffffffffffffffffffffffff1673ffffffffffffffffffffffffffffffffffffffff16815260200190815260200160002060008a73ffffffffffffffffffffffffffffffffffffffff1673ffffffffffffffffffffffffffffffffffffffff16815260200190815260200160002054611e969092919063ffffffff16565b6119e9565b6001905092915050565b600061182461181d6115a9565b8484611be0565b6001905092915050565b600073ffffffffffffffffffffffffffffffffffffffff168273ffffffffffffffffffffffffffffffffffffffff1614156118d1576040517f08c379a000000000000000000000000000000000000000000000000000000000815260040180806020018281038252601f8152602001807f42545332303a204d696e7420746f20746865207a65726f20616464726573730081525060200191505060405180910390fd5b6118e681600254611fa090919063ffffffff16565b60028190555061193d816000808573ffffffffffffffffffffffffffffffffffffffff1673ffffffffffffffffffffffffffffffffffffffff16815260200190815260200160002054611fa090919063ffffffff16565b6000808473ffffffffffffffffffffffffffffffffffffffff1673ffffffffffffffffffffffffffffffffffffffff168152602001908152602001600020819055508173ffffffffffffffffffffffffffffffffffffffff16600073ffffffffffffffffffffffffffffffffffffffff167fddf252ad1be2c89b69c2b068fc378daa952ba7f163c4a11628f55a4df523b3ef836040518082815260200191505060405180910390a35050565b600073ffffffffffffffffffffffffffffffffffffffff168373ffffffffffffffffffffffffffffffffffffffff161415611a6f576040517f08c379a000000000000000000000000000000000000000000000000000000000815260040180806020018281038252602481526020018061232f6024913960400191505060405180910390fd5b600073ffffffffffffffffffffffffffffffffffffffff168273ffffffffffffffffffffffffffffffffffffffff161415611af5576040517f08c379a00000000000000000000000000000000000000000000000000000000081526004018080602001828103825260228152602001806122866022913960400191505060405180910390fd5b80600160008573ffffffffffffffffffffffffffffffffffffffff1673ffffffffffffffffffffffffffffffffffffffff16815260200190815260200160002060008473ffffffffffffffffffffffffffffffffffffffff1673ffffffffffffffffffffffffffffffffffffffff168152602001908152602001600020819055508173ffffffffffffffffffffffffffffffffffffffff168373ffffffffffffffffffffffffffffffffffffffff167f8c5be1e5ebec7d5bd14f71427d1e84f3dd0314c0f7b2291e5b200ac8c7c3b925836040518082815260200191505060405180910390a3505050565b600073ffffffffffffffffffffffffffffffffffffffff168373ffffffffffffffffffffffffffffffffffffffff161415611c66576040517f08c379a00000000000000000000000000000000000000000000000000000000081526004018080602001828103825260258152602001806123536025913960400191505060405180910390fd5b600073ffffffffffffffffffffffffffffffffffffffff168273ffffffffffffffffffffffffffffffffffffffff161415611cec576040517f08c379a00000000000000000000000000000000000000000000000000000000081526004018080602001828103825260238152602001806122ea6023913960400191505060405180910390fd5b611d5781604051806060016040528060268152602001612238602691396000808773ffffffffffffffffffffffffffffffffffffffff1673ffffffffffffffffffffffffffffffffffffffff16815260200190815260200160002054611e969092919063ffffffff16565b6000808573ffffffffffffffffffffffffffffffffffffffff1673ffffffffffffffffffffffffffffffffffffffff16815260200190815260200160002081905550611dea816000808573ffffffffffffffffffffffffffffffffffffffff1673ffffffffffffffffffffffffffffffffffffffff16815260200190815260200160002054611fa090919063ffffffff16565b6000808473ffffffffffffffffffffffffffffffffffffffff1673ffffffffffffffffffffffffffffffffffffffff168152602001908152602001600020819055508173ffffffffffffffffffffffffffffffffffffffff168373ffffffffffffffffffffffffffffffffffffffff167fddf252ad1be2c89b69c2b068fc378daa952ba7f163c4a11628f55a4df523b3ef836040518082815260200191505060405180910390a3505050565b6000838311158290611f43576040517f08c379a00000000000000000000000000000000000000000000000000000000081526004018080602001828103825283818151815260200191508051906020019080838360005b83811015611f08578082015181840152602081019050611eed565b50505050905090810190601f168015611f355780820380516001836020036101000a031916815260200191505b509250505060405180910390fd5b5060008385039050809150509392505050565b6000611f9883836040518060400160405280601e81526020017f536166654d6174683a205375627472616374696f6e206f766572666c6f770000815250611e96565b905092915050565b60008082840190508381101561201e576040517f08c379a000000000000000000000000000000000000000000000000000000000815260040180806020018281038252601b8152602001807f536166654d6174683a204164646974696f6e206f766572666c6f77000000000081525060200191505060405180910390fd5b8091505092915050565b61203282826115b1565b612087576040517f08c379a00000000000000000000000000000000000000000000000000000000081526004018080602001828103825260218152602001806122a86021913960400191505060405180910390fd5b60008260000160008373ffffffffffffffffffffffffffffffffffffffff1673ffffffffffffffffffffffffffffffffffffffff16815260200190815260200160002060006101000a81548160ff0219169083151502179055505050565b6120ef82826115b1565b15612162576040517f08c379a000000000000000000000000000000000000000000000000000000000815260040180806020018281038252601f8152602001807f526f6c65733a204163636f756e7420616c72656164792068617320726f6c650081525060200191505060405180910390fd5b60018260000160008373ffffffffffffffffffffffffffffffffffffffff1673ffffffffffffffffffffffffffffffffffffffff16815260200190815260200160002060006101000a81548160ff021916908315150217905550505056fe42545332303a204275726e20616d6f756e7420657863656564732062616c616e6365506175736572526f6c653a2043616c6c657220646f6573206e6f742068617665207468652050617573657220726f6c6542545332303a2044656372656173656420616c6c6f77616e63652062656c6f77207a65726f42545332303a205472616e7366657220616d6f756e7420657863656564732062616c616e636542545332303a205472616e7366657220616d6f756e74206578636565647320616c6c6f77616e636542545332303a20417070726f766520746f20746865207a65726f2061646472657373526f6c65733a204163636f756e7420646f6573206e6f74206861766520726f6c6542545332303a204275726e2066726f6d20746865207a65726f206164647265737342545332303a205472616e7366657220746f20746865207a65726f2061646472657373526f6c65733a204163636f756e7420697320746865207a65726f206164647265737342545332303a20417070726f76652066726f6d20746865207a65726f206164647265737342545332303a205472616e736665722066726f6d20746865207a65726f2061646472657373a265627a7a72315820dfd49232f2d93729279effdeaf6eedc99132e4037968736dd2dc091b829c92fa64736f6c63430005110032526f6c65733a204163636f756e7420697320746865207a65726f2061646472657373",
					"opcodes": "PUSH1 0x80 PUSH1 0x40 MSTORE CALLVALUE DUP1 ISZERO PUSH3 0x11 JUMPI PUSH1 0x0 DUP1 REVERT JUMPDEST POP PUSH1 0x40 MLOAD DUP1 PUSH1 0x40 ADD PUSH1 0x40 MSTORE DUP1 PUSH1 0xE DUP2 MSTORE PUSH1 0x20 ADD PUSH32 0x57726170706564204269746E6574000000000000000000000000000000000000 DUP2 MSTORE POP PUSH1 0x40 MLOAD DUP1 PUSH1 0x40 ADD PUSH1 0x40 MSTORE DUP1 PUSH1 0x4 DUP2 MSTORE PUSH1 0x20 ADD PUSH32 0x5742544E00000000000000000000000000000000000000000000000000000000 DUP2 MSTORE POP PUSH1 0x12 DUP3 PUSH1 0x3 SWAP1 DUP1 MLOAD SWAP1 PUSH1 0x20 ADD SWAP1 PUSH3 0x98 SWAP3 SWAP2 SWAP1 PUSH3 0x33E JUMP JUMPDEST POP DUP2 PUSH1 0x4 SWAP1 DUP1 MLOAD SWAP1 PUSH1 0x20 ADD SWAP1 PUSH3 0xB1 SWAP3 SWAP2 SWAP1 PUSH3 0x33E JUMP JUMPDEST POP DUP1 PUSH1 0x5 PUSH1 0x0 PUSH2 0x100 EXP DUP2 SLOAD DUP2 PUSH1 0xFF MUL NOT AND SWAP1 DUP4 PUSH1 0xFF AND MUL OR SWAP1 SSTORE POP POP POP POP PUSH3 0xF0 PUSH3 0xE4 PUSH3 0x111 PUSH1 0x20 SHL PUSH1 0x20 SHR JUMP JUMPDEST PUSH3 0x119 PUSH1 0x20 SHL PUSH1 0x20 SHR JUMP JUMPDEST PUSH1 0x0 PUSH1 0x7 PUSH1 0x0 PUSH2 0x100 EXP DUP2 SLOAD DUP2 PUSH1 0xFF MUL NOT AND SWAP1 DUP4 ISZERO ISZERO MUL OR SWAP1 SSTORE POP PUSH3 0x3ED JUMP JUMPDEST PUSH1 0x0 CALLER SWAP1 POP SWAP1 JUMP JUMPDEST PUSH3 0x134 DUP2 PUSH1 0x6 PUSH3 0x17A PUSH1 0x20 SHL PUSH3 0x20E5 OR SWAP1 SWAP2 SWAP1 PUSH1 0x20 SHR JUMP JUMPDEST DUP1 PUSH20 0xFFFFFFFFFFFFFFFFFFFFFFFFFFFFFFFFFFFFFFFF AND PUSH32 0x6719D08C1888103BEA251A4ED56406BD0C3E69723C8A1686E017E7BBE159B6F8 PUSH1 0x40 MLOAD PUSH1 0x40 MLOAD DUP1 SWAP2 SUB SWAP1 LOG2 POP JUMP JUMPDEST PUSH3 0x18C DUP3 DUP3 PUSH3 0x25E PUSH1 0x20 SHL PUSH1 0x20 SHR JUMP JUMPDEST ISZERO PUSH3 0x200 JUMPI PUSH1 0x40 MLOAD PUSH32 0x8C379A000000000000000000000000000000000000000000000000000000000 DUP2 MSTORE PUSH1 0x4 ADD DUP1 DUP1 PUSH1 0x20 ADD DUP3 DUP2 SUB DUP3 MSTORE PUSH1 0x1F DUP2 MSTORE PUSH1 0x20 ADD DUP1 PUSH32 0x526F6C65733A204163636F756E7420616C72656164792068617320726F6C6500 DUP2 MSTORE POP PUSH1 0x20 ADD SWAP2 POP POP PUSH1 0x40 MLOAD DUP1 SWAP2 SUB SWAP1 REVERT JUMPDEST PUSH1 0x1 DUP3 PUSH1 0x0 ADD PUSH1 0x0 DUP4 PUSH20 0xFFFFFFFFFFFFFFFFFFFFFFFFFFFFFFFFFFFFFFFF AND PUSH20 0xFFFFFFFFFFFFFFFFFFFFFFFFFFFFFFFFFFFFFFFF AND DUP2 MSTORE PUSH1 0x20 ADD SWAP1 DUP2 MSTORE PUSH1 0x20 ADD PUSH1 0x0 KECCAK256 PUSH1 0x0 PUSH2 0x100 EXP DUP2 SLOAD DUP2 PUSH1 0xFF MUL NOT AND SWAP1 DUP4 ISZERO ISZERO MUL OR SWAP1 SSTORE POP POP POP JUMP JUMPDEST PUSH1 0x0 DUP1 PUSH20 0xFFFFFFFFFFFFFFFFFFFFFFFFFFFFFFFFFFFFFFFF AND DUP3 PUSH20 0xFFFFFFFFFFFFFFFFFFFFFFFFFFFFFFFFFFFFFFFF AND EQ ISZERO PUSH3 0x2E7 JUMPI PUSH1 0x40 MLOAD PUSH32 0x8C379A000000000000000000000000000000000000000000000000000000000 DUP2 MSTORE PUSH1 0x4 ADD DUP1 DUP1 PUSH1 0x20 ADD DUP3 DUP2 SUB DUP3 MSTORE PUSH1 0x22 DUP2 MSTORE PUSH1 0x20 ADD DUP1 PUSH3 0x27A9 PUSH1 0x22 SWAP2 CODECOPY PUSH1 0x40 ADD SWAP2 POP POP PUSH1 0x40 MLOAD DUP1 SWAP2 SUB SWAP1 REVERT JUMPDEST DUP3 PUSH1 0x0 ADD PUSH1 0x0 DUP4 PUSH20 0xFFFFFFFFFFFFFFFFFFFFFFFFFFFFFFFFFFFFFFFF AND PUSH20 0xFFFFFFFFFFFFFFFFFFFFFFFFFFFFFFFFFFFFFFFF AND DUP2 MSTORE PUSH1 0x20 ADD SWAP1 DUP2 MSTORE PUSH1 0x20 ADD PUSH1 0x0 KECCAK256 PUSH1 0x0 SWAP1 SLOAD SWAP1 PUSH2 0x100 EXP SWAP1 DIV PUSH1 0xFF AND SWAP1 POP SWAP3 SWAP2 POP POP JUMP JUMPDEST DUP3 DUP1 SLOAD PUSH1 0x1 DUP2 PUSH1 0x1 AND ISZERO PUSH2 0x100 MUL SUB AND PUSH1 0x2 SWAP1 DIV SWAP1 PUSH1 0x0 MSTORE PUSH1 0x20 PUSH1 0x0 KECCAK256 SWAP1 PUSH1 0x1F ADD PUSH1 0x20 SWAP1 DIV DUP2 ADD SWAP3 DUP3 PUSH1 0x1F LT PUSH3 0x381 JUMPI DUP1 MLOAD PUSH1 0xFF NOT AND DUP4 DUP1 ADD OR DUP6 SSTORE PUSH3 0x3B2 JUMP JUMPDEST DUP3 DUP1 ADD PUSH1 0x1 ADD DUP6 SSTORE DUP3 ISZERO PUSH3 0x3B2 JUMPI SWAP2 DUP3 ADD JUMPDEST DUP3 DUP2 GT ISZERO PUSH3 0x3B1 JUMPI DUP3 MLOAD DUP3 SSTORE SWAP2 PUSH1 0x20 ADD SWAP2 SWAP1 PUSH1 0x1 ADD SWAP1 PUSH3 0x394 JUMP JUMPDEST JUMPDEST POP SWAP1 POP PUSH3 0x3C1 SWAP2 SWAP1 PUSH3 0x3C5 JUMP JUMPDEST POP SWAP1 JUMP JUMPDEST PUSH3 0x3EA SWAP2 SWAP1 JUMPDEST DUP1 DUP3 GT ISZERO PUSH3 0x3E6 JUMPI PUSH1 0x0 DUP2 PUSH1 0x0 SWAP1 SSTORE POP PUSH1 0x1 ADD PUSH3 0x3CC JUMP JUMPDEST POP SWAP1 JUMP JUMPDEST SWAP1 JUMP JUMPDEST PUSH2 0x23AC DUP1 PUSH3 0x3FD PUSH1 0x0 CODECOPY PUSH1 0x0 RETURN INVALID PUSH1 0x80 PUSH1 0x40 MSTORE PUSH1 0x4 CALLDATASIZE LT PUSH2 0x12A JUMPI PUSH1 0x0 CALLDATALOAD PUSH1 0xE0 SHR DUP1 PUSH4 0x5C975ABB GT PUSH2 0xAB JUMPI DUP1 PUSH4 0x8456CB59 GT PUSH2 0x6F JUMPI DUP1 PUSH4 0x8456CB59 EQ PUSH2 0x5B5 JUMPI DUP1 PUSH4 0x95D89B41 EQ PUSH2 0x5CC JUMPI DUP1 PUSH4 0xA457C2D7 EQ PUSH2 0x65C JUMPI DUP1 PUSH4 0xA9059CBB EQ PUSH2 0x6CF JUMPI DUP1 PUSH4 0xD0E30DB0 EQ PUSH2 0x742 JUMPI DUP1 PUSH4 0xDD62ED3E EQ PUSH2 0x760 JUMPI PUSH2 0x12A JUMP JUMPDEST DUP1 PUSH4 0x5C975ABB EQ PUSH2 0x48E JUMPI DUP1 PUSH4 0x6D7497B3 EQ PUSH2 0x4BD JUMPI DUP1 PUSH4 0x6EF8D66D EQ PUSH2 0x4E8 JUMPI DUP1 PUSH4 0x70A08231 EQ PUSH2 0x4FF JUMPI DUP1 PUSH4 0x82DC1EC4 EQ PUSH2 0x564 JUMPI PUSH2 0x12A JUMP JUMPDEST DUP1 PUSH4 0x313CE567 GT PUSH2 0xF2 JUMPI DUP1 PUSH4 0x313CE567 EQ PUSH2 0x33F JUMPI DUP1 PUSH4 0x35052D6E EQ PUSH2 0x370 JUMPI DUP1 PUSH4 0x39509351 EQ PUSH2 0x39B JUMPI DUP1 PUSH4 0x3F4BA83A EQ PUSH2 0x40E JUMPI DUP1 PUSH4 0x46FBF68E EQ PUSH2 0x425 JUMPI PUSH2 0x12A JUMP JUMPDEST DUP1 PUSH4 0x6FDDE03 EQ PUSH2 0x12F JUMPI DUP1 PUSH4 0x95EA7B3 EQ PUSH2 0x1BF JUMPI DUP1 PUSH4 0x18160DDD EQ PUSH2 0x232 JUMPI DUP1 PUSH4 0x23B872DD EQ PUSH2 0x25D JUMPI DUP1 PUSH4 0x2E1A7D4D EQ PUSH2 0x2F0 JUMPI JUMPDEST PUSH1 0x0 DUP1 REVERT JUMPDEST CALLVALUE DUP1 ISZERO PUSH2 0x13B JUMPI PUSH1 0x0 DUP1 REVERT JUMPDEST POP PUSH2 0x144 PUSH2 0x7E5 JUMP JUMPDEST PUSH1 0x40 MLOAD DUP1 DUP1 PUSH1 0x20 ADD DUP3 DUP2 SUB DUP3 MSTORE DUP4 DUP2 DUP2 MLOAD DUP2 MSTORE PUSH1 0x20 ADD SWAP2 POP DUP1 MLOAD SWAP1 PUSH1 0x20 ADD SWAP1 DUP1 DUP4 DUP4 PUSH1 0x0 JUMPDEST DUP4 DUP2 LT ISZERO PUSH2 0x184 JUMPI DUP1 DUP3 ADD MLOAD DUP2 DUP5 ADD MSTORE PUSH1 0x20 DUP2 ADD SWAP1 POP PUSH2 0x169 JUMP JUMPDEST POP POP POP POP SWAP1 POP SWAP1 DUP2 ADD SWAP1 PUSH1 0x1F AND DUP1 ISZERO PUSH2 0x1B1 JUMPI DUP1 DUP3 SUB DUP1 MLOAD PUSH1 0x1 DUP4 PUSH1 0x20 SUB PUSH2 0x100 EXP SUB NOT AND DUP2 MSTORE PUSH1 0x20 ADD SWAP2 POP JUMPDEST POP SWAP3 POP POP POP PUSH1 0x40 MLOAD DUP1 SWAP2 SUB SWAP1 RETURN JUMPDEST CALLVALUE DUP1 ISZERO PUSH2 0x1CB JUMPI PUSH1 0x0 DUP1 REVERT JUMPDEST POP PUSH2 0x218 PUSH1 0x4 DUP1 CALLDATASIZE SUB PUSH1 0x40 DUP2 LT ISZERO PUSH2 0x1E2 JUMPI PUSH1 0x0 DUP1 REVERT JUMPDEST DUP2 ADD SWAP1 DUP1 DUP1 CALLDATALOAD PUSH20 0xFFFFFFFFFFFFFFFFFFFFFFFFFFFFFFFFFFFFFFFF AND SWAP1 PUSH1 0x20 ADD SWAP1 SWAP3 SWAP2 SWAP1 DUP1 CALLDATALOAD SWAP1 PUSH1 0x20 ADD SWAP1 SWAP3 SWAP2 SWAP1 POP POP POP PUSH2 0x887 JUMP JUMPDEST PUSH1 0x40 MLOAD DUP1 DUP3 ISZERO ISZERO ISZERO ISZERO DUP2 MSTORE PUSH1 0x20 ADD SWAP2 POP POP PUSH1 0x40 MLOAD DUP1 SWAP2 SUB SWAP1 RETURN JUMPDEST CALLVALUE DUP1 ISZERO PUSH2 0x23E JUMPI PUSH1 0x0 DUP1 REVERT JUMPDEST POP PUSH2 0x247 PUSH2 0x91E JUMP JUMPDEST PUSH1 0x40 MLOAD DUP1 DUP3 DUP2 MSTORE PUSH1 0x20 ADD SWAP2 POP POP PUSH1 0x40 MLOAD DUP1 SWAP2 SUB SWAP1 RETURN JUMPDEST CALLVALUE DUP1 ISZERO PUSH2 0x269 JUMPI PUSH1 0x0 DUP1 REVERT JUMPDEST POP PUSH2 0x2D6 PUSH1 0x4 DUP1 CALLDATASIZE SUB PUSH1 0x60 DUP2 LT ISZERO PUSH2 0x280 JUMPI PUSH1 0x0 DUP1 REVERT JUMPDEST DUP2 ADD SWAP1 DUP1 DUP1 CALLDATALOAD PUSH20 0xFFFFFFFFFFFFFFFFFFFFFFFFFFFFFFFFFFFFFFFF AND SWAP1 PUSH1 0x20 ADD SWAP1 SWAP3 SWAP2 SWAP1 DUP1 CALLDATALOAD PUSH20 0xFFFFFFFFFFFFFFFFFFFFFFFFFFFFFFFFFFFFFFFF AND SWAP1 PUSH1 0x20 ADD SWAP1 SWAP3 SWAP2 SWAP1 DUP1 CALLDATALOAD SWAP1 PUSH1 0x20 ADD SWAP1 SWAP3 SWAP2 SWAP1 POP POP POP PUSH2 0x928 JUMP JUMPDEST PUSH1 0x40 MLOAD DUP1 DUP3 ISZERO ISZERO ISZERO ISZERO DUP2 MSTORE PUSH1 0x20 ADD SWAP2 POP POP PUSH1 0x40 MLOAD DUP1 SWAP2 SUB SWAP1 RETURN JUMPDEST CALLVALUE DUP1 ISZERO PUSH2 0x2FC JUMPI PUSH1 0x0 DUP1 REVERT JUMPDEST POP PUSH2 0x329 PUSH1 0x4 DUP1 CALLDATASIZE SUB PUSH1 0x20 DUP2 LT ISZERO PUSH2 0x313 JUMPI PUSH1 0x0 DUP1 REVERT JUMPDEST DUP2 ADD SWAP1 DUP1 DUP1 CALLDATALOAD SWAP1 PUSH1 0x20 ADD SWAP1 SWAP3 SWAP2 SWAP1 POP POP POP PUSH2 0x9C1 JUMP JUMPDEST PUSH1 0x40 MLOAD DUP1 DUP3 DUP2 MSTORE PUSH1 0x20 ADD SWAP2 POP POP PUSH1 0x40 MLOAD DUP1 SWAP2 SUB SWAP1 RETURN JUMPDEST CALLVALUE DUP1 ISZERO PUSH2 0x34B JUMPI PUSH1 0x0 DUP1 REVERT JUMPDEST POP PUSH2 0x354 PUSH2 0xAB3 JUMP JUMPDEST PUSH1 0x40 MLOAD DUP1 DUP3 PUSH1 0xFF AND PUSH1 0xFF AND DUP2 MSTORE PUSH1 0x20 ADD SWAP2 POP POP PUSH1 0x40 MLOAD DUP1 SWAP2 SUB SWAP1 RETURN JUMPDEST CALLVALUE DUP1 ISZERO PUSH2 0x37C JUMPI PUSH1 0x0 DUP1 REVERT JUMPDEST POP PUSH2 0x385 PUSH2 0xACA JUMP JUMPDEST PUSH1 0x40 MLOAD DUP1 DUP3 DUP2 MSTORE PUSH1 0x20 ADD SWAP2 POP POP PUSH1 0x40 MLOAD DUP1 SWAP2 SUB SWAP1 RETURN JUMPDEST CALLVALUE DUP1 ISZERO PUSH2 0x3A7 JUMPI PUSH1 0x0 DUP1 REVERT JUMPDEST POP PUSH2 0x3F4 PUSH1 0x4 DUP1 CALLDATASIZE SUB PUSH1 0x40 DUP2 LT ISZERO PUSH2 0x3BE JUMPI PUSH1 0x0 DUP1 REVERT JUMPDEST DUP2 ADD SWAP1 DUP1 DUP1 CALLDATALOAD PUSH20 0xFFFFFFFFFFFFFFFFFFFFFFFFFFFFFFFFFFFFFFFF AND SWAP1 PUSH1 0x20 ADD SWAP1 SWAP3 SWAP2 SWAP1 DUP1 CALLDATALOAD SWAP1 PUSH1 0x20 ADD SWAP1 SWAP3 SWAP2 SWAP1 POP POP POP PUSH2 0xACF JUMP JUMPDEST PUSH1 0x40 MLOAD DUP1 DUP3 ISZERO ISZERO ISZERO ISZERO DUP2 MSTORE PUSH1 0x20 ADD SWAP2 POP POP PUSH1 0x40 MLOAD DUP1 SWAP2 SUB SWAP1 RETURN JUMPDEST CALLVALUE DUP1 ISZERO PUSH2 0x41A JUMPI PUSH1 0x0 DUP1 REVERT JUMPDEST POP PUSH2 0x423 PUSH2 0xB66 JUMP JUMPDEST STOP JUMPDEST CALLVALUE DUP1 ISZERO PUSH2 0x431 JUMPI PUSH1 0x0 DUP1 REVERT JUMPDEST POP PUSH2 0x474 PUSH1 0x4 DUP1 CALLDATASIZE SUB PUSH1 0x20 DUP2 LT ISZERO PUSH2 0x448 JUMPI PUSH1 0x0 DUP1 REVERT JUMPDEST DUP2 ADD SWAP1 DUP1 DUP1 CALLDATALOAD PUSH20 0xFFFFFFFFFFFFFFFFFFFFFFFFFFFFFFFFFFFFFFFF AND SWAP1 PUSH1 0x20 ADD SWAP1 SWAP3 SWAP2 SWAP1 POP POP POP PUSH2 0xCD4 JUMP JUMPDEST PUSH1 0x40 MLOAD DUP1 DUP3 ISZERO ISZERO ISZERO ISZERO DUP2 MSTORE PUSH1 0x20 ADD SWAP2 POP POP PUSH1 0x40 MLOAD DUP1 SWAP2 SUB SWAP1 RETURN JUMPDEST CALLVALUE DUP1 ISZERO PUSH2 0x49A JUMPI PUSH1 0x0 DUP1 REVERT JUMPDEST POP PUSH2 0x4A3 PUSH2 0xCF1 JUMP JUMPDEST PUSH1 0x40 MLOAD DUP1 DUP3 ISZERO ISZERO ISZERO ISZERO DUP2 MSTORE PUSH1 0x20 ADD SWAP2 POP POP PUSH1 0x40 MLOAD DUP1 SWAP2 SUB SWAP1 RETURN JUMPDEST CALLVALUE DUP1 ISZERO PUSH2 0x4C9 JUMPI PUSH1 0x0 DUP1 REVERT JUMPDEST POP PUSH2 0x4D2 PUSH2 0xD08 JUMP JUMPDEST PUSH1 0x40 MLOAD DUP1 DUP3 DUP2 MSTORE PUSH1 0x20 ADD SWAP2 POP POP PUSH1 0x40 MLOAD DUP1 SWAP2 SUB SWAP1 RETURN JUMPDEST CALLVALUE DUP1 ISZERO PUSH2 0x4F4 JUMPI PUSH1 0x0 DUP1 REVERT JUMPDEST POP PUSH2 0x4FD PUSH2 0xD0D JUMP JUMPDEST STOP JUMPDEST CALLVALUE DUP1 ISZERO PUSH2 0x50B JUMPI PUSH1 0x0 DUP1 REVERT JUMPDEST POP PUSH2 0x54E PUSH1 0x4 DUP1 CALLDATASIZE SUB PUSH1 0x20 DUP2 LT ISZERO PUSH2 0x522 JUMPI PUSH1 0x0 DUP1 REVERT JUMPDEST DUP2 ADD SWAP1 DUP1 DUP1 CALLDATALOAD PUSH20 0xFFFFFFFFFFFFFFFFFFFFFFFFFFFFFFFFFFFFFFFF AND SWAP1 PUSH1 0x20 ADD SWAP1 SWAP3 SWAP2 SWAP1 POP POP POP PUSH2 0xD1F JUMP JUMPDEST PUSH1 0x40 MLOAD DUP1 DUP3 DUP2 MSTORE PUSH1 0x20 ADD SWAP2 POP POP PUSH1 0x40 MLOAD DUP1 SWAP2 SUB SWAP1 RETURN JUMPDEST CALLVALUE DUP1 ISZERO PUSH2 0x570 JUMPI PUSH1 0x0 DUP1 REVERT JUMPDEST POP PUSH2 0x5B3 PUSH1 0x4 DUP1 CALLDATASIZE SUB PUSH1 0x20 DUP2 LT ISZERO PUSH2 0x587 JUMPI PUSH1 0x0 DUP1 REVERT JUMPDEST DUP2 ADD SWAP1 DUP1 DUP1 CALLDATALOAD PUSH20 0xFFFFFFFFFFFFFFFFFFFFFFFFFFFFFFFFFFFFFFFF AND SWAP1 PUSH1 0x20 ADD SWAP1 SWAP3 SWAP2 SWAP1 POP POP POP PUSH2 0xD67 JUMP JUMPDEST STOP JUMPDEST CALLVALUE DUP1 ISZERO PUSH2 0x5C1 JUMPI PUSH1 0x0 DUP1 REVERT JUMPDEST POP PUSH2 0x5CA PUSH2 0xDD8 JUMP JUMPDEST STOP JUMPDEST CALLVALUE DUP1 ISZERO PUSH2 0x5D8 JUMPI PUSH1 0x0 DUP1 REVERT JUMPDEST POP PUSH2 0x5E1 PUSH2 0xF47 JUMP JUMPDEST PUSH1 0x40 MLOAD DUP1 DUP1 PUSH1 0x20 ADD DUP3 DUP2 SUB DUP3 MSTORE DUP4 DUP2 DUP2 MLOAD DUP2 MSTORE PUSH1 0x20 ADD SWAP2 POP DUP1 MLOAD SWAP1 PUSH1 0x20 ADD SWAP1 DUP1 DUP4 DUP4 PUSH1 0x0 JUMPDEST DUP4 DUP2 LT ISZERO PUSH2 0x621 JUMPI DUP1 DUP3 ADD MLOAD DUP2 DUP5 ADD MSTORE PUSH1 0x20 DUP2 ADD SWAP1 POP PUSH2 0x606 JUMP JUMPDEST POP POP POP POP SWAP1 POP SWAP1 DUP2 ADD SWAP1 PUSH1 0x1F AND DUP1 ISZERO PUSH2 0x64E JUMPI DUP1 DUP3 SUB DUP1 MLOAD PUSH1 0x1 DUP4 PUSH1 0x20 SUB PUSH2 0x100 EXP SUB NOT AND DUP2 MSTORE PUSH1 0x20 ADD SWAP2 POP JUMPDEST POP SWAP3 POP POP POP PUSH1 0x40 MLOAD DUP1 SWAP2 SUB SWAP1 RETURN JUMPDEST CALLVALUE DUP1 ISZERO PUSH2 0x668 JUMPI PUSH1 0x0 DUP1 REVERT JUMPDEST POP PUSH2 0x6B5 PUSH1 0x4 DUP1 CALLDATASIZE SUB PUSH1 0x40 DUP2 LT ISZERO PUSH2 0x67F JUMPI PUSH1 0x0 DUP1 REVERT JUMPDEST DUP2 ADD SWAP1 DUP1 DUP1 CALLDATALOAD PUSH20 0xFFFFFFFFFFFFFFFFFFFFFFFFFFFFFFFFFFFFFFFF AND SWAP1 PUSH1 0x20 ADD SWAP1 SWAP3 SWAP2 SWAP1 DUP1 CALLDATALOAD SWAP1 PUSH1 0x20 ADD SWAP1 SWAP3 SWAP2 SWAP1 POP POP POP PUSH2 0xFE9 JUMP JUMPDEST PUSH1 0x40 MLOAD DUP1 DUP3 ISZERO ISZERO ISZERO ISZERO DUP2 MSTORE PUSH1 0x20 ADD SWAP2 POP POP PUSH1 0x40 MLOAD DUP1 SWAP2 SUB SWAP1 RETURN JUMPDEST CALLVALUE DUP1 ISZERO PUSH2 0x6DB JUMPI PUSH1 0x0 DUP1 REVERT JUMPDEST POP PUSH2 0x728 PUSH1 0x4 DUP1 CALLDATASIZE SUB PUSH1 0x40 DUP2 LT ISZERO PUSH2 0x6F2 JUMPI PUSH1 0x0 DUP1 REVERT JUMPDEST DUP2 ADD SWAP1 DUP1 DUP1 CALLDATALOAD PUSH20 0xFFFFFFFFFFFFFFFFFFFFFFFFFFFFFFFFFFFFFFFF AND SWAP1 PUSH1 0x20 ADD SWAP1 SWAP3 SWAP2 SWAP1 DUP1 CALLDATALOAD SWAP1 PUSH1 0x20 ADD SWAP1 SWAP3 SWAP2 SWAP1 POP POP POP PUSH2 0x1080 JUMP JUMPDEST PUSH1 0x40 MLOAD DUP1 DUP3 ISZERO ISZERO ISZERO ISZERO DUP2 MSTORE PUSH1 0x20 ADD SWAP2 POP POP PUSH1 0x40 MLOAD DUP1 SWAP2 SUB SWAP1 RETURN JUMPDEST PUSH2 0x74A PUSH2 0x1117 JUMP JUMPDEST PUSH1 0x40 MLOAD DUP1 DUP3 DUP2 MSTORE PUSH1 0x20 ADD SWAP2 POP POP PUSH1 0x40 MLOAD DUP1 SWAP2 SUB SWAP1 RETURN JUMPDEST CALLVALUE DUP1 ISZERO PUSH2 0x76C JUMPI PUSH1 0x0 DUP1 REVERT JUMPDEST POP PUSH2 0x7CF PUSH1 0x4 DUP1 CALLDATASIZE SUB PUSH1 0x40 DUP2 LT ISZERO PUSH2 0x783 JUMPI PUSH1 0x0 DUP1 REVERT JUMPDEST DUP2 ADD SWAP1 DUP1 DUP1 CALLDATALOAD PUSH20 0xFFFFFFFFFFFFFFFFFFFFFFFFFFFFFFFFFFFFFFFF AND SWAP1 PUSH1 0x20 ADD SWAP1 SWAP3 SWAP2 SWAP1 DUP1 CALLDATALOAD PUSH20 0xFFFFFFFFFFFFFFFFFFFFFFFFFFFFFFFFFFFFFFFF AND SWAP1 PUSH1 0x20 ADD SWAP1 SWAP3 SWAP2 SWAP1 POP POP POP PUSH2 0x11C0 JUMP JUMPDEST PUSH1 0x40 MLOAD DUP1 DUP3 DUP2 MSTORE PUSH1 0x20 ADD SWAP2 POP POP PUSH1 0x40 MLOAD DUP1 SWAP2 SUB SWAP1 RETURN JUMPDEST PUSH1 0x60 PUSH1 0x3 DUP1 SLOAD PUSH1 0x1 DUP2 PUSH1 0x1 AND ISZERO PUSH2 0x100 MUL SUB AND PUSH1 0x2 SWAP1 DIV DUP1 PUSH1 0x1F ADD PUSH1 0x20 DUP1 SWAP2 DIV MUL PUSH1 0x20 ADD PUSH1 0x40 MLOAD SWAP1 DUP2 ADD PUSH1 0x40 MSTORE DUP1 SWAP3 SWAP2 SWAP1 DUP2 DUP2 MSTORE PUSH1 0x20 ADD DUP3 DUP1 SLOAD PUSH1 0x1 DUP2 PUSH1 0x1 AND ISZERO PUSH2 0x100 MUL SUB AND PUSH1 0x2 SWAP1 DIV DUP1 ISZERO PUSH2 0x87D JUMPI DUP1 PUSH1 0x1F LT PUSH2 0x852 JUMPI PUSH2 0x100 DUP1 DUP4 SLOAD DIV MUL DUP4 MSTORE SWAP2 PUSH1 0x20 ADD SWAP2 PUSH2 0x87D JUMP JUMPDEST DUP3 ADD SWAP2 SWAP1 PUSH1 0x0 MSTORE PUSH1 0x20 PUSH1 0x0 KECCAK256 SWAP1 JUMPDEST DUP2 SLOAD DUP2 MSTORE SWAP1 PUSH1 0x1 ADD SWAP1 PUSH1 0x20 ADD DUP1 DUP4 GT PUSH2 0x860 JUMPI DUP3 SWAP1 SUB PUSH1 0x1F AND DUP3 ADD SWAP2 JUMPDEST POP POP POP POP POP SWAP1 POP SWAP1 JUMP JUMPDEST PUSH1 0x0 PUSH1 0x7 PUSH1 0x0 SWAP1 SLOAD SWAP1 PUSH2 0x100 EXP SWAP1 DIV PUSH1 0xFF AND ISZERO PUSH2 0x90C JUMPI PUSH1 0x40 MLOAD PUSH32 0x8C379A000000000000000000000000000000000000000000000000000000000 DUP2 MSTORE PUSH1 0x4 ADD DUP1 DUP1 PUSH1 0x20 ADD DUP3 DUP2 SUB DUP3 MSTORE PUSH1 0x10 DUP2 MSTORE PUSH1 0x20 ADD DUP1 PUSH32 0x5061757361626C653A2050617573656400000000000000000000000000000000 DUP2 MSTORE POP PUSH1 0x20 ADD SWAP2 POP POP PUSH1 0x40 MLOAD DUP1 SWAP2 SUB SWAP1 REVERT JUMPDEST PUSH2 0x916 DUP4 DUP4 PUSH2 0x1247 JUMP JUMPDEST SWAP1 POP SWAP3 SWAP2 POP POP JUMP JUMPDEST PUSH1 0x0 PUSH1 0x2 SLOAD SWAP1 POP SWAP1 JUMP JUMPDEST PUSH1 0x0 PUSH1 0x7 PUSH1 0x0 SWAP1 SLOAD SWAP1 PUSH2 0x100 EXP SWAP1 DIV PUSH1 0xFF AND ISZERO PUSH2 0x9AD JUMPI PUSH1 0x40 MLOAD PUSH32 0x8C379A000000000000000000000000000000000000000000000000000000000 DUP2 MSTORE PUSH1 0x4 ADD DUP1 DUP1 PUSH1 0x20 ADD DUP3 DUP2 SUB DUP3 MSTORE PUSH1 0x10 DUP2 MSTORE PUSH1 0x20 ADD DUP1 PUSH32 0x5061757361626C653A2050617573656400000000000000000000000000000000 DUP2 MSTORE POP PUSH1 0x20 ADD SWAP2 POP POP PUSH1 0x40 MLOAD DUP1 SWAP2 SUB SWAP1 REVERT JUMPDEST PUSH2 0x9B8 DUP5 DUP5 DUP5 PUSH2 0x1265 JUMP JUMPDEST SWAP1 POP SWAP4 SWAP3 POP POP POP JUMP JUMPDEST PUSH1 0x0 PUSH1 0x7 PUSH1 0x0 SWAP1 SLOAD SWAP1 PUSH2 0x100 EXP SWAP1 DIV PUSH1 0xFF AND ISZERO PUSH2 0xA46 JUMPI PUSH1 0x40 MLOAD PUSH32 0x8C379A000000000000000000000000000000000000000000000000000000000 DUP2 MSTORE PUSH1 0x4 ADD DUP1 DUP1 PUSH1 0x20 ADD DUP3 DUP2 SUB DUP3 MSTORE PUSH1 0x10 DUP2 MSTORE PUSH1 0x20 ADD DUP1 PUSH32 0x5061757361626C653A2050617573656400000000000000000000000000000000 DUP2 MSTORE POP PUSH1 0x20 ADD SWAP2 POP POP PUSH1 0x40 MLOAD DUP1 SWAP2 SUB SWAP1 REVERT JUMPDEST PUSH1 0x0 DUP3 EQ ISZERO PUSH2 0xA58 JUMPI PUSH1 0x1 SWAP1 POP PUSH2 0xAAE JUMP JUMPDEST PUSH2 0xA62 CALLER DUP4 PUSH2 0x133E JUMP JUMPDEST CALLER PUSH20 0xFFFFFFFFFFFFFFFFFFFFFFFFFFFFFFFFFFFFFFFF AND PUSH2 0x8FC DUP4 SWAP1 DUP2 ISZERO MUL SWAP1 PUSH1 0x40 MLOAD PUSH1 0x0 PUSH1 0x40 MLOAD DUP1 DUP4 SUB DUP2 DUP6 DUP9 DUP9 CALL SWAP4 POP POP POP POP ISZERO DUP1 ISZERO PUSH2 0xAA8 JUMPI RETURNDATASIZE PUSH1 0x0 DUP1 RETURNDATACOPY RETURNDATASIZE PUSH1 0x0 REVERT JUMPDEST POP PUSH1 0x0 SWAP1 POP JUMPDEST SWAP2 SWAP1 POP JUMP JUMPDEST PUSH1 0x0 PUSH1 0x5 PUSH1 0x0 SWAP1 SLOAD SWAP1 PUSH2 0x100 EXP SWAP1 DIV PUSH1 0xFF AND SWAP1 POP SWAP1 JUMP JUMPDEST PUSH1 0x0 DUP2 JUMP JUMPDEST PUSH1 0x0 PUSH1 0x7 PUSH1 0x0 SWAP1 SLOAD SWAP1 PUSH2 0x100 EXP SWAP1 DIV PUSH1 0xFF AND ISZERO PUSH2 0xB54 JUMPI PUSH1 0x40 MLOAD PUSH32 0x8C379A000000000000000000000000000000000000000000000000000000000 DUP2 MSTORE PUSH1 0x4 ADD DUP1 DUP1 PUSH1 0x20 ADD DUP3 DUP2 SUB DUP3 MSTORE PUSH1 0x10 DUP2 MSTORE PUSH1 0x20 ADD DUP1 PUSH32 0x5061757361626C653A2050617573656400000000000000000000000000000000 DUP2 MSTORE POP PUSH1 0x20 ADD SWAP2 POP POP PUSH1 0x40 MLOAD DUP1 SWAP2 SUB SWAP1 REVERT JUMPDEST PUSH2 0xB5E DUP4 DUP4 PUSH2 0x14F6 JUMP JUMPDEST SWAP1 POP SWAP3 SWAP2 POP POP JUMP JUMPDEST PUSH2 0xB76 PUSH2 0xB71 PUSH2 0x15A9 JUMP JUMPDEST PUSH2 0xCD4 JUMP JUMPDEST PUSH2 0xBCB JUMPI PUSH1 0x40 MLOAD PUSH32 0x8C379A000000000000000000000000000000000000000000000000000000000 DUP2 MSTORE PUSH1 0x4 ADD DUP1 DUP1 PUSH1 0x20 ADD DUP3 DUP2 SUB DUP3 MSTORE PUSH1 0x30 DUP2 MSTORE PUSH1 0x20 ADD DUP1 PUSH2 0x21E3 PUSH1 0x30 SWAP2 CODECOPY PUSH1 0x40 ADD SWAP2 POP POP PUSH1 0x40 MLOAD DUP1 SWAP2 SUB SWAP1 REVERT JUMPDEST PUSH1 0x7 PUSH1 0x0 SWAP1 SLOAD SWAP1 PUSH2 0x100 EXP SWAP1 DIV PUSH1 0xFF AND PUSH2 0xC4D JUMPI PUSH1 0x40 MLOAD PUSH32 0x8C379A000000000000000000000000000000000000000000000000000000000 DUP2 MSTORE PUSH1 0x4 ADD DUP1 DUP1 PUSH1 0x20 ADD DUP3 DUP2 SUB DUP3 MSTORE PUSH1 0x14 DUP2 MSTORE PUSH1 0x20 ADD DUP1 PUSH32 0x5061757361626C653A204E6F7420706175736564000000000000000000000000 DUP2 MSTORE POP PUSH1 0x20 ADD SWAP2 POP POP PUSH1 0x40 MLOAD DUP1 SWAP2 SUB SWAP1 REVERT JUMPDEST PUSH1 0x0 PUSH1 0x7 PUSH1 0x0 PUSH2 0x100 EXP DUP2 SLOAD DUP2 PUSH1 0xFF MUL NOT AND SWAP1 DUP4 ISZERO ISZERO MUL OR SWAP1 SSTORE POP PUSH32 0x5DB9EE0A495BF2E6FF9C91A7834C1BA4FDD244A5E8AA4E537BD38AEAE4B073AA PUSH2 0xC91 PUSH2 0x15A9 JUMP JUMPDEST PUSH1 0x40 MLOAD DUP1 DUP3 PUSH20 0xFFFFFFFFFFFFFFFFFFFFFFFFFFFFFFFFFFFFFFFF AND PUSH20 0xFFFFFFFFFFFFFFFFFFFFFFFFFFFFFFFFFFFFFFFF AND DUP2 MSTORE PUSH1 0x20 ADD SWAP2 POP POP PUSH1 0x40 MLOAD DUP1 SWAP2 SUB SWAP1 LOG1 JUMP JUMPDEST PUSH1 0x0 PUSH2 0xCEA DUP3 PUSH1 0x6 PUSH2 0x15B1 SWAP1 SWAP2 SWAP1 PUSH4 0xFFFFFFFF AND JUMP JUMPDEST SWAP1 POP SWAP2 SWAP1 POP JUMP JUMPDEST PUSH1 0x0 PUSH1 0x7 PUSH1 0x0 SWAP1 SLOAD SWAP1 PUSH2 0x100 EXP SWAP1 DIV PUSH1 0xFF AND SWAP1 POP SWAP1 JUMP JUMPDEST PUSH1 0x1 DUP2 JUMP JUMPDEST PUSH2 0xD1D PUSH2 0xD18 PUSH2 0x15A9 JUMP JUMPDEST PUSH2 0x168F JUMP JUMPDEST JUMP JUMPDEST PUSH1 0x0 DUP1 PUSH1 0x0 DUP4 PUSH20 0xFFFFFFFFFFFFFFFFFFFFFFFFFFFFFFFFFFFFFFFF AND PUSH20 0xFFFFFFFFFFFFFFFFFFFFFFFFFFFFFFFFFFFFFFFF AND DUP2 MSTORE PUSH1 0x20 ADD SWAP1 DUP2 MSTORE PUSH1 0x20 ADD PUSH1 0x0 KECCAK256 SLOAD SWAP1 POP SWAP2 SWAP1 POP JUMP JUMPDEST PUSH2 0xD77 PUSH2 0xD72 PUSH2 0x15A9 JUMP JUMPDEST PUSH2 0xCD4 JUMP JUMPDEST PUSH2 0xDCC JUMPI PUSH1 0x40 MLOAD PUSH32 0x8C379A000000000000000000000000000000000000000000000000000000000 DUP2 MSTORE PUSH1 0x4 ADD DUP1 DUP1 PUSH1 0x20 ADD DUP3 DUP2 SUB DUP3 MSTORE PUSH1 0x30 DUP2 MSTORE PUSH1 0x20 ADD DUP1 PUSH2 0x21E3 PUSH1 0x30 SWAP2 CODECOPY PUSH1 0x40 ADD SWAP2 POP POP PUSH1 0x40 MLOAD DUP1 SWAP2 SUB SWAP1 REVERT JUMPDEST PUSH2 0xDD5 DUP2 PUSH2 0x16E9 JUMP JUMPDEST POP JUMP JUMPDEST PUSH2 0xDE8 PUSH2 0xDE3 PUSH2 0x15A9 JUMP JUMPDEST PUSH2 0xCD4 JUMP JUMPDEST PUSH2 0xE3D JUMPI PUSH1 0x40 MLOAD PUSH32 0x8C379A000000000000000000000000000000000000000000000000000000000 DUP2 MSTORE PUSH1 0x4 ADD DUP1 DUP1 PUSH1 0x20 ADD DUP3 DUP2 SUB DUP3 MSTORE PUSH1 0x30 DUP2 MSTORE PUSH1 0x20 ADD DUP1 PUSH2 0x21E3 PUSH1 0x30 SWAP2 CODECOPY PUSH1 0x40 ADD SWAP2 POP POP PUSH1 0x40 MLOAD DUP1 SWAP2 SUB SWAP1 REVERT JUMPDEST PUSH1 0x7 PUSH1 0x0 SWAP1 SLOAD SWAP1 PUSH2 0x100 EXP SWAP1 DIV PUSH1 0xFF AND ISZERO PUSH2 0xEC0 JUMPI PUSH1 0x40 MLOAD PUSH32 0x8C379A000000000000000000000000000000000000000000000000000000000 DUP2 MSTORE PUSH1 0x4 ADD DUP1 DUP1 PUSH1 0x20 ADD DUP3 DUP2 SUB DUP3 MSTORE PUSH1 0x10 DUP2 MSTORE PUSH1 0x20 ADD DUP1 PUSH32 0x5061757361626C653A2050617573656400000000000000000000000000000000 DUP2 MSTORE POP PUSH1 0x20 ADD SWAP2 POP POP PUSH1 0x40 MLOAD DUP1 SWAP2 SUB SWAP1 REVERT JUMPDEST PUSH1 0x1 PUSH1 0x7 PUSH1 0x0 PUSH2 0x100 EXP DUP2 SLOAD DUP2 PUSH1 0xFF MUL NOT AND SWAP1 DUP4 ISZERO ISZERO MUL OR SWAP1 SSTORE POP PUSH32 0x62E78CEA01BEE320CD4E420270B5EA74000D11B0C9F74754EBDBFC544B05A258 PUSH2 0xF04 PUSH2 0x15A9 JUMP JUMPDEST PUSH1 0x40 MLOAD DUP1 DUP3 PUSH20 0xFFFFFFFFFFFFFFFFFFFFFFFFFFFFFFFFFFFFFFFF AND PUSH20 0xFFFFFFFFFFFFFFFFFFFFFFFFFFFFFFFFFFFFFFFF AND DUP2 MSTORE PUSH1 0x20 ADD SWAP2 POP POP PUSH1 0x40 MLOAD DUP1 SWAP2 SUB SWAP1 LOG1 JUMP JUMPDEST PUSH1 0x60 PUSH1 0x4 DUP1 SLOAD PUSH1 0x1 DUP2 PUSH1 0x1 AND ISZERO PUSH2 0x100 MUL SUB AND PUSH1 0x2 SWAP1 DIV DUP1 PUSH1 0x1F ADD PUSH1 0x20 DUP1 SWAP2 DIV MUL PUSH1 0x20 ADD PUSH1 0x40 MLOAD SWAP1 DUP2 ADD PUSH1 0x40 MSTORE DUP1 SWAP3 SWAP2 SWAP1 DUP2 DUP2 MSTORE PUSH1 0x20 ADD DUP3 DUP1 SLOAD PUSH1 0x1 DUP2 PUSH1 0x1 AND ISZERO PUSH2 0x100 MUL SUB AND PUSH1 0x2 SWAP1 DIV DUP1 ISZERO PUSH2 0xFDF JUMPI DUP1 PUSH1 0x1F LT PUSH2 0xFB4 JUMPI PUSH2 0x100 DUP1 DUP4 SLOAD DIV MUL DUP4 MSTORE SWAP2 PUSH1 0x20 ADD SWAP2 PUSH2 0xFDF JUMP JUMPDEST DUP3 ADD SWAP2 SWAP1 PUSH1 0x0 MSTORE PUSH1 0x20 PUSH1 0x0 KECCAK256 SWAP1 JUMPDEST DUP2 SLOAD DUP2 MSTORE SWAP1 PUSH1 0x1 ADD SWAP1 PUSH1 0x20 ADD DUP1 DUP4 GT PUSH2 0xFC2 JUMPI DUP3 SWAP1 SUB PUSH1 0x1F AND DUP3 ADD SWAP2 JUMPDEST POP POP POP POP POP SWAP1 POP SWAP1 JUMP JUMPDEST PUSH1 0x0 PUSH1 0x7 PUSH1 0x0 SWAP1 SLOAD SWAP1 PUSH2 0x100 EXP SWAP1 DIV PUSH1 0xFF AND ISZERO PUSH2 0x106E JUMPI PUSH1 0x40 MLOAD PUSH32 0x8C379A000000000000000000000000000000000000000000000000000000000 DUP2 MSTORE PUSH1 0x4 ADD DUP1 DUP1 PUSH1 0x20 ADD DUP3 DUP2 SUB DUP3 MSTORE PUSH1 0x10 DUP2 MSTORE PUSH1 0x20 ADD DUP1 PUSH32 0x5061757361626C653A2050617573656400000000000000000000000000000000 DUP2 MSTORE POP PUSH1 0x20 ADD SWAP2 POP POP PUSH1 0x40 MLOAD DUP1 SWAP2 SUB SWAP1 REVERT JUMPDEST PUSH2 0x1078 DUP4 DUP4 PUSH2 0x1743 JUMP JUMPDEST SWAP1 POP SWAP3 SWAP2 POP POP JUMP JUMPDEST PUSH1 0x0 PUSH1 0x7 PUSH1 0x0 SWAP1 SLOAD SWAP1 PUSH2 0x100 EXP SWAP1 DIV PUSH1 0xFF AND ISZERO PUSH2 0x1105 JUMPI PUSH1 0x40 MLOAD PUSH32 0x8C379A000000000000000000000000000000000000000000000000000000000 DUP2 MSTORE PUSH1 0x4 ADD DUP1 DUP1 PUSH1 0x20 ADD DUP3 DUP2 SUB DUP3 MSTORE PUSH1 0x10 DUP2 MSTORE PUSH1 0x20 ADD DUP1 PUSH32 0x5061757361626C653A2050617573656400000000000000000000000000000000 DUP2 MSTORE POP PUSH1 0x20 ADD SWAP2 POP POP PUSH1 0x40 MLOAD DUP1 SWAP2 SUB SWAP1 REVERT JUMPDEST PUSH2 0x110F DUP4 DUP4 PUSH2 0x1810 JUMP JUMPDEST SWAP1 POP SWAP3 SWAP2 POP POP JUMP JUMPDEST PUSH1 0x0 PUSH1 0x7 PUSH1 0x0 SWAP1 SLOAD SWAP1 PUSH2 0x100 EXP SWAP1 DIV PUSH1 0xFF AND ISZERO PUSH2 0x119C JUMPI PUSH1 0x40 MLOAD PUSH32 0x8C379A000000000000000000000000000000000000000000000000000000000 DUP2 MSTORE PUSH1 0x4 ADD DUP1 DUP1 PUSH1 0x20 ADD DUP3 DUP2 SUB DUP3 MSTORE PUSH1 0x10 DUP2 MSTORE PUSH1 0x20 ADD DUP1 PUSH32 0x5061757361626C653A2050617573656400000000000000000000000000000000 DUP2 MSTORE POP PUSH1 0x20 ADD SWAP2 POP POP PUSH1 0x40 MLOAD DUP1 SWAP2 SUB SWAP1 REVERT JUMPDEST PUSH1 0x0 CALLVALUE EQ ISZERO PUSH2 0x11AE JUMPI PUSH1 0x1 SWAP1 POP PUSH2 0x11BD JUMP JUMPDEST PUSH2 0x11B8 CALLER CALLVALUE PUSH2 0x182E JUMP JUMPDEST PUSH1 0x0 SWAP1 POP JUMPDEST SWAP1 JUMP JUMPDEST PUSH1 0x0 PUSH1 0x1 PUSH1 0x0 DUP5 PUSH20 0xFFFFFFFFFFFFFFFFFFFFFFFFFFFFFFFFFFFFFFFF AND PUSH20 0xFFFFFFFFFFFFFFFFFFFFFFFFFFFFFFFFFFFFFFFF AND DUP2 MSTORE PUSH1 0x20 ADD SWAP1 DUP2 MSTORE PUSH1 0x20 ADD PUSH1 0x0 KECCAK256 PUSH1 0x0 DUP4 PUSH20 0xFFFFFFFFFFFFFFFFFFFFFFFFFFFFFFFFFFFFFFFF AND PUSH20 0xFFFFFFFFFFFFFFFFFFFFFFFFFFFFFFFFFFFFFFFF AND DUP2 MSTORE PUSH1 0x20 ADD SWAP1 DUP2 MSTORE PUSH1 0x20 ADD PUSH1 0x0 KECCAK256 SLOAD SWAP1 POP SWAP3 SWAP2 POP POP JUMP JUMPDEST PUSH1 0x0 PUSH2 0x125B PUSH2 0x1254 PUSH2 0x15A9 JUMP JUMPDEST DUP5 DUP5 PUSH2 0x19E9 JUMP JUMPDEST PUSH1 0x1 SWAP1 POP SWAP3 SWAP2 POP POP JUMP JUMPDEST PUSH1 0x0 PUSH2 0x1272 DUP5 DUP5 DUP5 PUSH2 0x1BE0 JUMP JUMPDEST PUSH2 0x1333 DUP5 PUSH2 0x127E PUSH2 0x15A9 JUMP JUMPDEST PUSH2 0x132E DUP6 PUSH1 0x40 MLOAD DUP1 PUSH1 0x60 ADD PUSH1 0x40 MSTORE DUP1 PUSH1 0x28 DUP2 MSTORE PUSH1 0x20 ADD PUSH2 0x225E PUSH1 0x28 SWAP2 CODECOPY PUSH1 0x1 PUSH1 0x0 DUP12 PUSH20 0xFFFFFFFFFFFFFFFFFFFFFFFFFFFFFFFFFFFFFFFF AND PUSH20 0xFFFFFFFFFFFFFFFFFFFFFFFFFFFFFFFFFFFFFFFF AND DUP2 MSTORE PUSH1 0x20 ADD SWAP1 DUP2 MSTORE PUSH1 0x20 ADD PUSH1 0x0 KECCAK256 PUSH1 0x0 PUSH2 0x12E4 PUSH2 0x15A9 JUMP JUMPDEST PUSH20 0xFFFFFFFFFFFFFFFFFFFFFFFFFFFFFFFFFFFFFFFF AND PUSH20 0xFFFFFFFFFFFFFFFFFFFFFFFFFFFFFFFFFFFFFFFF AND DUP2 MSTORE PUSH1 0x20 ADD SWAP1 DUP2 MSTORE PUSH1 0x20 ADD PUSH1 0x0 KECCAK256 SLOAD PUSH2 0x1E96 SWAP1 SWAP3 SWAP2 SWAP1 PUSH4 0xFFFFFFFF AND JUMP JUMPDEST PUSH2 0x19E9 JUMP JUMPDEST PUSH1 0x1 SWAP1 POP SWAP4 SWAP3 POP POP POP JUMP JUMPDEST PUSH1 0x0 PUSH20 0xFFFFFFFFFFFFFFFFFFFFFFFFFFFFFFFFFFFFFFFF AND DUP3 PUSH20 0xFFFFFFFFFFFFFFFFFFFFFFFFFFFFFFFFFFFFFFFF AND EQ ISZERO PUSH2 0x13C4 JUMPI PUSH1 0x40 MLOAD PUSH32 0x8C379A000000000000000000000000000000000000000000000000000000000 DUP2 MSTORE PUSH1 0x4 ADD DUP1 DUP1 PUSH1 0x20 ADD DUP3 DUP2 SUB DUP3 MSTORE PUSH1 0x21 DUP2 MSTORE PUSH1 0x20 ADD DUP1 PUSH2 0x22C9 PUSH1 0x21 SWAP2 CODECOPY PUSH1 0x40 ADD SWAP2 POP POP PUSH1 0x40 MLOAD DUP1 SWAP2 SUB SWAP1 REVERT JUMPDEST PUSH2 0x142F DUP2 PUSH1 0x40 MLOAD DUP1 PUSH1 0x60 ADD PUSH1 0x40 MSTORE DUP1 PUSH1 0x22 DUP2 MSTORE PUSH1 0x20 ADD PUSH2 0x21C1 PUSH1 0x22 SWAP2 CODECOPY PUSH1 0x0 DUP1 DUP7 PUSH20 0xFFFFFFFFFFFFFFFFFFFFFFFFFFFFFFFFFFFFFFFF AND PUSH20 0xFFFFFFFFFFFFFFFFFFFFFFFFFFFFFFFFFFFFFFFF AND DUP2 MSTORE PUSH1 0x20 ADD SWAP1 DUP2 MSTORE PUSH1 0x20 ADD PUSH1 0x0 KECCAK256 SLOAD PUSH2 0x1E96 SWAP1 SWAP3 SWAP2 SWAP1 PUSH4 0xFFFFFFFF AND JUMP JUMPDEST PUSH1 0x0 DUP1 DUP5 PUSH20 0xFFFFFFFFFFFFFFFFFFFFFFFFFFFFFFFFFFFFFFFF AND PUSH20 0xFFFFFFFFFFFFFFFFFFFFFFFFFFFFFFFFFFFFFFFF AND DUP2 MSTORE PUSH1 0x20 ADD SWAP1 DUP2 MSTORE PUSH1 0x20 ADD PUSH1 0x0 KECCAK256 DUP2 SWAP1 SSTORE POP PUSH2 0x1486 DUP2 PUSH1 0x2 SLOAD PUSH2 0x1F56 SWAP1 SWAP2 SWAP1 PUSH4 0xFFFFFFFF AND JUMP JUMPDEST PUSH1 0x2 DUP2 SWAP1 SSTORE POP PUSH1 0x0 PUSH20 0xFFFFFFFFFFFFFFFFFFFFFFFFFFFFFFFFFFFFFFFF AND DUP3 PUSH20 0xFFFFFFFFFFFFFFFFFFFFFFFFFFFFFFFFFFFFFFFF AND PUSH32 0xDDF252AD1BE2C89B69C2B068FC378DAA952BA7F163C4A11628F55A4DF523B3EF DUP4 PUSH1 0x40 MLOAD DUP1 DUP3 DUP2 MSTORE PUSH1 0x20 ADD SWAP2 POP POP PUSH1 0x40 MLOAD DUP1 SWAP2 SUB SWAP1 LOG3 POP POP JUMP JUMPDEST PUSH1 0x0 PUSH2 0x159F PUSH2 0x1503 PUSH2 0x15A9 JUMP JUMPDEST DUP5 PUSH2 0x159A DUP6 PUSH1 0x1 PUSH1 0x0 PUSH2 0x1514 PUSH2 0x15A9 JUMP JUMPDEST PUSH20 0xFFFFFFFFFFFFFFFFFFFFFFFFFFFFFFFFFFFFFFFF AND PUSH20 0xFFFFFFFFFFFFFFFFFFFFFFFFFFFFFFFFFFFFFFFF AND DUP2 MSTORE PUSH1 0x20 ADD SWAP1 DUP2 MSTORE PUSH1 0x20 ADD PUSH1 0x0 KECCAK256 PUSH1 0x0 DUP10 PUSH20 0xFFFFFFFFFFFFFFFFFFFFFFFFFFFFFFFFFFFFFFFF AND PUSH20 0xFFFFFFFFFFFFFFFFFFFFFFFFFFFFFFFFFFFFFFFF AND DUP2 MSTORE PUSH1 0x20 ADD SWAP1 DUP2 MSTORE PUSH1 0x20 ADD PUSH1 0x0 KECCAK256 SLOAD PUSH2 0x1FA0 SWAP1 SWAP2 SWAP1 PUSH4 0xFFFFFFFF AND JUMP JUMPDEST PUSH2 0x19E9 JUMP JUMPDEST PUSH1 0x1 SWAP1 POP SWAP3 SWAP2 POP POP JUMP JUMPDEST PUSH1 0x0 CALLER SWAP1 POP SWAP1 JUMP JUMPDEST PUSH1 0x0 DUP1 PUSH20 0xFFFFFFFFFFFFFFFFFFFFFFFFFFFFFFFFFFFFFFFF AND DUP3 PUSH20 0xFFFFFFFFFFFFFFFFFFFFFFFFFFFFFFFFFFFFFFFF AND EQ ISZERO PUSH2 0x1638 JUMPI PUSH1 0x40 MLOAD PUSH32 0x8C379A000000000000000000000000000000000000000000000000000000000 DUP2 MSTORE PUSH1 0x4 ADD DUP1 DUP1 PUSH1 0x20 ADD DUP3 DUP2 SUB DUP3 MSTORE PUSH1 0x22 DUP2 MSTORE PUSH1 0x20 ADD DUP1 PUSH2 0x230D PUSH1 0x22 SWAP2 CODECOPY PUSH1 0x40 ADD SWAP2 POP POP PUSH1 0x40 MLOAD DUP1 SWAP2 SUB SWAP1 REVERT JUMPDEST DUP3 PUSH1 0x0 ADD PUSH1 0x0 DUP4 PUSH20 0xFFFFFFFFFFFFFFFFFFFFFFFFFFFFFFFFFFFFFFFF AND PUSH20 0xFFFFFFFFFFFFFFFFFFFFFFFFFFFFFFFFFFFFFFFF AND DUP2 MSTORE PUSH1 0x20 ADD SWAP1 DUP2 MSTORE PUSH1 0x20 ADD PUSH1 0x0 KECCAK256 PUSH1 0x0 SWAP1 SLOAD SWAP1 PUSH2 0x100 EXP SWAP1 DIV PUSH1 0xFF AND SWAP1 POP SWAP3 SWAP2 POP POP JUMP JUMPDEST PUSH2 0x16A3 DUP2 PUSH1 0x6 PUSH2 0x2028 SWAP1 SWAP2 SWAP1 PUSH4 0xFFFFFFFF AND JUMP JUMPDEST DUP1 PUSH20 0xFFFFFFFFFFFFFFFFFFFFFFFFFFFFFFFFFFFFFFFF AND PUSH32 0xCD265EBAF09DF2871CC7BD4133404A235BA12EFF2041BB89D9C714A2621C7C7E PUSH1 0x40 MLOAD PUSH1 0x40 MLOAD DUP1 SWAP2 SUB SWAP1 LOG2 POP JUMP JUMPDEST PUSH2 0x16FD DUP2 PUSH1 0x6 PUSH2 0x20E5 SWAP1 SWAP2 SWAP1 PUSH4 0xFFFFFFFF AND JUMP JUMPDEST DUP1 PUSH20 0xFFFFFFFFFFFFFFFFFFFFFFFFFFFFFFFFFFFFFFFF AND PUSH32 0x6719D08C1888103BEA251A4ED56406BD0C3E69723C8A1686E017E7BBE159B6F8 PUSH1 0x40 MLOAD PUSH1 0x40 MLOAD DUP1 SWAP2 SUB SWAP1 LOG2 POP JUMP JUMPDEST PUSH1 0x0 PUSH2 0x1806 PUSH2 0x1750 PUSH2 0x15A9 JUMP JUMPDEST DUP5 PUSH2 0x1801 DUP6 PUSH1 0x40 MLOAD DUP1 PUSH1 0x60 ADD PUSH1 0x40 MSTORE DUP1 PUSH1 0x25 DUP2 MSTORE PUSH1 0x20 ADD PUSH2 0x2213 PUSH1 0x25 SWAP2 CODECOPY PUSH1 0x1 PUSH1 0x0 PUSH2 0x177A PUSH2 0x15A9 JUMP JUMPDEST PUSH20 0xFFFFFFFFFFFFFFFFFFFFFFFFFFFFFFFFFFFFFFFF AND PUSH20 0xFFFFFFFFFFFFFFFFFFFFFFFFFFFFFFFFFFFFFFFF AND DUP2 MSTORE PUSH1 0x20 ADD SWAP1 DUP2 MSTORE PUSH1 0x20 ADD PUSH1 0x0 KECCAK256 PUSH1 0x0 DUP11 PUSH20 0xFFFFFFFFFFFFFFFFFFFFFFFFFFFFFFFFFFFFFFFF AND PUSH20 0xFFFFFFFFFFFFFFFFFFFFFFFFFFFFFFFFFFFFFFFF AND DUP2 MSTORE PUSH1 0x20 ADD SWAP1 DUP2 MSTORE PUSH1 0x20 ADD PUSH1 0x0 KECCAK256 SLOAD PUSH2 0x1E96 SWAP1 SWAP3 SWAP2 SWAP1 PUSH4 0xFFFFFFFF AND JUMP JUMPDEST PUSH2 0x19E9 JUMP JUMPDEST PUSH1 0x1 SWAP1 POP SWAP3 SWAP2 POP POP JUMP JUMPDEST PUSH1 0x0 PUSH2 0x1824 PUSH2 0x181D PUSH2 0x15A9 JUMP JUMPDEST DUP5 DUP5 PUSH2 0x1BE0 JUMP JUMPDEST PUSH1 0x1 SWAP1 POP SWAP3 SWAP2 POP POP JUMP JUMPDEST PUSH1 0x0 PUSH20 0xFFFFFFFFFFFFFFFFFFFFFFFFFFFFFFFFFFFFFFFF AND DUP3 PUSH20 0xFFFFFFFFFFFFFFFFFFFFFFFFFFFFFFFFFFFFFFFF AND EQ ISZERO PUSH2 0x18D1 JUMPI PUSH1 0x40 MLOAD PUSH32 0x8C379A000000000000000000000000000000000000000000000000000000000 DUP2 MSTORE PUSH1 0x4 ADD DUP1 DUP1 PUSH1 0x20 ADD DUP3 DUP2 SUB DUP3 MSTORE PUSH1 0x1F DUP2 MSTORE PUSH1 0x20 ADD DUP1 PUSH32 0x42545332303A204D696E7420746F20746865207A65726F206164647265737300 DUP2 MSTORE POP PUSH1 0x20 ADD SWAP2 POP POP PUSH1 0x40 MLOAD DUP1 SWAP2 SUB SWAP1 REVERT JUMPDEST PUSH2 0x18E6 DUP2 PUSH1 0x2 SLOAD PUSH2 0x1FA0 SWAP1 SWAP2 SWAP1 PUSH4 0xFFFFFFFF AND JUMP JUMPDEST PUSH1 0x2 DUP2 SWAP1 SSTORE POP PUSH2 0x193D DUP2 PUSH1 0x0 DUP1 DUP6 PUSH20 0xFFFFFFFFFFFFFFFFFFFFFFFFFFFFFFFFFFFFFFFF AND PUSH20 0xFFFFFFFFFFFFFFFFFFFFFFFFFFFFFFFFFFFFFFFF AND DUP2 MSTORE PUSH1 0x20 ADD SWAP1 DUP2 MSTORE PUSH1 0x20 ADD PUSH1 0x0 KECCAK256 SLOAD PUSH2 0x1FA0 SWAP1 SWAP2 SWAP1 PUSH4 0xFFFFFFFF AND JUMP JUMPDEST PUSH1 0x0 DUP1 DUP5 PUSH20 0xFFFFFFFFFFFFFFFFFFFFFFFFFFFFFFFFFFFFFFFF AND PUSH20 0xFFFFFFFFFFFFFFFFFFFFFFFFFFFFFFFFFFFFFFFF AND DUP2 MSTORE PUSH1 0x20 ADD SWAP1 DUP2 MSTORE PUSH1 0x20 ADD PUSH1 0x0 KECCAK256 DUP2 SWAP1 SSTORE POP DUP2 PUSH20 0xFFFFFFFFFFFFFFFFFFFFFFFFFFFFFFFFFFFFFFFF AND PUSH1 0x0 PUSH20 0xFFFFFFFFFFFFFFFFFFFFFFFFFFFFFFFFFFFFFFFF AND PUSH32 0xDDF252AD1BE2C89B69C2B068FC378DAA952BA7F163C4A11628F55A4DF523B3EF DUP4 PUSH1 0x40 MLOAD DUP1 DUP3 DUP2 MSTORE PUSH1 0x20 ADD SWAP2 POP POP PUSH1 0x40 MLOAD DUP1 SWAP2 SUB SWAP1 LOG3 POP POP JUMP JUMPDEST PUSH1 0x0 PUSH20 0xFFFFFFFFFFFFFFFFFFFFFFFFFFFFFFFFFFFFFFFF AND DUP4 PUSH20 0xFFFFFFFFFFFFFFFFFFFFFFFFFFFFFFFFFFFFFFFF AND EQ ISZERO PUSH2 0x1A6F JUMPI PUSH1 0x40 MLOAD PUSH32 0x8C379A000000000000000000000000000000000000000000000000000000000 DUP2 MSTORE PUSH1 0x4 ADD DUP1 DUP1 PUSH1 0x20 ADD DUP3 DUP2 SUB DUP3 MSTORE PUSH1 0x24 DUP2 MSTORE PUSH1 0x20 ADD DUP1 PUSH2 0x232F PUSH1 0x24 SWAP2 CODECOPY PUSH1 0x40 ADD SWAP2 POP POP PUSH1 0x40 MLOAD DUP1 SWAP2 SUB SWAP1 REVERT JUMPDEST PUSH1 0x0 PUSH20 0xFFFFFFFFFFFFFFFFFFFFFFFFFFFFFFFFFFFFFFFF AND DUP3 PUSH20 0xFFFFFFFFFFFFFFFFFFFFFFFFFFFFFFFFFFFFFFFF AND EQ ISZERO PUSH2 0x1AF5 JUMPI PUSH1 0x40 MLOAD PUSH32 0x8C379A000000000000000000000000000000000000000000000000000000000 DUP2 MSTORE PUSH1 0x4 ADD DUP1 DUP1 PUSH1 0x20 ADD DUP3 DUP2 SUB DUP3 MSTORE PUSH1 0x22 DUP2 MSTORE PUSH1 0x20 ADD DUP1 PUSH2 0x2286 PUSH1 0x22 SWAP2 CODECOPY PUSH1 0x40 ADD SWAP2 POP POP PUSH1 0x40 MLOAD DUP1 SWAP2 SUB SWAP1 REVERT JUMPDEST DUP1 PUSH1 0x1 PUSH1 0x0 DUP6 PUSH20 0xFFFFFFFFFFFFFFFFFFFFFFFFFFFFFFFFFFFFFFFF AND PUSH20 0xFFFFFFFFFFFFFFFFFFFFFFFFFFFFFFFFFFFFFFFF AND DUP2 MSTORE PUSH1 0x20 ADD SWAP1 DUP2 MSTORE PUSH1 0x20 ADD PUSH1 0x0 KECCAK256 PUSH1 0x0 DUP5 PUSH20 0xFFFFFFFFFFFFFFFFFFFFFFFFFFFFFFFFFFFFFFFF AND PUSH20 0xFFFFFFFFFFFFFFFFFFFFFFFFFFFFFFFFFFFFFFFF AND DUP2 MSTORE PUSH1 0x20 ADD SWAP1 DUP2 MSTORE PUSH1 0x20 ADD PUSH1 0x0 KECCAK256 DUP2 SWAP1 SSTORE POP DUP2 PUSH20 0xFFFFFFFFFFFFFFFFFFFFFFFFFFFFFFFFFFFFFFFF AND DUP4 PUSH20 0xFFFFFFFFFFFFFFFFFFFFFFFFFFFFFFFFFFFFFFFF AND PUSH32 0x8C5BE1E5EBEC7D5BD14F71427D1E84F3DD0314C0F7B2291E5B200AC8C7C3B925 DUP4 PUSH1 0x40 MLOAD DUP1 DUP3 DUP2 MSTORE PUSH1 0x20 ADD SWAP2 POP POP PUSH1 0x40 MLOAD DUP1 SWAP2 SUB SWAP1 LOG3 POP POP POP JUMP JUMPDEST PUSH1 0x0 PUSH20 0xFFFFFFFFFFFFFFFFFFFFFFFFFFFFFFFFFFFFFFFF AND DUP4 PUSH20 0xFFFFFFFFFFFFFFFFFFFFFFFFFFFFFFFFFFFFFFFF AND EQ ISZERO PUSH2 0x1C66 JUMPI PUSH1 0x40 MLOAD PUSH32 0x8C379A000000000000000000000000000000000000000000000000000000000 DUP2 MSTORE PUSH1 0x4 ADD DUP1 DUP1 PUSH1 0x20 ADD DUP3 DUP2 SUB DUP3 MSTORE PUSH1 0x25 DUP2 MSTORE PUSH1 0x20 ADD DUP1 PUSH2 0x2353 PUSH1 0x25 SWAP2 CODECOPY PUSH1 0x40 ADD SWAP2 POP POP PUSH1 0x40 MLOAD DUP1 SWAP2 SUB SWAP1 REVERT JUMPDEST PUSH1 0x0 PUSH20 0xFFFFFFFFFFFFFFFFFFFFFFFFFFFFFFFFFFFFFFFF AND DUP3 PUSH20 0xFFFFFFFFFFFFFFFFFFFFFFFFFFFFFFFFFFFFFFFF AND EQ ISZERO PUSH2 0x1CEC JUMPI PUSH1 0x40 MLOAD PUSH32 0x8C379A000000000000000000000000000000000000000000000000000000000 DUP2 MSTORE PUSH1 0x4 ADD DUP1 DUP1 PUSH1 0x20 ADD DUP3 DUP2 SUB DUP3 MSTORE PUSH1 0x23 DUP2 MSTORE PUSH1 0x20 ADD DUP1 PUSH2 0x22EA PUSH1 0x23 SWAP2 CODECOPY PUSH1 0x40 ADD SWAP2 POP POP PUSH1 0x40 MLOAD DUP1 SWAP2 SUB SWAP1 REVERT JUMPDEST PUSH2 0x1D57 DUP2 PUSH1 0x40 MLOAD DUP1 PUSH1 0x60 ADD PUSH1 0x40 MSTORE DUP1 PUSH1 0x26 DUP2 MSTORE PUSH1 0x20 ADD PUSH2 0x2238 PUSH1 0x26 SWAP2 CODECOPY PUSH1 0x0 DUP1 DUP8 PUSH20 0xFFFFFFFFFFFFFFFFFFFFFFFFFFFFFFFFFFFFFFFF AND PUSH20 0xFFFFFFFFFFFFFFFFFFFFFFFFFFFFFFFFFFFFFFFF AND DUP2 MSTORE PUSH1 0x20 ADD SWAP1 DUP2 MSTORE PUSH1 0x20 ADD PUSH1 0x0 KECCAK256 SLOAD PUSH2 0x1E96 SWAP1 SWAP3 SWAP2 SWAP1 PUSH4 0xFFFFFFFF AND JUMP JUMPDEST PUSH1 0x0 DUP1 DUP6 PUSH20 0xFFFFFFFFFFFFFFFFFFFFFFFFFFFFFFFFFFFFFFFF AND PUSH20 0xFFFFFFFFFFFFFFFFFFFFFFFFFFFFFFFFFFFFFFFF AND DUP2 MSTORE PUSH1 0x20 ADD SWAP1 DUP2 MSTORE PUSH1 0x20 ADD PUSH1 0x0 KECCAK256 DUP2 SWAP1 SSTORE POP PUSH2 0x1DEA DUP2 PUSH1 0x0 DUP1 DUP6 PUSH20 0xFFFFFFFFFFFFFFFFFFFFFFFFFFFFFFFFFFFFFFFF AND PUSH20 0xFFFFFFFFFFFFFFFFFFFFFFFFFFFFFFFFFFFFFFFF AND DUP2 MSTORE PUSH1 0x20 ADD SWAP1 DUP2 MSTORE PUSH1 0x20 ADD PUSH1 0x0 KECCAK256 SLOAD PUSH2 0x1FA0 SWAP1 SWAP2 SWAP1 PUSH4 0xFFFFFFFF AND JUMP JUMPDEST PUSH1 0x0 DUP1 DUP5 PUSH20 0xFFFFFFFFFFFFFFFFFFFFFFFFFFFFFFFFFFFFFFFF AND PUSH20 0xFFFFFFFFFFFFFFFFFFFFFFFFFFFFFFFFFFFFFFFF AND DUP2 MSTORE PUSH1 0x20 ADD SWAP1 DUP2 MSTORE PUSH1 0x20 ADD PUSH1 0x0 KECCAK256 DUP2 SWAP1 SSTORE POP DUP2 PUSH20 0xFFFFFFFFFFFFFFFFFFFFFFFFFFFFFFFFFFFFFFFF AND DUP4 PUSH20 0xFFFFFFFFFFFFFFFFFFFFFFFFFFFFFFFFFFFFFFFF AND PUSH32 0xDDF252AD1BE2C89B69C2B068FC378DAA952BA7F163C4A11628F55A4DF523B3EF DUP4 PUSH1 0x40 MLOAD DUP1 DUP3 DUP2 MSTORE PUSH1 0x20 ADD SWAP2 POP POP PUSH1 0x40 MLOAD DUP1 SWAP2 SUB SWAP1 LOG3 POP POP POP JUMP JUMPDEST PUSH1 0x0 DUP4 DUP4 GT ISZERO DUP3 SWAP1 PUSH2 0x1F43 JUMPI PUSH1 0x40 MLOAD PUSH32 0x8C379A000000000000000000000000000000000000000000000000000000000 DUP2 MSTORE PUSH1 0x4 ADD DUP1 DUP1 PUSH1 0x20 ADD DUP3 DUP2 SUB DUP3 MSTORE DUP4 DUP2 DUP2 MLOAD DUP2 MSTORE PUSH1 0x20 ADD SWAP2 POP DUP1 MLOAD SWAP1 PUSH1 0x20 ADD SWAP1 DUP1 DUP4 DUP4 PUSH1 0x0 JUMPDEST DUP4 DUP2 LT ISZERO PUSH2 0x1F08 JUMPI DUP1 DUP3 ADD MLOAD DUP2 DUP5 ADD MSTORE PUSH1 0x20 DUP2 ADD SWAP1 POP PUSH2 0x1EED JUMP JUMPDEST POP POP POP POP SWAP1 POP SWAP1 DUP2 ADD SWAP1 PUSH1 0x1F AND DUP1 ISZERO PUSH2 0x1F35 JUMPI DUP1 DUP3 SUB DUP1 MLOAD PUSH1 0x1 DUP4 PUSH1 0x20 SUB PUSH2 0x100 EXP SUB NOT AND DUP2 MSTORE PUSH1 0x20 ADD SWAP2 POP JUMPDEST POP SWAP3 POP POP POP PUSH1 0x40 MLOAD DUP1 SWAP2 SUB SWAP1 REVERT JUMPDEST POP PUSH1 0x0 DUP4 DUP6 SUB SWAP1 POP DUP1 SWAP2 POP POP SWAP4 SWAP3 POP POP POP JUMP JUMPDEST PUSH1 0x0 PUSH2 0x1F98 DUP4 DUP4 PUSH1 0x40 MLOAD DUP1 PUSH1 0x40 ADD PUSH1 0x40 MSTORE DUP1 PUSH1 0x1E DUP2 MSTORE PUSH1 0x20 ADD PUSH32 0x536166654D6174683A205375627472616374696F6E206F766572666C6F770000 DUP2 MSTORE POP PUSH2 0x1E96 JUMP JUMPDEST SWAP1 POP SWAP3 SWAP2 POP POP JUMP JUMPDEST PUSH1 0x0 DUP1 DUP3 DUP5 ADD SWAP1 POP DUP4 DUP2 LT ISZERO PUSH2 0x201E JUMPI PUSH1 0x40 MLOAD PUSH32 0x8C379A000000000000000000000000000000000000000000000000000000000 DUP2 MSTORE PUSH1 0x4 ADD DUP1 DUP1 PUSH1 0x20 ADD DUP3 DUP2 SUB DUP3 MSTORE PUSH1 0x1B DUP2 MSTORE PUSH1 0x20 ADD DUP1 PUSH32 0x536166654D6174683A204164646974696F6E206F766572666C6F770000000000 DUP2 MSTORE POP PUSH1 0x20 ADD SWAP2 POP POP PUSH1 0x40 MLOAD DUP1 SWAP2 SUB SWAP1 REVERT JUMPDEST DUP1 SWAP2 POP POP SWAP3 SWAP2 POP POP JUMP JUMPDEST PUSH2 0x2032 DUP3 DUP3 PUSH2 0x15B1 JUMP JUMPDEST PUSH2 0x2087 JUMPI PUSH1 0x40 MLOAD PUSH32 0x8C379A000000000000000000000000000000000000000000000000000000000 DUP2 MSTORE PUSH1 0x4 ADD DUP1 DUP1 PUSH1 0x20 ADD DUP3 DUP2 SUB DUP3 MSTORE PUSH1 0x21 DUP2 MSTORE PUSH1 0x20 ADD DUP1 PUSH2 0x22A8 PUSH1 0x21 SWAP2 CODECOPY PUSH1 0x40 ADD SWAP2 POP POP PUSH1 0x40 MLOAD DUP1 SWAP2 SUB SWAP1 REVERT JUMPDEST PUSH1 0x0 DUP3 PUSH1 0x0 ADD PUSH1 0x0 DUP4 PUSH20 0xFFFFFFFFFFFFFFFFFFFFFFFFFFFFFFFFFFFFFFFF AND PUSH20 0xFFFFFFFFFFFFFFFFFFFFFFFFFFFFFFFFFFFFFFFF AND DUP2 MSTORE PUSH1 0x20 ADD SWAP1 DUP2 MSTORE PUSH1 0x20 ADD PUSH1 0x0 KECCAK256 PUSH1 0x0 PUSH2 0x100 EXP DUP2 SLOAD DUP2 PUSH1 0xFF MUL NOT AND SWAP1 DUP4 ISZERO ISZERO MUL OR SWAP1 SSTORE POP POP POP JUMP JUMPDEST PUSH2 0x20EF DUP3 DUP3 PUSH2 0x15B1 JUMP JUMPDEST ISZERO PUSH2 0x2162 JUMPI PUSH1 0x40 MLOAD PUSH32 0x8C379A000000000000000000000000000000000000000000000000000000000 DUP2 MSTORE PUSH1 0x4 ADD DUP1 DUP1 PUSH1 0x20 ADD DUP3 DUP2 SUB DUP3 MSTORE PUSH1 0x1F DUP2 MSTORE PUSH1 0x20 ADD DUP1 PUSH32 0x526F6C65733A204163636F756E7420616C72656164792068617320726F6C6500 DUP2 MSTORE POP PUSH1 0x20 ADD SWAP2 POP POP PUSH1 0x40 MLOAD DUP1 SWAP2 SUB SWAP1 REVERT JUMPDEST PUSH1 0x1 DUP3 PUSH1 0x0 ADD PUSH1 0x0 DUP4 PUSH20 0xFFFFFFFFFFFFFFFFFFFFFFFFFFFFFFFFFFFFFFFF AND PUSH20 0xFFFFFFFFFFFFFFFFFFFFFFFFFFFFFFFFFFFFFFFF AND DUP2 MSTORE PUSH1 0x20 ADD SWAP1 DUP2 MSTORE PUSH1 0x20 ADD PUSH1 0x0 KECCAK256 PUSH1 0x0 PUSH2 0x100 EXP DUP2 SLOAD DUP2 PUSH1 0xFF MUL NOT AND SWAP1 DUP4 ISZERO ISZERO MUL OR SWAP1 SSTORE POP POP POP JUMP INVALID TIMESTAMP SLOAD MSTORE8 ORIGIN ADDRESS GASPRICE KECCAK256 TIMESTAMP PUSH22 0x726E20616D6F756E7420657863656564732062616C61 PUSH15 0x6365506175736572526F6C653A2043 PUSH2 0x6C6C PUSH6 0x7220646F6573 KECCAK256 PUSH15 0x6F7420686176652074686520506175 PUSH20 0x657220726F6C6542545332303A20446563726561 PUSH20 0x656420616C6C6F77616E63652062656C6F77207A PUSH6 0x726F42545332 ADDRESS GASPRICE KECCAK256 SLOAD PUSH19 0x616E7366657220616D6F756E74206578636565 PUSH5 0x732062616C PUSH2 0x6E63 PUSH6 0x42545332303A KECCAK256 SLOAD PUSH19 0x616E7366657220616D6F756E74206578636565 PUSH5 0x7320616C6C PUSH16 0x77616E636542545332303A2041707072 PUSH16 0x766520746F20746865207A65726F2061 PUSH5 0x6472657373 MSTORE PUSH16 0x6C65733A204163636F756E7420646F65 PUSH20 0x206E6F74206861766520726F6C6542545332303A KECCAK256 TIMESTAMP PUSH22 0x726E2066726F6D20746865207A65726F206164647265 PUSH20 0x7342545332303A205472616E7366657220746F20 PUSH21 0x6865207A65726F2061646472657373526F6C65733A KECCAK256 COINBASE PUSH4 0x636F756E PUSH21 0x20697320746865207A65726F206164647265737342 SLOAD MSTORE8 ORIGIN ADDRESS GASPRICE KECCAK256 COINBASE PUSH17 0x70726F76652066726F6D20746865207A65 PUSH19 0x6F206164647265737342545332303A20547261 PUSH15 0x736665722066726F6D20746865207A PUSH6 0x726F20616464 PUSH19 0x657373A265627A7A72315820DFD49232F2D937 0x29 0x27 SWAP15 SELFDESTRUCT 0xDE 0xAF PUSH15 0xEDC99132E4037968736DD2DC091B82 SWAP13 SWAP3 STATICCALL PUSH5 0x736F6C6343 STOP SDIV GT STOP ORIGIN MSTORE PUSH16 0x6C65733A204163636F756E7420697320 PUSH21 0x6865207A65726F2061646472657373000000000000 "
				},
				"gasEstimates": {
					"creation": {
						"codeDepositCost": "1826400",
						"executionCost": "infinite",
						"totalCost": "infinite"
					},
					"external": {
						"ERR_INVALID_ZERO_VALUE()": "250",
						"ERR_NO_ERROR()": "250",
						"addPauser(address)": "infinite",
						"allowance(address,address)": "1453",
						"approve(address,uint256)": "infinite",
						"balanceOf(address)": "1285",
						"decimals()": "1084",
						"decreaseAllowance(address,uint256)": "infinite",
						"deposit()": "infinite",
						"increaseAllowance(address,uint256)": "infinite",
						"isPauser(address)": "infinite",
						"name()": "infinite",
						"pause()": "infinite",
						"paused()": "1084",
						"renouncePauser()": "infinite",
						"symbol()": "infinite",
						"totalSupply()": "1081",
						"transfer(address,uint256)": "infinite",
						"transferFrom(address,address,uint256)": "infinite",
						"unpause()": "infinite",
						"withdraw(uint256)": "infinite"
					}
				},
				"methodIdentifiers": {
					"ERR_INVALID_ZERO_VALUE()": "6d7497b3",
					"ERR_NO_ERROR()": "35052d6e",
					"addPauser(address)": "82dc1ec4",
					"allowance(address,address)": "dd62ed3e",
					"approve(address,uint256)": "095ea7b3",
					"balanceOf(address)": "70a08231",
					"decimals()": "313ce567",
					"decreaseAllowance(address,uint256)": "a457c2d7",
					"deposit()": "d0e30db0",
					"increaseAllowance(address,uint256)": "39509351",
					"isPauser(address)": "46fbf68e",
					"name()": "06fdde03",
					"pause()": "8456cb59",
					"paused()": "5c975abb",
					"renouncePauser()": "6ef8d66d",
					"symbol()": "95d89b41",
					"totalSupply()": "18160ddd",
					"transfer(address,uint256)": "a9059cbb",
					"transferFrom(address,address,uint256)": "23b872dd",
					"unpause()": "3f4ba83a",
					"withdraw(uint256)": "2e1a7d4d"
				}
			},
			"storageLayout": {
				"storage": [
					{
						"astId": 555,
						"contract": "contracts/WrappedBTN.sol:WrappedBTN",
						"label": "_balances",
						"offset": 0,
						"slot": "0",
						"type": "t_mapping(t_address,t_uint256)"
					},
					{
						"astId": 561,
						"contract": "contracts/WrappedBTN.sol:WrappedBTN",
						"label": "_allowances",
						"offset": 0,
						"slot": "1",
						"type": "t_mapping(t_address,t_mapping(t_address,t_uint256))"
					},
					{
						"astId": 563,
						"contract": "contracts/WrappedBTN.sol:WrappedBTN",
						"label": "_totalSupply",
						"offset": 0,
						"slot": "2",
						"type": "t_uint256"
					},
					{
						"astId": 948,
						"contract": "contracts/WrappedBTN.sol:WrappedBTN",
						"label": "_name",
						"offset": 0,
						"slot": "3",
						"type": "t_string_storage"
					},
					{
						"astId": 950,
						"contract": "contracts/WrappedBTN.sol:WrappedBTN",
						"label": "_symbol",
						"offset": 0,
						"slot": "4",
						"type": "t_string_storage"
					},
					{
						"astId": 952,
						"contract": "contracts/WrappedBTN.sol:WrappedBTN",
						"label": "_decimals",
						"offset": 0,
						"slot": "5",
						"type": "t_uint8"
					},
					{
						"astId": 120,
						"contract": "contracts/WrappedBTN.sol:WrappedBTN",
						"label": "_pausers",
						"offset": 0,
						"slot": "6",
						"type": "t_struct(Role)31_storage"
					},
					{
						"astId": 222,
						"contract": "contracts/WrappedBTN.sol:WrappedBTN",
						"label": "_paused",
						"offset": 0,
						"slot": "7",
						"type": "t_bool"
					}
				],
				"types": {
					"t_address": {
						"encoding": "inplace",
						"label": "address",
						"numberOfBytes": "20"
					},
					"t_bool": {
						"encoding": "inplace",
						"label": "bool",
						"numberOfBytes": "1"
					},
					"t_mapping(t_address,t_bool)": {
						"encoding": "mapping",
						"key": "t_address",
						"label": "mapping(address => bool)",
						"numberOfBytes": "32",
						"value": "t_bool"
					},
					"t_mapping(t_address,t_mapping(t_address,t_uint256))": {
						"encoding": "mapping",
						"key": "t_address",
						"label": "mapping(address => mapping(address => uint256))",
						"numberOfBytes": "32",
						"value": "t_mapping(t_address,t_uint256)"
					},
					"t_mapping(t_address,t_uint256)": {
						"encoding": "mapping",
						"key": "t_address",
						"label": "mapping(address => uint256)",
						"numberOfBytes": "32",
						"value": "t_uint256"
					},
					"t_string_storage": {
						"encoding": "bytes",
						"label": "string",
						"numberOfBytes": "32"
					},
					"t_struct(Role)31_storage": {
						"encoding": "inplace",
						"label": "struct Roles.Role",
						"members": [
							{
								"astId": 30,
								"contract": "contracts/WrappedBTN.sol:WrappedBTN",
								"label": "bearer",
								"offset": 0,
								"slot": "0",
								"type": "t_mapping(t_address,t_bool)"
							}
						],
						"numberOfBytes": "32"
					},
					"t_uint256": {
						"encoding": "inplace",
						"label": "uint256",
						"numberOfBytes": "32"
					},
					"t_uint8": {
						"encoding": "inplace",
						"label": "uint8",
						"numberOfBytes": "1"
					}
				}
			},
			"userdoc": {
				"methods": {}
			}
		}
	}
}